:020000040800F2
:1000000080990020E1020008ED020008ED020008DE
:10001000ED020008ED020008ED02000800000000FB
:10002000000000000000000000000000ED020008D9
:10003000ED02000800000000ED020008ED020008DB
:10004000ED0200089D180008ED020008ED0200080E
:10005000ED020008ED020008ED020008ED020008C4
:10006000ED02000800000000000000000000000099
:10007000ED02000800000000ED020008ED0200089B
:10008000ED020008ED02000839570008ED020008F3
:10009000ED020008ED020008ED020008ED02000884
:1000A000ED020008ED020008ED020008ED02000874
:1000B000ED020008ED020008ED020008ED02000864
:1000C000ED020008ED020008ED020008ED02000854
:1000D000ED020008ED020008ED020008ED02000844
:1000E000ED020008ED020008ED020008ED02000834
:1000F000ED020008ED020008DD0A0008ED0200082C
:10010000ED020008ED020008ED020008ED02000813
:10011000ED020008ED020008ED020008ED02000803
:10012000ED020008ED020008950C0008ED02000841
:10013000ED020008ED020008ED020008ED020008E3
:10014000ED020008ED020008ED020008ED020008D3
:10015000ED020008ED020008ED020008ED020008C3
:10016000ED020008ED020008ED020008ED020008B3
:10017000ED020008ED020008ED020008ED020008A3
:10018000ED020008ED020008ED020008ED02000893
:1001900051560008AD560008ED020008C55600088B
:1001A000ED020008C7560008ED020008ED02000845
:1001B000ED020008C9560008CD560008ED020008FF
:1001C000000000000000000000000000000000002F
:1001D0000000000000000000ED0200080000000028
:1001E000ED0200089D1D000800000000ED0200085F
:1001F00000000000000000000000000000000000FF
:1002000000F002F800F05CF80AA090E8000C8244CC
:100210008344AAF10107DA4501D100F051F8AFF2A9
:10022000090EBAE80F0013F0010F18BFFB1A43F0D4
:100230000103184788340200A83402000A444FF032
:10024000000C10F8013B13F0070408BF10F8014B35
:100250001D1108BF10F8015B641E05D010F8016B7A
:10026000641E01F8016BF9D113F0080F1EBF10F8DE
:10027000014BAD1C0C1B09D16D1E58BF01F801CB01
:10028000FAD505E014F8016B01F8016B6D1EF9D584
:100290009142D6D370470000002300240025002699
:1002A000103A28BF78C1FBD8520728BF30C148BFD9
:1002B0000B6070471FB51FF0D3FE1FBD10B510BDFA
:1002C00000F018FA1146FFF7F5FF10F00BFE00F0F2
:1002D00036FA03B4FFF7F2FF03BC00F03DFA00006A
:1002E000DFF818D00648804706480047FEE70000C0
:1002F00005480649064A074B7047000080990020D0
:10030000B555000801020008808F00208099002068
:1003100080910020809100209FED1A1AF5EE000ACE
:1003200040EE010ABDEEE00AF5EEC00A10EE100A3A
:10033000F1EE10FA38BF401E00EE100A1349F7EE36
:10034000001AB8EEC00A30EEC00ADFED0F0A20EE48
:10035000200AFCEEC00A10EE900AC0F3080000EE7E
:10036000900A01EB8000F8EE600A90ED011A70EE41
:10037000600A90ED000A71EEE01A21EE800A00EEAC
:10038000810A704783F9223E00000044B82E02081B
:10039000B5EEC00AF1EE10FA07D2DFED1E0AB4EE98
:1003A000E00AF1EE10FAA8BF7047DFED1B0AB5EEC8
:1003B000C00A60EE200ABDEEE01A11EE100AF1EE5E
:1003C00010FA38BF401E00EE100A1549F7EE001A69
:1003D000B8EEC00A30EEC00ADFED100A60EE200A67
:1003E000BCEEE00A10EE100AC0F3080000EE100A9E
:1003F00001EB8000B8EE400A90ED011A70EEC00AE1
:1004000090ED000A71EEE01A21EE800A00EE810AFA
:1004100070470000CD024CB483F9223E0000004436
:10042000B82E020810B54C1084EA530404D540429B
:10043000C1F1000138BF491E1B4204D55242C3F12D
:10044000000338BF5B1E00F0DEF814F0804F04D0CC
:100450004042C1F1000138BF491E14F0004F04D0E2
:100460005242C3F1000338BF5B1E10BD40EA0103D6
:1004700010B59B070FD1042A0DD310C808C9121F4D
:100480009C42F8D020BA19BA884201D9012010BD87
:100490004FF0FF3010BD1AB1D30703D0521C07E054
:1004A000002010BD10F8013B11F8014B1B1B07D1B8
:1004B00010F8013B11F8014B1B1B01D1921EF1D129
:1004C000184610BD032A40F2308010F0030C00F0F3
:1004D000158011F8013BBCF1020F624498BF11F87E
:1004E00001CB00F8013B38BF11F8013BA2F1040237
:1004F00098BF00F801CB38BF00F8013B11F00303AF
:1005000000F02580083AC0F0088051F8043B083A12
:1005100051F804CBA0E80810F5E7121D5CBF51F8B4
:10052000043B40F8043BAFF30080D20724BF11F82E
:10053000013B11F801CB48BF11F8012B24BF00F893
:10054000013B00F801CB48BF00F8012B704710B504
:10055000203AC0F00B80B1E81850203AA0E81850BB
:10056000B1E81850A0E81850BFF4F5AF5FEA027C7C
:1005700024BFB1E81850A0E8185044BF18C918C0EB
:10058000BDE810405FEA827C24BF51F8043B40F88C
:10059000043B08BF7047D20728BF31F8023B48BF71
:1005A00011F8012B28BF20F8023B48BF00F8012BAF
:1005B00070474FF0000200B5134694469646203926
:1005C00022BFA0E80C50A0E80C50B1F12001BFF40C
:1005D000F7AF090728BFA0E80C5048BF0CC05DF872
:1005E00004EB890028BF40F8042B08BF704748BFC0
:1005F00020F8022B11F0804F18BF00F8012B704734
:1006000070477047704753EA020C00F069802DE98B
:10061000F04B4FF00006002B1FBFB3FA83F503FA2F
:1006200005F424FA05F65E4012BF1643B2FA82F5CD
:1006300002FA05F4C5F120051EBF22FA05FC44EAC2
:100640000C04203556EA044C4FEA144418BF641CCD
:100650004FF000084FF00009904271EB030C39D3C2
:10066000002919BFB1FA81F701FA07F6B0FA80F74D
:1006700000FA07F6C7F120071EBF20FA07FC46EA7A
:100680000C062037B6FBF4FCA7EB0507103F07F07C
:100690001F0BCBF120060CFA0BFB2CFA06F644BF1D
:1006A000B3460026202FA4BF5E464FF0000B5BEA46
:1006B000060C08BF4FF0010B19EB0B09ABFB027CDA
:1006C00048EB0608C01B06FB02CC0BFB03CC71EB0E
:1006D0000C01C1E70B46024641464846BDE8F08B97
:1006E00013B54FF000004FF00001AFF30080BDE8FC
:1006F0001C407047754600F02BF8AE460500694671
:10070000534620F00700854618B020B5FFF7F0FDEE
:10071000BDE820404FF000064FF000074FF0000802
:100720004FF0000B21F00701AC46ACE8C009ACE883
:10073000C009ACE8C009ACE8C0098D46704710B5E7
:100740000446AFF300802046BDE81040FFF7C1BD6E
:10075000004870471C8F002001491820ABBEFEE7FF
:10076000260002007047000091F0000F04BF6FF0F8
:100770000040704710B54FF0010E90EA010F48BFDE
:100780004FF0000E002848BF4042002948BF4942B0
:10079000B0FA80F40A2CA8BF0A2400FA04F2C4F1CB
:1007A0000A0CB2FBF1F0B0FA80F39C45A4BFCEF185
:1007B000004010BD01FB1022B2FA82F464450EDA4B
:1007C000ACEB040C02FA04F200FA04F0B2FBF1F311
:1007D00001FB13221844B2FA82F46445F0DD02FAF8
:1007E0000CF200FA0CF0B2FBF1F318449EF0000F8B
:1007F00008BF404210BD000080FB01014FEA90207D
:1008000000EB815070470000B0FA80F303F01F0244
:1008100042B300FA03F000B54FEA9052134951F881
:100820002210A0FB01E2A2FB01E2C2F14042A2FBC6
:1008300001E14FEA4101A0FB01E2A2FB01E2C2F1AA
:100840004042A2FB01E14FEA4101A0FB01E003F1BC
:1008500014035B1024BF064AA2FB0010D84040F1ED
:10086000000000BD4FF000007047000060F001087C
:1008700034F304B591F0000F04BF6FF000407047EF
:1008800010B54FF0010E90EA010F48BF4FF0000E77
:10089000002848BF4042002948BF4942B0FA80F4CE
:1008A000142CA8BF142400FA04F2C4F1140CB2FBF7
:1008B000F1F0B0FA80F39C45A4BFCEF1004010BD2A
:1008C00001FB1022B2FA82F464450EDAACEB040CA0
:1008D00002FA04F200FA04F0B2FBF1F301FB132276
:1008E0001844B2FA82F46445F0DD02FA0CF200FA20
:1008F0000CF0B2FBF1F318449EF0000F08BF404229
:1009000010BD000080FB01014FEA105000EB0130E8
:100910007047000043F65951024A1180024A118083
:1009200070470000160E0020FC0A00202DE9F0415F
:1009300004460027D4F89080206801F01FFA07468B
:10094000002F5BD1D4E9010105F03BFA6068016832
:1009500041F04001016000BF6068016841F00101A1
:10096000016000BF94F8A700012806D16068C16843
:1009700041F48071C16000BF10E08434D4E90532D5
:100980001979186806F0BCF854F8800C217F843C73
:10099000C26861F30202C26000BF00BF204600F0DF
:1009A00057F800250EE004F10C0050F8256032796C
:1009B00094F8A1102368586805F0D8F8304600F084
:1009C00021F86D1C94F8A200A842ECD86068016878
:1009D00021F04001016000BF6068016821F0010161
:1009E000016000BF94F8A70048B998F80410D4F843
:1009F0009420D8F8000006F083F800E0012738467C
:100A0000BDE8F08110B50446206805F043F9E079AF
:100A100001280CD162790421206805F09DF900BFFE
:100A20004FF40031206805F091F900BF00BF207A33
:100A300001280CD1A2790021206805F08DF900BFB2
:100A40004FF48031206805F081F900BF00BF10BD70
:100A500070B504460025204600F020F894F8A40064
:100A6000012801D145F0020594F8A300012801D125
:100A700045F0040594F8A500012801D145F00805CA
:100A80002946606805F092F994F8A600012804D17F
:100A90004FF48001606805F089F970BD10B5044617
:100AA000D4F88C100A780021606805F02CFAD4F88C
:100AB0008C104A780421606805F025FAD4F88C106F
:100AC0008A780821606805F01EFAD4F88C10CA787C
:100AD0000C21606805F017FA10BD000010B5002069
:100AE0005A490968012282401143584AB03AC2F873
:100AF000B01000BF5648007801287DD110F072FB7D
:100B00005448006810B15349086880470C21524886
:100B100005F0E3FF70B951480088401C4F49088038
:100B2000084600880A280ADB0020088001204C497A
:100B3000087004E000204949088049490870494884
:100B400090ED050A20EE000AD0ED040A90ED041A9B
:100B500000EE810A444880ED000A90ED000ADFEDC6
:100B6000430AB4EEE00AF1EE10FA1DDB404890EDC6
:100B7000030AB0EEC00ADFED3F0AB4EEE00AF1EE80
:100B800010FA11DB3C480088401C3B4908800846AD
:100B90000088B0F57A7F0ADB0020088003F02EFE83
:100BA00001203649087002E00020334908802E48B1
:100BB00090ED000ADFED2F0AB4EEE00AF1EE10FA34
:100BC0001FDD2B4890ED030AB0EEC00ADFED290AC5
:100BD000B4EEE00AF1EE10FA13D229480088401C66
:100BE0002749088008460088B0F5FA6F0CDB002022
:100BF000088003F003FE00E023E001202149087093
:100C000002E000201E490880194890ED030AB0EE6A
:100C1000C00ADFED1D0AB4EEE00AF1EE10FA11DDB4
:100C20001A480088401C1949088008460088B0F519
:100C30007A7F0ADB0020088003F0E0FD01201449E0
:100C4000087002E000201149088010BDB0C30040C8
:100C500031090020108D0020008E02485809002024
:100C60005009002064090020800800200000A242F2
:100C70001C8D00200000C8425A09002051090020A4
:100C80005C0900205209002000409C455E090020BC
:100C90005309002010B50020104909680122824044
:100CA000114009B1012100E0002161B100200B4990
:100CB00010310968012282401143084AA03AC2F863
:100CC000B01000BF00BF0648408818B904F060FAB1
:100CD000034948800BF0A4FB10BD0000A04400486D
:100CE000E404002010B50021904805F069F90021C6
:100CF0008F4805F065F98D4805F04CFA8C4805F0F1
:100D000049FA0021894805F03DFA0021884805F09C
:100D100039FA8849884805F08EF988480068C00883
:100D20004FF4FA61B0FBF1F0401E84B221468248D4
:100D300005F021FA0021804805F012FA4FF4807185
:100D40007A4805F03BF9022200217B4805F0DBF9E7
:100D500000207949A4310968012282401143764A72
:100D6000C2F8A41000BF2E20754A9178002804DB39
:100D70008A06130E734A135406E08A06140E724A4A
:100D800000F00F031B1FD45400BF2E20002809DBE6
:100D900000F01F02012191404209920002F1E0227D
:100DA000C2F8001100BF0221604805F0B6F800BF8C
:100DB00001206149C86000BF6449654805F03BF9FE
:100DC0006249644805F037F96049634805F033F932
:100DD0005E49624805F02FF96149624805F013F950
:100DE0005F49614805F00FF94FF6FF71584805F06B
:100DF000C2F941F63F71574805F0BDF90321564845
:100E000005F0B9F90321554805F0B5F91121474816
:100E100005F0D4F81121464805F0D0F801214C48DE
:100E200005F050F902214A4805F054F901214948DA
:100E300005F048F90221474805F04CF901214948DD
:100E400005F0D1F80121474805F0D5F801214648C1
:100E500005F0C9F80121444805F0CDF801213E48CC
:100E600005F030F901213D4805F02CF93F4A0121F8
:100E7000374805F0F8F83E4A0221354805F0F3F806
:100E80003A4A0121334805F0EEF8394A0221314847
:100E900005F0E9F8374A01212F4805F0E4F8354A12
:100EA00001212E4805F0DFF8334A01212D4805F0D5
:100EB000DAF8314A02212B4805F0D5F82E4A0121F3
:100EC000294805F0D0F82C4A0221274805F0CBF834
:100ED0000221214805F042F90221204805F03EF99F
:100EE0001021124805F06AF81021114805F066F843
:100EF00000210E4805F011F801210C4805F00DF80D
:100F000002210A4805F009F80321084805F005F810
:100F10000021074805F001F80121054804F0FDFF14
:100F20000221034804F0F9FF10BD000000C000409A
:100F300000000140600E002000C30040C0FF002000
:100F4000E407002000E400E018ED00E02C0E002093
:100F500000C100400001014000C200400002014009
:100F6000340E002000C40040000301403C0E00206D
:100F7000400E0020480E00204C0E002010B5A64A5E
:100F80000121A64805F0BCFD012001218140A34AB2
:100F9000516000BF0021A24805F036F90021A148A8
:100FA00005F032F99E4805F0F1F99E4805F0EEF99A
:100FB00000219B4805F0E2F900219A4805F0DEF98E
:100FC00099499A4805F033F99749994805F02FF95E
:100FD0009549984805F02BF99349974805F027F96A
:100FE0009649974805F023F941F26F718F4805F053
:100FF000B1F941F26F718E4805F0ACF941F26F71B1
:101000008C4805F0A7F941F26F718B4805F0A2F901
:1010100041F26F718A4805F09DF941F2707200212A
:10102000824805F092F941F270720021804805F083
:101030008CF941F2707200217E4805F086F941F288
:10104000707200217C4805F080F941F27072002135
:101050007B4805F07AF941F270720121764805F07B
:1010600074F90221714805F065F90221704805F014
:1010700061F902216F4805F05DF902216E4805F023
:1010800059F902216E4805F055F90121644805F02F
:10109000B7F81021624805F0B3F84FF4805160486A
:1010A00005F0AEF801215F4805F0AAF810215D486F
:1010B00005F0A6F8634A01215C4805F0D6F8614ABC
:1010C00001215B4805F0D1F85E4A0121594805F03D
:1010D000CCF85C4A0121584805F0C7F8594A01216B
:1010E000574805F0C2F801221146504805F034F97E
:1010F000012211464E4805F02FF9012211464D48B4
:1011000005F02AF9012211464B4805F025F9012284
:1011100011464B4805F020F9012045495C39096822
:10112000012282401143414AC2F8A41000BF0222AA
:1011300001213E4805F0CFF843493C4805F0C4F88A
:1011400041493B4805F0C0F83F493A4805F0BCF832
:101150003E4A05213E4805F0D3FC3C4A02213C486A
:1011600005F0CEFC394A0421394805F0C9FC374A5C
:101170000121374805F0C4FC344A0621344805F003
:10118000BFFC324A0B21324805F0BAFC224A0B213F
:101190002F4805F0B5FC204A01212D4805F0B0FC90
:1011A0001D4A02212A4805F0ABFC284A0F21294894
:1011B00005F0A6FC284A0721284805F0A1FC264A8C
:1011C0000B21244805F09CFC254A0021134805F01A
:1011D00097FC244A06211F4805F092FC0021104884
:1011E00004F0DDFF01210E4804F0D9FF03210C4873
:1011F00004F0D5FF00210B4804F0D1FF012109487C
:1012000004F0CDFF4FF440701749C96C0143164AF2
:10121000D16400BF10BD0000D00A00200084024845
:101220000000024000400240780A00200001024015
:10123000000202400004024000410240880A0020EF
:1012400000420240B00A0020980A0020B80A00209C
:101250000080024800810248C40A0020008502483C
:10126000E80A0020DC0A00200040005070B5044667
:10127000B048006842F6E0610844AE49086008469C
:101280000068AD49096888427ED33FE1A9480068FB
:10129000A9490968401AA74908600020A7490860C1
:1012A000A748B0F9B600A7490968A74A126800FB29
:1012B0000120A349486008464068A3490860A34844
:1012C000007858B39E48B0F9B600A1490968484370
:1012D0009C4909689F4A126800FB012098494860B0
:1012E000084640689B4908600846006896490860BF
:1012F000002099490860994908808E4908609848FB
:10130000008840B900208E4981F8BA008F490870E2
:101310008949086001E000F02FF970BD914800781C
:10132000012871D100208F49087089480068FF2882
:1013300066DB8348B0F8B80085490968091A804817
:10134000D0F8C00081425BDD7D4890ED010AB8EE27
:10135000C00AD0ED050A30EE600ABDEEC00A10EEFC
:10136000100A7749B1F9B61048437649096890FBED
:10137000F1F07D49086008460068643808607048EC
:10138000B0F8B800096800E0C2E0884204DA6C48AE
:10139000B0F8B8007449086073480068002802DAA1
:1013A000002071490860664841686F480068654AD6
:1013B00012685043624AB2F9B62000FB121060492D
:1013C000486008464068604908605D48B0F8B80069
:1013D00065490988401A5A49A1F8B8000846B0F88A
:1013E000BC00624908805648B0F8B810D0F8C00078
:1013F000084457490860084600885D49088003E0B2
:101400004DF2A0005A4908804D48B0F8B800504944
:10141000096888422BDB4A48B0F9B6004949096897
:1014200048434B4909684B4A126800FB0120444974
:1014300048600846406847490860084600684249D5
:10144000086000203E4981F8BA0001204749088021
:101450003B49A1F8B80000203649086037490860C8
:101460003D4908603D490880424908804FE03448C2
:10147000D0F8BC003D49098888420EDC3048B0F8FD
:10148000B810D0F8C000084431490968884204DA2D
:1014900036480088401E354908802948B0F8C80001
:1014A00004EB4001264890F8CA20304800881041DB
:1014B00031F810502248D0F8C4102846FFF79CF9A4
:1014C0001D4908601E48B0F8B800401C1C49A1F82E
:1014D000B80026480088401C244908801548006848
:1014E00015490968884200D310E022480088032883
:1014F0000BD0114801684FF40060FFF7BBF91049A9
:10150000B1F9B61048430D49086000E0BEE600BFDF
:1015100008490968094A126801FB02F0094909688B
:10152000FFF7F0F90849096801EBE0200449486039
:1015300000BFF2E60C0C0020100C0020140C002060
:10154000D00C0020240C00201C0C0020380C0020A3
:10155000180C0020200C0020300C00202A0C002049
:101560002E0C0020390C0020400C0020280C0020FC
:101570003C0C00202C0C00202DE9F8435048018839
:1015800050480088401C814270D04D480088642833
:1015900017D14D480088052812D2DFE800F007086F
:1015A0000903100002204849088009E000BF00BF7D
:1015B0004648006840F004004449086000E000BF6D
:1015C00000BF3F480088C82802DB00203C49088053
:1015D0003F483B49098800EB410000880090BDF876
:1015E0000000C0F387108402394935480088401C48
:1015F00031F81000C0F38710850221462046FFF71E
:10160000FBF8804629462846FFF7F6F808EB000766
:101610003846FFF7F9F80646BDF8000000F03F0431
:101620002B4927480088401C11F8100000F03F05A6
:1016300004EB8510411C3046FFF7DEF825490860B1
:101640000846006881024FF44800FFF78DF82249F0
:101650000860BDF80000C0F3871020490860BDF89D
:101660000000C0F3803010B9012002E01CE04FF010
:10167000FF301B49A1F8B600164800684FF4FA7114
:1016800048431849086015480068134909684843E9
:101690001349B1F9B6104843134908600848008857
:1016A000801C0749088009E000200D4981F8BA0034
:1016B0000E4908700B49086001490880BDE8F883AD
:1016C000480C00204A0C00202E0C0020340C002076
:1016D0008C8D00206C0E0020700E0020180C002055
:1016E000D00C0020100C0020140C0020380C00201E
:1016F00070B50346474C24780B2C03D0454C247816
:10170000102C07D1444C24780A2594FBF5F605FBF0
:10171000164213E03F4C24780D2C08D13F4CB4F90D
:1017200000400A2594FBF5F605FB164206E03C4C0A
:1017300024780A2594FBF5F605FB1642B3F5C87F1D
:1017400031DA0A2A2ED2DFE802F005090D11151947
:101750001D2125294FF4DB60252123E040F2F340D1
:1017600023211FE040F2F6301D211BE04FF454709E
:10177000182117E040F2DA20152113E04FF41F7012
:1017800013210FE040F2372011210BE040F2072037
:101790000F2107E040F2D7100E2103E040F27D1048
:1017A0000E2100BF2DE00A2A2AD2DFE802F0050947
:1017B0000D1115191D2023264FF48260FB211FE017
:1017C00040F29720D9211BE040F2E710BB2117E03F
:1017D00040F28310A22113E04FF4A17090210FE09A
:1017E0004FF48B707F210BE0F320742108E0D920A7
:1017F0006A2105E0C320622102E08E20502100BF53
:1018000000BF03FB00F44FF47A75B4FBF5F46018E5
:1018100070BD0000C8000020AB0200208202002042
:10182000AA02002010B502465478210993781C467C
:1018300061F3DF142146802B02DB4C4220B200E032
:1018400008B210BD10B50246547804F00F01D378E9
:101850001C4661F3DF142146802B02DB4C4220B290
:1018600000E008B210BD00000B480088C0F30E0075
:1018700009494988C1F30E01084447F6FF718842BF
:1018800007D10548808845F25551884201D1012091
:1018900070470020FCE70000FE0A002010B51B483E
:1018A000002100F1100252F8212022F0800300F103
:1018B000100242F8213000BF15480078012824D1D9
:1018C0001448B0F90800B0F5AF6F05DD1148B0F964
:1018D0000800B0F5B46F09DD0E48B0F90800002823
:1018E00013DB0C48B0F9080028280EDA0A48006813
:1018F0000A4908800A48806810B109498868804709
:1019000008480078401C0749087010BD0048005086
:10191000320900201C8D002070C1004020090020E9
:10192000108D0020570900202C4800682C49098E92
:10193000401A00B200EE100A294890ED0B1AF8EE9A
:10194000C01A21EE211A274880ED1D1A244890ED77
:101950000D1AF8EEC01A21EE211A224880ED011A64
:1019600090ED011A2048D0ED001A31EE611AF0EE28
:10197000410A1E4890ED001A1D48D0ED001A01EEF4
:10198000A01A1A4880ED001A90ED001A1948D0EDFF
:10199000001A01EEA01A184880ED001A114890EDC7
:1019A000051AD0ED051A144890ED002A72EE611A5E
:1019B0009FED122A02EE211A0A4880ED051A0A4804
:1019C00090ED001A0C48D0ED001A9FED0D2A02EEA2
:1019D000211A054880ED001A70470000700101408F
:1019E000C00B00202C0B0020140A0020200A00202D
:1019F0001C0A0020180A0020240A00208A8EE43DD8
:101A0000AC8BDB3B2DE9F04107460C4615461848E8
:101A1000B0F8C80035F810601548D0F8C41030464A
:101A2000FEF7EAFE13490860084601684FF40060BB
:101A3000FEF720FF0E49B1F9B61048430E49086081
:101A400000200E4908600E49088022460D490E48C4
:101A500002F0A0F90120064981F8BA00084690ED8D
:101A6000360A094880ED0A0A0120BDE8F08100002D
:101A7000D00C0020100C0020140C0020300C002092
:101A80002A0C0020C00B00202C0B002010B52DEDDF
:101A9000028B3D480088012833DA3B480088401C0F
:101AA00039490880394890ED360AF7EE080A20EEE9
:101AB000208A90ED360AF1EE0E0AB4EEE00AF1EE5D
:101AC00010FA05DD90ED360A314880ED0A0A0EE085
:101AD000B1EE0E0AB4EEC08AF1EE10FA02DDB1EEFC
:101AE0000E0A01E0B0EE480A294880ED0A0A9FED8F
:101AF000290A274880ED110A9FED270A80ED1A0A6E
:101B00003FE02148008840F6B831884218DA1E4884
:101B10000088401C1C4908801D4802F0B1FA1C488E
:101B200090ED180A1D4880ED000A194890ED190A39
:101B30001A4880ED010A02F03DFE02F079F820E03B
:101B40001148008840F6B93188421ADA0E480088F8
:101B5000401C0D49088001201149088002F096FEC2
:101B600000BF02200F49086100BF0F480F490268FB
:101B7000074802F00FF9054890ED370A044880ED58
:101B80000A0ABDEC028B10BD680E0020D00C0020AC
:101B90002C0B002000000000D80F49BF080B0020CC
:101BA000040B002000010140240E0020C00B002087
:101BB00030B50324544D6D6AE54005F001050DB9BB
:101BC000012400E000240481504C2488C4F3442301
:101BD0004E4C2488C4F304114C4C247804F00F04B8
:101BE000621C4A4C2488C4F380340CB9012401E0FF
:101BF0004FF0FF346442C4808488062C70D2DFE842
:101C000004F0030E2A3A5870048914B10124848028
:101C100001E00324848000243D4DAC8172E00489FE
:101C2000A4B941814488641C44804488944209D109
:101C3000C488644224B2364DAC81022484800024DE
:101C4000448007E0C488324DAC8103E0C488304D45
:101C5000AC81438156E04181048934B10024048081
:101C6000012484810024848004E0C488644224B276
:101C7000274DAC8146E00489A4B141814488641CAD
:101C800044804488944207D1C488214DAC81042407
:101C90008480002444800BE0C488644224B21C4D3C
:101CA000AC8105E0C488644224B2194DAC81438103
:101CB00028E0418104897CB94488641C44804488BC
:101CC00094420CD1C488644224B2114DAC810524E5
:101CD00084800024448002E0C4880D4DAC8111E072
:101CE0000FE0048934B1002404800124848100249D
:101CF000848005E0C488644224B2054DAC814181F2
:101D000000E000BF00BF30BD00820248540C00203C
:101D1000B40D00201648006848B31548007830B369
:101D20000020144908801248007800F0800018B1A3
:101D30004CF23F00104908800D48007800F0200068
:101D400018B14DF2A5500C4908800948007800F000
:101D5000040018B14CF23E0007490880044800789E
:101D600000F0010018B14DF2A1100349088070473E
:101D7000340C00201E0E0020FC0A002070B5044622
:101D80000025607A012806D0D4E9001003F024FF72
:101D90000120607200BF284670BD000010B50248E7
:101DA00004F092FD10BD0000004001502DE9FF4FEE
:101DB00089B0894692469B46179D35F81A00001D4A
:101DC00084B20AF1010035F81000001D80B20790BE
:101DD000169868B100BF601C84B20798844200DB8B
:101DE00003E035F81460B145F5D200BF601E84B23F
:101DF000EE88A01984B235F814000290A01984B2BC
:101E000035F814000390A01984B235F8140004903A
:101E1000A01984B235F81410049800EB0140049026
:101E2000A01984B235F81400ADF81400A01984B2DA
:101E300035F81400ADF81600BDF8161002980841E8
:101E4000BDF8141005EB410101EB400030F8020C25
:101E50000299A9EB0101039A891A049A00FB012057
:101E600004900498C117CDE900010A488BFB00706B
:101E700080460B4638464146009AFEF7D3FA049056
:101E8000CDF818B0142202A90998FEF760FB0DB036
:101E9000BDE8F08F005307000148B0F90800704713
:101EA0001C8D002010B5FFF7F7FF04460848008896
:101EB000201A04B2002C03DA04F5B46004B205E081
:101EC000B4F5B46F02DDA4F5B46004B2204610BDD1
:101ED000420200200148B0F9040070471C8D002028
:101EE00000487047810C01000246002A05DB0029EA
:101EF00001DB012070470420FCE7002901DB022000
:101F0000F8E70320F6E7F0B503460C4603F00701B7
:101F1000C1F10700062801D9062001E0C1F1070040
:101F20000646881D072801D2002000E0481E05460D
:101F30000120B040401E2040A8400127AF407F1E36
:101F400017403843F0BD0000004870470024F400FB
:101F50002DE9F04782463548B0F900403448B0F9E1
:101F6000005029462046FFF7BFFF00F0FF094FF061
:101F70000008002C01DB204600E060420446002DF2
:101F800001DB284600E068420546E6B2EFB246E0D3
:101F9000B8F1000F22DBB9F1010F09D0B9F1020F3E
:101FA0000FD0B9F1030F0DD0B9F1040F12D100E039
:101FB00000BF002E04DD012005F0FAFC701EC6B241
:101FC00008E000BF002E04DD022005F0F1FC701EC9
:101FD000C6B200BF00BFA8EB050820E0B9F1010FB1
:101FE00009D0B9F1020F07D0B9F1030F0CD0B9F144
:101FF000040F12D109E000BF002F04DD032005F01B
:10200000D7FC781EC7B208E000BF002F04DD042013
:1020100005F0CEFC781EC7B200BF00BFA044002E62
:10202000B6DC002FB4DCBDE8F08700002E010020F4
:102030003001002090ED000AD0ED010A30EE600A78
:1020400080ED020A90ED070AD0ED020A20EE200A88
:1020500080ED0B0A90ED0C0AD0ED080A90ED021A03
:1020600000EE810A80ED0C0A90ED0B0AD0ED0C0A0F
:1020700030EE200A80ED100A90ED100AD0ED050A2E
:10208000B4EEE00AF1EE10FA0EDD90ED050A80EDF7
:10209000110A90ED0C0AD0ED080A90ED021A00EE3C
:1020A000C10A80ED0C0A1BE090ED100AD0ED060A83
:1020B000B4EEE00AF1EE10FA0ED290ED060A80EDD1
:1020C000110A90ED0C0AD0ED080A90ED021A00EE0C
:1020D000C10A80ED0C0A03E090ED100A80ED110AB0
:1020E0007047000001781D4A1180418809B2518073
:1020F000818809B2D1801146B1F90010002901DAB6
:10210000002111801549B1F90010012902DD0121DA
:10211000124A11801149B1F90210002902DA002196
:102120000E4A518006E00D49C988A1F5B46109B293
:102130000A4AD1800949B1F90610B1F5B46FF2DA53
:1021400006E00649C98801F5B46109B2034AD180A5
:102150000249B1F906100029F3DB70471C8D0020FD
:1021600010B59FED1A0A1A4880ED080A0221194895
:1021700004F0B3FC184909684978884203D101206A
:102180001649088002E00020144908800020144904
:102190000870012013490870134908700020134982
:1021A00008701349087013490870134908701349DF
:1021B00008701348006800B2124908801248D0F82D
:1021C000700100B21149088010BD0000000000003D
:1021D0006409002000830248FC8C00201C8D002034
:1021E0003209002024090020330900205009002072
:1021F00051090020520900205309002054090020F1
:1022000070C10040FE07002000C000400008002010
:1022100010B504460D4821880180A1788170002006
:102220000B490870FEF7AAFE00F07EF803F08CFB65
:102230000621084804F0CEFC074A0849084801F086
:10224000F3FF00200749087010BD0000E4070020DC
:102250003109002000810248D00C0020C00B002072
:102260002C0B00203309002070B50446049D0C4857
:10227000046041608260C36005610220084EB66858
:1022800030704620064EB668B071D220044EB66853
:10229000B0801C20024EB668F071002070BD0000B6
:1022A000FC8C002010B50C21034804F016FC08B982
:1022B000012010BD0020FCE7008E02480F48007886
:1022C000012800D170470E480078012801D1022072
:1022D000F8E70C480078012801D10320F2E70A480A
:1022E0000078012801D10420ECE708480078012893
:1022F00001D10520E6E70020E4E7000050090020B6
:1023000051090020520900205309002054090020DF
:102310000148007870470000240900200148807AB5
:10232000704700001C8D002010B5434A0C21434823
:1023300004F0E6FB424A0221424804F0E1FB424A33
:102340000021424804F088FB414A00213F4804F044
:10235000ABFB02203B49096E012282409143394A7E
:10236000116600BF01203B4A1178002804DB8A0671
:10237000130E394A135406E08A06140E374A00F049
:102380000F031B1FD45400BF0120002809DB00F0FD
:102390001F02012191404209920002F1E022C2F89D
:1023A000001100BF2E492F4804F03CFC2E492D4857
:1023B00004F045FC2D492E4804F034FC2A492C48F1
:1023C00004F03DFCFEF78EFC2A4A07211B4804F06E
:1023D00097FB284A0621194804F092FB254A05215B
:1023E000254804F08DFB234A0421234804F088FB90
:1023F000204A0321204804F083FB00BF0120194933
:10240000886000BF00BF1A49886000BF1B4803F006
:10241000B6FE1B4803F0B3FE1A4803F0B0FE1A489C
:1024200003F0ADFE194803F0AAFE194803F0A7FE19
:10243000184803F0A4FE10BD6C0A0020008E02486C
:10244000808D002000830248300A002000480050A0
:10245000380A0020E407002000E400E018ED00E066
:10246000500A0020008002403C0A00204C0A002054
:1024700000C00240540A00200082024800C100400F
:1024800000C2004000C3004000C400400001014001
:102490000002014000030140014691ED340AB5EE0F
:1024A000C00AF1EE10FA04D291ED340AB1EE400AFE
:1024B00001E091ED340AD1ED2C0AF8EEE00AB4EE19
:1024C000E00AF1EE10FA01DD012070470020FCE780
:1024D00010B50A21014804F078FB10BD00810248C4
:1024E00010B50A21014804F063FB10BD00810248C9
:1024F0002DE9F04188B005460E46002700242869E2
:10250000012808D16869B0F5807F04D83146284693
:1025100000F030FB03E168890028FBD1814981F894
:102520003A0096F86A0000EE100AB8EE400A7E48BB
:1025300080ED380A7C49B1F8AA10491C286900FBD3
:1025400001F4B4F5E64F01D90B2732E0B4F5D24FD0
:1025500001D90A272DE0B4F5BE4F01D9092728E09B
:10256000B4F5AA4F01D9082723E0B4F5964F01D955
:1025700007271EE0B4F5824F01D9062719E0B4F50C
:102580005C5F01D9052714E0B4F5345F01D9042755
:102590000FE0B4F50C5F01D903270AE0B4F5C85F7A
:1025A00001D9022705E0B4F5706F01D9012700E0D9
:1025B000002707EB8700345C00EE104AB8EE400AB3
:1025C000DFED5A0A20EE200A594880ED020A07EB97
:1025D00087003044447800EE104AB8EE400ADFED40
:1025E000550A20EE200A524880ED060A07EB8700C4
:1025F0003044847800EE104AB8EE400ADFED4E0A0F
:1026000020EE200A4A4880ED070A07EB8700304495
:10261000C47800EE104AB8EE400ADFED480A20EE1A
:10262000200A434880ED090A07EB8700304404790B
:1026300000EE104AB8EE400ADFED410A20EE200A13
:102640003B4880ED200A3848B0F8A800384100F037
:102650000100354981F8AC00084690F8AC0081F8DB
:1026600095000846B0F8B400022805D1084690ED60
:10267000360A2F4880ED0A0A2B4890F8BA00A8B114
:102680002948B0F9B6002F49096848432E4909681E
:102690002E4A126800FB0120234948600846406822
:1026A0002A490860084600682949086026492869BF
:1026B0000860D5F8148027480068012143460022AD
:1026C000CDE900102048016803A8FFF76FFB142232
:1026D00003A91548BC30FDF73AFF00201E490860E9
:1026E00001201E4908801049A1F8B800A889A1F866
:1026F000B6001848314602680020FFF783F9002829
:1027000005DA1748006840F0040015490860002009
:10271000054981F894000120024981F83A0008B087
:10272000BDE8F081C00B0020D00C00208C4A6A3D2F
:102730002C0B0020624EAF39D5FFFF38CDCCCC3DFD
:102740000AD7233C240C0020180C0020200C002069
:102750001C0C0020280E00200C0C0020280C00204F
:10276000340C00202DE9F84F04460F463F4830F85E
:102770001400C0F3871086023C49601C31F8100039
:10278000C0F38710850231463046FEF735F88346A0
:1027900029462846FEF730F80BEB000A5046FEF7B4
:1027A00033F80090314810F8140000F03F062F492C
:1027B000601C11F8100000F03F0506EB8510411C6D
:1027C0000098FEF719F880464FEA88214FF4480038
:1027D000FDF7CAFF81460120254981F8AC0081F848
:1027E0009500224830F81400C0F387102149086092
:1027F0001E4830F81400C0F3803008B9012001E011
:102800004FF0FF301A49A1F8B60000201A490860BD
:102810004FF4FA7008FB00F018490860154800688A
:1028200000FB09F01249B1F9B61048431449086099
:102830003A461449144801F0ADFA0D4890ED360AB5
:10284000114880ED0A0A012010490870084981F8F2
:10285000BA00A01C0E49088008460088C82803DB7F
:1028600008460088C8380880BDE8F88F8C8D0020A5
:10287000D00C0020180C00200C0C0020100C0020A4
:10288000140C0020C00B00202C0B0020380C002062
:10289000480C00202DE9F04188B006460D4600277F
:1028A0000024708900287DD1A24981F83A0095F86A
:1028B0006A0000EE100AB8EE400A9F4880ED380A20
:1028C0009D49B1F8AA10491C306900FB01F4B4F528
:1028D000FE4F68D8B4F5E64F01D90B2732E0B4F5C6
:1028E000D24F01D90A272DE0B4F5BE4F01D90927EF
:1028F00028E0B4F5AA4F01D9082723E0B4F5964F94
:1029000001D907271EE0B4F5824F01D9062719E047
:10291000B4F55C5F01D9052714E0B4F5345F01D943
:1029200004270FE0B4F50C5F01D903270AE0B4F5E2
:10293000C85F01D9022705E0B4F5706F01D90127FE
:1029400000E0002707EB87002C5C00EE104AB8EE91
:10295000400ADFED7A0A20EE200A794880ED020A6B
:1029600007EB87002844447800EE104AB8EE400A8E
:10297000DFED740A20EE200A714880ED060A07EBAD
:1029800087002844847800EE104AB8EE400ADFED54
:102990006E0A20EE200A6A4880ED070A07EB8700DE
:1029A000284401E0C2E01BE0C47800EE104AB8EE13
:1029B000400ADFED660A20EE200A614880ED090A30
:1029C00007EB87002844047900EE104AB8EE400A6D
:1029D000DFED5F0A20EE200A594880ED200A39E039
:1029E00015F83C4F00EE104AB8EE400ADFED530AEE
:1029F00020EE200A524880ED020A6C7800EE104A60
:102A0000B8EE400ADFED4F0A20EE200A80ED060AFC
:102A1000AC7800EE104AB8EE400ADFED4B0A20EE2B
:102A2000200A80ED070AEC7800EE104AB8EE400A62
:102A3000DFED460A20EE200A80ED090A2C793C3DA4
:102A400000EE104AB8EE400ADFED410A20EE200AFF
:102A500080ED200A384890F8BA00A8B13648B0F99D
:102A6000B6003C49096848433B4909683B4A12683B
:102A700000FB01203049486008464068374908603B
:102A800008460068364908602B4890F8AC002A498F
:102A900081F895000846B0F8B400022806D108462F
:102AA00090ED360A264880ED0A0A0AE0224890F89E
:102AB0009500012805D1204890ED360A204880ED88
:102AC0000A0A254930690860D6F814800020254993
:102AD00008600120244908801749A1F8B800B0898E
:102AE000A1F8B60021480068012143460022CDE943
:102AF00000101948016803A8FFF758F9142203A928
:102B00000D48BC30FDF723FD184829460268002017
:102B1000FEF778FF002805DA1548006840F0040049
:102B2000134908600120034981F83A0008B0BDE864
:102B3000F0810000C00B0020D00C00208C4A6A3DC0
:102B40002C0B0020624EAF39D5FFFF38CDCCCC3DE9
:102B50000AD7233C240C0020180C0020200C002055
:102B60001C0C00200C0C0020280C0020280E00203B
:102B7000340C002070B504460D46608900287BD1D6
:102B8000574981F83A009FED570A574880ED380AB7
:102B900056480078C0B15448B0F9B60054490968A5
:102BA000484354490968544A126800FB01204E49C1
:102BB00048600846406850490860084600684F4928
:102BC000086000204E49086015F8410F00EE100A19
:102BD000B8EE400ADFED4B0A20EE200A4A4880EDAD
:102BE000020A687800EE100AB8EE400ADFED470AE4
:102BF00020EE200A444880ED060AA878413D00EE08
:102C0000100AB8EE400ADFED420A20EE200A3E48E4
:102C100080ED070A606930B90020334981F8AC00C3
:102C200081F8950005E001202F4981F8AC0081F87A
:102C300095002F4920690860A0892B49A1F8B600AA
:102C400000202F49086033480088012815DC2848F7
:102C5000006831494843314908602F494FF400600A
:102C6000FDF708FE2049B1F9B61048432C49086029
:102C70000120284908801DE030E026480088401ED9
:102C800042F6E061484325490860224A1288521EF4
:102C900042F6E06302FB03F1154A1268D002FDF729
:102CA000E9FD1149B1F9B61048431D4908600120FA
:102CB000184908802A460A49134801F06BF80A4867
:102CC00090ED360A104880ED0A0A01200749087085
:102CD000054981F8BA00024981F83A0070BD000048
:102CE000C00B002000000000D00C0020380C002099
:102CF000180C0020240C0020200C00201C0C0020AC
:102D00000C0C00208C4A6A3D2C0B0020624EAF391F
:102D1000D5FFFF384E0C002000941100100C00204D
:102D2000140C002010B5054804F024F8002004F02D
:102D30000FFA2021012004F09BF910BDB801020810
:102D400070B500245249534804F0A4FA00BF51481A
:102D5000406B40F001004F49486300BF082000BFAE
:102D6000496B21F07062411E42EA0161494A516398
:102D700000BF00BF00BF00BF1146496B21F47C12A9
:102D8000411E42EA0141434A516300BF00BF002196
:102D9000084600BF526922F050420A4302433D4BAD
:102DA0005A6100BF00BF02201946496921F4FE4163
:102DB000421EC30143EA82221143364A516100BFD9
:102DC000354A0221354803F09BFE32490020024675
:102DD00001F11C0353F8203023F0400343F01005A9
:102DE00001F11C0343F8205000BF01F11C0353F80C
:102DF000203023F00703134301F11C0545F8203070
:102E000000BF00BF00BF0120096C21F00F0101438A
:102E1000204A116400BF00BF214A0521214803F068
:102E20006FFE214A06211F4803F06AFE1F4A012156
:102E30001C4803F065FE1E4A0D211E4803F060FE8B
:102E40001D4A0E211B4803F05BFE00221021114891
:102E500004F05CFB0123052220210E4804F060FBF6
:102E6000032210210B4804F076FB002305221946AB
:102E7000084804F0D5FA05221021064804F0EEFABD
:102E800005221321034804F0E9FA204670BD000032
:102E90004400002000020340F0200020008202488D
:102EA0001C00002000830248E4010208000202081E
:102EB0003000002000810248240202082DE9F0477A
:102EC00006460F4690461D464FF00209B468207F23
:102ED00020BB07B3B8F1000F1DD0E5B1E07FF8B912
:102EE00094F82000E0B90120E077C4F81480A761CD
:102EF0006560002084F8210084F82200706890F852
:102F0000850002280CD12946304600F00CF8814695
:102F10000020E07704E04FF0030901E04FF00109E1
:102F20004846BDE8F0872DE9F04105468846012670
:102F3000AC68002700202061A060A868006808280D
:102F400000D90226701E08FA00F0E060217F286890
:102F500004F0C5F9686890F87D00002877D02868EB
:102F60004FF48041C0F8181100BF286800F0F6F84F
:102F700094F82100012806D1227F4FF6FF712868BE
:102F800004F0E4FA0DE0022E03D1A168A069475ACB
:102F900002E0A168A069475C227F3946286804F0F6
:102FA000D5FAA0683044A06032E094F821000128EE
:102FB00006D1227F4FF6FF71286804F0C7FA0DE0B2
:102FC000022E03D1A168A069475A02E0A168A06956
:102FD000475C227F3946286804F0B8FA00BF2868A9
:102FE00004F036FA0028FAD1286804F046F90746BA
:102FF000D4E904218F54022E04D13912D4E90402F9
:10300000401C1154206930442061A0683044A06005
:10301000A068E1688842C8D300BF286804F018FAA5
:103020000028FAD1286804F028F90746D4E90421D9
:103030008F54022E04D13912D4E90402401C1154D9
:1030400005212868C0F8181100BF81E0FFE7286853
:1030500000F084F800BF286804F0DDF98028FAD079
:1030600094F82100012806D1227F4FF6FF712868CD
:1030700004F07DFA0DE0022E03D1A168A069475A41
:1030800002E0A168A069475C227F3946286804F005
:103090006EFAA0683044A0603DE000BF286804F0EC
:1030A000BAF98028FAD094F82100012806D1227FAD
:1030B0004FF6FF71286804F05AFA0DE0022E03D192
:1030C000A168A069475A02E0A168A069475C227F15
:1030D0003946286804F04BFA00BF286804F096F9D6
:1030E0000028FAD0286804F0C8F80746D4E904217B
:1030F0008F54022E04D13912D4E90402401C115419
:10310000206930442061A0683044A0604FF4404101
:10311000286804F07DF8A068E1688842BDD300BF4C
:10312000286804F073F90028FAD0286804F0A5F89C
:103130000746D4E904218F54022E04D13912D4E970
:103140000402401C11544FF44041286804F060F818
:103150000020E0602061A060BDE8F08110B5044669
:10316000204604F08AF8204604F087F810BD0000DD
:1031700010B52DED0E8B04469FEDFE0AB0EE40EA31
:103180009FEDFC0AF0EE40EA9FEDFA0AB0EE409A9D
:103190009FEDF80AF0EE409A9FEDF60AF0EE40BA85
:1031A0009FEDF50A84ED0D0A002084F8740094ED7B
:1031B000110AD4ED120A30EE200A84ED110A94EDC2
:1031C000110ADFEDEE0AB4EEE00AF1EE10FA07DBC9
:1031D00094ED110ADFEDE90A30EE600A84ED110A80
:1031E00094ED110AB5EEC00AF1EE10FA07D294ED93
:1031F000110ADFEDE20A30EE200A84ED110A94EDA7
:10320000130AB1EE400AD4ED140A30EE600A84EDE0
:10321000150A204607F088FC20460EF019FF9FEDA6
:10322000D50A84ED070A94ED080AD548D0ED000AC6
:10323000B4EEE00AF1EE10FA02DD90ED000A01E0D2
:1032400094ED080A84ED080A94ED080ACC48D0ED04
:10325000000AF1EE600AB4EEE00AF1EE10FA04D2D0
:1032600090ED000AB1EE400A01E094ED080A84ED09
:10327000080A94ED070AD4ED040A30EE600AC1484A
:1032800080ED000A94ED1B0AD0ED000A20EE200A22
:10329000B0EE40EA94ED1C0A20EE0E0ABA4880ED2A
:1032A000000ABA4890ED000AB748D0ED000A30EEA7
:1032B000200AB64880ED000A90ED000A3EEE000AB2
:1032C00084ED020A94ED190AB1EE400AD4ED170A12
:1032D00060EE200A94ED081A94ED020A10EEC10A7D
:1032E00084ED000A94ED000ADFEDA90AB4EEE00ACD
:1032F000F1EE10FA0EDD9FEDA60A84ED000A90EDC6
:10330000000AA148D0ED000A30EE600A9F4880ED27
:10331000000A17E094ED000ADFED9E0AB4EEE00A21
:10332000F1EE10FA0ED29FED9B0A84ED000A974849
:1033300090ED000A9448D0ED000A30EE600A934800
:1033400080ED000A94ED080AD4ED050A30EE600A1B
:10335000914880ED000A94ED1B0AD0ED000A20EEA2
:10336000200AF0EE40EA94ED1C0A20EE2E0A8B486B
:1033700080ED000A8A4890ED000A8848D0ED000AE6
:1033800030EE200A864880ED000A90ED000A3EEEFD
:10339000800A84ED030A94ED190AD4ED160A20EE92
:1033A000200AD4ED070A20EE200AD4ED190A94ED84
:1033B0001A1A00EE810AD4ED030A30EE200AB1EEAB
:1033C000400A84ED010A94ED010ADFED710AB4EEC2
:1033D000E00AF1EE10FA0EDD9FED6D0A84ED010AB0
:1033E00090ED000A6D48D0ED000A30EE600A6C489E
:1033F00080ED000A17E094ED010ADFED660AB4EEF5
:10340000E00AF1EE10FA0ED29FED620A84ED010A95
:10341000634890ED000A6148D0ED000A30EE600A82
:103420005F4880ED000A94F87E0001281BD19FEDD3
:10343000510A84ED000A9FED4F0A84ED010A9FEDC9
:103440004D0A514880ED000A9FED4A0A534880ED2D
:10345000000A9FED480A4D4880ED000A9FED450A9D
:103460004F4880ED000A20460DF058F994ED0AAA65
:1034700094ED090ADFED4B0A20EE200AF6EE000A71
:1034800020EE200AD4ED0A0AB6EE001AF0EE40AAA9
:1034900040EEC1AA94ED090ADFED420A20EE200AAF
:1034A000F6EE000A20EE600AD4ED0A0AB6EE001A23
:1034B000B0EE40BA00EEC1BAB5EEC0AAF1EE10FA15
:1034C00002DD012084F87400F5EEC0AAF1EE10FAD6
:1034D00004DD94F87400801C84F87400B5EEC0BA62
:1034E000F1EE10FA04DD94F87400001D84F8740005
:1034F00094F874002C49087094F87400012810D1D5
:103500009FED2A0A2AEE800AD4ED0D0A20EE608A89
:103510009FED260A2BEE000AD4ED0D0A60EE608ABC
:1035200087E094F87400022810D19FED200A2BEE5A
:10353000000AD4ED0D0A20EE608A9FED1C0A2AEEE7
:10354000000AD4ED0D0A60EE608A72E094F874000F
:10355000032830D19FED150A2AEE800AD4ED0D0A1A
:1035600020EE208A9FED110A2AEE000AD4ED0D0A02
:103570001EE00000000000001C68533B0000B44344
:10358000080A00200C0A0020F8090020F409002095
:1035900000003343000033C3100A0020000A00205B
:1035A000FC09002074B5DD3FE80900206662A246F0
:1035B00060EE208A3DE094F87400042810D11FEDDD
:1035C000050A2AEE000AD4ED0D0A20EE608A1FEDEE
:1035D000090A2AEE800AD4ED0D0A60EE608A28E01E
:1035E00094F87400052810D11FED100A2AEE000A85
:1035F000D4ED0D0A20EE208A1FED140A2BEE000AEE
:10360000D4ED0D0A60EE208A13E094F874000628C9
:103610000FD11FED1A0A2BEE000AD4ED0D0A20EE91
:10362000208A1FED1E0A2AEE800AD4ED0D0A60EEF4
:10363000208A38EE280ADFEDCD0AB4EEE00AF1EE7A
:1036400010FA0FDD9FEDC90A28EE000A78EE280A6D
:1036500080EE201AB0EE418A9FEDC40A30EE480A8F
:10366000F0EE408A9FEDC10A30EE480A30EE680A5B
:10367000F5EE000A20EE200AB0EE409AF6EE000ABF
:10368000B0EE490A08EE200AF0EE409AF6EE000A83
:10369000B0EE690A08EEA00AF0EE40BA94F87400A1
:1036A000012806D1C4ED0E9A84ED0F9AC4ED10BA2C
:1036B00042E094F87400022806D184ED0E9AC4ED1D
:1036C0000FBAC4ED109A37E094F87400032806D1BD
:1036D00084ED0E9AC4ED0F9AC4ED10BA2CE094F864
:1036E0007400042806D1C4ED0EBAC4ED0F9A84ED1F
:1036F000109A21E094F87400052806D1C4ED0EBAA2
:1037000084ED0F9AC4ED109A16E094F87400062820
:1037100006D1C4ED0E9AC4ED0FBA84ED109A0BE0F9
:103720009FED930A84ED0E0A9FED910A84ED0F0A36
:103730009FED8F0A84ED100A94ED110AF0EE080A4D
:10374000B4EEE00AF1EE10FA0BDD94ED110ADFEDB4
:10375000890AB4EEE00AF1EE10FA02D2DFED86CA71
:1037600016E094ED110ADFED850AB4EEE00AF1EE01
:1037700010FA0BDD94ED110ADFED810AB4EEE00AD8
:10378000F1EE10FA02D2DFED7FCA01E05FED87CAE9
:1037900094ED110ADFED7C0AB4EEE00AF1EE10FAC6
:1037A0000BDD94ED110ADFED790AB4EEE00AF1EEDB
:1037B00010FA02D29FED70DA16E094ED110ADFEDF7
:1037C000740AB4EEE00AF1EE10FA08DC94ED110A86
:1037D000DFED700AB4EEE00AF1EE10FA02D29FEDCE
:1037E00069DA01E01FED9DDA94ED110ADFED6A0A56
:1037F000B4EEE00AF1EE10FA08DC94ED110ADFED08
:10380000670AB4EEE00AF1EE10FA02D2DFED5ADAFE
:1038100016E094ED110ADFED620AB4EEE00AF1EE73
:1038200010FA0BDD94ED110ADFED5E0AB4EEE00A4A
:10383000F1EE10FA02D2DFED53DA01E05FEDB3DA18
:1038400094ED080AF6EE000AB4EEE00AF1EE10FA82
:1038500002DDB7EE00CA0DE094ED080AFEEE000AA4
:10386000B4EEE00AF1EE10FA02D2BFEE00CA01E0B7
:103870001FEDC0CA94ED0E0A0CEE8C0A84ED0E0A00
:1038800094ED0F0A0DEE0C0A84ED0F0A94ED100A68
:103890000DEE8C0A84ED100A94ED0E0AB5EEC00A06
:1038A000F1EE10FA04D21FEDCD0A84ED0E0A0CE001
:1038B00094ED0E0ADFED3C0AB4EEE00AF1EE10FAE8
:1038C00003DB9FED3A0A84ED0E0A94ED0F0AB5EE84
:1038D000C00AF1EE10FA04D21FEDDA0A84ED0F0AE5
:1038E0000CE094ED0F0ADFED300AB4EEE00AF1EEE1
:1038F00010FA03DB9FED2D0A84ED0F0A94ED100AF8
:10390000B5EEC00AF1EE10FA04D21FEDE60A84ED1E
:10391000100A0CE094ED100ADFED230AB4EEE00A81
:10392000F1EE10FA03DB9FED210A84ED100A3C341E
:1039300014ED010ABCEEC00A10EE100A41F27071DB
:10394000081A608794ED000ABCEEC00A10EE100A57
:10395000081AA08794ED010ABCEEC00A10EE100A06
:10396000081AE0873C3CBDEC0E8B10BD00803B4646
:1039700000803B4500003143000034C30000374362
:103980000080B243000034430000F64200809443BC
:10399000008097430000EA42000073430000644245
:1039A00000007C4200006D430080BB450078BB45B1
:1039B00010B53348007802280BDB31480078202806
:1039C00007DC2F480078642110FB01F02D490880A6
:1039D0000AE02B48007838B92A48B0F90000642181
:1039E00090FBF1F026490870274890F90000002864
:1039F00014DD26480078642110FB01F0244948803A
:103A00000846FEF76FFB2248408800B22149088033
:103A10001D480178012018F0C3FA30E01A4890F9E7
:103A2000000000282BDA184890F90000002803DB7A
:103A3000154890F9000003E0134890F90000404257
:103A4000C4B212480078642110FB01F0104948808C
:103A50000846FEF747FB0E48408800B20D49088033
:103A60002146002018F09CFA01E014F043FFFEF715
:103A700019FA1028F9DA2146012018F091FA10BD40
:103A800058010020CC010020B7030020DE010020F7
:103A9000CC0000203804002070B505460C46FEF727
:103AA00039F91748006848B1164800882080154841
:103AB0000088608013480088A0800BE011480088CF
:103AC00020801048018847F6FF708843608045F2E7
:103AD0005550A080002006E035F810100A4A22F860
:103AE0001010411CC8B20328F6DB074800880549BE
:103AF00008800648006818F015FC002070BD000022
:103B0000340C0020FC0A0020FE0A0020240E0020B5
:103B100010B53A4A0A213A4802F0F2FF374A092121
:103B2000374802F0EDFF354A0821354802F0E8FF3A
:103B3000324A0021324802F0E3FF304A0121304886
:103B400002F0DEFF2D4A08212E4802F0D9FF2B4A51
:103B50000E212C4802F0D4FF284A0D21294802F0FA
:103B6000CFFF264A0121274802F0CAFF234A00213D
:103B7000244802F0C5FF214A0921234802F0C0FF72
:103B8000224A0221224802F0BBFF204A0321214899
:103B900002F0B6FF1D4A0C211E4802F0B1FF1B4A7D
:103BA00000211D4802F0ACFF184A0721194802F015
:103BB000A7FF164A0821174802F0A2FF134A002166
:103BC000144802F09DFF114A0121124802F098FFAB
:103BD0000E4A02210F4802F093FF0C4A02210E48C0
:103BE00002F08EFF094A01210B4802F089FF074AC3
:103BF0000421074802F084FF10BD0000780002088D
:103C000000820248008E0248008F02486C000208C1
:103C10000083024800810248008502480120010417
:103C20008140024A516000BF704700000084024892
:103C3000062001218140024A516000BF7047000008
:103C40000081024810B52D480068401C2B490860CF
:103C50002B48008808B1FDF719FF00202949496A5F
:103C6000C14001F0010129B92748006840F0010076
:103C7000254908602448006810B1002023490880C5
:103C80002348008801280ADB21480088401C20497D
:103C9000088008460088A02801DB002008801D4815
:103CA000008850B31948008888B91B48008850B96B
:103CB00000F0ECFD012018490880184818490268F6
:103CC000184800F067F800201749088015E00F48F1
:103CD0000088012811D11148006800F003FE134844
:103CE00000F068FD1048008820B9FFF7A1FF01200F
:103CF0000D49088000200849088010BDF80A0020FE
:103D0000060B002000840248340C00201E0E002008
:103D10004E0C0020040B0020F40A0020240E00208A
:103D2000C00B00202C0B0020F60A0020080B0020FE
:103D300012F8543F00EE103AB8EE400AF6EE060ACA
:103D400020EE200A80ED0D0A537800EE103AB8EE0E
:103D5000400ADFED0F0A20EE200A80ED0E0A937A6A
:103D600000EE103AB8EE400AF6EE060A20EE200AFF
:103D700080ED140AD37A543A00EE103AB8EE400AB5
:103D8000DFED030A20EE200A80ED150A70470000DF
:103D900040DA7F392A4BB3F8B4300A2B15D1294BBE
:103DA00093ED000AB8EEC00ADFED270A20EE200AE4
:103DB00080ED0D0A93ED000AB8EEC00ADFED220A8D
:103DC00020EE200A80ED140A39E012F8503F00EE90
:103DD000103AB8EE400AF6EE060A20EE200A80ED10
:103DE0000D0A537800EE103AB8EE400ADFED170ADC
:103DF00020EE200A80ED0E0A937A00EE103AB8EE1B
:103E0000400AF6EE060A20EE200A80ED140AD37A64
:103E1000503A00EE103AB8EE400ADFED0C0A20EE00
:103E2000200A80ED150A9FED0A0A80ED0F0A9FED2A
:103E3000080A80ED160A9FED060A80ED080A704711
:103E4000D00C0020440C002035FE2F3740DA7F399B
:103E50000000000070B52DED048B05460C4616469B
:103E6000B5F8B40002287DD094ED010AD4ED240AFF
:103E700070EE600A94ED240A9FED771A01EE200A95
:103E800084ED240A94ED010ADFED740A20EE200A85
:103E900085ED050A95ED020AB8EEC00AD4ED240AB4
:103EA0009FED6E1AF0EE408A40EEC18A95F89500BB
:103EB000D8B395ED020AB8EEC00AD5ED380A94EDF4
:103EC000231A38EEC11AB0EE409A00EE819A95EDB1
:103ED000050A39EE400A85ED340AC4ED238A95EDD2
:103EE000340ADFED5F0AB4EEE00AF1EE10FA0CDD01
:103EF00094ED1D0AF5EE000A30EE208A9FED590A76
:103F000028EE000A84ED1A0A27E095ED340ADFED69
:103F1000560AB4EEE00AF1EE10FA0ED294ED1D0A44
:103F2000F5EE000A30EE608A00E026E09FED4D0AD3
:103F300028EE000A84ED1A0A0FE09FED4C0A29EEE4
:103F4000008AB0EE480A03F0FBFC38EE400ADFEDD1
:103F5000450A20EE200A84ED1A0A9FED450A84EDF9
:103F6000110A00E049E0204600F08AF894ED000ACA
:103F700084ED210AC4ED228A62E095ED020AB8EED2
:103F8000C00AD5ED050A30EE600A85ED340A95EDDC
:103F9000020AB8EEC00ADFED370A20EE200A84EDEF
:103FA000000A94ED000AD4ED210A30EE600ADFED3C
:103FB000320A20EE200A84ED1E0A94ED000A84EDF8
:103FC000210A94ED220A38EEC00ADFED2C0A20EE19
:103FD000200A84ED1F0AC4ED228A94ED1D0ADFED4C
:103FE000210A20EE200A84ED1A0A9FED210A84EDB1
:103FF0000A0A204600F008FA22E095ED020AB8EE1F
:10400000C00ADFED1A0A20EE208AB0EE480A03F05B
:1040100097FC38EE400ADFED130A20EE200A84ED0B
:104020001A0A9FED130A84ED110A204600F028F8C1
:1040300094ED000A84ED210A9FED0D0A84ED220A19
:1040400094ED180A86ED000A94ED190A86ED010A2E
:10405000BDEC048B70BD00000A68223E0000804465
:104060000000A046D00FC9400000A0C6AACC4C3723
:1040700000000000D5FF7F3A00001643DAAC7A3C1E
:1040800010B52DED088B0446D4ED1A0AB0EE600A87
:10409000FCF77EF9F0EE408AD4ED1A0AB0EE600A21
:1040A000FCF73AF9B0EE409A94ED0C0A20EE090ABA
:1040B000D4ED130A08EEA00A84ED0B0A94ED0C0A65
:1040C000F1EE680A20EE200AD4ED130A09EE200A68
:1040D00084ED120A94ED0A0AD4ED0B0A30EE600A60
:1040E000B0EE40BA94ED0D0A20EE0B0AF0EE40AAB5
:1040F00094ED0E0A20EE2A0AB0EE408A94ED0F0AE3
:1041000030EE080A84ED0F0A94ED0F0A30EE2A0A09
:1041100084ED100A94ED100AD4ED1C0AB4EEE00A06
:10412000F1EE10FA0ADD94ED1C0A84ED100A94ED0C
:104130000F0A30EE480A84ED0F0A16E094ED100ADB
:10414000D4ED1C0AF1EE600AB4EEE00AF1EE10FACA
:104150000BD294ED1C0AB1EE400A84ED100A94EDE6
:104160000F0A30EE480A84ED0F0A94ED110AD4EDDF
:10417000120A30EE60AA94ED140A60EE0A9A94EDE9
:10418000150A20EE290AB0EE408A94ED160A30EEA8
:10419000080A84ED160A94ED160A30EE290A84ED19
:1041A000170A94ED170AD4ED1C0AB4EEE00AF1EEFA
:1041B00010FA0ADD94ED1C0A84ED170A94ED160A34
:1041C00030EE480A84ED160A16E094ED170AD4ED95
:1041D0001C0AF1EE600AB4EEE00AF1EE10FA0BD21E
:1041E00094ED1C0AB1EE400A84ED170A94ED160A0C
:1041F00030EE480A84ED160A94ED100A20EE090A02
:10420000D4ED170A08EEE00A84ED180A94ED100ABE
:1042100020EE280AD4ED170A09EE200A84ED190AC7
:10422000BDEC088B10BD000010B59FED6B0A80ED52
:10423000060A9FED6A0A80ED070AB1EE020A80EDD8
:10424000090A9FED670A80ED020A664B1B6893F826
:104250004D3023B1634B1B6893F84E3013B9624B5A
:10426000604C23605F4B1B6893F84E3023B94623A4
:104270005C4C246884F84E305A4B1B6893F84E30DF
:1042800000EE103AB8EE400ADFED580A20EE200AA0
:1042900080ED0D0A534B1B6893F84D3000EE103A39
:1042A000B8EE400ADFED4E0A60EE200A4D4B1B6867
:1042B00093F84E3000EE103AB8EE400A80EE801AC5
:1042C00080ED0E1A90ED0D0A80ED140A90ED0E0AA5
:1042D00080ED150A92ED370A80ED0A0A9FED440A37
:1042E00080ED0F0A9FED420A80ED160A9FED400A0D
:1042F00080ED080A0B8C00EE103AF8EE400A0B8DA8
:1043000000EE103AB8EE400A80EE801A81ED0B1AEA
:104310000B8D0C8C93FBF4F300EE103AB8EEC00A50
:10432000F4EE000A20EE200ABDEEC00A10EE103AAC
:104330001BB20B862B4B1B6893F84C30552B04D0CB
:104340006E23284C246884F84C30264B1B6893F865
:104350004C3000EE103AB8EE400A264B83ED020ACC
:1043600093ED020AF7EE000A80EE801A83ED081A38
:104370001C4B1B6893F84C3000EE103AB8EE400A24
:1043800080ED1C0A174B1B6893F84B309B0000EE26
:10439000103AB8EEC00A80ED030A124B1B6893F87E
:1043A0006B30154C24686343144C23600E4B93F818
:1043B0006730114C2468634300EE103AB8EEC00A2F
:1043C000DFED0F0A20EE200ABCEEC00A10EE103A14
:1043D0000C4C238010BD0000B37B723C8C4A6A3CBD
:1043E000CDCCCC3D240E0020580C00208FC2753C53
:1043F00000000000080B0020240C0020500C0020BE
:10440000D5FF7F3A560C002010B52DED028B0446E7
:1044100094ED000AD4ED010A30EE600AB0EE408A55
:1044200094ED1E0AD4ED020A00EE880A84ED040A17
:1044300094ED040AD4ED030AB4EEE00AF1EE10FAAA
:1044400004DD94ED030A84ED040A10E094ED040AFF
:10445000D4ED030AF1EE600AB4EEE00AF1EE10FAD0
:1044600005D294ED030AB1EE400A84ED040A204619
:1044700000F02CF9BDEC028B10BD00009FED914ABD
:10448000B0EE440A9FED8F4AF0EE440A9FED8D4A4C
:10449000B0EE441A9FED8B4AB0EE442A9FED894A54
:1044A000F0EE441A9FED874AF0EE442A9FED854ACC
:1044B000B0EE443A9FED834AF0EE443A90ED004A64
:1044C000D0ED084A24EE244AB0EE440A90ED014AA9
:1044D000D0ED084A24EE244AF0EE440AB0EEC04A79
:1044E000B0EE442AB0EEE04AF0EE441A32EE214A31
:1044F000B0EE441A20EE204AB5EEC04AF1EE10FAB2
:1045000046DBB4EEE12AF1EE10FA20DBB7EE004A0A
:1045100030EE044AF6EE004A24EE244A80ED034AC7
:10452000B7EE004A34EE404AF6EE004A24EE244A42
:1045300080ED044AB7EE004A74EE404AB6EE005AE7
:10454000B0EE604A05EE244A80ED054A53E0B7EE2E
:10455000004A74EE604AB6EE005AB0EE404A05EEEC
:10456000244A80ED034AB7EE004A34EE604AF6EE84
:10457000004A24EE244A80ED044AB7EE004A30EEA9
:10458000844AF6EE004A24EE244A80ED054A32E0E1
:10459000B7EE004AB4EEC41AF1EE10FA07DD80EE71
:1045A000014AB0EE440A80EE814AF0EE440AB7EECA
:1045B000004A30EE044A34EE604AF6EE004A24EE39
:1045C000244A80ED034AB7EE004A34EE404A34EE06
:1045D000604AF6EE004A24EE244A80ED044AB7EE23
:1045E000004A34EE404A34EE204AF6EE004A24EE09
:1045F000244A80ED054A90ED034AF7EE004A34EE76
:10460000C44AF0EE442A90ED044AF7EE004A34EE34
:10461000C44AB0EE443A90ED054AF7EE004A34EE53
:10462000C44AF0EE443A9FED284AF4EEC42AF1EE73
:1046300010FA02D29FED244A01E0B0EE624AF0EE99
:10464000442A9FED214AB4EEC43AF1EE10FA02D2A8
:104650009FED1D4A01E0B0EE434AB0EE443A9FEDB3
:104660001A4AF4EEC43AF1EE10FA02D29FED164A5D
:1046700001E0B0EE634AF0EE443AC18B04EE101A4A
:10468000B8EE444A24EE224ABCEEC44A14EE101A94
:104690000183C18B04EE101AB8EE444A24EE034A9B
:1046A000BCEEC44A14EE101A4183C18B04EE101AFA
:1046B000B8EE444A24EE234ABCEEC44A14EE101A63
:1046C00081837047000000000AD7A33D10B52DED8F
:1046D000048B044694ED040AD4ED050A30EE600A1A
:1046E000B0EE409A94ED060A20EE090AF0EE408AF8
:1046F00094ED070A20EE280AB0EE408A94ED080AED
:1047000030EE080A84ED080A94ED080A30EE280A13
:10471000D4ED200A94ED1F1A00EE810A84ED110AEF
:1047200094ED110AD4ED090AB4EEE00AF1EE10FAA4
:104730000ADD94ED090A84ED110A94ED080A30EEC1
:10474000480A84ED080A16E094ED110AD4ED090A2E
:10475000F1EE600AB4EEE00AF1EE10FA0BD294ED3D
:10476000090AB1EE400A84ED110A94ED080A30EE10
:10477000480A84ED080A2046FFF782FCBDEC048B52
:1047800010BD00000149086070470000280E00209D
:1047900005490860096891F86B10044A1268514392
:1047A000034A116070470000240E0020240C0020F2
:1047B000500C002010B504462046FFF75FFE228B08
:1047C00000210B4801F0C1FD628B0121084801F076
:1047D000BCFDA28B0021074801F0B7FD012106486E
:1047E00001F010FD1021044801F00CFD10BD000087
:1047F00000410240004202400040024010B501204A
:10480000012181401C4A516000BF41F270720021B9
:104810001A4801F09AFD41F270720021184801F027
:1048200094FD41F270720021164801F08EFD41F2B4
:1048300070720121114801F088FD41F2707201216E
:104840000F4801F082FD41F2707201210D4801F024
:104850007CFD01210C4801F0D1FC10210A4801F037
:10486000CDFC4FF48071084801F0C8FC4FF4805132
:10487000054801F0C3FC10BD00840248000102405D
:1048800000020240000402400000024010B5062071
:104890004FF4803181400F4A516000BF41F2707285
:1048A00000210D4801F051FD41F2707200210B48CA
:1048B00001F04BFD41F270720121074801F045FD06
:1048C0000121074801F09EFC1021054801F09AFCE7
:1048D00010BD000000810248004102400042024039
:1048E0000040024010B52DED028B0446FE48B0F8A2
:1048F000B40002287ED0FC48FDF7CEFD48B3FB484B
:10490000008830BBF84890F8BA0088B1F8480068D1
:10491000401CF7490860F448D0F8A40009688842B0
:104920001ADAF448006840F02000F249086013E009
:10493000EF480068401CEE49086008460068B0F582
:10494000FA4F09DDEB48006840F02000E9490860B3
:1049500002E00020E6490860E34890F8BA0048B158
:10496000E5480068FCF782FC0020E4490880E4493F
:104970000880EAE0E3480088012817D1E148FDF704
:1049800017F90020E04948810120086100024861D0
:10499000DC484089401C4FF6FF7101EA0010DB49FA
:1049A00008802146D848FEF7E5F8CEE0D84890F8D0
:1049B0003A000028DDD0CC4890F89500002874D14A
:1049C000CE48008800281ADDCC480088401CCB491E
:1049D000088008460088CF49098888420EDB0020FD
:1049E000C6490880C04890ED370ACB4880ED0A0AD6
:1049F000012000E0A1E0BC4981F89500A5E0C6488F
:104A0000D0ED000A94F8670000EE100AB8EE400AF4
:104A100030EEC00AC048D0ED010AB4EEE00AF1EE73
:104A200010FA0ED8B048B0F9B600002809DDBA482F
:104A300090ED050AF3EE040AB4EEE00AF1EE10FA86
:104A400021D9B548D0ED000A94F8670000EE100AAD
:104A5000B8EE400A30EE800AAF48D0ED010AB4EE5D
:104A6000E00AF1EE10FA70DB9F48B0F9B6000028BA
:104A70006BDAA94890ED050AFBEE040AB4EEE00AF1
:104A8000F1EE10FA61DB94F8460000EE100AB8EE81
:104A9000400ADFEDA20A20EE200A9F4880ED020ABC
:104AA00001209649088050E0FFE79B48D0ED010ABD
:104AB00090ED001A9A48008800EE100AB8EE400AFD
:104AC00031EE400AF4EEC00AF1EE10FA0EDB864831
:104AD000B0F9B600002809DD8F4890ED050AF3EE25
:104AE000040AB4EEE00AF1EE10FA20D98A4890EDFB
:104AF000011AD0ED000A8A48008800EE100AB8EECC
:104B0000400A30EE800AB4EEC01AF1EE10FA1CD85A
:104B10007548B0F9B600002817DA7F4890ED050A0D
:104B2000FBEE040AB4EEE00AF1EE10FA0DDB2246C9
:104B300077497948FFF7FCF807E06B4890F8BA002E
:104B400018B16D480068FCF791FB674840686649FA
:104B50008968401A00EE100AF8EEC00A94F868005E
:104B600000EE100AB8EE401ADFED6E1AB7EE000A3A
:104B700001EE610A20EE800ABDEEC00A10EE100AB6
:104B80005949896808445849886008464068664918
:104B9000884249DD6548604991ED010ADFED640A0C
:104BA00030EE200A81ED010A624991ED000ADFED45
:104BB000600A30EE200A81ED000A574991ED210A82
:104BC000DFED5B0A30EE200A81ED210A91ED240A27
:104BD000DFED570A30EE200A81ED240A4C490A8E97
:104BE000414991ED350ADFED540A20EE200ABCEE72
:104BF000C00A10EE101A114409B2454A11863A490A
:104C000049680144384A51604C49096801444B4A9B
:104C100011604B4909680144494A11603249896869
:104C20000144314A916051E02F4840683E49494271
:104C300088424BDA4FF4FA00374991ED010ADFED73
:104C40003E0A30EE200A81ED010A3A4991ED000A50
:104C5000DFED390A30EE200A81ED000A2E4991ED90
:104C6000210ADFED350A30EE200A81ED210A91EDAF
:104C7000240ADFED310A30EE200A81ED240A2449AE
:104C80000A8E194991ED350ADFED2B0A20EE200A34
:104C9000BCEEC00A10EE101A4942114409B21C4A77
:104CA00011861149496801440F4A51602349096836
:104CB0000144224A1160224909680144204A1160D6
:104CC000094989680144084A916000BF064890ED8F
:104CD000020AB8EEC00ADFED1B0A20EE200A1A48CD
:104CE00080ED000A32E00000D00C0020120E0020FF
:104CF000740E0020340C0020280E0020780E0020B6
:104D00002A0C0020FC0B0020B40D00204E0C0020CB
:104D1000C00B00204C0C00202C0B00208C4A6A3D5C
:104D2000560C002024977F3B00409C00000083FF2E
:104D30000000FAC5140A00200000FA45200C0020EB
:104D40001C0C0020AACC4C37940E002090ED000AD9
:104D500002F0F6FDE148D0ED000A30EEC00ADFEDCA
:104D6000E00A20EE200A80ED000ADE4890F8950067
:104D7000012819D1DB4890ED340AB5EEC00AF1EEF6
:104D800010FA04D290ED340AB1EE400A02E0D548A0
:104D900090ED340AD448D0ED000AF8EE600AB4EE83
:104DA000E00AF1EE10FA04D3CE48B0F8B4000228BD
:104DB00071D1CC4890F8BA000028F9D1CB480088CE
:104DC000401CCA49088008460088B0F5165F02DB1F
:104DD0004FF416500880C5480088C54909888842A4
:104DE00060DBC2480088B0F5165F5BDAC148008816
:104DF000012851D19FEDC00AC04880ED0A0ABC4885
:104E00000088BA490880B748D0ED340ABC4890ED14
:104E1000000AB8EEC00AF4EEC00AF1EE10FA15DD91
:104E2000B0484068B6490968401AAE494860B5487C
:104E30000068B3490968401AB2490860B24800687E
:104E4000AF490968401AB04908602BE0A548D0ED89
:104E5000340AAB480068404200EE100AB8EEC00ABF
:104E6000F4EEC00AF1EE10FA1CD29E484068A44944
:104E7000096808449B494860A2480068A04909683D
:104E80000844A0490860A04800689D490968084492
:104E90009D49086006E0E9E0924890ED370A97489E
:104EA00080ED0A0A9148008842F22731884219DBD6
:104EB0008E48008842F22651884213DC934890EDD8
:104EC000000A9348D0ED000A30EE200A80ED000A77
:104ED0008E4890ED010A8F48D0ED000A30EE200A8E
:104EE00080ED000A81480088B0F5AF6F09D19FEDD1
:104EF000820A874880ED000A9FED7F0A854880ED91
:104F0000000A7A480088B0F5165F0DDA0020824961
:104F100008809FED790A814880ED000A9FED760AAE
:104F20007F4880ED000AB2E06E4890ED340AB5EE9D
:104F3000C00AF1EE10FA04D290ED340AB1EE400A44
:104F400002E0684890ED340A6748D0ED000AF8EEB8
:104F5000600AB4EEE00AF1EE10FA02DD00206349C7
:104F600008806D480088401C6B490880634890EDBC
:104F70000C0A6A48D0ED000A30EE200A80ED000AE3
:104F80005E4890ED130A6648D0ED000A30EE200A24
:104F900080ED000A08460088802852DB5F4890EDCB
:104FA000000ADFED600A20EE200A80ED000A5C486E
:104FB00090ED000ADFED5B0A20EE200A80ED000A8A
:104FC0004E4890ED0A0A20EE000AD0ED110A90ED4D
:104FD000111AB0EE408A00EE818A504890ED000A26
:104FE00020EE000A4E48D0ED000A90ED001AF0EED7
:104FF000408A40EE818A38EE680AB5EEC00AF1EECA
:1050000010FA04D2B1EE480A30EE680A01E038EE38
:10501000680A4548D0ED000AB4EEE00AF1EE10FA55
:1050200002DB00203149088000203B4908809FEDC9
:10503000320A3A4880ED000A9FED2F0A384880ED89
:10504000000A334890ED000ADFED380A20EE200A0E
:105050002E4880ED000A2F4890ED000ADFED330A5C
:1050600020EE200A294880ED010A10E00020304996
:1050700008601E490880284908809FED1F0A2748BC
:1050800080ED000A9FED1C0A254880ED000A1748B4
:105090000088B0F5165F05DA1C4A18491148FEF77A
:1050A000D9FE18E00F48B0F8B400022813D0134816
:1050B00090ED010ADFED1F0A20EE200A094880ED7D
:1050C000050A90ED020AB8EEC00AD0ED050A30EEEE
:1050D000600A80ED340ABDEC028B10BD940E0020F6
:1050E00000007A45D00C0020500C00202A0C002033
:1050F0004C0C0020120E0020000000002C0B0020A1
:10510000240C0020200C00201C0C0020080B002088
:105110007C0E0020800E0020900E0020880E0020C3
:105120008C0E00202497FF3B840E00206F12033B5F
:10513000300C00200000804410B504462046FEF7E5
:1051400017F834F8762F00210D4801F0FEF8628838
:1051500000210C4801F0F9F8A288763C00210A48A9
:1051600001F0F3F80121094801F048F8102107483F
:1051700001F044F84FF48051044801F03FF810BDAD
:105180000004024000020240000102400000024010
:1051900010B570E003213A4801F093FC01280AD1D0
:1051A00038480088401C3749088008460088642831
:1051B00004D1012460E00020324908803248008890
:1051C000642807DD09212E4801F07BFC012801D16C
:1051D000032451E02C480088652804DA2A48008816
:1051E000401C294908800821254801F06AFC50B973
:1051F00026480088401C2549088008460088642805
:1052000001D1042438E00321214801F05AFC58B9A7
:1052100020480088401C1F49088008460088B0F5D7
:105220007A7F01D1052427E01B480078C0F3C00035
:1052300088B10721124801F044FC01280BD117481E
:105240000088401C1549088008460088B0F5FA7FA0
:1052500001D1062410E010480078C0F3800040B16E
:105260000C210F4801F02DFC08B9072404E00024AC
:1052700002E0002400E08DE700BF204610BD0000E2
:1052800000800248EC040020F2040020EA04002020
:10529000008F0248EE040020F6040020F4040020F1
:1052A000008E024810B57848006800F0010070B91F
:1052B0007548001D006840F001007449C1F80402FF
:1052C00000BF7148006800F001000028F9D0704864
:1052D000006800F4007058B16D480830006840F470
:1052E00000706B490831086041F64C5006F065F8D3
:1052F0006848006840F400206649086040F6C41021
:1053000006F05BF86348006863490840614908603B
:1053100060481038006800F0300060B35D48103815
:1053200000685E4908405B4910390860FCF70CFED4
:105330005B49B0FBF1F0401E56491039096841EA5B
:10534000004054491039086052480830006820F085
:1053500001005049083108604E48006820F40030D0
:105360004C49086000BF4B48001F006800F46070A3
:10537000B0F5607FF7D14748006840F0010045492B
:1053800008600846006840F0100008604548091DA4
:105390000860081F006840F04000091F08600846C8
:1053A000006820F0100008600846006840F4802083
:1053B000086000BF3748001F006800F004000028A4
:1053C000F8D03448006820F001003249086000BF7E
:1053D0003048001F006800F001000028F8D1324872
:1053E000006840F480303049086000202E490831C0
:1053F0000860091F08602C4914310860091D086005
:10540000032029490C3108602248006820F0400040
:10541000204908602548091D086040F6B83005F0AD
:10542000CCFF00BF1B48001F006800F004000028EC
:10543000F8D01F481749091D086041F2941005F083
:10544000BCFF00BF1348001F006800F004000028E4
:10545000F8D018480F49091D086041F2707005F036
:10546000ACFF00BF0B48001F006800F004000028DC
:10547000F8D0052004499439086000200A49083909
:10548000086000F019F810BD0042005000400050C4
:105490000044005014470050FDFFFEFFCFFFF0FF17
:1054A000A0252600003B13010C460050003B0701DD
:1054B000003B0401003B030170B52449096801F475
:1054C000803181B32249096801F0010109B1214805
:1054D00001E0FCF739FD1E490C39096801F00401AF
:1054E000C1B11B49091F0968C1F303614E1C18496A
:1054F000091F0968C1F306214D1C1549091F0968D8
:10550000C1F306414C1C16FB04F1B0FBF1F101FBA9
:1055100005F00AE00E49091F096801F07F014C1CE3
:10552000B0FBF4F001E0FFE70A4808490968C9B296
:10553000491CB0FBF1F00549091D096801F00101A2
:10554000491CB0FBF1F00449086070BD0C460050E6
:105550001C47005000366E01C0FF002072B6124991
:10556000124A116000BF00BF00BFBFF34F8F00BFE2
:1055700000BF00BF62B60D498031096841F4700177
:105580000A4A8032116009490C31096821F008018A
:10559000064A0C3211600649486920F00F0040F0BD
:1055A00003004861704700000000000808ED00E0BB
:1055B0000020005810B5102251060648FAF782FF65
:1055C0000548064B0ECB0EC0FFF7C8FFFFF76AFE7B
:1055D00010BD0000C4FF0020D4FF00208400002084
:1055E00010B50446FDF79EFB02F00EFA02F0B0FA89
:1055F000FEF78EFAA06900F0A7F9E06903F0A0FABF
:10560000D4E9041002F0BCFBD4E9001003F02AF93D
:10561000D4E9021002F048FDFCF75AFF01210948C5
:1056200001F0CEFA0621084801F0CAFA042001214F
:105630008140064A516000BF02F0EEF903F00AFA19
:1056400010BD000000840248008102480083024827
:1056500010B540F214541048008810490988884257
:1056600014D001200E4908700B4802880088401CA5
:10567000094B18800B48815C0B4801F07CFE00BF91
:10568000201EA4F101018CB2FAD104E0FCF720FF46
:1056900000200349087010BD1C0500201E050020D5
:1056A00024050020E48300200000034010B50448D6
:1056B00001F01AFEC4B2204619F0A8FC10BD00008B
:1056C00000000340704770477047000010B5144851
:1056D00001F00AFEC4B213480078022805D1012067
:1056E000114908701148047018E011480088B0F59D
:1056F000967F08DA0E4801880088401C0C4A10800A
:105700000C4844540AE000200949088008460188F2
:105710000088401C064A10800648445410BD000012
:10572000000002485F030020DF040020E0040020A6
:1057300006000020C40F002010B500216A4801F0C7
:10574000B2FFC0F30B00694908800021684801F0EE
:10575000AAFFC0F30B00674908800021664801F0EA
:10576000A2FFC0F30B00654908800021644801F0E6
:105770009AFFC0F30B006349088001215A4801F0E9
:1057800092FFC0F30B00604908800221564801F0E7
:105790008AFFC0F30B005D49088054480088A0F5DB
:1057A000006000EE100AB8EEC00A5948D0ED000AB9
:1057B000F1EE600A20EE200A564880ED0C0A4D48B2
:1057C0000088A0F5006000EE100AB8EEC00A50484C
:1057D000D0ED000AF1EE600A20EE200A4D4880ED7F
:1057E000130A46480088A0F2F37000EE100AB8EEE3
:1057F000C00A4948D0ED000AF1EE600A20EE200A06
:10580000464880ED130A3F480088A0F2F37000EE8E
:10581000100AB8EEC00A4048D0ED000A20EE200A77
:105820003E4880ED140AFCF77FF801213C4800F067
:1058300059FC00F480103B4908603948703000681A
:105840004EF6602188420DD900BF0220344908611C
:1058500000BF9FED350A354880ED000A012034492C
:10586000088030E02F48006868B33148008840B1B4
:105870009FED2D0A2D4880ED000A00202C4908805C
:1058800021E00121264800F02DFC2A49088000BFB4
:105890002948006EC0F30020012801DA012001E050
:1058A0004FF0FF302549484300EE100AF8EEC00AD9
:1058B0002048008800EE100AB8EE400A80EE801AF8
:1058C0001A4880ED001A194890ED000A1C4880ED36
:1058D000000A0CF0FDFCFEF7B5F900BF01201949E4
:1058E000086000BF10BD000000440040C00600205A
:1058F00000500040C2060020004C0040BC060020C2
:1059000000480040BE060020C4060020C606002055
:10591000CC0600202C0B0020C806002064090020C3
:1059200000C40040F006002000000000D006002067
:10593000E4060020EA060020008002406889090091
:10594000E00600209845004010B56B494FF040201C
:1059500001F036FE69496A4801F0ACFE67496948C2
:1059600001F0A8FE6549684801F0A4FE6349674854
:1059700001F0A0FE6649624801F023FF65496148D5
:1059800001F01FFF6449604801F01BFF63495F4855
:1059900001F017FF624A0221594801F049FE614AAD
:1059A0000321574801F044FE5F4A0421544801F0A6
:1059B0003FFE5E4A0721534801F03AFE5C4A02214D
:1059C000514801F035FE5B4A0021504801F030FE9D
:1059D000594A00214A4801F038FF574A01214848F6
:1059E00001F033FF544A0221454801F02EFF524A8C
:1059F0000021444801F029FF4F4A0021424801F0AC
:105A000024FF4D4A0021414801F01FFF12204B4A5C
:105A10005178002804DB8A06130E494A135406E025
:105A20008A06140E474A00F00F031B1FD45400BF10
:105A30000021334801F000FF1220002809DB00F0AC
:105A40001F02012191404209920002F1E022C2F8B6
:105A5000001100BF03212A4801F0FEFE032129485E
:105A600001F0FAFE0321284801F0F6FE0321274841
:105A700001F0F2FE4FF0402001F0BCFD3248016819
:105A80001F4801F0D4FE314801681D4801F0CFFEE7
:105A90002F4801681A4801F0CAFE2E4801681948CB
:105AA00001F0C5FE2C480168174801F0C0FE2B48E4
:105AB0000168164801F0BBFE294A0221294801F07D
:105AC0001FF8274A0321274801F01AF8244A042125
:105AD000244801F015F8224A0F21224801F010F85D
