:020000040800F2
:10000000B8990020E1020008ED020008ED020008A6
:10001000ED020008ED020008ED02000800000000FB
:10002000000000000000000000000000ED020008D9
:10003000ED02000800000000ED020008ED020008DB
:10004000ED02000899180008ED020008ED02000812
:10005000ED020008ED020008ED020008ED020008C4
:10006000ED02000800000000000000000000000099
:10007000ED02000800000000ED020008ED0200089B
:10008000ED020008ED02000879570008ED020008B3
:10009000ED020008ED020008ED020008ED02000884
:1000A000ED020008ED020008ED020008ED02000874
:1000B000ED020008ED020008ED020008ED02000864
:1000C000ED020008ED020008ED020008ED02000854
:1000D000ED020008ED020008ED020008ED02000844
:1000E000ED020008ED020008ED020008ED02000834
:1000F000ED020008ED020008DD0A0008ED0200082C
:10010000ED020008ED020008ED020008ED02000813
:10011000ED020008ED020008ED020008ED02000803
:10012000ED020008ED020008950C0008ED02000841
:10013000ED020008ED020008ED020008ED020008E3
:10014000ED020008ED020008ED020008ED020008D3
:10015000ED020008ED020008ED020008ED020008C3
:10016000ED020008ED020008ED020008ED020008B3
:10017000ED020008ED020008ED020008ED020008A3
:10018000ED020008ED020008ED020008ED02000893
:1001900045560008A1560008ED020008B9560008AF
:1001A000ED020008BB560008ED020008ED02000851
:1001B000ED020008BD560008C1560008ED02000817
:1001C000000000000000000000000000000000002F
:1001D0000000000000000000ED0200080000000028
:1001E000ED020008911D000800000000ED0200086B
:1001F00000000000000000000000000000000000FF
:1002000000F002F800F05CF80AA090E8000C8244CC
:100210008344AAF10107DA4501D100F051F8AFF2A9
:10022000090EBAE80F0013F0010F18BFFB1A43F0D4
:1002300001031847543D0200743D02000A444FF088
:10024000000C10F8013B13F0070408BF10F8014B35
:100250001D1108BF10F8015B641E05D010F8016B7A
:10026000641E01F8016BF9D113F0080F1EBF10F8DE
:10027000014BAD1C0C1B09D16D1E58BF01F801CB01
:10028000FAD505E014F8016B01F8016B6D1EF9D584
:100290009142D6D370470000002300240025002699
:1002A000103A28BF78C1FBD8520728BF30C148BFD9
:1002B0000B6070471FB520F039FB1FBD10B510BD96
:1002C00000F018FA1146FFF7F5FF11F049F800F0B9
:1002D00036FA03B4FFF7F2FF03BC00F03DFA00006A
:1002E000DFF818D00648804706480047FEE70000C0
:1002F00005480649064A074B70470000B899002098
:10030000A955000801020008B88F0020B899002004
:10031000B8910020B89100209FED1A1AF5EE000A5E
:1003200040EE010ABDEEE00AF5EEC00A10EE100A3A
:10033000F1EE10FA38BF401E00EE100A1349F7EE36
:10034000001AB8EEC00A30EEC00ADFED0F0A20EE48
:10035000200AFCEEC00A10EE900AC0F3080000EE7E
:10036000900A01EB8000F8EE600A90ED011A70EE41
:10037000600A90ED000A71EEE01A21EE800A00EEAC
:10038000810A704783F9223E000000448437020846
:10039000B5EEC00AF1EE10FA07D2DFED1E0AB4EE98
:1003A000E00AF1EE10FAA8BF7047DFED1B0AB5EEC8
:1003B000C00A60EE200ABDEEE01A11EE100AF1EE5E
:1003C00010FA38BF401E00EE100A1549F7EE001A69
:1003D000B8EEC00A30EEC00ADFED100A60EE200A67
:1003E000BCEEE00A10EE100AC0F3080000EE100A9E
:1003F00001EB8000B8EE400A90ED011A70EEC00AE1
:1004000090ED000A71EEE01A21EE800A00EE810AFA
:1004100070470000CD024CB483F9223E0000004436
:100420008437020810B54C1084EA530404D54042C6
:10043000C1F1000138BF491E1B4204D55242C3F12D
:10044000000338BF5B1E00F0DEF814F0804F04D0CC
:100450004042C1F1000138BF491E14F0004F04D0E2
:100460005242C3F1000338BF5B1E10BD40EA0103D6
:1004700010B59B070FD1042A0DD310C808C9121F4D
:100480009C42F8D020BA19BA884201D9012010BD87
:100490004FF0FF3010BD1AB1D30703D0521C07E054
:1004A000002010BD10F8013B11F8014B1B1B07D1B8
:1004B00010F8013B11F8014B1B1B01D1921EF1D129
:1004C000184610BD032A40F2308010F0030C00F0F3
:1004D000158011F8013BBCF1020F624498BF11F87E
:1004E00001CB00F8013B38BF11F8013BA2F1040237
:1004F00098BF00F801CB38BF00F8013B11F00303AF
:1005000000F02580083AC0F0088051F8043B083A12
:1005100051F804CBA0E80810F5E7121D5CBF51F8B4
:10052000043B40F8043BAFF30080D20724BF11F82E
:10053000013B11F801CB48BF11F8012B24BF00F893
:10054000013B00F801CB48BF00F8012B704710B504
:10055000203AC0F00B80B1E81850203AA0E81850BB
:10056000B1E81850A0E81850BFF4F5AF5FEA027C7C
:1005700024BFB1E81850A0E8185044BF18C918C0EB
:10058000BDE810405FEA827C24BF51F8043B40F88C
:10059000043B08BF7047D20728BF31F8023B48BF71
:1005A00011F8012B28BF20F8023B48BF00F8012BAF
:1005B00070474FF0000200B5134694469646203926
:1005C00022BFA0E80C50A0E80C50B1F12001BFF40C
:1005D000F7AF090728BFA0E80C5048BF0CC05DF872
:1005E00004EB890028BF40F8042B08BF704748BFC0
:1005F00020F8022B11F0804F18BF00F8012B704734
:1006000070477047704753EA020C00F069802DE98B
:10061000F04B4FF00006002B1FBFB3FA83F503FA2F
:1006200005F424FA05F65E4012BF1643B2FA82F5CD
:1006300002FA05F4C5F120051EBF22FA05FC44EAC2
:100640000C04203556EA044C4FEA144418BF641CCD
:100650004FF000084FF00009904271EB030C39D3C2
:10066000002919BFB1FA81F701FA07F6B0FA80F74D
:1006700000FA07F6C7F120071EBF20FA07FC46EA7A
:100680000C062037B6FBF4FCA7EB0507103F07F07C
:100690001F0BCBF120060CFA0BFB2CFA06F644BF1D
:1006A000B3460026202FA4BF5E464FF0000B5BEA46
:1006B000060C08BF4FF0010B19EB0B09ABFB027CDA
:1006C00048EB0608C01B06FB02CC0BFB03CC71EB0E
:1006D0000C01C1E70B46024641464846BDE8F08B97
:1006E00013B54FF000004FF00001AFF30080BDE8FC
:1006F0001C407047754600F02BF8AE460500694671
:10070000534620F00700854618B020B5FFF7F0FDEE
:10071000BDE820404FF000064FF000074FF0000802
:100720004FF0000B21F00701AC46ACE8C009ACE883
:10073000C009ACE8C009ACE8C0098D46704710B5E7
:100740000446AFF300802046BDE81040FFF7C1BD6E
:1007500000487047548F002001491820ABBEFEE7C7
:10076000260002007047000091F0000F04BF6FF0F8
:100770000040704710B54FF0010E90EA010F48BFDE
:100780004FF0000E002848BF4042002948BF4942B0
:10079000B0FA80F40A2CA8BF0A2400FA04F2C4F1CB
:1007A0000A0CB2FBF1F0B0FA80F39C45A4BFCEF185
:1007B000004010BD01FB1022B2FA82F464450EDA4B
:1007C000ACEB040C02FA04F200FA04F0B2FBF1F311
:1007D00001FB13221844B2FA82F46445F0DD02FAF8
:1007E0000CF200FA0CF0B2FBF1F318449EF0000F8B
:1007F00008BF404210BD000080FB01014FEA90207D
:1008000000EB815070470000B0FA80F303F01F0244
:1008100042B300FA03F000B54FEA9052134951F881
:100820002210A0FB01E2A2FB01E2C2F14042A2FBC6
:1008300001E14FEA4101A0FB01E2A2FB01E2C2F1AA
:100840004042A2FB01E14FEA4101A0FB01E003F1BC
:1008500014035B1024BF064AA2FB0010D84040F1ED
:10086000000000BD4FF00000704700002CF90108A7
:1008700034F304B591F0000F04BF6FF000407047EF
:1008800010B54FF0010E90EA010F48BF4FF0000E77
:10089000002848BF4042002948BF4942B0FA80F4CE
:1008A000142CA8BF142400FA04F2C4F1140CB2FBF7
:1008B000F1F0B0FA80F39C45A4BFCEF1004010BD2A
:1008C00001FB1022B2FA82F464450EDAACEB040CA0
:1008D00002FA04F200FA04F0B2FBF1F301FB132276
:1008E0001844B2FA82F46445F0DD02FA0CF200FA20
:1008F0000CF0B2FBF1F318449EF0000F08BF404229
:1009000010BD000080FB01014FEA105000EB0130E8
:100910007047000043F65951024A1180024A118083
:10092000704700001A0E0020000B00202DE9F04156
:1009300004460027D4F89080206801F019FA074691
:10094000002F5BD1D4E9010105F053FA606801681A
:1009500041F04001016000BF6068016841F00101A1
:10096000016000BF94F8A700012806D16068C16843
:1009700041F48071C16000BF10E08434D4E90532D5
:100980001979186806F0D4F854F8800C217F843C5B
:10099000C26861F30202C26000BF00BF204600F0DF
:1009A00057F800250EE004F10C0050F8256032796C
:1009B00094F8A1102368586805F0F0F8304600F06C
:1009C00021F86D1C94F8A200A842ECD86068016878
:1009D00021F04001016000BF6068016821F0010161
:1009E000016000BF94F8A70048B998F80410D4F843
:1009F0009420D8F8000006F09BF800E00127384664
:100A0000BDE8F08110B50446206805F05BF9E07997
:100A100001280CD162790421206805F0B5F900BFE6
:100A20004FF40031206805F0A9F900BF00BF207A1B
:100A300001280CD1A2790021206805F0A5F900BF9A
:100A40004FF48031206805F099F900BF00BF10BD58
:100A500070B504460025204600F020F894F8A40064
:100A6000012801D145F0020594F8A300012801D125
:100A700045F0040594F8A500012801D145F00805CA
:100A80002946606805F0AAF994F8A600012804D167
:100A90004FF48001606805F0A1F970BD10B50446FF
:100AA000D4F88C100A780021606805F044FAD4F874
:100AB0008C104A780421606805F03DFAD4F88C1057
:100AC0008A780821606805F036FAD4F88C10CA7864
:100AD0000C21606805F02FFA10BD000010B5002051
:100AE0005A490968012282401143584AB03AC2F873
:100AF000B01000BF5648007801287DD110F086FD67
:100B00005448006810B15349086880470C21524886
:100B100005F0FBFF70B951480088401C4F49088020
:100B2000084600880A280ADB0020088001204C497A
:100B3000087004E000204949088049490870494884
:100B400090ED050A20EE000AD0ED040A90ED041A9B
:100B500000EE810A444880ED000A90ED000ADFEDC6
:100B6000430AB4EEE00AF1EE10FA1DDB404890EDC6
:100B7000030AB0EEC00ADFED3F0AB4EEE00AF1EE80
:100B800010FA11DB3C480088401C3B4908800846AD
:100B90000088B0F57A7F0ADB0020088003F030FE81
:100BA00001203649087002E00020334908802E48B1
:100BB00090ED000ADFED2F0AB4EEE00AF1EE10FA34
:100BC0001FDD2B4890ED030AB0EEC00ADFED290AC5
:100BD000B4EEE00AF1EE10FA13D229480088401C66
:100BE0002749088008460088B0F5FA6F0CDB002022
:100BF000088003F005FE00E023E001202149087091
:100C000002E000201E490880194890ED030AB0EE6A
:100C1000C00ADFED1D0AB4EEE00AF1EE10FA11DDB4
:100C20001A480088401C1949088008460088B0F519
:100C30007A7F0ADB0020088003F0E2FD01201449DE
:100C4000087002E000201149088010BDB0C30040C8
:100C500035090020488D0020008E02485C090020E4
:100C60005409002068090020840800200000A242E6
:100C7000548D00200000C8425E0900205509002064
:100C8000600900205609002000409C4562090020B0
:100C90005709002010B50020104909680122824040
:100CA000114009B1012100E0002161B100200B4990
:100CB00010310968012282401143084AA03AC2F863
:100CC000B01000BF00BF0648408818B904F05AFAB7
:100CD000034948800BF004FC10BD0000A04400480C
:100CE000E804002010B50021904805F081F90021AA
:100CF0008F4805F07DF98D4805F064FA8C4805F0C1
:100D000061FA0021894805F055FA0021884805F06C
:100D100051FA8849884805F0A6F988480068C00853
:100D20004FF4FA61B0FBF1F0401E84B221468248D4
:100D300005F039FA0021804805F02AFA4FF4807155
:100D40007A4805F053F9022200217B4805F0F3F9B7
:100D500000207949A4310968012282401143764A72
:100D6000C2F8A41000BF2E20754A9178002804DB39
:100D70008A06130E734A135406E08A06140E724A4A
:100D800000F00F031B1FD45400BF2E20002809DBE6
:100D900000F01F02012191404209920002F1E0227D
:100DA000C2F8001100BF0221604805F0CEF800BF74
:100DB00001206149C86000BF6449654805F053F9E6
:100DC0006249644805F04FF96049634805F04BF902
:100DD0005E49624805F047F96149624805F02BF920
:100DE0005F49614805F027F94FF6FF71584805F053
:100DF000DAF94FF6FF71574805F0D5F90321564847
:100E000005F0D1F90321554805F0CDF911214748E6
:100E100005F0ECF81121464805F0E8F801214C48AE
:100E200005F068F902214A4805F06CF901214948AA
:100E300005F060F90221474805F064F901214948AD
:100E400005F0E9F80121474805F0EDF80121464891
:100E500005F0E1F80121444805F0E5F801213E489C
:100E600005F048F901213D4805F044F93F4A0121C8
:100E7000374805F010F93E4A0221354805F00BF9D4
:100E80003A4A0121334805F006F9394A022131482E
:100E900005F001F9374A01212F4805F0FCF8354AE1
:100EA00001212E4805F0F7F8334A01212D4805F0BD
:100EB000F2F8314A02212B4805F0EDF82E4A0121C3
:100EC000294805F0E8F82C4A0221274805F0E3F804
:100ED0000221214805F05AF90221204805F056F96F
:100EE0001021124805F082F81021114805F07EF813
:100EF00000210E4805F029F801210C4805F025F8DD
:100F000002210A4805F021F80321084805F01DF8E0
:100F10000021074805F019F80121054805F015F8EA
:100F20000221034805F011F810BD000000C0004088
:100F300000000140640E002000C30040C0FF0020FC
:100F4000E807002000E400E018ED00E0300E00208B
:100F500000C100400001014000C200400002014009
:100F6000380E002000C4004000030140400E002065
:100F7000440E00204C0E0020500E002010B5A64A52
:100F80000121A64805F0D4FD012001218140A34A9A
:100F9000516000BF0021A24805F04EF90021A14890
:100FA00005F04AF99E4805F009FA9E4805F006FA50
:100FB00000219B4805F0FAF900219A4805F0F6F95E
:100FC00099499A4805F04BF99749994805F047F92E
:100FD0009549984805F043F99349974805F03FF93A
:100FE0009649974805F03BF941F26F718F4805F03B
:100FF000C9F941F26F718E4805F0C4F941F26F7181
:101000008C4805F0BFF941F26F718B4805F0BAF9D1
:1010100041F26F718A4805F0B5F941F27072002112
:10102000824805F0AAF941F270720021804805F06B
:10103000A4F941F2707200217E4805F09EF941F258
:10104000707200217C4805F098F941F2707200211D
:101050007B4805F092F941F270720121764805F063
:101060008CF90221714805F07DF90221704805F0E4
:1010700079F902216F4805F075F902216E4805F0F3
:1010800071F902216E4805F06DF90121644805F0FF
:10109000CFF81021624805F0CBF84FF4805160483A
:1010A00005F0C6F801215F4805F0C2F810215D483F
:1010B00005F0BEF8634A01215C4805F0EEF8614A8C
:1010C00001215B4805F0E9F85E4A0121594805F025
:1010D000E4F85C4A0121584805F0DFF8594A01213B
:1010E000574805F0DAF801221146504805F04CF94E
:1010F000012211464E4805F047F9012211464D489C
:1011000005F042F9012211464B4805F03DF9012254
:1011100011464B4805F038F9012045495C3909680A
:10112000012282401143414AC2F8A41000BF0222AA
:1011300001213E4805F0E7F843493C4805F0DCF85A
:1011400041493B4805F0D8F83F493A4805F0D4F802
:101150003E4A05213E4805F0EBFC3C4A02213C4852
:1011600005F0E6FC394A0421394805F0E1FC374A2C
:101170000121374805F0DCFC344A0621344805F0EB
:10118000D7FC324A0B21324805F0D2FC224A0B210F
:101190002F4805F0CDFC204A01212D4805F0C8FC60
:1011A0001D4A02212A4805F0C3FC284A0F2129487C
:1011B00005F0BEFC284A0721284805F0B9FC264A5C
:1011C0000B21244805F0B4FC254A0021134805F002
:1011D000AFFC244A06211F4805F0AAFC0021104854
:1011E00004F0F5FF01210E4804F0F1FF03210C4843
:1011F00004F0EDFF00210B4804F0E9FF012109484C
:1012000004F0E5FF4FF440701749C96C0143164ADA
:10121000D16400BF10BD0000D40A00200084024841
:1012200000000240004002407C0A00200001024011
:101230000002024000040240004102408C0A0020EB
:1012400000420240B40A00209C0A0020BC0A002090
:101250000080024800810248C80A00200085024838
:10126000EC0A0020E00A00200040005070B504465F
:10127000AF48006842F6E0610844AD49086008469E
:101280000068AC49096888427ED33DE1A8480068FF
:10129000A8490968401AA64908600020A6490860C4
:1012A000A648B0F9B600A6490968A64A126800FB2C
:1012B0000120A249486008464068A2490860A24847
:1012C000007858B39D48B0F9B600A0490968484372
:1012D0009B4909689E4A126800FB012097494860B3
:1012E000084640689A4908600846006895490860C1
:1012F000002098490860984908808D4908609748FF
:10130000008840B900208D4981F8BA008E490870E4
:101310008849086001E000F02DF970BD9048007820
:10132000012871D100208E49087088480068FF2884
:1013300066DB8248B0F8B80084490968091A7F481A
:10134000D0F8C00081425BDD7C4890ED010AB8EE28
:10135000C00AD0ED050A30EE600ABDEEC00A10EEFC
:10136000100A7649B1F9B61048437549096890FBEF
:10137000F1F07C49086008460068643808606F48EE
:10138000B0F8B800096800E0C0E0884204DA6B48B1
:10139000B0F8B8007349086072480068002802DAA3
:1013A000002070490860654841686E480068644ADA
:1013B00012685043614AB2F9B62000FB12105F492F
:1013C0004860084640685F4908605C48B0F8B8006B
:1013D00064490988401A5949A1F8B8000846B0F88C
:1013E000BC00614908805548B0F8B810D0F8C0007A
:1013F000084456490860084600885C49088003E0B4
:101400004DF2A000594908804C48B0F8B8004F4947
:101410000968884229DB4948B0F9B600484909689B
:1014200048434A4909684A4A126800FB0120434977
:1014300048600846406846490860084600684149D7
:10144000086000203D4981F8BA0001204649088023
:101450003A49A1F8B80000203549086036490860CB
:101460003C490860424908804FE03448D0F8BC004D
:101470003D49098888420EDC3048B0F8B810D0F8F1
:10148000C000084431490968884204DA36480088B7
:10149000401E354908802948B0F8C80004EB4001D7
:1014A000264890F8CA2030480088104131F8105082
:1014B0002248D0F8C4102846FFF79EF91D4908605D
:1014C0001E48B0F8B800401C1C49A1F8B8002648D6
:1014D0000088401C2449088015480068154909689F
:1014E000884200D310E02248008803280BD011481E
:1014F00001684FF40060FFF7BDF91049B1F9B6106B
:1015000048430D49086000E0C0E600BF084909688B
:10151000094A126801FB02F009490968FFF7F2F96C
:101520000849096801EBE0200449486000BFF4E67F
:10153000100C0020140C0020180C0020D40C0020EB
:10154000280C0020200C00203C0C00201C0C00204B
:10155000240C0020340C00202E0C0020320C002023
:101560003D0C0020440C00202C0C0020400C0020DE
:10157000300C00202DE9F84350480188504800887D
:10158000401C814270D04D480088642817D14D48D6
:101590000088052812D2DFE800F0070809031000D0
:1015A00002204849088009E000BF00BF46480068A3
:1015B00040F004004449086000E000BF00BF3F481D
:1015C0000088C82802DB00203C4908803F483B498E
:1015D000098800EB410000880090BDF80000C0F3CE
:1015E00087108402394935480088401C31F81000C2
:1015F000C0F38710850221462046FFF7FDF880469C
:1016000029462846FFF7F8F808EB00073846FFF7A9
:10161000FBF80646BDF8000000F03F042B492748C0
:101620000088401C11F8100000F03F0504EB851005
:10163000411C3046FFF7E0F825490860084600687D
:1016400081024FF44800FFF78FF822490860BDF887
:101650000000C0F3871020490860BDF80000C0F307
:10166000803010B9012002E01CE04FF0FF301B4930
:10167000A1F8B600164800684FF4FA7148431849BB
:101680000860154800681349096848431349B1F9CF
:10169000B61048431349086008480088801C074971
:1016A000088009E000200D4981F8BA000E49087051
:1016B0000B49086001490880BDE8F8834C0C002004
:1016C0004E0C0020320C0020380C0020C48D00206D
:1016D000700E0020740E00201C0C0020D40C002082
:1016E000140C0020180C00203C0C002070B50346A0
:1016F000474C24780B2C03D0454C2478102C07D170
:10170000444C24780A2594FBF5F605FB164213E0B9
:101710003F4C24780D2C08D13F4CB4F900400A25E9
:1017200094FBF5F605FB164206E03C4C24780A25AE
:1017300094FBF5F605FB1642B3F5C87F31DA0A2AA9
:101740002ED2DFE802F005090D1115191D212529FA
:101750004FF4DB60252123E040F2F34023211FE01A
:1017600040F2F6301D211BE04FF45470182117E0B1
:1017700040F2DA20152113E04FF41F7013210FE01F
:1017800040F2372011210BE040F207200F2107E043
:1017900040F2D7100E2103E040F27D100E2100BF71
:1017A0002DE00A2A2AD2DFE802F005090D111519E9
:1017B0001D2023264FF48260FB211FE040F297207A
:1017C000D9211BE040F2E710BB2117E040F2831063
:1017D000A22113E04FF4A17090210FE04FF48B7021
:1017E0007F210BE0F320742108E0D9206A2105E075
:1017F000C320622102E08E20502100BF00BF03FB06
:1018000000F44FF47A75B4FBF5F4601870BD000075
:10181000C8000020AB02002082020020AA020020A3
:1018200010B502465478210993781C4661F3DF1401
:101830002146802B02DB4C4220B200E008B210BDF2
:1018400010B50246547804F00F01D3781C4661F3BA
:10185000DF142146802B02DB4C4220B200E008B2AC
:1018600010BD00000B480088C0F30E0009494988EC
:10187000C1F30E01084447F6FF71884207D10548BD
:10188000808845F25551884201D1012070470020DF
:10189000FCE70000020B002010B51B48002100F1FE
:1018A000100252F8212022F0800300F1100242F8C9
:1018B000213000BF15480078012824D11448B0F920
:1018C0000800B0F5AF6F05DD1148B0F90800B0F5BC
:1018D000B46F09DD0E48B0F90800002813DB0C488E
:1018E000B0F9080028280EDA0A4800680A4908807A
:1018F0000A48806810B1094988688047084800781C
:10190000401C0749087010BD0048005036090020EF
:10191000548D002070C1004024090020488D002013
:101920005B0900202C4800682C49098E401A00B23F
:1019300000EE100A294890ED0B1AF8EEC01A21EEBD
:10194000211A274880ED1D1A244890ED0D1AF8EE53
:10195000C01A21EE211A224880ED011A90ED011AD9
:101960002048D0ED001A31EE611AF0EE410A1E480F
:1019700090ED001A1D48D0ED001A01EEA01A1A4889
:1019800080ED001A90ED001A1948D0ED001A01EE12
:10199000A01A184880ED001A114890ED051AD0EDF4
:1019A000051A144890ED002A72EE611A9FED122A72
:1019B00002EE211A0A4880ED051A0A4890ED001A35
:1019C0000C48D0ED001A9FED0D2A02EE211A0548B1
:1019D00080ED001A7047000070010140C40B002028
:1019E000300B0020180A0020240A0020200A0020C2
:1019F0001C0A0020280A00208A8EE43DAC8BDB3BC9
:101A00002DE9F04107460C4615461748B0F8C800C6
:101A100035F810601448D0F8C4103046FEF7ECFEDC
:101A200012490860084601684FF40060FEF722FF83
:101A30000D49B1F9B61048430D49086000200D4921
:101A4000086022460C490D4802F0A6F9012006491B
:101A500081F8BA00084690ED360A084880ED0A0A77
:101A60000120BDE8F0810000D40C0020140C0020FF
:101A7000180C0020340C0020C40B0020300B002078
:101A800010B52DED028B3D480088012833DA3B4824
:101A90000088401C39490880394890ED360AF7EE35
:101AA000080A20EE208A90ED360AF1EE0E0AB4EE16
:101AB000E00AF1EE10FA05DD90ED360A314880EDCE
:101AC0000A0A0EE0B1EE0E0AB4EEC08AF1EE10FA88
:101AD00002DDB1EE0E0A01E0B0EE480A294880EDC1
:101AE0000A0A9FED290A274880ED110A9FED270A6F
:101AF00080ED1A0A3FE02148008840F6B83188425C
:101B000018DA1E480088401C1C4908801D4802F055
:101B1000B9FA1C4890ED180A1D4880ED000A1948D2
:101B200090ED190A1A4880ED010A02F045FE02F014
:101B300081F820E01148008840F6B93188421ADA6D
:101B40000E480088401C0D4908800120114908807A
:101B500002F09EFE00BF02200F49086100BF0F483F
:101B60000F490268074802F017F9054890ED370A57
:101B7000044880ED0A0ABDEC028B10BD6C0E0020FB
:101B8000D40C0020300B002000000000D80F49BF0B
:101B90000C0B0020080B002000010140280E002043
:101BA000C40B002030B50324544D6D6AE54005F0A8
:101BB00001050DB9012400E000240481504C248863
:101BC000C4F344234E4C2488C4F304114C4C2478B1
:101BD00004F00F04621C4A4C2488C4F380340CB90E
:101BE000012401E04FF0FF346442C4808488062C55
:101BF00070D2DFE804F0030E2A3A5870048914B159
:101C00000124848001E00324848000243D4DAC81C4
:101C100072E00489A4B941814488641C44804488EA
:101C2000944209D1C488644224B2364DAC81022466
:101C300084800024448007E0C488324DAC8103E0F6
:101C4000C488304DAC81438156E04181048934B170
:101C500000240480012484810024848004E0C4885A
:101C6000644224B2274DAC8146E00489A4B141818D
:101C70004488641C44804488944207D1C488214D20
:101C8000AC8104248480002444800BE0C488644236
:101C900024B21C4DAC8105E0C488644224B2194DC5
:101CA000AC81438128E0418104897CB94488641C6B
:101CB0004480448894420CD1C488644224B2114DBB
:101CC000AC81052484800024448002E0C4880D4D4A
:101CD000AC8111E00FE0048934B1002404800124B8
:101CE00084810024848005E0C488644224B2054DC8
:101CF000AC81418100E000BF00BF30BD00820248DE
:101D0000580C0020B80D00201648006848B315484C
:101D1000007830B30020144908801248007800F0A1
:101D2000800018B14CF23F00104908800D4800783F
:101D300000F0200018B14DF2A5500C490880094868
:101D4000007800F0040018B14CF23E00074908800A
:101D50000448007800F0010018B14DF2A1100349C9
:101D600008807047380C0020220E0020000B002055
:101D700070B504460025607A012806D0D4E9001029
:101D800003F042FF0120607200BF284670BD0000D2
:101D900010B5024804F0B0FD10BD00000040015035
:101DA0002DE9FF4F89B0894692469B46179D35F82D
:101DB0001A00001D84B20AF1010035F81000001D60
:101DC00080B20790169868B100BF601C84B2079873
:101DD000844200DB03E035F81460B145F5D200BF62
:101DE000601E84B2EE88A01984B235F81400029007
:101DF000A01984B235F814000390A01984B235F804
:101E000014000490A01984B235F81410049800EB63
:101E100001400490A01984B235F81400ADF8140004
:101E2000A01984B235F81400ADF81600BDF81610EC
:101E300002980841BDF8141005EB410101EB400088
:101E400030F8020C0299A9EB0101039A891A049A4D
:101E500000FB012004900498C117CDE900010A4855
:101E60008BFB007080460B4638464146009AFEF7D1
:101E7000D9FA0490CDF818B0142202A90998FEF7F7
:101E800066FB0DB0BDE8F08F005307000148B0F9C4
:101E900008007047548D002010B5FFF7F7FF044687
:101EA00008480088201A04B2002C03DA04F5B46054
:101EB00004B205E0B4F5B46F02DDA4F5B46004B279
:101EC000204610BD420200200148B0F904007047CE
:101ED000548D002000487047830C010010B528B9CC
:101EE0000021054A11605160916003E0024990E8C9
:101EF0001C001CC110BD0000488D00200246002AB5
:101F000005DB002901DB012070470420FCE70029E4
:101F100001DB0220F8E70320F6E7F0B503460C46A4
:101F200003F00701C1F10700062801D9062001E0EE
:101F3000C1F107000646881D072801D2002000E0F5
:101F4000481E05460120B040401E2040A840012701
:101F5000AF407F1E17403843F0BD00000048704777
:101F60000024F4002DE9F04782463548B0F90040DE
:101F70003448B0F9005029462046FFF7BFFF00F073
:101F8000FF094FF00008002C01DB204600E0604212
:101F90000446002D01DB284600E068420546E6B213
:101FA000EFB246E0B8F1000F22DBB9F1010F09D022
:101FB000B9F1020F0FD0B9F1030F0DD0B9F1040F31
:101FC00012D100E000BF002E04DD012005F00AFD63
:101FD000701EC6B208E000BF002E04DD022005F02E
:101FE00001FD701EC6B200BF00BFA8EB050820E0CF
:101FF000B9F1010F09D0B9F1020F07D0B9F1030F00
:102000000CD0B9F1040F12D109E000BF002F04DD9C
:10201000032005F0E7FC781EC7B208E000BF002FE0
:1020200004DD042005F0DEFC781EC7B200BF00BF4F
:10203000A044002EB6DC002FB4DCBDE8F087000021
:102040002E0100203001002090ED000AD0ED010AA1
:1020500030EE600A80ED020A90ED070AD0ED020A28
:1020600020EE200A80ED0B0A90ED0C0AD0ED080A54
:1020700090ED021A00EE810A80ED0C0A90ED0B0A39
:10208000D0ED0C0A30EE200A80ED100A90ED100A17
:10209000D0ED050AB4EEE00AF1EE10FA0EDD90ED97
:1020A000050A80ED110A90ED0C0AD0ED080A90EDBA
:1020B000021A00EEC10A80ED0C0A1BE090ED100A36
:1020C000D0ED060AB4EEE00AF1EE10FA0ED290ED71
:1020D000060A80ED110A90ED0C0AD0ED080A90ED89
:1020E000021A00EEC10A80ED0C0A03E090ED100A1E
:1020F00080ED110A7047000001781D4A1180418867
:1021000009B25180818809B2D1801146B1F900101D
:10211000002901DA002111801549B1F900100129C7
:1021200002DD0121124A11801149B1F90210002982
:1021300002DA00210E4A518006E00D49C988A1F556
:10214000B46109B20A4AD1800949B1F90610B1F562
:10215000B46FF2DA06E00649C98801F5B46109B244
:10216000034AD1800249B1F906100029F3DB704718
:10217000548D002010B59FED1A0A1A4880ED080A08
:102180000221194804F0C1FC1849096849788842BD
:1021900003D101201649088002E00020144908807C
:1021A0000020144908700120134908701349087071
:1021B0000020134908701349087013490870134927
:1021C0000870134908701348006800B2124908806B
:1021D0001248D0F8700100B21149088010BD00000B
:1021E000000000006809002000830248348D0020B0
:1021F000548D0020360900202809002037090020CE
:1022000054090020550900205609002057090020D4
:102210005809002070C100400208002000C00040A2
:102220000408002010B504460D4821880180A178DB
:10223000817000200B490870FEF7A0FE00F07EF8C8
:1022400003F09AFB0621084804F0DCFC074A084921
:10225000084801F0EBFF00200749087010BD00009E
:10226000E80700203509002000810248D40C002036
:10227000C40B0020300B00203709002070B5044645
:10228000049D0C48046041608260C36005610220C7
:10229000084EB66830704620064EB668B071D2203F
:1022A000044EB668B0801C20024EB668F071002063
:1022B00070BD0000348D002010B50C21034804F0DF
:1022C00024FC08B9012010BD0020FCE7008E024864
:1022D0000F480078012800D170470E480078012887
:1022E00001D10220F8E70C480078012801D1032031
:1022F000F2E70A480078012801D10420ECE70848F9
:102300000078012801D10520E6E70020E4E700007D
:1023100054090020550900205609002057090020C3
:102320005809002001480078704700002809002063
:102330000148807A70470000548D002010B5434A50
:102340000C21434804F0F4FB424A0221424804F0C5
:10235000EFFB424A0021424804F096FB414A00212B
:102360003F4804F0B9FB02203B49096E012282403C
:102370009143394A116600BF01203B4A1178002879
:1023800004DB8A06130E394A135406E08A06140E3B
:10239000374A00F00F031B1FD45400BF0120002850
:1023A00009DB00F01F02012191404209920002F175
:1023B000E022C2F8001100BF2E492F4804F04AFC69
:1023C0002E492D4804F053FC2D492E4804F042FCC0
:1023D0002A492C4804F04BFCFEF784FC2A4A0721CA
:1023E0001B4804F0A5FB284A0621194804F0A0FB6D
:1023F000254A0521254804F09BFB234A0421234854
:1024000004F096FB204A0321204804F091FB00BF12
:1024100001201949886000BF00BF1A49886000BFC9
:102420001B4803F0C4FE1B4803F0C1FE1A4803F02A
:10243000BEFE1A4803F0BBFE194803F0B8FE194867
:1024400003F0B5FE184803F0B2FE10BD700A00207C
:10245000008E0248B88D002000830248340A002014
:10246000004800503C0A0020E807002000E400E09B
:1024700018ED00E0540A002000800240400A0020CD
:10248000500A002000C00240580A00200082024882
:1024900000C1004000C2004000C3004000C4004032
:1024A000000101400002014000030140014691ED9E
:1024B000340AB5EEC00AF1EE10FA04D291ED340AF6
:1024C000B1EE400A01E091ED340AD1ED2C0AF8EEAC
:1024D000E00AB4EEE00AF1EE10FA01DD01207047E7
:1024E0000020FCE710B50A21014804F086FB10BD6E
:1024F0000081024810B50A21014804F071FB10BDAB
:10250000008102482DE9F04188B005460E460027BB
:1025100000242869012808D16869B0F5807F04D8B3
:102520003146284600F030FB03E168890028FBD1E2
:10253000814981F83A0096F86A0000EE100AB8EE78
:10254000400A7E4880ED380A7C49B1F8AA10491C3F
:10255000286900FB01F4B4F5E64F01D90B2732E0FE
:10256000B4F5D24F01D90A272DE0B4F5BE4F01D9F9
:10257000092728E0B4F5AA4F01D9082723E0B4F5CC
:10258000964F01D907271EE0B4F5824F01D90627DF
:1025900019E0B4F55C5F01D9052714E0B4F5345FA8
:1025A00001D904270FE0B4F50C5F01D903270AE035
:1025B000B4F5C85F01D9022705E0B4F5706F01D901
:1025C000012700E0002707EB8700345C00EE104A8B
:1025D000B8EE400ADFED5A0A20EE200A594880ED95
:1025E000020A07EB87003044447800EE104AB8EE48
:1025F000400ADFED550A20EE200A524880ED060A17
:1026000007EB87003044847800EE104AB8EE400AA9
:10261000DFED4E0A20EE200A4A4880ED070A07EB5C
:1026200087003044C47800EE104AB8EE400ADFED6F
:10263000480A20EE200A434880ED090A07EB87008C
:102640003044047900EE104AB8EE400ADFED410A4A
:1026500020EE200A3B4880ED200A3848B0F8A80058
:10266000384100F00100354981F8AC00084690F887
:10267000AC0081F895000846B0F8B400022805D1F6
:10268000084690ED360A2F4880ED0A0A2B4890F84C
:10269000BA00A8B12948B0F9B6002F4909684843E3
:1026A0002E4909682E4A126800FB01202349486020
:1026B000084640682A4908600846006829490860B9
:1026C000264928690860D5F8148027480068012148
:1026D00043460022CDE900102048016803A8FFF717
:1026E0005FFB142203A91548BC30FDF730FF002022
:1026F0001E49086001201E4908801049A1F8B80051
:10270000A889A1F8B6001848314602680020FFF7F2
:1027100077F9002805DA1748006840F004001549E9
:1027200008600020054981F894000120024981F8E1
:102730003A0008B0BDE8F081C40B0020D40C0020A2
:102740008C4A6A3D300B0020624EAF39D5FFFF380E
:10275000CDCCCC3D0AD7233C280C00201C0C0020FB
:10276000240C0020200C00202C0E0020100C002037
:102770002C0C0020380C00202DE9F84F04460F46A1
:102780003F4830F81400C0F3871086023C49601CB3
:1027900031F81000C0F38710850231463046FEF74D
:1027A0002BF8834629462846FEF726F80BEB000A4D
:1027B0005046FEF729F80090314810F8140000F058
:1027C0003F062F49601C11F8100000F03F0506EB92
:1027D0008510411C0098FEF70FF880464FEA8821CB
:1027E0004FF44800FDF7C0FF81460120254981F8DC
:1027F000AC0081F89500224830F81400C0F387102F
:10280000214908601E4830F81400C0F3803008B930
:10281000012001E04FF0FF301A49A1F8B600002076
:102820001A4908604FF4FA7008FB00F01849086074
:102830001548006800FB09F01249B1F9B610484389
:10284000144908603A461449144801F0A5FA0D48A5
:1028500090ED360A114880ED0A0A012010490870EF
:10286000084981F8BA00A01C0E4908800846008873
:10287000C82803DB08460088C8380880BDE8F88F00
:10288000C48D0020D40C00201C0C0020100C002053
:10289000140C0020180C0020C40B0020300B00206A
:1028A0003C0C00204C0C00202DE9F04188B006467D
:1028B0000D4600270024708900287DD1A24981F8A7
:1028C0003A0095F86A0000EE100AB8EE400A9F48F8
:1028D00080ED380A9D49B1F8AA10491C306900FB07
:1028E00001F4B4F5FE4F68D8B4F5E64F01D90B27D3
:1028F00032E0B4F5D24F01D90A272DE0B4F5BE4F2E
:1029000001D9092728E0B4F5AA4F01D9082723E007
:10291000B4F5964F01D907271EE0B4F5824F01D9CF
:10292000062719E0B4F55C5F01D9052714E0B4F57A
:10293000345F01D904270FE0B4F50C5F01D90327F8
:102940000AE0B4F5C85F01D9022705E0B4F5706F5D
:1029500001D9012700E0002707EB87002C5C00EE7F
:10296000104AB8EE400ADFED7A0A20EE200A7948D4
:1029700080ED020A07EB87002844447800EE104AF5
:10298000B8EE400ADFED740A20EE200A714880EDAF
:10299000060A07EB87002844847800EE104AB8EE58
:1029A000400ADFED6E0A20EE200A6A4880ED070A31
:1029B00007EB8700284401E0C2E01BE0C47800EE8A
:1029C000104AB8EE400ADFED660A20EE200A6148A0
:1029D00080ED090A07EB87002844047900EE104ACD
:1029E000B8EE400ADFED5F0A20EE200A594880ED7C
:1029F000200A39E015F83C4F00EE104AB8EE400AC4
:102A0000DFED530A20EE200A524880ED020A6C786E
:102A100000EE104AB8EE400ADFED4F0A20EE200A21
:102A200080ED060AAC7800EE104AB8EE400ADFED01
:102A30004B0A20EE200A80ED070AEC7800EE104ADF
:102A4000B8EE400ADFED460A20EE200A80ED090AC2
:102A50002C793C3D00EE104AB8EE400ADFED410A09
:102A600020EE200A80ED200A384890F8BA00A8B17C
:102A70003648B0F9B6003C49096848433B49096803
:102A80003B4A126800FB0120304948600846406814
:102A90003749086008460068364908602B4890F8B6
:102AA000AC002A4981F895000846B0F8B400022825
:102AB00006D1084690ED360A264880ED0A0A0AE05B
:102AC000224890F89500012805D1204890ED360A5B
:102AD000204880ED0A0A254930690860D6F814803C
:102AE0000020254908600120244908801749A1F8E1
:102AF000B800B089A1F8B60021480068012143461A
:102B00000022CDE900101948016803A8FFF748F931
:102B1000142203A90D48BC30FDF719FD18482946B9
:102B200002680020FEF76CFF002805DA15480068EF
:102B300040F00400134908600120034981F83A007D
:102B400008B0BDE8F0810000C40B0020D40C0020C8
:102B50008C4A6A3D300B0020624EAF39D5FFFF38FA
:102B6000CDCCCC3D0AD7233C280C00201C0C0020E7
:102B7000240C0020200C0020100C00202C0C002025
:102B80002C0E0020380C002070B504460D466089DC
:102B900000287BD1574981F83A009FED570A5748E2
:102BA00080ED380A56480078C0B15448B0F9B600F4
:102BB00054490968484354490968544A126800FB5B
:102BC00001204E4948600846406850490860084660
:102BD00000684F49086000204E49086015F8410F11
:102BE00000EE100AB8EE400ADFED4B0A20EE200A94
:102BF0004A4880ED020A687800EE100AB8EE400AF2
:102C0000DFED470A20EE200A444880ED060AA87846
:102C1000413D00EE100AB8EE400ADFED420A20EE18
:102C2000200A3E4880ED070A606930B90020334928
:102C300081F8AC0081F8950005E001202F4981F86A
:102C4000AC0081F895002F4920690860A0892B49C4
:102C5000A1F8B60000202F490860334800880128F9
:102C600015DC2848006831494843314908602F493C
:102C70004FF40060FDF7FEFD2049B1F9B61048435E
:102C80002C4908600120284908801DE030E02648D2
:102C90000088401E42F6E061484325490860224A08
:102CA0001288521E42F6E06302FB03F1154A1268D5
:102CB000D002FDF7DFFD1149B1F9B61048431D49B7
:102CC00008600120184908802A460A49134801F083
:102CD00063F80A4890ED360A104880ED0A0A012090
:102CE00007490870054981F8BA00024981F83A009D
:102CF00070BD0000C40B002000000000D40C0020B8
:102D00003C0C00201C0C0020280C0020240C00206F
:102D1000200C0020100C00208C4A6A3D300B002053
:102D2000624EAF39D5FFFF38520C002000941100DD
:102D3000140C0020180C002010B5054804F032F8DF
:102D4000002004F01DFA2021012004F0A9F910BD93
:102D5000840A020870B500245249534804F0B2FABC
:102D600000BF5148406B40F001004F49486300BF2D
:102D7000082000BF496B21F07062411E42EA0161E8
:102D8000494A516300BF00BF00BF00BF1146496BF5
:102D900021F47C12411E42EA0141434A516300BFC3
:102DA00000BF0021084600BF526922F050420A438A
:102DB00002433D4B5A6100BF00BF022019464969DA
:102DC00021F4FE41421EC30143EA82221143364AE6
:102DD000516100BF354A0221354803F0A9FE32494E
:102DE0000020024601F11C0353F8203023F0400379
:102DF00043F0100501F11C0343F8205000BF01F11E
:102E00001C0353F8203023F00703134301F11C0582
:102E100045F8203000BF00BF00BF0120096C21F041
:102E20000F010143204A116400BF00BF214A052160
:102E3000214803F07DFE214A06211F4803F078FE59
:102E40001F4A01211C4803F073FE1E4A0D211E4833
:102E500003F06EFE1D4A0E211B4803F069FE00229E
:102E60001021114804F06AFB0123052220210E489D
:102E700004F06EFB032210210B4804F084FB0023B6
:102E800005221946084804F0E3FA052210210648F5
:102E900004F0FCFA05221321034804F0F7FA204657
:102EA00070BD00004400002000020340F420002018
:102EB000008202481C00002000830248B00A020879
:102EC000CC0A02083000002000810248F00A020803
:102ED0002DE9F04706460F4690461D464FF0020981
:102EE000B468207F20BB07B3B8F1000F1DD0E5B157
:102EF000E07FF8B994F82000E0B90120E077C4F849
:102F00001480A7616560002084F8210084F8220005
:102F1000706890F8850002280CD12946304600F0F0
:102F20000CF881460020E07704E04FF0030901E04F
:102F30004FF001094846BDE8F0872DE9F04105460C
:102F400088460126AC68002700202061A060A868A0
:102F50000068082800D90226701E08FA00F0E06018
:102F6000217F286804F0D3F9686890F87D00002874
:102F700077D028684FF48041C0F8181100BF286846
:102F800000F0F6F894F82100012806D1227F4FF6D0
:102F9000FF71286804F0F2FA0DE0022E03D1A16857
:102FA000A069475A02E0A168A069475C227F3946C0
:102FB000286804F0E3FAA0683044A06032E094F896
:102FC0002100012806D1227F4FF6FF71286804F006
:102FD000D5FA0DE0022E03D1A168A069475A02E09C
:102FE000A168A069475C227F3946286804F0C6FAC8
:102FF00000BF286804F044FA0028FAD1286804F0D9
:1030000054F90746D4E904218F54022E04D1391211
:10301000D4E90402401C1154206930442061A068A6
:103020003044A060A068E1688842C8D300BF286827
:1030300004F026FA0028FAD1286804F036F9074689
:10304000D4E904218F54022E04D13912D4E90402A8
:10305000401C115405212868C0F8181100BF81E0F8
:10306000FFE7286800F084F800BF286804F0EBF957
:103070008028FAD094F82100012806D1227F4FF64B
:10308000FF71286804F08BFA0DE0022E03D1A168CD
:10309000A069475A02E0A168A069475C227F3946CF
:1030A000286804F07CFAA0683044A0603DE000BFCE
:1030B000286804F0C8F98028FAD094F82100012883
:1030C00006D1227F4FF6FF71286804F068FA0DE000
:1030D000022E03D1A168A069475A02E0A168A06945
:1030E000475C227F3946286804F059FA00BF2868F7
:1030F00004F0A4F90028FAD0286804F0D6F80746AE
:10310000D4E904218F54022E04D13912D4E90402E7
:10311000401C1154206930442061A0683044A060F4
:103120004FF44041286804F08BF8A068E1688842B9
:10313000BDD300BF286804F081F90028FAD02868C0
:1031400004F0B3F80746D4E904218F54022E04D1C9
:103150003912D4E90402401C11544FF4404128684C
:1031600004F06EF80020E0602061A060BDE8F0810E
:1031700010B50446204604F098F8204604F095F86F
:1031800010BD000010B52DED0E8B04469FEDFB0A1F
:10319000B0EE40EA9FEDF90AF0EE40EA9FEDF70A43
:1031A000B0EE409A9FEDF50AF0EE409A9FEDF30ADB
:1031B000F0EE40BA9FEDF20A84ED0D0A002084F88B
:1031C000740094ED110ADFEDEF0AB4EEE00AF1EEBF
:1031D00010FA07DB94ED110ADFEDEA0A30EE600A1F
:1031E00084ED110A94ED110AB5EEC00AF1EE10FA61
:1031F00007D294ED110ADFEDE30A30EE200A84EDE8
:10320000110A94ED130AB1EE400AD4ED140A30EE1F
:10321000600A84ED150A204607F0D0FC20460FF026
:1032200023F99FEDD60A84ED070A94ED080AD648E3
:10323000D0ED000AB4EEE00AF1EE10FA02DD90EDF6
:10324000000A01E094ED080A84ED080A94ED080AEA
:10325000CD48D0ED000AF1EE600AB4EEE00AF1EEDE
:1032600010FA04D290ED000AB1EE400A01E094EDAC
:10327000080A84ED080A94ED070AD4ED040A30EE3A
:10328000600AC24880ED000A94ED1B0AD0ED000AE6
:1032900020EE200AB0EE40EA94ED1C0A20EE0E0A61
:1032A000BB4880ED000ABB4890ED000AB848D0ED5D
:1032B000000A30EE200AB74880ED000A90ED000ABF
:1032C0003EEE000A84ED020A94ED190AB1EE400ABE
:1032D000D4ED170A60EE200A94ED051A94ED020A67
:1032E00010EEC10A84ED000A94ED000ADFEDAA0A8F
:1032F000B4EEE00AF1EE10FA0EDD9FEDA70A84EDC0
:10330000000A90ED000AA248D0ED000A30EE600AF3
:10331000A04880ED000A17E094ED000ADFED9F0A57
:10332000B4EEE00AF1EE10FA0ED29FED9C0A84EDA5
:10333000000A984890ED000A9548D0ED000A30EE5A
:10334000600A944880ED000A94ED080AD4ED050A5D
:1033500030EE600A924880ED000A94ED1B0AD0ED31
:10336000000A20EE200AF0EE40EA94ED1C0A20EE5E
:103370002E0A8C4880ED000A8B4890ED000A89489F
:10338000D0ED000A30EE200A874880ED000A90ED6B
:10339000000A3EEE800A84ED030A94ED190AD4ED8A
:1033A000160A20EE200AD4ED040A20EE200AD4EDFD
:1033B000190A94ED1A1A00EE810AD4ED030A30EED0
:1033C000200AB1EE400A84ED010A94ED010ADFED16
:1033D000720AB4EEE00AF1EE10FA0EDD9FED6E0A0D
:1033E00084ED010A90ED000A6E48D0ED000A30EE3F
:1033F000600A6D4880ED000A17E094ED010ADFEDE8
:10340000670AB4EEE00AF1EE10FA0ED29FED630AFD
:1034100084ED010A644890ED000A6248D0ED000A8C
:1034200030EE600A604880ED000A94F87E000128C2
:103430001BD19FED520A84ED000A9FED500A84EDE6
:10344000010A9FED4E0A524880ED000A9FED4B0A9B
:10345000544880ED000A9FED490A4E4880ED000A6D
:103460009FED460A504880ED000A20460DF094FB7F
:1034700094ED0AAA94ED090ADFED4C0A20EE200A29
:10348000F6EE000A20EE200AD4ED0A0AB6EE001A83
:10349000F0EE40AA40EEC1AA94ED090ADFED430A1E
:1034A00020EE200AF6EE000A20EE600AD4ED0A0AA9
:1034B000B6EE001AB0EE40BA00EEC1BAB5EEC0AA40
:1034C000F1EE10FA02DD012084F87400F5EEC0AAD6
:1034D000F1EE10FA04DD94F87400801C84F8740096
:1034E000B5EEC0BAF1EE10FA04DD94F87400001DD8
:1034F00084F8740094F874002D49087094F87400EE
:10350000012810D19FED2B0A2AEE800AD4ED0D0A76
:1035100020EE608A9FED270A2BEE000AD4ED0D0AFB
:1035200060EE608A86E094F87400022810D19FED66
:10353000210A2BEE000AD4ED0D0A20EE608A9FEDE1
:103540001D0A2AEE000AD4ED0D0A60EE608A71E0D1
:1035500094F8740003282FD19FED160A2AEE800AF2
:10356000D4ED0D0A20EE208A9FED120A2AEE000A01
:10357000D4ED0D0A60EE208A5CE00000000000003F
:103580001C68533B0000B4430C0A0020100A0020C2
:10359000FC090020F809002000003343000033C379
:1035A000140A0020040A0020000A002074B5DD3F40
:1035B000EC0900206662A24694F87400042810D139
:1035C0001FED040A2AEE000AD4ED0D0A20EE608AEF
:1035D0001FED080A2AEE800AD4ED0D0A60EE608A1B
:1035E00028E094F87400052810D11FED0E0A2AEE89
:1035F000000AD4ED0D0A20EE208A1FED120A2BEEF0
:10360000000AD4ED0D0A60EE208A13E094F87400ED
:1036100006280FD11FED190A2BEE000AD4ED0D0A72
:1036200020EE208A1FED1D0A2AEE800AD4ED0D0A35
:1036300060EE208A38EE280ADFEDCD0AB4EEE00A0B
:10364000F1EE10FA0FDD9FEDCA0A28EE000A78EEBF
:10365000280A80EE201AB0EE418A9FEDC50A30EEAE
:10366000480AF0EE408A9FEDC20A30EE480A30EE7A
:10367000680AF5EE000A20EE200AB0EE409AF6EE57
:10368000000AB0EE490A08EE200AF0EE409AF6EE83
:10369000000AB0EE690A08EEA00AF0EE40BA94F80B
:1036A0007400012806D1C4ED0E9A84ED0F9AC4ED82
:1036B00010BA42E094F87400022806D184ED0E9A04
:1036C000C4ED0FBAC4ED109A37E094F874000328E3
:1036D00006D184ED0E9AC4ED0F9AC4ED10BA2CE019
:1036E00094F87400042806D1C4ED0EBAC4ED0F9A04
:1036F00084ED109A21E094F87400052806D1C4EDF9
:103700000EBA84ED0F9AC4ED109A16E094F8740086
:10371000062806D1C4ED0E9AC4ED0FBA84ED109AB6
:103720000BE09FED940A84ED0E0A9FED920A84ED62
:103730000F0A9FED900A84ED100A94ED110AF0EE45
:10374000080AB4EEE00AF1EE10FA0BDD94ED110A6E
:10375000DFED890AB4EEE00AF1EE10FA02D2DFEDF5
:1037600087CA16E094ED110ADFED850AB4EEE00A8F
:10377000F1EE10FA0BDD94ED110ADFED820AB4EEE2
:10378000E00AF1EE10FA02D2DFED7FCA01E05FED50
:1037900085CA94ED110ADFED7D0AB4EEE00AF1EE80
:1037A00010FA0BDD94ED110ADFED790AB4EEE00AB0
:1037B000F1EE10FA02D29FED71DA16E094ED110AE3
:1037C000DFED740AB4EEE00AF1EE10FA08DC94EDD5
:1037D000110ADFED710AB4EEE00AF1EE10FA02D23E
:1037E0009FED69DA01E01FED9BDA94ED110ADFED40
:1037F0006B0AB4EEE00AF1EE10FA08DC94ED110A5F
:10380000DFED670AB4EEE00AF1EE10FA02D2DFED66
:103810005BDA16E094ED110ADFED620AB4EEE00A1D
:10382000F1EE10FA0BDD94ED110ADFED5F0AB4EE54
:10383000E00AF1EE10FA02D2DFED53DA01E05FEDBB
:10384000B1DA94ED080AF6EE000AB4EEE00AF1EE01
:1038500010FA02DDB7EE00CA0DE094ED080AFEEEA4
:10386000000AB4EEE00AF1EE10FA02D2BFEE00CA8E
:1038700001E01FEDBECA94ED0E0A0CEE8C0A84ED39
:103880000E0A94ED0F0A0DEE0C0A84ED0F0A94ED6A
:10389000100A0DEE8C0A84ED100A94ED0E0AB5EEB6
:1038A000C00AF1EE10FA04D21FEDCC0A84ED0E0A24
:1038B0000CE094ED0E0ADFED3D0AB4EEE00AF1EE05
:1038C00010FA03DB9FED3A0A84ED0E0A94ED0F0A1D
:1038D000B5EEC00AF1EE10FA04D21FEDD80A84ED5D
:1038E0000F0A0CE094ED0F0ADFED300AB4EEE00AA7
:1038F000F1EE10FA03DB9FED2E0A84ED0F0A94ED32
:10390000100AB5EEC00AF1EE10FA04D21FEDE50A76
:1039100084ED100A0CE094ED100ADFED240AB4EEF9
:10392000E00AF1EE10FA03DB9FED210A84ED100AA4
:103930003C3414ED010ABCEEC00A10EE100A41F24C
:103940007071081A608794ED000ABCEEC00A10EE90
:10395000100A081AA08794ED010ABCEEC00A10EE06
:10396000100A081AE0873C3CBDEC0E8B10BD00002D
:1039700000803B4600803B4500003143000034C3DB
:10398000000037430080B243000034430000F64299
:1039900000809443008097430000EA420000734394
:1039A0000000644200007C4200006D430080BB4583
:1039B0000078BB4510B53348007802280BDB31484E
:1039C0000078202807DC2F480078642110FB01F0E4
:1039D0002D4908800AE02B48007838B92A48B0F908
:1039E0000000642190FBF1F026490870274890F907
:1039F0000000002814DD26480078642110FB01F047
:103A0000244948800846FEF777FB2248408800B2E8
:103A1000214908801D480178012018F013FF30E08B
:103A20001A4890F9000000282BDA184890F9000095
:103A3000002803DB154890F9000003E0134890F9D3
:103A400000004042C4B212480078642110FB01F02B
:103A5000104948800846FEF74FFB0E48408800B2E8
:103A60000D4908802146002018F0ECFE01E015F019
:103A700077F9FEF711FA1028F9DA2146012018F03B
:103A8000E1FE10BD58010020CC010020B70300204A
:103A9000DE010020CC0000203804002070B505466F
:103AA0000C46FEF731F91748006848B116480088FF
:103AB000208015480088608013480088A0800BE0B3
:103AC0001148008820801048018847F6FF7088431D
:103AD000608045F25550A080002006E035F81010B7
:103AE0000A4A22F81010411CC8B20328F6DB074826
:103AF0000088054908800648006819F065F800202C
:103B000070BD0000380C0020000B0020020B0020CC
:103B1000280E002010B53A4A0A213A4803F008F866
:103B2000374A0921374803F003F8354A0821354858
:103B300002F0FEFF324A0021324802F0F9FF304A1B
:103B40000121304802F0F4FF2D4A08212E4802F0EE
:103B5000EFFF2B4A0E212C4802F0EAFF284A0D21E4
:103B6000294802F0E5FF264A0121274802F0E0FF3C
:103B7000234A0021244802F0DBFF214A092123487F
:103B800002F0D6FF224A0221224802F0D1FF204A49
:103B90000321214802F0CCFF1D4A0C211E4802F0EF
:103BA000C7FF1B4A00211D4802F0C2FF184A072127
:103BB000194802F0BDFF164A0821174802F0B8FF65
:103BC000134A0021144802F0B3FF114A01211248A0
:103BD00002F0AEFF0E4A02210F4802F0A9FF0C4A84
:103BE00002210E4802F0A4FF094A01210B4802F00D
:103BF0009FFF074A0421074802F09AFF10BD00000A
:103C00004409020800820248008E0248008F0248E0
:103C100038090208008302480081024800850248F2
:103C2000012001048140024A516000BF704700003A
:103C300000840248062001218140024A516000BFF1
:103C4000704700000081024810B52D480068401CF4
:103C50002B4908602B48008808B1FDF711FF0020B0
:103C60002949496AC14001F0010129B92748006882
:103C700040F00100254908602448006810B1002088
:103C8000234908802348008801280ADB214800884E
:103C9000401C2049088008460088A02801DB00203D
:103CA00008801D48008850B31948008888B91B480F
:103CB000008850B900F0ECFD012018490880184830
:103CC00018490268184800F067F800201749088072
:103CD00015E00F480088012811D11148006800F054
:103CE00003FE134800F068FD1048008820B9FFF774
:103CF000A1FF01200D49088000200849088010BD5F
:103D0000FC0A00200A0B002000840248380C002026
:103D1000220E0020520C0020080B0020F80A002080
:103D2000280E0020C40B0020300B0020FA0A0020CF
:103D30000C0B002012F8543F00EE103AB8EE400A87
:103D4000F6EE060A20EE200A80ED0D0A537800EE0A
:103D5000103AB8EE400ADFED0F0A20EE200A80ED9F
:103D60000E0A937A00EE103AB8EE400AF6EE060A12
:103D700020EE200A80ED140AD37A543A00EE103A6D
:103D8000B8EE400ADFED030A20EE200A80ED150AA6
:103D90007047000040DA7F392A4BB3F8B4300A2B61
:103DA00015D1294B93ED000AB8EEC00ADFED270AC2
:103DB00020EE200A80ED0D0A93ED000AB8EEC00A4D
:103DC000DFED220A20EE200A80ED140A39E012F815
:103DD000503F00EE103AB8EE400AF6EE060A20EE2A
:103DE000200A80ED0D0A537800EE103AB8EE400A32
:103DF000DFED170A20EE200A80ED0E0A937A00EE1E
:103E0000103AB8EE400AF6EE060A20EE200A80EDDF
:103E1000140AD37A503A00EE103AB8EE400ADFEDB9
:103E20000C0A20EE200A80ED150A9FED0A0A80EDAB
:103E30000F0A9FED080A80ED160A9FED060A80ED35
:103E4000080A7047D40C0020480C002035FE2F379C
:103E500040DA7F390000000070B52DED048B054677
:103E60000C461646B5F8B40002287DD094ED010A40
:103E7000D4ED240A70EE600A94ED240A9FED771ABF
:103E800001EE200A84ED240A94ED010ADFED740AA4
:103E900020EE200A85ED050A95ED020AB8EEC00A6B
:103EA000D4ED240A9FED6E1AF0EE408A40EEC18AEE
:103EB00095F89500D8B395ED020AB8EEC00AD5ED95
:103EC000380A94ED231A38EEC11AB0EE409A00EE8B
:103ED000819A95ED050A39EE400A85ED340AC4ED64
:103EE000238A95ED340ADFED5F0AB4EEE00AF1EEC5
:103EF00010FA0CDD94ED1D0AF5EE000A30EE208A72
:103F00009FED590A28EE000A84ED1A0A27E095ED84
:103F1000340ADFED560AB4EEE00AF1EE10FA0ED2E2
:103F200094ED1D0AF5EE000A30EE608A00E026E00E
:103F30009FED4D0A28EE000A84ED1A0A0FE09FED6E
:103F40004C0A29EE008AB0EE480A03F013FD38EE61
:103F5000400ADFED450A20EE200A84ED1A0A9FEDA3
:103F6000450A84ED110A00E049E0204600F08AF895
:103F700094ED000A84ED210AC4ED228A62E095EDF9
:103F8000020AB8EEC00AD5ED050A30EE600A85EDEA
:103F9000340A95ED020AB8EEC00ADFED370A20EECA
:103FA000200A84ED000A94ED000AD4ED210A30EED7
:103FB000600ADFED320A20EE200A84ED1E0A94ED3D
:103FC000000A84ED210A94ED220A38EEC00ADFEDE2
:103FD0002C0A20EE200A84ED1F0AC4ED228A94EDFB
:103FE0001D0ADFED210A20EE200A84ED1A0A9FED5A
:103FF000210A84ED0A0A204600F008FA22E095ED35
:10400000020AB8EEC00ADFED1A0A20EE208AB0EEEE
:10401000480A03F0AFFC38EE400ADFED130A20EE49
:10402000200A84ED1A0A9FED130A84ED110A204636
:1040300000F028F894ED000A84ED210A9FED0D0AA6
:1040400084ED220A94ED180A86ED000A94ED190A0F
:1040500086ED010ABDEC048B70BD00000A68223EAB
:10406000000080440000A046D00FC9400000A0C658
:10407000AACC4C3700000000D5FF7F3A0000164361
:10408000DAAC7A3C10B52DED088B0446D4ED1A0A53
:10409000B0EE600AFCF77CF9F0EE408AD4ED1A0A23
:1040A000B0EE600AFCF738F9B0EE409A94ED0C0AD5
:1040B00020EE090AD4ED130A08EEA00A84ED0B0ADB
:1040C00094ED0C0AF1EE680A20EE200AD4ED130AF2
:1040D00009EE200A84ED120A94ED0A0AD4ED0B0AC7
:1040E00030EE600AB0EE40BA94ED0D0A20EE0B0AF5
:1040F000F0EE40AA94ED0E0A20EE2A0AB0EE408AB5
:1041000094ED0F0A30EE080A84ED0F0A94ED0F0AC1
:1041100030EE2A0A84ED100A94ED100AD4ED1C0A40
:10412000B4EEE00AF1EE10FA0ADD94ED1C0A84ED1B
:10413000100A94ED0F0A30EE480A84ED0F0A16E0DB
:1041400094ED100AD4ED1C0AF1EE600AB4EEE00A18
:10415000F1EE10FA0BD294ED1C0AB1EE400A84ED98
:10416000100A94ED0F0A30EE480A84ED0F0A94ED20
:10417000110AD4ED120A30EE60AA94ED140A60EE32
:104180000A9A94ED150A20EE290AB0EE408A94EDC1
:10419000160A30EE080A84ED160A94ED160A30EE7F
:1041A000290A84ED170A94ED170AD4ED1C0AB4EE1F
:1041B000E00AF1EE10FA0ADD94ED1C0A84ED170A0C
:1041C00094ED160A30EE480A84ED160A16E094EDD6
:1041D000170AD4ED1C0AF1EE600AB4EEE00AF1EE23
:1041E00010FA0BD294ED1C0AB1EE400A84ED170AC6
:1041F00094ED160A30EE480A84ED160A94ED100A82
:1042000020EE090AD4ED170A08EEE00A84ED180A38
:1042100094ED100A20EE280AD4ED170A09EE200AC0
:1042200084ED190ABDEC088B10BD000010B59FEDA0
:104230006B0A80ED060A9FED6A0A80ED070AB1EE6F
:10424000020A80ED090A9FED670A80ED020A664BBB
:104250001B6893F84D3023B1634B1B6893F84E30C5
:1042600013B9624B604C23605F4B1B6893F84E3070
:1042700023B946235C4C246884F84E305A4B1B68A3
:1042800093F84E3000EE103AB8EE400ADFED580ACF
:1042900020EE200A80ED0D0A534B1B6893F84D3039
:1042A00000EE103AB8EE400ADFED4E0A60EE200A4A
:1042B0004D4B1B6893F84E3000EE103AB8EE400AB2
:1042C00080EE801A80ED0E1A90ED0D0A80ED140A32
:1042D00090ED0E0A80ED150A92ED370A80ED0A0A7C
:1042E0009FED440A80ED0F0A9FED420A80ED160A09
:1042F0009FED400A80ED080A0B8C00EE103AF8EEB4
:10430000400A0B8D00EE103AB8EE400A80EE801A9B
:1043100081ED0B1A0B8D0C8C93FBF4F300EE103A2D
:10432000B8EEC00AF4EE000A20EE200ABDEEC00A84
:1043300010EE103A1BB20B862B4B1B6893F84C30D7
:10434000552B04D06E23284C246884F84C30264B1F
:104350001B6893F84C3000EE103AB8EE400A264B3A
:1043600083ED020A93ED020AF7EE000A80EE801A4E
:1043700083ED081A1C4B1B6893F84C3000EE103A82
:10438000B8EE400A80ED1C0A174B1B6893F84B30BF
:104390009B0000EE103AB8EEC00A80ED030A124B03
:1043A0001B6893F86B30154C24686343144C2360EE
:1043B0000E4B93F86730114C2468634300EE103ABB
:1043C000B8EEC00ADFED0F0A20EE200ABCEEC00AEC
:1043D00010EE103A0C4C238010BD0000B37B723CF1
:1043E0008C4A6A3CCDCCCC3D280E00205C0C0020D1
:1043F0008FC2753C000000000C0B0020280C002030
:10440000540C0020D5FF7F3A5A0C002010B52DED3A
:10441000028B044694ED000AD4ED010A30EE600AE6
:10442000B0EE408A94ED1E0AD4ED020A00EE880A2E
:1044300084ED040A94ED040AD4ED030AB4EEE00A14
:10444000F1EE10FA04DD94ED030A84ED040A10E0A5
:1044500094ED040AD4ED030AF1EE600AB4EEE00A2A
:10446000F1EE10FA05D294ED030AB1EE400A84EDA4
:10447000040A204600F02CF9BDEC028B10BD0000B0
:104480009FED914AB0EE440A9FED8F4AF0EE440A48
:104490009FED8D4AB0EE441A9FED8B4AB0EE442A50
:1044A0009FED894AF0EE441A9FED874AF0EE442AC8
:1044B0009FED854AB0EE443A9FED834AF0EE443AD0
:1044C00090ED004AD0ED084A24EE244AB0EE440AAA
:1044D00090ED014AD0ED084A24EE244AF0EE440A59
:1044E000B0EEC04AB0EE442AB0EEE04AF0EE441A14
:1044F00032EE214AB0EE441A20EE204AB5EEC04A10
:10450000F1EE10FA46DBB4EEE12AF1EE10FA20DB10
:10451000B7EE004A30EE044AF6EE004A24EE244A92
:1045200080ED034AB7EE004A34EE404AF6EE004A08
:1045300024EE244A80ED044AB7EE004A74EE404A65
:10454000B6EE005AB0EE604A05EE244A80ED054A08
:1045500053E0B7EE004A74EE604AB6EE005AB0EE91
:10456000404A05EE244A80ED034AB7EE004A34EE95
:10457000604AF6EE004A24EE244A80ED044AB7EE83
:10458000004A30EE844AF6EE004A24EE244A80EDDA
:10459000054A32E0B7EE004AB4EEC41AF1EE10FA62
:1045A00007DD80EE014AB0EE440A80EE814AF0EE6B
:1045B000440AB7EE004A30EE044A34EE604AF6EEA2
:1045C000004A24EE244A80ED034AB7EE004A34EE56
:1045D000404A34EE604AF6EE004A24EE244A80ED6A
:1045E000044AB7EE004A34EE404A34EE204AF6EE72
:1045F000004A24EE244A80ED054A90ED034AF7EE86
:10460000004A34EEC44AF0EE442A90ED044AF7EE34
:10461000004A34EEC44AB0EE443A90ED054AF7EE53
:10462000004A34EEC44AF0EE443A9FED284AF4EED4
:10463000C42AF1EE10FA02D29FED244A01E0B0EE56
:10464000624AF0EE442A9FED214AB4EEC43AF1EEFC
:1046500010FA02D29FED1D4A01E0B0EE434AB0EEDF
:10466000443A9FED1A4AF4EEC43AF1EE10FA02D23F
:104670009FED164A01E0B0EE634AF0EE443AC18B7A
:1046800004EE101AB8EE444A24EE224ABCEEC44AA4
:1046900014EE101A0183C18B04EE101AB8EE444ACE
:1046A00024EE034ABCEEC44A14EE101A4183C18BB7
:1046B00004EE101AB8EE444A24EE234ABCEEC44A73
:1046C00014EE101A81837047000000000AD7A33D42
:1046D00010B52DED048B044694ED040AD4ED050AC3
:1046E00030EE600AB0EE409A94ED060A20EE090A18
:1046F000F0EE408A94ED070A20EE280AB0EE408AD8
:1047000094ED080A30EE080A84ED080A94ED080AD0
:1047100030EE280AD4ED200A94ED1F1A00EE810A2B
:1047200084ED110A94ED110AD4ED090AB4EEE00A01
:10473000F1EE10FA0ADD94ED090A84ED110A94ED08
:10474000080A30EE480A84ED080A16E094ED110AD2
:10475000D4ED090AF1EE600AB4EEE00AF1EE10FAC7
:104760000BD294ED090AB1EE400A84ED110A94EDE2
:10477000080A30EE480A84ED080A2046FFF782FC5A
:10478000BDEC048B10BD00000149086070470000BB
:104790002C0E002005490860096891F86B10044A46
:1047A00012685143034A116070470000280E002030
:1047B000280C0020540C002010B504462046FFF7BA
:1047C0005FFE228B00210B4801F0D7FD628B012197
:1047D000084801F0D2FDA28B0021074801F0CDFD71
:1047E0000121064801F026FD1021044801F022FDB8
:1047F00010BD000000410240004202400040024063
:1048000010B50120012181401C4A516000BF41F2D6
:10481000707200211A4801F0B0FD41F2707200215F
:10482000184801F0AAFD41F270720021164801F00B
:10483000A4FD41F270720121114801F09EFD41F288
:10484000707201210F4801F098FD41F27072012150
:104850000D4801F092FD01210C4801F0E7FC102108
:104860000A4801F0E3FC4FF48071084801F0DEFCD7
:104870004FF48051054801F0D9FC10BD0084024876
:104880000001024000020240000402400000024019
:1048900010B506204FF4803181400F4A516000BFAF
:1048A00041F2707200210D4801F067FD41F2707213
:1048B00000210B4801F061FD41F2707201210748AF
:1048C00001F05BFD0121074801F0B4FC102105480F
:1048D00001F0B0FC10BD0000008102480041024020
:1048E000004202400040024010B52DED028B04460C
:1048F000FE48B0F8B40002287DD0FC48FDF7D6FD94
:1049000048B3FB48008830BBF84890F8BA0088B13B
:10491000F8480068401CF7490860F448D0F8A40043
:10492000096888421ADAF448006840F02000F24929
:10493000086013E0EF480068401CEE490860084634
:104940000068B0F5FA4F09DDEB48006840F0200040
:10495000E949086002E00020E6490860E34890F871
:10496000BA0038B1E5480068FCF780FC0020E44953
:104970000880E8E0E3480088012817D1E148FDF706
:1049800011F90020E04948810120086100024861D6
:10499000DC484089401C4FF6FF7101EA0010DB49FA
:1049A00008802146D848FEF7EFF8CCE0D84890F8C8
:1049B0003A000028DDD0CD4890F89500002872D14B
:1049C000CF48008800281ADDCD480088401CCC491B
:1049D000088008460088CF49098888420EDB0020FD
:1049E000C7490880C14890ED370ACB4880ED0A0AD4
:1049F0000120BE4900E09EE081F89500A3E0C64892
:104A0000D0ED010A90ED001AC448008800EE100AAB
:104A1000B8EE400A31EE400AF4EEC00AF1EE10FAA8
:104A20000EDBB248B0F9B600002809DDBA4890EDB7
:104A3000050AF3EE040AB4EEE00AF1EE10FA20D90A
:104A4000B548D0ED010A90ED001AB448008800EE98
:104A5000100AB8EE400A31EE000AF4EEC00AF1EE98
:104A600010FA70D8A148B0F9B60000286BDAAA484D
:104A700090ED050AFBEE040AB4EEE00AF1EE10FA3E
:104A800061DB94F8460000EE100AB8EE400ADFED54
:104A9000A40A20EE200AA04880ED020A01209849CD
:104AA000088050E0FFE79C48D0ED010A90ED001A25
:104AB0009A48008800EE100AB8EE400A31EE400A2B
:104AC000F4EEC00AF1EE10FA0EDB8848B0F9B60039
:104AD000002809DD904890ED050AF3EE040AB4EED3
:104AE000E00AF1EE10FA20D98B4890ED011AD0EDD2
:104AF000000A8A48008800EE100AB8EE400A30EE3C
:104B0000800AB4EEC01AF1EE10FA1CD87748B0F95A
:104B1000B600002817DA804890ED050AFBEE040A7B
:104B2000B4EEE00AF1EE10FA0DDB224678497A483D
:104B3000FFF700F907E06D4890F8BA0018B16F4828
:104B40000068FCF793FB6948406868498968401A27
:104B500000EE100AF8EEC00A94F8680000EE100AA1
:104B6000B8EE401ADFED6F1AB7EE000A01EE610AE7
:104B700020EE800ABDEEC00A10EE100A5B4989687B
:104B800008445A498860084640686749884249DDB8
:104B90006648614991ED010ADFED650A30EE200AB1
:104BA00081ED010A634991ED000ADFED610A30EE03
:104BB000200A81ED000A584991ED210ADFED5C0AD7
:104BC00030EE200A81ED210A91ED240ADFED580A2A
:104BD00030EE200A81ED240A4D490A8E434991EDB9
:104BE000350ADFED550A20EE200ABCEEC00A10EEB1
:104BF000101A114409B2464A11863C4949680144D9
:104C00003A4A51604D49096801444C4A11604C4987
:104C1000096801444A4A1160344989680144334AA9
:104C2000916051E0314840683F49494288424BDA3F
:104C30004FF4FA00384991ED010ADFED3F0A30EEFA
:104C4000200A81ED010A3B4991ED000ADFED3A0AA5
:104C500030EE200A81ED000A2F4991ED210ADFEDA7
:104C6000360A30EE200A81ED210A91ED240ADFEDAB
:104C7000320A30EE200A81ED240A25490A8E1B49AA
:104C800091ED350ADFED2C0A20EE200ABCEEC00AB9
:104C900010EE101A4942114409B21D4A11861349F7
:104CA00049680144114A5160244909680144234A72
:104CB0001160234909680144214A11600B49896840
:104CC00001440A4A916000BF084890ED020AB8EE1C
:104CD000C00ADFED1C0A20EE200A1B4880ED000A06
:104CE00090ED000A02F046FE17482FE0D40C002099
:104CF000160E0020780E0020380C00202C0E00200C
:104D00007C0E0020000C0020B80D0020520C00206A
:104D1000C40B0020500C0020300B00205A0C002047
:104D20008C4A6A3D24977F3B00409C00000083FF33
:104D30000000FAC5180A00200000FA45240C0020E3
:104D4000200C0020AACC4C37980E0020D0ED000A91
:104D500030EEC00ADFEDDF0A20EE200A80ED000A07
:104D6000DD4890F89500012819D1DB4890ED340A10
:104D7000B5EEC00AF1EE10FA04D290ED340AB1EEAD
:104D8000400A02E0D44890ED340AD448D0ED000A3D
:104D9000F8EE600AB4EEE00AF1EE10FA04D3CE4861
:104DA000B0F8B400022871D1CB4890F8BA000028BE
:104DB000F9D1CB480088401CC949088008460088C2
:104DC000B0F5165F02DB4FF416500880C448008827
:104DD000C4490988884260DBC1480088B0F5165F85
:104DE0005BDAC1480088012851D19FEDC00AC04854
:104DF00080ED0A0ABB480088B9490880B648D0ED62
:104E0000340ABC4890ED000AB8EEC00AF4EEC00ABD
:104E1000F1EE10FA15DDB0484068B6490968401A4D
:104E2000AD494860B4480068B2490968401AB249BF
:104E30000860B2480068AF490968401AAF49086085
:104E40002BE0A548D0ED340AAA480068404200EEA5
:104E5000100AB8EEC00AF4EEC00AF1EE10FA1CD245
:104E60009D484068A349096808449B494860A24896
:104E70000068A049096808449F4908609F48006885
:104E80009C49096808449D49086006E0E9E09248A9
:104E900090ED370A964880ED0A0A9148008842F260
:104EA0002731884219DB8E48008842F22651884219
:104EB00013DC934890ED000A9248D0ED000A30EEE2
:104EC000200A80ED000A8E4890ED010A8E48D0ED50
:104ED000000A30EE200A80ED000A81480088B0F513
:104EE000AF6F09D19FED810A864880ED000A9FEDE2
:104EF0007F0A854880ED000A79480088B0F5165F82
:104F00000DDA0020814908809FED780A804880ED05
:104F1000000A9FED760A7F4880ED000AB2E06E48F5
:104F200090ED340AB5EEC00AF1EE10FA04D290ED1D
:104F3000340AB1EE400A02E0674890ED340A67484F
:104F4000D0ED000AF8EE600AB4EEE00AF1EE10FAD5
:104F500002DD0020624908806C480088401C6B49D3
:104F60000880634890ED0C0A6948D0ED000A30EEE5
:104F7000200A80ED000A5E4890ED130A6548D0EDE6
:104F8000000A30EE200A80ED000A084600888028DA
:104F900052DB5F4890ED000ADFED5F0A20EE200A49
:104FA00080ED000A5B4890ED000ADFED5B0A20EE21
:104FB000200A80ED000A4E4890ED0A0A20EE000A11
:104FC000D0ED110A90ED111AB0EE408A00EE818A00
:104FD0004F4890ED000A20EE000A4E48D0ED000A3E
:104FE00090ED001AF0EE408A40EE818A38EE680AB1
:104FF000B5EEC00AF1EE10FA04D2B1EE480A30EE76
:10500000680A01E038EE680A4448D0ED000AB4EEC0
:10501000E00AF1EE10FA02DB00203149088000209E
:105020003A4908809FED310A394880ED000A9FED2A
:105030002F0A384880ED000A324890ED000ADFED73
:10504000380A20EE200A2E4880ED000A2E4890ED06
:10505000000ADFED330A20EE200A294880ED010A1C
:1050600010E000202F4908601D490880274908806A
:105070009FED1E0A264880ED000A9FED1C0A254878
:1050800080ED000A16480088B0F5165F05DA1C4A64
:1050900017491148FEF7E0FE18E00F48B0F8B400D9
:1050A000022813D0124890ED010ADFED1F0A20EE0E
:1050B000200A094880ED050A90ED020AB8EEC00A00
:1050C000D0ED050A30EE600A80ED340ABDEC028BAB
:1050D00010BD000000007A45D40C0020540C0020C4
:1050E0002E0C0020500C0020160E002000000000A6
:1050F000300B0020280C0020240C0020200C002065
:105100000C0B0020800E0020840E0020940E002046
:105110008C0E0020900E00202497FF3B880E00206C
:105120006F12033B340C00200000804410B504468D
:105130002046FEF727F834F8762F00210D4801F0BD
:105140001CF9628800210C4801F017F9A288763C0E
:1051500000210A4801F011F90121094801F066F81F
:105160001021074801F062F84FF48051044801F023
:105170005DF810BD00040240000202400001024040
:105180000000024010B570E003213A4801F0B1FC84
:1051900001280AD138480088401C37490880084651
:1051A0000088642804D1012460E00020324908808E
:1051B00032480088642807DD09212E4801F099FC57
:1051C000012801D1032451E02C480088652804DA25
:1051D0002A480088401C294908800821254801F0F8
:1051E00088FC50B926480088401C2549088008469C
:1051F0000088642801D1042438E00321214801F00B
:1052000078FC58B920480088401C1F49088008468F
:105210000088B0F57A7F01D1052427E01B4800788B
:10522000C0F3C00088B10721124801F062FC0128D8
:105230000BD117480088401C154908800846008893
:10524000B0F5FA7F01D1062410E010480078C0F3D1
:10525000800040B10C210F4801F04BFC08B9072435
:1052600004E0002402E0002400E08DE700BF2046B7
:1052700010BD000000800248F0040020F604002069
:10528000EE040020008F0248F2040020FA040020FF
:10529000F8040020008E024810B57848006800F03D
:1052A000010070B97548001D006840F001007449A4
:1052B000C1F8040200BF7148006800F00100002836
:1052C000F9D07048006800F4007058B16D4808309B
:1052D000006840F400706B490831086041F64C509A
:1052E00006F0CAF86848006840F400206649086083
:1052F00040F6C41006F0C0F86348006863490840EF
:105300006149086060481038006800F0300060B300
:105310005D48103800685E4908405B4910390860F4
:10532000FCF71CFE5B49B0FBF1F0401E56491039FA
:10533000096841EA00405449103908605248083071
:10534000006820F001005049083108604E480068AC
:1053500020F400304C49086000BF4B48001F006833
:1053600000F46070B0F5607FF7D14748006840F006
:105370000100454908600846006840F010000860D8
:105380004548091D0860081F006840F04000091FDB
:1053900008600846006820F01000086008460068B1
:1053A00040F48020086000BF3748001F006800F00C
:1053B00004000028F8D03448006820F00100324989
:1053C000086000BF3048001F006800F0010000289E
:1053D000F8D13248006840F480303049086000203D
:1053E0002E4908310860091F08602C4914310860F3
:1053F000091D0860032029490C3108602248006813
:1054000020F04000204908602548091D086040F64A
:10541000B83006F031F800BF1B48001F006800F0EC
:1054200004000028F8D01F481749091D086041F200
:10543000941006F021F800BF1348001F006800F028
:1054400004000028F8D018480F49091D086041F2EF
:10545000707006F011F800BF0B48001F006800F0E4
:1054600004000028F8D00520044994390860002081
:105470000A490839086000F019F810BD00420050D0
:10548000004000500044005014470050FDFFFEFF54
:10549000CFFFF0FFA0252600003B13010C46005073
:1054A000003B0701003B0401003B030170B52449A8
:1054B000096801F4803181B32249096801F00101D2
:1054C00009B1214801E0FCF749FD1E490C39096882
:1054D00001F00401C1B11B49091F0968C1F303614F
:1054E0004E1C1849091F0968C1F306214D1C1549B6
:1054F000091F0968C1F306414C1C16FB04F1B0FBFF
:10550000F1F101FB05F00AE00E49091F096801F0FD
:105510007F014C1CB0FBF4F001E0FFE70A480849AA
:105520000968C9B2491CB0FBF1F00549091D0968B9
:1055300001F00101491CB0FBF1F00449086070BDA5
:105540000C4600501C47005000366E01C0FF002082
:1055500072B61249124A116000BF00BF00BFBFF30C
:105560004F8F00BF00BF00BF62B60D498031096890
:1055700041F470010A4A8032116009490C3109680E
:1055800021F00801064A0C3211600649486920F0F2
:105590000F0040F003004861704700000000000861
:1055A00008ED00E00020005810B510225106064812
:1055B000FAF788FF0548064B0ECB0EC0FFF7C8FF71
:1055C000FFF76AFE10BD0000C4FF0020D4FF0020DA
:1055D0008400002010B50446FDF7AEFB02F02EFA61
:1055E00002F0DCFAFEF796FAA06900F0C5F9E0696E
:1055F00003F0CCFAD4E9041002F0E8FBD4E900107F
:1056000003F056F9D4E9021002F074FDFCF76AFFCA
:105610000121094801F0ECFA0621084801F0E8FAF6
:10562000042001218140064A516000BF02F00EFAB9
:1056300003F036FA10BD00000084024800810248E1
:105640000083024810B540F21454104800881049F5
:105650000988884214D001200E4908700B4802883E
:105660000088401C094B18800B48815C0B4801F0F6
:105670009AFE00BF201EA4F101018CB2FAD104E011
:10568000FCF730FF00200349087010BD2005002002
:10569000220500202805002010840020000003407F
:1056A00010B5044801F038FEC4B220461AF014F9CF
:1056B00010BD0000000003407047704770470000B5
:1056C00010B5144801F028FEC4B21348007802282F
:1056D00005D10120114908701148047018E01148E3
:1056E0000088B0F5967F08DA0E4801880088401CD3
:1056F0000C4A10800C4844540AE0002009490880F4
:10570000084601880088401C064A10800648445418
:1057100010BD0000000002485F030020DF040020ED
:10572000E004002006000020C80F002010B510483B
:1057300040884F281BD0FCF7AFFB400004B2B4F503
:105740005C7F07DBB4F5707F04DC40F6FF7002F08D
:1057500090F90CE0B4F5FA6F06DBB4F5026F03DCE8
:10576000002002F086F902E0A0B202F082F910BD3A
:10577000C80000207047000010B50021674801F004
:10578000AAFFC0F30B00664908800021654801F0BC
:10579000A2FFC0F30B00644908800021634801F0B8
:1057A0009AFFC0F30B00624908800021614801F0B4
:1057B00092FFC0F30B00604908800121574801F0B7
:1057C0008AFFC0F30B005D4908800221534801F0B5
:1057D00082FFC0F30B005A49088051480088A0F5A9
:1057E000006000EE100AB8EEC00A5648D0ED000A7C
:1057F000F1EE600A20EE200A534880ED0C0A4A4878
:105800000088A0F5006000EE100AB8EEC00A4D480E
:10581000D0ED000AF1EE600A20EE200A4A4880ED41
:10582000130A43480088A0F5006000EE100AB8EEA5
:10583000C00A4648D0ED000AF1EE600A20EE200AC8
:10584000434880ED130A3C480088A0F5006000EE54
:10585000100AB8EEC00A3D48D0ED000A20EE200A3A
:105860003B4880ED140AFCF75DF80121394800F04F
:1058700051FC00F4801038490860364870300068E8
:105880004EF6602188420DD900BF022031490861DF
:1058900000BF9FED320A324880ED000A01203149F5
:1058A000088030E02C48006868B32E48008840B17A
:1058B0009FED2A0A2A4880ED000A00202949088025
:1058C00021E00121234800F025FC2749088000BF82
:1058D0002648006EC0F30020012801DA012001E013
:1058E0004FF0FF302249484300EE100AF8EEC00A9C
:1058F0001D48008800EE100AB8EE400A80EE801ABB
:10590000174880ED001A0CF0EFFEFEF79DF900BF7E
:1059100001201849086000BF10BD0000004400408D
:10592000C406002000500040C6060020004C004085
:10593000C006002000480040C2060020C806002023
:10594000CA060020D0060020300B0020CC06002024
:105950006809002000C40040F40600200000000098
:10596000E4060020E8060020EE0600200080024049
:10597000688909009845004010B56B494FF04020F8
:1059800001F036FE69496A4801F0ACFE6749694892
:1059900001F0A8FE6549684801F0A4FE6349674824
:1059A00001F0A0FE6649624801F023FF65496148A5
:1059B00001F01FFF6449604801F01BFF63495F4825
:1059C00001F017FF624A0221594801F049FE614A7D
:1059D0000321574801F044FE5F4A0421544801F076
:1059E0003FFE5E4A0721534801F03AFE5C4A02211D
:1059F000514801F035FE5B4A0021504801F030FE6D
:105A0000594A00214A4801F038FF574A01214848C5
:105A100001F033FF544A0221454801F02EFF524A5B
:105A20000021444801F029FF4F4A0021424801F07B
:105A300024FF4D4A0021414801F01FFF12204B4A2C
:105A40005178002804DB8A06130E494A135406E0F5
:105A50008A06140E474A00F00F031B1FD45400BFE0
:105A60000021334801F000FF1220002809DB00F07C
:105A70001F02012191404209920002F1E022C2F886
:105A8000001100BF03212A4801F0FEFE032129482E
:105A900001F0FAFE0321284801F0F6FE0321274811
:105AA00001F0F2FE4FF0402001F0BCFD32480168E9
:105AB0001F4801F0D4FE314801681D4801F0CFFEB7
:105AC0002F4801681A4801F0CAFE2E48016819489B
:105AD00001F0C5FE2C480168174801F0C0FE2B48B4
