:020000040800F2
:10000000D8BA0020E9020008F5020008F50200084D
:10001000F5020008F5020008F502000800000000E3
:10002000000000000000000000000000F5020008D1
:10003000F502000800000000F5020008F5020008C3
:10004000F502000881180008F5020008F502000812
:10005000F5020008F5020008F5020008F5020008A4
:10006000F502000800000000000000000000000091
:10007000F502000800000000F5020008F502000883
:10008000F5020008F502000819530008F5020008FF
:10009000F5020008F5020008F5020008F502000864
:1000A000F5020008F5020008F5020008F502000854
:1000B000F5020008F5020008F5020008F502000844
:1000C000F5020008F5020008F5020008F502000834
:1000D000F5020008F5020008F5020008F502000824
:1000E000F5020008F5020008F5020008F502000814
:1000F000F5020008F5020008E50A0008F50200080C
:10010000F5020008F5020008F5020008F5020008F3
:10011000F5020008F5020008F5020008F5020008E3
:10012000F5020008F5020008990C0008F502000825
:10013000F5020008F5020008F5020008F5020008C3
:10014000F5020008F5020008F5020008F5020008B3
:10015000F5020008F5020008F5020008F5020008A3
:10016000F5020008F5020008F5020008F502000893
:10017000F5020008F5020008F5020008F502000883
:10018000F5020008F5020008F5020008F502000873
:100190003952000895520008F5020008F95200088B
:1001A000F5020008FB520008FD5200080153000848
:1001B000F5020008F5020008F5020008F502000843
:1001C000000000000000000000000000000000002F
:1001D0000000000000000000F50200080000000020
:1001E000F5020008751D000800000000F502000877
:1001F00000000000000000000000000000000000FF
:1002000000F002F800F060F80AA090E8000C8244C8
:100210008344AAF10107DA4501D100F055F8AFF2A5
:10022000090EBAE80F0013F0010F18BFFB1A43F0D4
:1002300001031847180002003800020010F8013BC3
:100240000A4413F0030408BF10F8014B1D1108BF46
:1002500010F8015B641E05D010F8016B641E01F8F4
:10026000016BF9D1002D15D010F8014B03F00C03F0
:100270000C2BA1EB04040ABF10F8013BA4EB831480
:10028000A4EB032405F1010314F8016B5B1E01F8D4
:10029000016BF9D5914238BF10F8013BD1D37047BB
:1002A0000023002400250026103A28BF78C1FBD87F
:1002B000520728BF30C148BF0B6070471FB51CF004
:1002C000A9FC1FBD10B510BD00F018FA1146FFF7CC
:1002D000F5FF0FF06FFB00F036FA03B4FFF7F2FF03
:1002E00003BC00F03DFA0000DFF818D00648804754
:1002F00006480047FEE7000005480649064A074B46
:1003000070470000D8BA00209D5100080102000883
:10031000D8B00020D8BA0020D8B20020D8B200202F
:100320009FED1A1AF5EE000A40EE010ABDEEE00A52
:10033000F5EEC00A10EE100AF1EE10FA38BF401EBA
:1003400000EE100A1349F7EE001AB8EEC00A30EEBC
:10035000C00ADFED0F0A20EE200AFCEEC00A10EE04
:10036000900AC0F3080000EE900A01EB8000F8EE5E
:10037000600A90ED011A70EE600A90ED000A71EECD
:10038000E01A21EE800A00EE810A704783F9223ECE
:100390000000004448FA0108B5EEC00AF1EE10FA78
:1003A00007D2DFED1E0AB4EEE00AF1EE10FAA8BFA4
:1003B0007047DFED1B0AB5EEC00A60EE200ABDEE05
:1003C000E01A11EE100AF1EE10FA38BF401E00EEEE
:1003D000100A1549F7EE001AB8EEC00A30EEC00A4E
:1003E000DFED100A60EE200ABCEEE00A10EE100A03
:1003F000C0F3080000EE100A01EB8000B8EE400ADE
:1004000090ED011A70EEC00A90ED000A71EEE01A4C
:1004100021EE800A00EE810A70470000CD024CB444
:1004200083F9223E0000004448FA010810B54C1040
:1004300084EA530404D54042C1F1000138BF491E8B
:100440001B4204D55242C3F1000338BF5B1E00F0CB
:10045000DEF814F0804F04D04042C1F1000138BFF3
:10046000491E14F0004F04D05242C3F1000338BFBC
:100470005B1E10BD40EA010310B59B070FD1042A93
:100480000DD310C808C9121F9C42F8D020BA19BA5F
:10049000884201D9012010BD4FF0FF3010BD1AB1C4
:1004A000D30703D0521C07E0002010BD10F8013B19
:1004B00011F8014B1B1B07D110F8013B11F8014B40
:1004C0001B1B01D1921EF1D1184610BD032A40F228
:1004D000308010F0030C00F0158011F8013BBCF1E6
:1004E000020F624498BF11F801CB00F8013B38BFFE
:1004F00011F8013BA2F1040298BF00F801CB38BF0C
:1005000000F8013B11F0030300F02580083AC0F029
:10051000088051F8043B083A51F804CBA0E80810D1
:10052000F5E7121D5CBF51F8043B40F8043BAFF304
:100530000080D20724BF11F8013B11F801CB48BF5E
:1005400011F8012B24BF00F8013B00F801CB48BF94
:1005500000F8012B704710B5203AC0F00B80B1E8CD
:100560001850203AA0E81850B1E81850A0E81850E8
:10057000BFF4F5AF5FEA027C24BFB1E81850A0E8F1
:10058000185044BF18C918C0BDE810405FEA827C0B
:1005900024BF51F8043B40F8043B08BF7047D20722
:1005A00028BF31F8023B48BF11F8012B28BF20F8C3
:1005B000023B48BF00F8012B70474FF0000200B526
:1005C000134694469646203922BFA0E80C50A0E876
:1005D0000C50B1F12001BFF4F7AF090728BFA0E824
:1005E0000C5048BF0CC05DF804EB890028BF40F8F0
:1005F000042B08BF704748BF20F8022B11F0804F32
:1006000018BF00F8012B704770477047704753EAD6
:10061000020C00F069802DE9F04B4FF00006002B32
:100620001FBFB3FA83F503FA05F424FA05F65E401A
:1006300012BF1643B2FA82F502FA05F4C5F120059D
:100640001EBF22FA05FC44EA0C04203556EA044C8D
:100650004FEA144418BF641C4FF000084FF0000923
:10066000904271EB030C39D3002919BFB1FA81F71D
:1006700001FA07F6B0FA80F700FA07F6C7F120078B
:100680001EBF20FA07FC46EA0C062037B6FBF4FC36
:10069000A7EB0507103F07F01F0BCBF120060CFA64
:1006A0000BFB2CFA06F644BFB3460026202FA4BF4E
:1006B0005E464FF0000B5BEA060C08BF4FF0010BE3
:1006C00019EB0B09ABFB027C48EB0608C01B06FBD1
:1006D00002CC0BFB03CC71EB0C01C1E70B460246CD
:1006E00041464846BDE8F08B13B54FF000004FF08F
:1006F0000001AFF30080BDE81C407047754600F074
:100700002BF8AE4605006946534620F007008546A3
:1007100018B020B5FFF7F0FDBDE820404FF000060F
:100720004FF000074FF000084FF0000B21F00701D9
:10073000AC46ACE8C009ACE8C009ACE8C009ACE81C
:10074000C0098D46704710B50446AFF300802046BF
:10075000BDE81040FFF7C1BD0048704774B00020ED
:1007600001491820ABBEFEE72600020070470000DA
:1007700091F0000F04BF6FF00040704710B54FF0CC
:10078000010E90EA010F48BF4FF0000E002848BF4D
:100790004042002948BF4942B0FA80F40A2CA8BF61
:1007A0000A2400FA04F2C4F10A0CB2FBF1F0B0FA28
:1007B00080F39C45A4BFCEF1004010BD01FB102288
:1007C000B2FA82F464450EDAACEB040C02FA04F2DD
:1007D00000FA04F0B2FBF1F301FB13221844B2FA61
:1007E00082F46445F0DD02FA0CF200FA0CF0B2FB80
:1007F000F1F318449EF0000F08BF404210BD000006
:1008000080FB01014FEA902000EB8150704700000F
:10081000B0FA80F303F01F0242B300FA03F000B510
:100820004FEA9052134951F82210A0FB01E2A2FBBB
:1008300001E2C2F14042A2FB01E14FEA4101A0FB0B
:1008400001E2A2FB01E2C2F14042A2FB01E14FEA58
:100850004101A0FB01E003F114035B1024BF064A31
:10086000A2FB0010D84040F1000000BD4FF0000096
:100870007047000014BC010834F304B591F0000F78
:1008800004BF6FF00040704710B54FF0010E90EAC2
:10089000010F48BF4FF0000E002848BF404200291A
:1008A00048BF4942B0FA80F4142CA8BF142400FABF
:1008B00004F2C4F1140CB2FBF1F0B0FA80F39C45E1
:1008C000A4BFCEF1004010BD01FB1022B2FA82F4A9
:1008D00064450EDAACEB040C02FA04F200FA04F000
:1008E000B2FBF1F301FB13221844B2FA82F464451F
:1008F000F0DD02FA0CF200FA0CF0B2FBF1F318444E
:100900009EF0000F08BF404210BD000080FB0101B7
:100910004FEA105000EB01307047000043F60551DC
:10092000024A1180024A11807047000032340020D0
:10093000000A00202DE9F04104460027D4F89080F9
:10094000206801F007FA0746002F5BD1D4E90101C6
:1009500005F027F86068016841F04001016000BFC0
:100960006068016841F00101016000BF94F8A700D0
:10097000012806D16068C16841F48071C16000BF80
:1009800010E08434D4E905321979186805F022FEA4
:1009900054F8800C217F843CC26861F30202C2607B
:1009A00000BF00BF204600F057F800250EE004F11C
:1009B0000C0050F82560327994F8A110236858682B
:1009C00004F0C4FE304600F021F86D1C94F8A2003B
:1009D000A842ECD86068016821F04001016000BFC6
:1009E0006068016821F00101016000BF94F8A70070
:1009F00048B998F80410D4F89420D8F8000005F00D
:100A0000E9FD00E001273846BDE8F08110B5044655
:100A1000206804F02FFFE07901280CD162790421CD
:100A2000206804F089FF00BF4FF40031206804F013
:100A30007DFF00BF00BF207A01280CD1A2790021E0
:100A4000206804F079FF00BF4FF48031206804F083
:100A50006DFF00BF00BF10BD70B5044600252046E5
:100A600000F020F894F8A400012801D145F0020517
:100A700094F8A300012801D145F0040594F8A500DD
:100A8000012801D145F008052946606804F07EFF81
:100A900094F8A600012804D14FF48001606804F0A6
:100AA00075FF70BD10B50446D4F88C100A7800218B
:100AB000606805F018F8D4F88C104A780421606852
:100AC00005F011F8D4F88C108A780821606805F0D8
:100AD0000AF8D4F88C10CA780C21606805F003F885
:100AE00010BD000010B5002059490968012282405C
:100AF0001143574AB03AC2F8B01000BF55480078C9
:100B000001287DD10EF0ECFF5348006810B1524926
:100B1000086880470C21514805F049FD70B95048DC
:100B20000088401C4E490880084600880A280ADBD5
:100B30000020088001204B49087004E0002048494B
:100B4000088048490870484890ED030A20EE000AE2
:100B5000D0ED020A90ED021A00EE810A434880EDC2
:100B6000000A90ED000ADFED420AB4EEE00AF1EE71
:100B700010FA1DDB3F4890ED030AB0EEC00ADFED2E
:100B80003E0AB4EEE00AF1EE10FA11DB3B480088B1
:100B9000401C3A49088008460088B0F57A7F0ADB95
:100BA0000020088003F03AFC01203549087002E07B
:100BB0000020324908802D4890ED000ADFED2E0A12
:100BC000B4EEE00AF1EE10FA1DDD2A4890ED030ABA
:100BD000B0EEC00ADFED280AB4EEE00AF1EE10FA3A
:100BE00011D228480088401C264908800846008801
:100BF000B0F5FA6F0ADB002008800120224900E0EE
:100C000021E0087002E000201E490880194890ED9C
:100C1000030AB0EEC00ADFED1D0AB4EEE00AF1EE01
:100C200010FA11DD1A480088401C1949088008464E
:100C30000088B0F57A7F0ADB0020088003F0EEFB25
:100C400001201449087002E000201149088010BDFD
:100C5000B0C300404108002068AE0020008E02486A
:100C60006408002060080020A80800206C0800200C
:100C70000000A24274AE00200000C84266080020B6
:100C800061080020680800206208002000409C45A0
:100C90006A0800206308002010B500201049096888
:100CA00001228240114009B1012100E0002161B11F
:100CB00000200B4910310968012282401143084A83
:100CC000A03AC2F8B01000BF00BF0648408818B96B
:100CD00004F052F8034948800AF032FE10BD0000CB
:100CE000A0440048C204002010B50021904804F040
:100CF00057FF00218F4804F053FF8D4805F03AF864
:100D00008C4805F037F80021894805F02BF80021C0
:100D1000884805F027F88849884804F07CFF88480F
:100D20000068C0084FF4FA61B0FBF1F0401E84B2D5
:100D30002146824805F00FF80021804805F000F8B0
:100D40004FF480717A4804F029FF022200217B4889
:100D500004F0C9FF00207949A431096801228240CA
:100D60001143764AC2F8A41000BF2E20754A91782C
:100D7000002804DB8A06130E734A135406E08A0621
:100D8000140E724A00F00F031B1FD45400BF2E2014
:100D9000002809DB00F01F02012191404209920066
:100DA00002F1E022C2F8001100BF0221604804F005
:100DB000A4FE00BF01206149C86000BF64496548C6
:100DC00004F029FF6249644804F025FF6049634844
:100DD00004F021FF5E49624804F01DFF614962484A
:100DE00004F001FF5F49614804F0FDFE4FF6FF711A
:100DF000584804F0B0FF41F63F71574804F0ABFF8C
:100E00000321564804F0A7FF0321554804F0A3FF2F
:100E10001121474804F0C2FE1121464804F0BEFEED
:100E200001214C4804F03EFF02214A4804F042FFF1
:100E30000121494804F036FF0221474804F03AFFF7
:100E40000121494804F0BFFE0121474804F0C3FED8
:100E50000121464804F0B7FE0121444804F0BBFEDE
:100E600001213E4804F01EFF01213D4804F01AFF15
:100E70003F4A0121374804F0E6FE3E4A0221354848
:100E800004F0E1FE3A4A0121334804F0DCFE394A1D
:100E90000221314804F0D7FE374A01212F4804F0DF
:100EA000D2FE354A01212E4804F0CDFE334A0121FD
:100EB0002D4804F0C8FE314A02212B4804F0C3FE3D
:100EC0002E4A0121294804F0BEFE2C4A022127485F
:100ED00004F0B9FE0221214804F030FF022120482D
:100EE00004F02CFF1021124804F058FE1021114884
:100EF00004F054FE00210E4804F0FFFD01210C48CF
:100F000004F0FBFD02210A4804F0F7FD0321084824
:100F100004F0F3FD0021074804F0EFFD012105482E
:100F200004F0EBFD0221034804F0E7FD10BD0000D2
:100F300000C00040000001409834002000C3004081
:100F4000C0FF0020E806002000E400E018ED00E00B
:100F50006434002000C100400001014000C2004094
:100F6000000201406C34002000C400400003014036
:100F70007434002078340020803400208434002031
:100F800010B59E4A01219E4805F024FB0120012155
:100F900081409B4A516000BF00219A4804F024FF21
:100FA0000021994804F020FF964804F0DFFF96489E
:100FB00004F0DCFF0021934804F0D0FF00219248A8
:100FC00004F0CCFF9149924804F021FF8F499148E9
:100FD00004F01DFF8D49904804F019FF8B498F489C
:100FE00004F015FF8E498F4804F011FF41F26F7134
:100FF000874804F09FFF41F26F71864804F09AFF22
:1010000041F26F71844804F095FF41F26F7183489B
:1010100004F090FF41F26F71824804F08BFF41F2BF
:10102000707200217A4804F080FF41F27072002152
:10103000784804F07AFF41F270720021764804F09B
:1010400074FF41F270720021744804F06EFF41F2A7
:1010500070720021734804F068FF41F27072012140
:101060006E4804F062FF0221694804F053FF022138
:10107000684804F04FFF0221674804F04BFF02214B
:10108000664804F047FF0221664804F043FF01214F
:101090005C4804F0A5FE10215A4804F0A1FE4FF46C
:1010A0008051584804F09CFE0121574804F098FEF6
:1010B0001021554804F094FE5B4A0121544804F085
:1010C000C4FE594A0121534804F0BFFE564A01218B
:1010D000514804F0BAFE544A0121504804F0B5FECC
:1010E000514A01214F4804F0B0FE01221146484800
:1010F00004F022FF01221146464804F01DFF0122A0
:101100001146454804F018FF01221146434804F0F7
:1011100013FF01221146434804F00EFF01203D4910
:101120005C390968012282401143394AC2F8A4108F
:1011300000BF02220121364804F0BDFE3B4934487D
:1011400004F0B2FE3949334804F0AEFE3749324864
:1011500004F0AAFE364A0521364805F03BFA344A27
:101160000221344805F036FA314A0421314805F0AD
:1011700031FA2F4A01212F4805F02CFA2C4A06217A
:101180002C4805F027FA2A4A0B212A4805F022FAB2
:10119000274A0F21284805F01DFA284A0721284828
:1011A00005F018FA254A0B21234805F013FA254AC1
:1011B0000021134805F00EFA234A06211E4805F0C7
:1011C00009FA00210F4804F0DAFD01210D4804F06E
:1011D000D6FD03210B4804F0D2FD00210A4804F09B
:1011E000CEFD0121084804F0CAFD4FF440701749B4
:1011F000C96C0143154AD16400BF10BDD809002055
:1012000000840248000002400040024080090020A3
:10121000000102400002024000040240004102407E
:101220009009002000420240B8090020A0090020D7
:10123000C00900200080024800810248CC0900203B
:1012400000850248F0090020E40900200040005019
:1012500070B50446B048006842F6E0610844AE4903
:10126000086008460068AD49096888427ED33FE1BE
:10127000A9480068A9490968401AA74908600020E0
:10128000A7490860A748B0F9B600A7490968A74A66
:10129000126800FB0120A349486008464068A34942
:1012A0000860A348007858B39E48B0F9B600A14939
:1012B000096848439C4909689F4A126800FB01205D
:1012C00098494860084640689B490860084600689D
:1012D00096490860002099490860994908808E491C
:1012E00008609848008840B900208E4981F8BA000B
:1012F0008F4908708949086001E000F02FF970BD3E
:1013000091480078012871D100208F4908708948E0
:101310000068FF2866DB8348B0F8B8008549096893
:10132000091A8048D0F8C00081425BDD7D4890ED0D
:10133000010AB8EEC00AD0ED050A30EE600ABDEE33
:10134000C00A10EE100A7749B1F9B6104843764941
:10135000096890FBF1F07D49086008460068643830
:1013600008607048B0F8B800096800E0C2E0884240
:1013700004DA6C48B0F8B800744908607348006833
:10138000002802DA002071490860664841686F4809
:101390000068654A12685043624AB2F9B62000FB01
:1013A00012106049486008464068604908605D481E
:1013B000B0F8B80065490988401A5A49A1F8B80040
:1013C0000846B0F8BC00624908805648B0F8B8102A
:1013D000D0F8C000084457490860084600885D49B5
:1013E000088003E04DF2A0005A4908804D48B0F84B
:1013F000B8005049096888422BDB4A48B0F9B6006A
:101400004949096848434B4909684B4A126800FB3F
:10141000012044494860084640684749086008463A
:1014200000684249086000203E4981F8BA00012066
:10143000474908803B49A1F8B800002036490860B8
:10144000374908603D4908603D49088042490880A5
:101450004FE03448D0F8BC003D49098888420EDC92
:101460003048B0F8B810D0F8C000084431490968D5
:10147000884204DA36480088401E354908802948E9
:10148000B0F8C80004EB4001264890F8CA20304864
:101490000088104131F810502248D0F8C410284676
:1014A000FFF7AEF91D4908601E48B0F8B800401CAF
:1014B0001C49A1F8B80026480088401C244908802F
:1014C0001548006815490968884200D310E0224891
:1014D000008803280BD0114801684FF40060FFF723
:1014E000CDF91049B1F9B61048430D49086000E044
:1014F000BEE600BF08490968094A126801FB02F00C
:1015000009490968FFF702FA0849096801EBE02078
:101510000449486000BFF2E6140B0020180B0020BD
:101520001C0B0020E83200202C0B0020240B002094
:10153000400B0020200B0020280B0020380B00203F
:10154000320B0020360B0020410B0020480B0020FE
:10155000300B0020440B0020340B00202DE9F84311
:101560005048018850480088401C814270D04D4846
:101570000088642817D14D480088052812D2DFE87A
:1015800000F007080903100002204849088009E01C
:1015900000BF00BF4648006840F0040044490860AE
:1015A00000E000BF00BF3F480088C82802DB0020E1
:1015B0003C4908803F483B49098800EB41000088CE
:1015C0000090BDF80000C0F3871084023949354807
:1015D0000088401C31F81000C0F3871085022146B6
:1015E0002046FFF70DF9804629462846FFF708F9FF
:1015F00008EB00073846FFF70BF90646BDF8000078
:1016000000F03F042B4927480088401C11F81000C7
:1016100000F03F0504EB8510411C3046FFF7F0F861
:10162000254908600846006881024FF44800FFF72A
:101630009FF822490860BDF80000C0F387102049D8
:101640000860BDF80000C0F3803010B9012002E04E
:101650001CE04FF0FF301B49A1F8B60016480068A7
:101660004FF4FA7148431849086015480068134957
:10167000096848431349B1F9B61048431349086053
:1016800008480088801C0749088009E000200D49AF
:1016900081F8BA000E4908700B49086001490880BA
:1016A000BDE8F883500B0020520B0020360B0020C1
:1016B0003C0B0020E4AE0020A0340020A434002025
:1016C000200B0020E8320020180B00201C0B00200B
:1016D000400B002070B50346474C24780B2C03D0F8
:1016E000454C2478102C07D1444C24780A2594FBCF
:1016F000F5F605FB164213E03F4C24780D2C08D17B
:101700003F4CB4F900400A2594FBF5F605FB164260
:1017100006E03C4C24780A2594FBF5F605FB1642BE
:10172000B3F5C87F31DA0A2A2ED2DFE802F00509C4
:101730000D1115191D2125294FF4DB60252123E00A
:1017400040F2F34023211FE040F2F6301D211BE060
:101750004FF45470182117E040F2DA20152113E0FD
:101760004FF41F7013210FE040F2372011210BE0DE
:1017700040F207200F2107E040F2D7100E2103E0CE
:1017800040F27D100E2100BF2DE00A2A2AD2DFE8A8
:1017900002F005090D1115191D2023264FF4826052
:1017A000FB211FE040F29720D9211BE040F2E71017
:1017B000BB2117E040F28310A22113E04FF4A17087
:1017C00090210FE04FF48B707F210BE0F320742108
:1017D00008E0D9206A2105E0C320622102E08E20C2
:1017E000502100BF00BF03FB00F44FF47A75B4FB37
:1017F000F5F4601870BD0000C00000209F020020BA
:10180000760200209E02002010B50246547821097D
:1018100093781C4661F3DF142146802B02DB4C4297
:1018200020B200E008B210BD10B50246547804F0B2
:101830000F01D3781C4661F3DF142146802B02DBB5
:101840004C4220B200E008B210BD00000B480088F6
:10185000C0F30E0009494988C1F30E01084447F658
:10186000FF71884207D10548808845F2555188426A
:1018700001D1012070470020FCE70000020A00208F
:1018800010B51948002100F1100252F8212022F071
:10189000800300F1100242F8213000BF13480078A5
:1018A00001281FD11248B0F90800B0F5AF6F05DD6F
:1018B0000F48B0F90800B0F5B46F09DD0C48B0F975
:1018C000080000280EDB0A48B0F90800282809DAC9
:1018D00008480068084908800848806810B107492E
:1018E0008868804710BD0000004800504208002072
:1018F00074AE002070C100403008002068AE0020A7
:1019000070B52DED028B00BF4648006EC0F300207D
:10191000012801DA012001E04FF0FF30401E00EB0A
:101920004001C1EBC0104049096801EB401004B20E
:101930003E480088201A05B215F57A6F06DA3C4851
:10194000006800F5FA503A49086008E0B5F57A6F8A
:1019500005DD37480068A0F5FA503549086034487D
:101960000068204400EE100AB8EEC00A3148D0EDFD
:101970000D0A30EE600A304880ED010A2B480480E1
:101980002D4890ED010A2B48D0ED0C0A20EE208A5C
:10199000B0EE480A05F016FD38EE400A264880ED04
:1019A0001D0A90ED010A2548D0ED000A70EE608A0C
:1019B000234890ED000A2348D0ED000A00EEA80A63
:1019C0001F4880ED000A90ED000A1F48D0ED000A84
:1019D00000EEA80A1D4880ED000A174890ED050AA0
:1019E0001448D0ED0E0A194890ED001A11EE200AA5
:1019F0001148D0ED050A9FED161A41EE000AC0ED20
:101A0000050A0E4890ED000A1048D0ED000A9FED3F
:101A1000111A01EE200A094880ED000ABDEC028B84
:101A200070BD000000C00240700101405034002031
:101A300048340020C40A0020300A00204C34002022
:101A40005C340020583400205434002060340020DE
:101A50008A8EE43DAC8BDB3B2DE9F04107460C461A
:101A600015461848B0F8C80035F810601548D0F889
:101A7000C4103046FEF7C4FE1349086008460168EA
:101A80004FF40060FEF7FAFE0E49B1F9B610484374
:101A90000E49086000200E4908600E490880224661
:101AA0000D490E4801F078FF0120064981F8BA007F
:101AB000084690ED370A094880ED0A0A0120BDE882
:101AC000F0810000E8320020180B00201C0B0020E1
:101AD000380B0020320B0020C40A0020300A0020FE
:101AE00010B52448008841F28831884212DA214832
:101AF0000088401C1F490880B1EE040A1E4880ED92
:101B0000000A9FED1E0A80ED010A02F063FC01F05D
:101B10009FFE2EE01748008842F21071884212DAC8
:101B200014480088401C13490880B1EE040A12488A
:101B300080ED000AB9EE040A80ED010A02F04AFCC9
:101B400001F086FE15E00B48008842F211718842D0
:101B50000FDA08480088401C06490880012008491F
:101B6000088002F0A3FC00BF02200649086100BF04
:101B700000BF10BDAC3400200C0A002000000000A3
:101B8000080A00200001014030B50324544D6D6A5D
:101B9000E54005F001050DB9012400E000240481B1
:101BA000504C2488C4F344234E4C2488C4F30411BD
:101BB0004C4C247804F00F04621C4A4C2488C4F373
:101BC00080340CB9012401E04FF0FF346442C4803A
:101BD0008488062C70D2DFE804F0030E2A3A58708D
:101BE000048914B10124848001E00324848000244A
:101BF0003D4DAC8172E00489A4B941814488641CE4
:101C000044804488944209D1C488644224B2364D49
:101C1000AC81022484800024448007E0C488324DD3
:101C2000AC8103E0C488304DAC81438156E04181F2
:101C3000048934B100240480012484810024848038
:101C400004E0C488644224B2274DAC8146E0048994
:101C5000A4B141814488641C44804488944207D1E3
:101C6000C488214DAC8104248480002444800BE08E
:101C7000C488644224B21C4DAC8105E0C48864422F
:101C800024B2194DAC81438128E0418104897CB99B
:101C90004488641C4480448894420CD1C4886442C3
:101CA00024B2114DAC81052484800024448002E0DC
:101CB000C4880D4DAC8111E00FE0048934B10024DB
:101CC0000480012484810024848005E0C488644267
:101CD00024B2054DAC81418100E000BF00BF30BDA2
:101CE000008202485C0B0020D033002016480068B8
:101CF00048B31548007830B30020144908801248D2
:101D0000007800F0800018B14CF23F0010490880C4
:101D10000D48007800F0200018B14DF2A5500C4994
:101D200008800948007800F0040018B14CF23E0029
:101D3000074908800448007800F0010018B14DF20E
:101D4000A1100349088070473C0B00203A34002062
:101D5000000A002070B504460025607A012806D0EC
:101D6000D4E9001003F028FD0120607200BF28466E
:101D700070BD000010B5024804F010FB10BD00005B
:101D8000004001502DE9FF4F89B0894692469B469D
:101D9000179D35F81A00001D84B20AF1010035F8CC
:101DA0001000001D80B20790169868B100BF601C3B
:101DB00084B20798844200DB03E035F81460B14533
:101DC000F5D200BF601E84B2EE88A01984B235F847
:101DD00014000290A01984B235F814000390A019E1
:101DE00084B235F814000490A01984B235F81410A8
:101DF000049800EB01400490A01984B235F8140057
:101E0000ADF81400A01984B235F81400ADF816002E
:101E1000BDF8161002980841BDF8141005EB4101F9
:101E200001EB400030F8020C0299A9EB0101039A82
:101E3000891A049A00FB012004900498C117CDE987
:101E400000010A488BFB007080460B46384641462D
:101E5000009AFEF7EBFA0490CDF818B0142202A90C
:101E60000998FEF778FB0DB0BDE8F08F005307002E
:101E70000148B0F90800704774AE002010B5FFF7B4
:101E8000F7FF044608480088201A04B2002C03DA41
:101E900004F5B46004B205E0B4F5B46F02DDA4F556
:101EA000B46004B2204610BD360200200148B0F9EB
:101EB0000400704774AE0020F0B503460C4603F0F2
:101EC0000701C1F10700062801D9062001E0C1F190
:101ED00007000646881D072801D2002000E0481EA2
:101EE00005460120B040401E2040A8400127AF40D9
:101EF0007F1E17403843F0BD004870470024F400AF
:101F000090ED000AD0ED010A30EE600A80ED020A81
:101F100090ED020AD0ED030AB4EEE00AF1EE10FAF9
:101F200004DB90ED030A80ED020A10E090ED020A56
:101F3000D0ED030AF1EE600AB4EEE00AF1EE10FA19
:101F400005D890ED030AB1EE400A80ED020A90ED4B
:101F5000070AD0ED020A20EE200A80ED0B0A90ED70
:101F60000B0AD0ED080A90ED0C1A00EE810AD0EDB4
:101F7000090A90ED0F1A00EE810AD0ED0A0A90EDE1
:101F8000001A00EE810A80ED110A90ED0C0AD0EDE6
:101F9000020A30EE200A80ED0C0A90ED0C0AD0ED1A
:101FA0000D0AB4EEE00AF1EE10FA04DB90ED0D0A32
:101FB00080ED0C0A0CE090ED0C0AD0ED0E0AB4EEA8
:101FC000E00AF1EE10FA03D890ED0E0A80ED0C0A4B
:101FD00090ED020AD0ED040A30EE600A80ED0F0A9F
:101FE00090ED020A80ED040A7047000001781D4A56
:101FF0001180418809B25180818809B2D18011468F
:10200000B1F90010002901DA002111801549B1F958
:102010000010012902DD0121124A11801149B1F994
:102020000210002902DA00210E4A518006E00D4913
:10203000C988A1F5B46109B20A4AD1800949B1F948
:102040000610B1F5B46FF2DA06E00649C98801F569
:10205000B46109B2034AD1800249B1F906100029DE
:10206000F3DB704774AE002010B59FED180A1848D6
:1020700080ED050AB3EE060A80ED120AB0EE080AFA
:1020800080ED130A0221134804F091FA12490968FD
:102090004978884203D101201049088002E00020DD
:1020A0000E49088000200E49087001200D49087073
:1020B0000D4908700D48006800B20D4908800D48B0
:1020C000D0F8700100B20C49088010BD000000007B
:1020D000A80800200083024854AE002074AE0020FF
:1020E00042080020340800204308002070C100404E
:1020F0000207002000C000400407002010B504467D
:102100000E4821880180A178817000200C49087058
:10211000FEF736FF00F07CF803F006FA06204FF4D5
:1021200080318140074A516000BF074A074908488B
:1021300001F09AFE00200749087010BDE806002053
:102140004108002000810248E8320020C40A002033
:10215000300A00204308002070B50446049D0E4854
:10216000046041608260C360056102200A4EB66867
:1021700030704620084EB668B071D220064EB66860
:10218000B0802820044EB668F07140F6B830024E98
:10219000F6687080002070BD54AE002010B50C2190
:1021A000034804F004FA08B9012010BD0020FCE740
:1021B000008E02480C480078012800D170470B4877
:1021C0000078012801D10220F8E7094800780128A9
:1021D00001D10320F2E707480078012801D104204B
:1021E000ECE70020EAE7000060080020610800201A
:1021F0006208002063080020014800787047000052
:10220000340800200148807A7047000074AE002036
:1022100010B5434A0C21434804F0DCF9424A02213C
:10222000424804F0D7F9424A0021424804F07EF9BE
:10223000414A00213F4804F0A1F902203B49096EC0
:10224000012282409143394A116600BF01203B4A76
:102250001178002804DB8A06130E394A135406E06D
:102260008A06140E374A00F00F031B1FD45400BF18
:102270000120002809DB00F01F02012191404209E2
:10228000920002F1E022C2F8001100BF2E492F484F
:1022900004F02EFA2E492D4804F037FA2D492E4825
:1022A00004F026FA2A492C4804F02FFAFEF71CFD08
:1022B0002A4A07211B4804F08DF9284A06211948AB
:1022C00004F088F9254A0521254804F083F9234ABA
:1022D0000421234804F07EF9204A0321204804F019
:1022E00079F900BF01201949886000BF00BF1A4971
:1022F000886000BF1B4803F032FD1B4803F02FFD30
:102300001A4803F02CFD1A4803F029FD194803F080
:1023100026FD194803F023FD184803F020FD10BDE9
:1023200074090020008E0248D8AE002000830248C5
:10233000380900200048005040090020E80600202D
:1023400000E400E018ED00E05809002000800240A1
:10235000440900205409002000C002405C0900200C
:102360000082024800C1004000C2004000C300409B
:1023700000C4004000010140000201400003014090
:10238000014691ED340AB5EEC00AF1EE10FA04D21E
:1023900091ED340AB1EE400A01E091ED340AD1ED3D
:1023A0002C0AF8EEE00AB4EEE00AF1EE10FA01DDD4
:1023B000012070470020FCE710B50A21014804F015
:1023C0006EF910BD0081024810B50A21014804F0E1
:1023D00059F910BD008102482DE9F04188B0054649
:1023E0000E46002700242869012808D16869B0F545
:1023F000807F04D83146284600F014FBF7E0688956
:102400000028FBD196F86A0000EE100AB8EE400AE8
:10241000784880ED390A7749B1F8AA10491C286933
:1024200000FB01F4B4F5E67F01D90B272DE0B4F5EC
:10243000D27F01D90A2728E0B4F5BE7F01D9092748
:1024400023E0B4F5AA7F01D908271EE0B4F5967FF2
:1024500001D9072719E0B4F5827F01D9062714E0D6
:10246000DC2C01D9052710E0B42C01D904270CE09D
:102470008C2C01D9032708E0642C01D9022704E041
:102480003C2C01D9012700E0002707EB8700345CD2
:1024900000EE104AB8EE400ADFED570A20EE200A9F
:1024A000564880ED020A07EB87003044447800EE7E
:1024B000104AB8EE400ADFED520A20EE200A4F48DB
:1024C00080ED060A07EB87003044847800EE104A5E
:1024D000B8EE400ADFED4B0A20EE200A474880EDB7
:1024E000070A07EB87003044C47800EE104AB8EEC4
:1024F000400ADFED450A20EE200A404880ED090A37
:1025000007EB87003044047900EE104AB8EE400A29
:10251000DFED3E0A20EE200A384880ED200A3548DB
:10252000B0F8A800384100F00100324981F8AC0051
:10253000084690F8AC0081F895000846B0F8B40061
:10254000022805D1084690ED370A2C4880ED0A0A8A
:10255000284890F8BA00A8B12648B0F9B6002C492E
:10256000096848432B4909682B4A126800FB01207F
:1025700020494860084640682749086008460068C6
:1025800026490860234928690860D5F81480244842
:102590000068012143460022CDE900101D48016872
:1025A00003A8FFF7EFFB142203A91248BC30FDF784
:1025B000D2FF00201B49086001201B4908800D49FB
:1025C000A1F8B800A889A1F8B600154831460268FC
:1025D0000020FFF741FA002805DA1448006840F0AF
:1025E0000400124908600020024981F8940008B0F4
:1025F000BDE8F081E83200208C4A6A3D300A0020B4
:10260000624EAF39D5FFFF38CDCCCC3D0AD7233C45
:102610002C0B0020200B0020280B0020240B002076
:1026200044340020140B0020300B00203C0B002011
:102630002DE9F84F04460F463F4830F81400C0F328
:10264000871086023C49601C31F81000C0F38710E7
:10265000850231463046FEF7D3F8834629462846A0
:10266000FEF7CEF80BEB000A5046FEF7D1F80090CB
:10267000314810F8140000F03F062F49601C11F893
:10268000100000F03F0506EB8510411C0098FEF796
:10269000B7F880464FEA88214FF44800FEF768F803
:1026A00081460120254981F8AC0081F89500224837
:1026B00030F81400C0F38710214908601E4830F834
:1026C0001400C0F3803008B9012001E04FF0FF3062
:1026D0001A49A1F8B60000201A4908604FF4FA70B0
:1026E00008FB00F0184908601548006800FB09F075
:1026F0001249B1F9B6104843144908603A461449E2
:10270000144801F049F90D4890ED370A114880ED61
:102710000A0A012010490870084981F8BA00A01C73
:102720000E49088008460088C82803DB0846008850
:10273000C8380880BDE8F88FE4AE0020E8320020F9
:10274000200B0020140B0020180B00201C0B002075
:10275000C40A0020300A0020400B0020500B00204B
:102760002DE9F04188B006460D4600270024708907
:1027700000287CD195F86A0000EE100AB8EE400AF5
:10278000994880ED390A9849B1F8AA10491C306976
:1027900000FB01F4B4F5FE7F6AD8B4F5E67F01D9F9
:1027A0000B272DE0B4F5D27F01D90A2728E0B4F534
:1027B000BE7F01D9092723E0B4F5AA7F01D90827F4
:1027C0001EE0B4F5967F01D9072719E0B4F5827FA2
:1027D00001D9062714E0DC2C01D9052710E0B42C20
:1027E00001D904270CE08C2C01D9032708E0642CC4
:1027F00001D9022704E03C2C01D9012700E0002781
:1028000007EB87002C5C00EE104AB8EE400ADFEDC3
:10281000770A20EE200A764880ED020A07EB87004F
:102820002844447800EE104AB8EE400ADFED710A01
:1028300020EE200A6E4880ED060A07EB8700284448
:10284000847800EE104AB8EE400ADFED6B0A20EE05
:10285000200A674880ED070A07EB87002844C47800
:1028600000EE104AB8EE400ADFED640A01E0B7E07E
:1028700014E020EE200A5E4880ED090A07EB87008D
:102880002844047900EE104AB8EE400ADFED5C0AF5
:1028900020EE200A564880ED200A39E015F83C4F1A
:1028A00000EE104AB8EE400ADFED500A20EE200A92
:1028B0004F4880ED020A6C7800EE104AB8EE400AEC
:1028C000DFED4C0A20EE200A80ED060AAC7800EE1F
:1028D000104AB8EE400ADFED480A20EE200A80EDEB
:1028E000070AEC7800EE104AB8EE400ADFED430A22
:1028F00020EE200A80ED090A2C793C3D00EE104ABA
:10290000B8EE400ADFED3E0A20EE200A80ED200AF4
:10291000354890F8BA00A8B13348B0F9B600394943
:102920000968484338490968384A126800FB0120A1
:102930002D494860084640683449086008460068E8
:1029400033490860284890F8AC00274981F8950081
:102950000846B0F8B400022806D1084690ED370AC0
:10296000234880ED0A0A0AE01F4890F895000128E4
:1029700005D11D4890ED370A1D4880ED0A0A22490D
:1029800030690860D6F814800020224908600120D0
:10299000214908801449A1F8B800B089A1F8B6000F
:1029A0001E480068012143460022CDE90010164868
:1029B000016803A8FFF7E6F9142203A90A48BC300E
:1029C000FDF7C9FD1548294602680020FFF744F8C5
:1029D000002805DA1248006840F004001049086039
:1029E00008B0BDE8F0810000E83200208C4A6A3D62
:1029F000300A0020624EAF39D5FFFF38CDCCCC3D38
:102A00000AD7233C2C0B0020200B0020280B002091
:102A1000240B0020140B0020300B00204434002035
:102A20003C0B002070B504460D466089002876D125
:102A30009FED530A534880ED390A53480078C0B1DE
:102A40005048B0F9B60051490968484350490968EF
:102A5000504A126800FB01204A4948600846406815
:102A60004C490860084600684B49086000204B4903
:102A7000086015F8410F00EE100AB8EE400ADFEDCD
:102A8000480A20EE200A474880ED020A687800EEE6
:102A9000100AB8EE400ADFED440A20EE200A414851
:102AA00080ED060AA878413D00EE100AB8EE400A13
:102AB000DFED3E0A20EE200A3A4880ED070A606901
:102AC00030B900202F4981F8AC0081F8950005E06D
:102AD00001202C4981F8AC0081F895002B49206930
:102AE0000860A0892749A1F8B60000202B4908609A
:102AF0002F480088012813DC244800682D494843EA
:102B00002D4908601F48B0F8B60040F6783110FB38
:102B100001F02A4908600120254908801DE02DE0C8
:102B200023480088401E42F6E0614843224908607D
:102B30001F4A1288521E42F6E06302FB03F1134A59
:102B40001268D002FDF79AFE0E49B1F9B61048435B
:102B50001A4908600120164908802A461849114878
:102B600000F01AFF074890ED370A0E4880ED0A0A78
:102B7000012005490870034981F8BA0070BD0000C2
:102B800000000000E8320020400B0020200B002055
:102B90002C0B0020280B0020240B0020140B0020FD
:102BA0008C4A6A3D300A0020624EAF39D5FFFF38AB
:102BB000560B002000941100180B00201C0B002065
:102BC000C40A002010B5054803F03AFE002004F0C6
:102BD00025F82021012003F0B1FF10BD48CD0108E8
:102BE00070B500245249534804F0BAF800BF514868
:102BF000406B40F001004F49486300BF082000BF10
:102C0000496B21F07062411E42EA0161494A5163F9
:102C100000BF00BF00BF00BF1146496B21F47C120A
:102C2000411E42EA0141434A516300BF00BF0021F7
:102C3000084600BF526922F050420A4302433D4B0E
:102C40005A6100BF00BF02201946496921F4FE41C4
:102C5000421EC30143EA82221143364A516100BF3A
:102C6000354A0221354803F0B5FC324900200246BE
:102C700001F11C0353F8203023F0400343F010050A
:102C800001F11C0343F8205000BF01F11C0353F86D
:102C9000203023F00703134301F11C0545F82030D1
:102CA00000BF00BF00BF0120096C21F00F010143EC
:102CB000204A116400BF00BF214A0521214803F0CA
:102CC00089FC214A06211F4803F084FC1F4A012188
:102CD0001C4803F07FFC1E4A0D211E4803F07AFCBD
:102CE0001D4A0E211B4803F075FC002210211148DB
:102CF00004F06EF90123052220210E4804F072F938
:102D0000032210210B4804F088F9002305221946FC
:102D1000084804F0E7F805221021064804F000F9FD
:102D200005221321034804F0FBF8204670BD000083
:102D30003C00002000020340D044002000820248F2
:102D4000140000200083024874CD010890CD0108D2
:102D50002800002000810248B4CD01082DE9F04789
:102D600006460F4690461D464FF00209B468207F84
:102D700020BB07B3B8F1000F1DD0E5B1E07FF8B973
:102D800094F82000E0B90120E077C4F81480A7612E
:102D90006560002084F8210084F82200706890F8B3
:102DA000850002280CD12946304600F00CF88146F7
:102DB0000020E07704E04FF0030901E04FF0010943
:102DC0004846BDE8F0872DE9F041054688460126D2
:102DD000AC68002700202061A060A868006808286F
:102DE00000D90226701E08FA00F0E060217F2868F2
:102DF00003F0DBFF686890F87D00002877D0286832
:102E00004FF48041C0F8181100BF286800F0F6F8B0
:102E100094F82100012806D1227F4FF6FF7128681F
:102E200004F0F6F80DE0022E03D1A168A069475A1C
:102E300002E0A168A069475C227F3946286804F057
:102E4000E7F8A0683044A06032E094F8210001283F
:102E500006D1227F4FF6FF71286804F0D9F80DE003
:102E6000022E03D1A168A069475A02E0A168A069B7
:102E7000475C227F3946286804F0CAF800BF2868FA
:102E800004F048F80028FAD1286803F05CFF0746F0
:102E9000D4E904218F54022E04D13912D4E904025A
:102EA000401C1154206930442061A0683044A06067
:102EB000A068E1688842C8D300BF286804F02AF8F7
:102EC0000028FAD1286803F03EFF0746D4E9042120
:102ED0008F54022E04D13912D4E90402401C11543B
:102EE00005212868C0F8181100BF81E0FFE72868B5
:102EF00000F084F800BF286803F0EFFF8028FAD0C4
:102F000094F82100012806D1227F4FF6FF7128682E
:102F100004F08FF80DE0022E03D1A168A069475A92
:102F200002E0A168A069475C227F3946286804F066
:102F300080F8A0683044A0603DE000BF286803F03E
:102F4000CCFF8028FAD094F82100012806D1227FF6
:102F50004FF6FF71286804F06CF80DE0022E03D1E3
:102F6000A168A069475A02E0A168A069475C227F76
:102F70003946286804F05DF800BF286803F0A8FF10
:102F80000028FAD0286803F0DEFE0746D4E90421C1
:102F90008F54022E04D13912D4E90402401C11547A
:102FA000206930442061A0683044A0604FF4404163
:102FB000286803F093FEA068E1688842BDD300BF93
:102FC000286803F085FF0028FAD0286803F0BBFECC
:102FD0000746D4E904218F54022E04D13912D4E9D2
:102FE0000402401C11544FF44041286803F076FE5F
:102FF0000020E0602061A060BDE8F08110B50446CB
:10300000204603F0A0FE204603F09DFE10BD000008
:1030100010B52DED088B04469FEDFE0AB0EE409AE8
:103020009FEDFC0AF0EE409A9FEDFA0AF0EE40AAFE
:103030009FEDF90A84ED0A0A002084F8500094ED0F
:103040000E0ADFEDF60AB4EEE00AF1EE10FA07DB45
:1030500094ED0E0ADFEDF10A30EE600A84ED0E0AFF
:1030600094ED0E0AB5EEC00AF1EE10FA07D294ED17
:103070000E0ADFEDEA0A30EE200A84ED0E0A94ED26
:103080000F0AB1EE400AD4ED100A30EE600A84ED6A
:10309000110A204606F0FCFF20460DF055FC9FED7E
:1030A000DD0A84ED040A94ED050ADD48D0ED000A3E
:1030B000B4EEE00AF1EE10FA03DD90ED000A84EDC3
:1030C000050A94ED050AD648D0ED000AF1EE600A33
:1030D000B4EEE00AF1EE10FA05D290ED000AB1EE7E
:1030E000400A84ED050A94ED040AD4ED020A30EE9C
:1030F000600ACC4880ED000A94ED050AD4ED030A7D
:1031000030EE600AC84880ED000AC84890ED000A19
:10311000DFEDC70AB4EEE00AF1EE10FA02DD9FED32
:10312000C40A02E0C14890ED000AC04880ED000AE0
:1031300090ED000ADFEDBF0AB4EEE00AF1EE10FAFE
:1031400002D29FEDBC0A02E0B84890ED000AB748F1
:1031500080ED000AB84890ED000ADFEDB50AB4EE44
:10316000E00AF1EE10FA02DD9FEDB10A02E0B2488A
:1031700090ED000AB04880ED000A90ED000ADFED06
:10318000AD0AB4EEE00AF1EE10FA02D29FEDA90A00
:1031900002E0A94890ED000AA74880ED000A94EDEE
:1031A000120AA048D0ED000A20EE200AD4ED130A3E
:1031B000A14890ED001A11EE600A84ED000A94ED2A
:1031C000120A9948D0ED000A20EE200AD4ED130A25
:1031D000964890ED001A11EE600A84ED010A9648B7
:1031E00090ED000A8F48D0ED000A30EE200A924898
:1031F00080ED000A8D4890ED000A8B48D0ED000A62
:1032000030EE200A894880ED000A94ED010ADFEDD6
:103210008B0AB4EEE00AF1EE10FA02DD9FED870AA8
:1032200001E094ED010A84ED010A94ED010ADFED5D
:10323000840AB4EEE00AF1EE10FA02D29FED800AA1
:1032400001E094ED010A84ED010A94ED000ADFED3E
:103250007B0AB4EEE00AF1EE10FA02DD9FED770A88
:1032600001E094ED000A84ED000A94ED000ADFED20
:10327000740AB4EEE00AF1EE10FA02D29FED700A81
:1032800001E094ED000A84ED000A94F85A00012848
:1032900011D19FED600A84ED000A9FED5E0A84ED76
:1032A000010A9FED5C0A644880ED000A9FED590A0F
:1032B0005E4880ED000A20460CF04AF894ED07BA0B
:1032C00094ED060ADFED5F0A20EE200AF6EE000A12
:1032D00020EE200AD4ED070AB6EE001AF0EE40BA4E
:1032E00040EEC1BA94ED060ADFED560A20EE200A40
:1032F000F6EE000A20EE600AD4ED070AB6EE001AD8
:10330000B0EE40AA00EEC1AAB5EEC0BAF1EE10FAD6
:1033100002DD012084F85000F5EEC0BAF1EE10FA9B
:1033200004DD94F85000801C84F85000B5EEC0AA6B
:10333000F1EE10FA04DD94F85000001D84F85000FE
:1033400094F850004049087094F85000012810D1BA
:103350009FED3E0A2BEE800AD4ED0A0A20EE608A29
:103360009FED3A0A2AEE000AD4ED0A0A60EE608A5E
:1033700087E094F85000022810D19FED340A2AEE1D
:10338000000AD4ED0A0A20EE608A9FED300A2BEE87
:10339000000AD4ED0A0A60EE608A72E094F85000E8
:1033A000032810D19FED290A2BEE800AD4ED0A0ADA
:1033B00020EE208A9FED250A2BEE000AD4ED0A0AA2
:1033C00060EE208A5DE094F85000042810D19FED53
:1033D0001F0A2BEE000AD4ED0A0A20EE608A9FED48
:1033E0001B0A2BEE800AD4ED0A0A60EE608A48E0E0
:1033F00094F85000052830D19FED140A2BEE000AF6
:10340000D4ED0A0A20EE208A9FED100A2AEE000A67
:103410001EE00000000000001C68533B0000B443A5
:103420001C09002020090020240900201409002084
:1034300000004843000048C31009002000009643E4
:10344000000096C374B5DD3F080900206662A246FD
:10345000D4ED0A0A60EE208A13E094F850000628A2
:103460000FD11FED060A2AEE000AD4ED0A0A20EE5B
:10347000208A1FED0A0A2BEE800AD4ED0A0A60EEBC
:10348000208A38EE280ADFED500AB4EEE00AF1EEA9
:1034900010FA0FDD9FED4C0A28EE000A78EE280A9C
:1034A00080EE201AB0EE418A9FED470A30EE480ABE
:1034B000F0EE408A9FED440A30EE480A30EE680A8A
:1034C000F5EE000A20EE200AB0EE409AF6EE000A71
:1034D000B0EE490A08EE200AF0EE409AF6EE000A35
:1034E000B0EE690A08EEA00AF0EE40AA94F8500087
:1034F000012806D1C4ED0B9A84ED0C9AC4ED0DAAF7
:1035000042E094F85000022806D184ED0B9AC4EDF5
:103510000CAAC4ED0D9A37E094F85000032806D1A8
:1035200084ED0B9AC4ED0C9AC4ED0DAA2CE094F82E
:103530005000042806D1C4ED0BAAC4ED0C9A84ED0A
:103540000D9A21E094F85000052806D1C4ED0BAA8D
:1035500084ED0C9AC4ED0D9A16E094F850000628FC
:1035600006D1C4ED0B9AC4ED0CAA84ED0D9A0BE0C4
:103570009FED160A84ED0B0A9FED140A84ED0C0AE8
:103580009FED120A84ED0D0A2C3494ED000ABCEE76
:10359000C00A10EE100A41F27071081AE08494ED2E
:1035A000010ABCEEC00A10EE100A081A208594ED3C
:1035B000020ABCEEC00A10EE100A081A60852C3C04
:1035C000BDEC088B10BD000000803B4600803B45F1
:1035D00010B53348007802280BDB314800782028EA
:1035E00007DC2F480078642110FB01F02D4908808A
:1035F0000AE02B48007838B92A48B0F90000642165
:1036000090FBF1F026490870274890F90000002847
:1036100014DD26480078642110FB01F0244948801D
:103620000846FEF7E3FC2248408800B221490880A2
:103630001D480178012016F0B9FC30E01A4890F9D5
:10364000000000282BDA184890F90000002803DB5E
:10365000154890F9000003E0134890F9000040423B
:10366000C4B212480078642110FB01F01049488070
:103670000846FEF7BBFC0E48408800B20D490880A2
:103680002146002016F092FC01E013F03DFAFEF70F
:10369000F5FB1028F9DA2146012016F087FC10BD51
:1036A00050010020C0010020AB030020D201002007
:1036B000C40000202C04002070B505460C46FEF71F
:1036C00015FB1748006848B1164800882080154847
:1036D0000088608013480088A0800BE011480088B3
:1036E00020801048018847F6FF708843608045F2CB
:1036F0005550A080002006E035F810100A4A22F844
:103700001010411CC8B20328F6DB074800880549A1
:1037100008800648006816F011FE002070BD000009
:103720003C0B0020000A0020020A00204034002048
:1037300010B53A4A0A213A4802F04CFF374A0921AB
:10374000374802F047FF354A0821354802F042FF6A
:10375000324A0021324802F03DFF304A0121304810
:1037600002F038FF2D4A08212E4802F033FF2B4A81
:103770000E212C4802F02EFF284A0D21294802F084
:1037800029FF264A0121274802F024FF234A00216D
:10379000244802F01FFF214A0921234802F01AFFA2
:1037A000224A0221224802F015FF204A0321214823
:1037B00002F010FF1D4A0C211E4802F00BFF1B4AAD
:1037C00000211D4802F006FF184A0721194802F09F
:1037D00001FF164A0821174802F0FCFE134A002197
:1037E000144802F0F7FE114A0121124802F0F2FEDD
:1037F0000E4A02210F4802F0EDFE0C4A02210E484B
:1038000002F0E8FE094A01210B4802F0E3FE074AF4
:103810000421074802F0DEFE10BD00002CCC010898
:1038200000820248008E0248008F024820CC010826
:1038300000830248008102480085024801200104FB
:103840008140024A516000BF704700000084024876
:10385000062001218140024A516000BF70470000EC
:103860000081024810B527480068401C25490860BF
:10387000084600684CF25031884201D9FEF730F911
:1038800000202149496AC14001F0010129B91F48BE
:10389000006840F001001D4908601C48006810B134
:1038A00000201B4908801B48008848B3184800883E
:1038B00080B91948008848B900F0F8FD0120164980
:1038C0000880164A1649174800F0CEFA002016491B
:1038D000088015E00E480088012811D113480068BF
:1038E00000F010FE124800F075FD0F48008820B966
:1038F000FFF7AEFF01200C49088000200649088030
:1039000010BD0000FC090020008402483C0B002090
:103910003A340020080A0020A8340020E8320020B1
:10392000C40A0020300A0020AA34002040340020BD
:103930000C0A002012F8543F00EE103AB8EE400A8C
:10394000F6EE060A20EE200A80ED0D0A537800EE0E
:10395000103AB8EE400ADFED0F0A20EE200A80EDA3
:103960000E0A937A00EE103AB8EE400AF6EE060A16
:1039700020EE200A80ED140AD37A543A00EE103A71
:10398000B8EE400ADFED030A20EE200A80ED150AAA
:103990007047000040DA7F392E4BB3F8B4300A2B61
:1039A00015D12D4B93ED000AB8EEC00ADFED2B0ABE
:1039B00020EE200A80ED0D0A93ED000AB8EEC00A51
:1039C000DFED260A20EE200A80ED140A40E012F80E
:1039D000503F00EE103AB8EE400AF6EE060A20EE2E
:1039E000200A80ED0D0A537800EE103AB8EE400A36
:1039F000DFED1B0A20EE200A80ED0E0A937A00EE1E
:103A0000103AB8EE400AF6EE060A20EE200A80EDE3
:103A1000140AD37A503A00EE103AB8EE400ADFEDBD
:103A2000100A20EE200A80ED150A4B8C00EE103AA9
:103A3000B8EE400A80ED1C0A9FED0A0A80ED0F0ADD
:103A40009FED080A80ED160A9FED060A80ED080A30
:103A500070470000E83200204C0B002035FE2F3765
:103A600040DA7F390000000070B52DED048B05466B
:103A70000C461646B5F8B400022875D095F89500A6
:103A8000002872D094ED010AD5ED360A20EE200A06
:103A900085ED050A95ED020AB8EEC00AD5ED050AD6
:103AA00030EE609A95ED020AB8EEC00AD5ED390AFB
:103AB00094ED241A39EE411AF0EE408A40EE818AE4
:103AC00095ED050A38EEC00A85ED340A84ED249A96
:103AD00095ED340ADFED750AB4EEE00AF1EE10FA66
:103AE00025DD94ED1D0AF5EE000A30EE208AB7EED2
:103AF000000AB4EEC08AF1EE10FA06DDB7EE000A55
:103B000038EE400AB0EE408A0AE0B5EEC08AF1EE27
:103B100010FA05D2B7EE000A38EE000AB0EE408A7D
:103B20009FED630A28EE000A84ED1A0A40E095ED45
:103B3000340ADFED600AB4EEE00AF1EE10FA27D2A3
:103B400094ED1D0AF5EE000A30EE608AB7EE000A29
:103B5000B4EEC08AF1EE10FA08DDB7EE000A38EED6
:103B6000400AB0EE408A0CE072E031E0B5EEC08A67
:103B7000F1EE10FA05D2B7EE000A38EE000AB0EE08
:103B8000408A9FED4B0A28EE000A84ED1A0A0FE0E6
:103B90009FED490A28EE808AB0EE480A03F012FC35
:103BA00038EE400ADFED420A20EE200A84ED1A0AC0
:103BB0009FED420A84ED110A204600F081F894ED51
:103BC000000A84ED210A9FED3D0A84ED230A62E09C
:103BD00094ED010AD5ED360A20EE200A85ED050A9E
:103BE00095ED020AB8EEC00AD5ED050A30EE600A7E
:103BF00085ED340A95ED020AB8EEC00AD5ED350A16
:103C000020EE200A84ED000A94ED000AD4ED210A8A
:103C100070EE600AB4F8880000EE100AB8EE400AB0
:103C200020EE800A84ED1E0A94ED000A84ED210A3C
:103C300094ED1D0ADFED1E0A20EE200A84ED1A0A1B
:103C40009FED1E0A84ED0A0A204600F0F9F922E0F1
:103C500095ED020AB8EEC00ADFED170A20EE208AC1
:103C6000B0EE480A03F0AEFB38EE400ADFED100A72
:103C700020EE200A84ED1A0A9FED100A84ED110A45
:103C8000204600F01DF894ED000A84ED210A9FED16
:103C90000B0A84ED230A94ED180A86ED000A94EDD0
:103CA000190A86ED010ABDEC048B70BD0000A04628
:103CB000D00FC9400000A0C6AACC4C3700000000BD
:103CC00010B52DED088B0446D4ED1A0AB0EE600A4B
:103CD000FCF762FBF0EE408AD4ED1A0AB0EE600AFF
:103CE000FCF71EFBB0EE409A94ED0C0A20EE090A98
:103CF000D4ED130A08EEA00A84ED0B0A94ED0C0A29
:103D0000F1EE680A20EE200AD4ED130A09EE200A2B
:103D100084ED120A94ED0A0AD4ED0B0A30EE600A23
:103D2000B0EE40BA94ED0D0A20EE0B0AF0EE40AA78
:103D300094ED0E0A20EE2A0AB0EE408A94ED0F0AA6
:103D400030EE080A84ED0F0A94ED0F0A30EE2A0ACD
:103D500084ED100A94ED100AD4ED1C0AB4EEE00ACA
:103D6000F1EE10FA0ADD94ED1C0A84ED100A94EDD0
:103D70000F0A30EE480A84ED0F0A16E094ED100A9F
:103D8000D4ED1C0AF1EE600AB4EEE00AF1EE10FA8E
:103D90000BD294ED1C0AB1EE400A84ED100A94EDAA
:103DA0000F0A30EE480A84ED0F0A94ED110AD4EDA3
:103DB000120A30EE60AA94ED140A60EE0A9A94EDAD
:103DC000150A20EE290AB0EE408A94ED160A30EE6C
:103DD000080A84ED160A94ED160A30EE290A84EDDD
:103DE000170A94ED170AD4ED1C0AB4EEE00AF1EEBE
:103DF00010FA0ADD94ED1C0A84ED170A94ED160AF8
:103E000030EE480A84ED160A16E094ED170AD4ED58
:103E10001C0AF1EE600AB4EEE00AF1EE10FA0BD2E1
:103E200094ED1C0AB1EE400A84ED170A94ED160ACF
:103E300030EE480A84ED160A94ED100A20EE090AC5
:103E4000D4ED170A08EEE00A84ED180A94ED100A82
:103E500020EE280AD4ED170A09EE200A84ED190A8B
:103E6000BDEC088B10BD000070B504460D4616462B
:103E70009FED660A84ED060A9FED650A84ED070A48
:103E8000B1EE020A84ED090A9FED620A84ED020A8E
:103E90006148006890F84D0020B15F48006890F8D4
:103EA0004E0010B95D485C49086041F287315C48BA
:103EB000006806F015FD5A49096801F50051B1F88E
:103EC0000E17884202D0574855490860524800688A
:103ED00090F84E0020B946204F49096881F84E00FD
:103EE0004D48006890F84E0000EE100AB8EE400A07
:103EF000DFED4D0A20EE200A84ED0D0A46480068E9
:103F000090F84D0000EE100AB8EE400ADFED410ACD
:103F100060EE200A4048006890F84E0000EE100A5B
:103F2000B8EE400A80EE801A84ED0E1A94ED0D0A68
:103F300084ED140A94ED0E0A84ED150A688C00EEE7
:103F4000100AB8EE400A84ED1C0A96ED380A84ED9A
:103F50000A0A9FED360A84ED0F0A9FED340A84EDBC
:103F6000160A9FED320A84ED080A288C00EE100A2A
:103F7000F8EE400AA88D00EE100AB8EE400A80EE76
:103F8000801A85ED0C1AA88D298C90FBF1F000EEBB
:103F9000100AB8EEC00AF4EE000A20EE200A85ED01
:103FA0000D0A1D48006890F84C00552804D06E207A
:103FB0001949096881F84C001748006890F84C00CE
:103FC00000EE100AB8EE400A194880ED020A90EDA2
:103FD000020AF7EE000A80EE801A80ED081A0E48F9
:103FE000006890F84B00800000EE100AB8EEC00A9E
:103FF000104880ED030A0848006890F86B000E49ED
:10400000096848430D49086070BD0000B37B723CED
:104010008C4A6A3CCDCCCC3D403400206E3200202E
:10402000443400205E0B0020499D003D000000004C
:104030000C0A0020300A00202C0B0020580B002016
:1040400010B52DED028B044694ED000AD4ED010A63
:1040500030EE600AB0EE408A94ED1E0AD4ED020AFA
:1040600000EE880A84ED040A94ED040AD4ED030AF4
:10407000B4EEE00AF1EE10FA04DD94ED030A84EDEB
:10408000040A10E094ED040AD4ED030AF1EE600A8C
:10409000B4EEE00AF1EE10FA05D294ED030AB1EEA7
:1040A000400A84ED040A204600F02CF9BDEC028B96
:1040B00010BD00009FED914AB0EE440A9FED8F4A7B
:1040C000F0EE440A9FED8D4AB0EE441A9FED8B4A04
:1040D000B0EE442A9FED894AF0EE441A9FED874ADC
:1040E000F0EE442A9FED854AB0EE443A9FED834AB4
:1040F000F0EE443A90ED004AD0ED084A24EE244A0E
:10410000B0EE440A90ED014AD0ED084A24EE244A6C
:10411000F0EE440AB0EEC04AB0EE442AB0EEE04AF7
:10412000F0EE441A32EE214AB0EE441A20EE204A54
:10413000B5EEC04AF1EE10FA46DBB4EEE12AF1EE3C
:1041400010FA20DBB7EE004A30EE044AF6EE004AE1
:1041500024EE244A80ED034AB7EE004A34EE404A8A
:10416000F6EE004A24EE244A80ED044AB7EE004AF7
:1041700074EE404AB6EE005AB0EE604A05EE244AAC
:1041800080ED054A53E0B7EE004A74EE604AB6EEA1
:10419000005AB0EE404A05EE244A80ED034AB7EEDD
:1041A000004A34EE604AF6EE004A24EE244A80EDDE
:1041B000044AB7EE004A30EE844AF6EE004A24EE96
:1041C000244A80ED054A32E0B7EE004AB4EEC41A44
:1041D000F1EE10FA07DD80EE014AB0EE440A80EEFF
:1041E000814AF0EE440AB7EE004A30EE044A34EE5B
:1041F000604AF6EE004A24EE244A80ED034AB7EE08
:10420000004A34EE404A34EE604AF6EE004A24EEAC
:10421000244A80ED044AB7EE004A34EE404A34EEB8
:10422000204AF6EE004A24EE244A80ED054A90ED3D
:10423000034AF7EE004A34EEC44AF0EE442A90ED09
:10424000044AF7EE004A34EEC44AB0EE443A90ED28
:10425000054AF7EE004A34EEC44AF0EE443A9FEDC8
:10426000284AF4EEC42AF1EE10FA02D29FED244A55
:1042700001E0B0EE624AF0EE442A9FED214AB4EE2E
:10428000C43AF1EE10FA02D29FED1D4A01E0B0EE01
:10429000434AB0EE443A9FED1A4AF4EEC43AF1EEC6
:1042A00010FA02D29FED164A01E0B0EE634AF0EE3A
:1042B000443AC18B04EE101AB8EE444A24EE224A66
:1042C000BCEEC44A14EE101A0183C18B04EE101A1E
:1042D000B8EE444A24EE034ABCEEC44A14EE101A67
:1042E0004183C18B04EE101AB8EE444A24EE234AEF
:1042F000BCEEC44A14EE101A81837047000000001F
:104300000AD7A33D10B52DED048B044694ED040AA5
:10431000D4ED050A30EE600AB0EE409A94ED060A3C
:1043200020EE090AF0EE408A94ED070A20EE280AF2
:10433000B0EE408A94ED080A30EE080A84ED080ACF
:1043400094ED080A30EE280AD4ED200A94ED1F1AE5
:1043500000EE810A84ED110A94ED110AD4ED090AE8
:10436000B4EEE00AF1EE10FA0ADD94ED090A84EDEC
:10437000110A94ED080A30EE480A84ED080A16E0A6
:1043800094ED110AD4ED090AF1EE600AB4EEE00AE8
:10439000F1EE10FA0BD294ED090AB1EE400A84ED69
:1043A000110A94ED080A30EE480A84ED080A204606
:1043B000FFF786FCBDEC048B10BD000001490860CE
:1043C0007047000044340020014908607047000035
:1043D0004034002010B504462046FFF76BFE228BC8
:1043E00000210B4801F0A1FD628B0121084801F07A
:1043F0009CFDA28B0021074801F097FD0121064892
:1044000001F0F0FC1021044801F0ECFC10BD0000AC
:1044100000410240004202400040024010B501202D
:10442000012181401C4A516000BF41F2707200219D
:104430001A4801F07AFD41F270720021184801F02B
:1044400074FD41F270720021164801F06EFD41F2D8
:1044500070720121114801F068FD41F27072012172
:104460000F4801F062FD41F2707201210D4801F028
:104470005CFD01210C4801F0B1FC10210A4801F05B
:10448000ADFC4FF48071084801F0A8FC4FF4805156
:10449000054801F0A3FC10BD008402480001024061
:1044A00000020240000402400000024010B5062055
:1044B0004FF4803181400F4A516000BF41F2707269
:1044C00000210D4801F031FD41F2707200210B48CE
:1044D00001F02BFD41F270720121074801F025FD2A
:1044E0000121074801F07EFC1021054801F07AFC0B
:1044F00010BD00000081024800410240004202401D
:104500000040024010B50446FE48B0F8B40002284E
:104510007ED0FC48FDF734FF48B3FB48008830BB31
:10452000F84890F8BA0088B1F8480068401CF7498C
:104530000860F448D0F8A400096888421ADAF44800
:10454000006840F02000F249086013E0EF4800687E
:10455000401CEE49086008460068B0F5FA4F09DDD6
:10456000EB48006840F02000E949086002E00020C4
:10457000E6490860E34890F8BA0048B1E5480068A9
:10458000FCF766FE0020E4490880E4490880EBE07F
:10459000E3480088012817D1E148FDF7F5FA00202B
:1045A000E04948810120086100024861DC484089F7
:1045B000401C4FF6FF7101EA0010DB4908802146DC
:1045C000D848FEF72FFACFE0CE4890F895000028A3
:1045D00078D1D148008800281EDDCF480088401CD3
:1045E000CD49088008460088D0490988884212DBF6
:1045F0000020C9490880C34890ED380ACC4880EDB6
:104600000A0A2246CB49FFF795F90120BD4900E08F
:10461000A2E081F89500A7E0C548D0ED000A94F823
:10462000670000EE100AB8EE400A30EEC00AC0483B
:10463000D0ED010AB4EEE00AF1EE10FA0ED8B1485E
:10464000B0F9B600002809DDB94890ED050ADFEDA4
:10465000BA0AB4EEE00AF1EE10FA21D9B448D0ED6E
:10466000000A94F8670000EE100AB8EE400A30EE37
:10467000800AAF48D0ED010AB4EEE00AF1EE10FA7C
:1046800072DBA048B0F9B60000286DDAA84890EDBA
:10469000050ADFEDAA0AB4EEE00AF1EE10FA63DBD8
:1046A00094F8460000EE100AB8EE400ADFEDA40AC6
:1046B00020EE200A9E4880ED020A012096490880DB
:1046C00052E0FFE79A48D0ED000A94F8670000EE48
:1046D000100AB8EE400A30EEC00A9548D0ED010A43
:1046E000B4EEE00AF1EE10FA0ED88648B0F9B60042
:1046F000002809DD8E4890ED050ADFED8F0AB4EE43
:10470000E00AF1EE10FA21D98948D0ED000A94F8B8
:10471000670000EE100AB8EE400A30EE800A8448C6
:10472000D0ED010AB4EEE00AF1EE10FA1CDB754898
:10473000B0F9B600002817DA7D4890ED050ADFEDE4
:104740007F0AB4EEE00AF1EE10FA0DDB2246794959
:104750007748FFF7EFF807E06A4890F8BA0018B119
:104760006C480068FCF774FD6648406865498968D4
:10477000401A00EE100AF8EEC00A94F8680000EE45
:10478000100AB8EE401ADFED6F1AB7EE000A01EE1C
:10479000610A20EE800ABDEEC00A10EE100A5949E7
:1047A0008968084457498860084690ED010AB8EEC8
:1047B000C00AD0ED360A9FED641A60EE810AB4EEAD
:1047C000E00AF1EE10FA3FDD91ED360ADFED5F0A07
:1047D00020EE200ABDEEC00A10EE100A5C490968FE
:1047E000A1F5FA515A4A1160514991ED010ADFEDE4
:1047F000570A30EE200A81ED010A564991ED000A70
:10480000DFED520A30EE200A81ED000A484991EDB1
:10481000210ADFED4E0A30EE200A81ED210A3949E6
:1048200049680144374A51604B49096801444A4A82
:1048300011604A4909680144484A11603149896850
:104840000144304A916050E02E4890ED010AB8EEE4
:10485000C00AD0ED360A9FED421A60EE810AB4EE2E
:10486000E00AF1EE10FA40D2014691ED360ADFED92
:104870003D0A20EE200ABDEEC00A10EE100A3449AF
:10488000096801F5FA51324A1160294991ED010A8E
:10489000DFED340A30EE200A81ED010A2D4991ED59
:1048A000000ADFED300A30EE200A81ED000A2049CF
:1048B00091ED210ADFED2B0A30EE200A81ED210A6D
:1048C0001049496801440F4A51602349096801446D
:1048D000214A1160214909680144204A11600949AF
:1048E00089680144074A916000BF064890F8950026
:1048F00001284CD1034890ED340AB5EEC00AF1EE20
:1049000010FA31E0E83200202E340020B0340020CC
:104910003C0B002044340020B4340020320B002033
:10492000040B0020D0330020560B0020540B002035
:10493000300A0020C40A002000004842000048C29B
:104940008C4A6A3D24977F3B00401C460000FAC514
:10495000483400204C340020280B0020240B002079
:1049600000401CC60000FA4504D290ED340AB1EEB6
:10497000400A02E0D64890ED340AD648D0ED000A4D
:10498000F8EE600AB4EEE00AF1EE10FA04D3D04873
:10499000B0F8B400022871D1CD4890F8BA000028D0
:1049A000F9D1CD480088401CCB49088008460088D2
:1049B000B0F5165F02DB4FF416500880C648008839
:1049C000C6490988884260DBC3480088B0F5165F95
:1049D0005BDAC3480088012851D19FEDC20AC24862
:1049E00080ED0A0ABD480088BB490880B848D0ED70
:1049F000340ABE4890ED000AB8EEC00AF4EEC00AD0
:104A0000F1EE10FA15DDB2484068B8490968401A5D
:104A1000AF494860B6480068B4490968401AB449CB
:104A20000860B4480068B1490968401AB149086093
:104A30002BE0A748D0ED340AAC480068404200EEB5
:104A4000100AB8EEC00AF4EEC00AF1EE10FA1CD259
:104A50009F484068A549096808449D494860A448A2
:104A60000068A24909680844A1490860A148006893
:104A70009E49096808449F49086006E00BE1944894
:104A800090ED380A984880ED0A0A9348008842F26F
:104A90002731884219DB9048008842F2265188422B
:104AA00013DC954890ED000A9448D0ED000A30EEF2
:104AB000200A80ED000A904890ED010A9048D0ED60
:104AC000000A30EE200A80ED000A83480088B0F525
:104AD000AF6F09D19FED830A884880ED000A9FEDF2
:104AE000810A874880ED000A7B480088B0F5165F90
:104AF0000DDA0020834908809FED7A0A824880ED14
:104B0000000A9FED780A814880ED000AD4E07048E1
:104B100090ED340AB5EEC00AF1EE10FA04D290ED31
:104B2000340AB1EE400A02E0694890ED340A69485F
:104B3000D0ED000AF8EE600AB4EEE00AF1EE10FAE9
:104B400002DD0020644908806E480088401C6D49E1
:104B50000880654890ED0B0A6B48D0ED000A30EEF6
:104B6000200A80ED000A604890ED120A6748D0EDF7
:104B7000000A30EE200A80ED000A084600888028EE
:104B800074DB614890ED000ADFED610A20EE200A37
:104B900080ED000A5D4890ED000ADFED5D0A20EE31
:104BA000200A80ED000A504890ED0A0A5648D0EDE0
:104BB000000A30EE600AB5EEC00AF1EE10FA0AD231
:104BC000494890ED0A0AB1EE400A4F48D0ED000A7C
:104BD00030EE600A07E0444890ED0A0A4A48D0EDFA
:104BE000000A30EE600A4B48D0ED000AB4EEE00A4D
:104BF000F1EE10FA02DB0020374908803A4890EDC8
:104C0000110A4248D0ED000A30EE600AB5EEC00A43
:104C1000F1EE10FA0AD2344890ED110AB1EE400AD2
:104C20003A48D0ED000A30EE600A07E02E4890EDD9
:104C3000110A3648D0ED000A30EE600A3548D0ED52
:104C4000000AB4EEE00AF1EE10FA02DB002022497D
:104C5000088000202B4908809FED220A2A4880ED19
:104C6000000A9FED200A294880ED000A234890EDB4
:104C7000000ADFED290A20EE200A1F4880ED000A15
:104C80001F4890ED000ADFED240A20EE200A1A48A2
:104C900080ED010A10E00020204908600E490880DC
:104CA000184908809FED0F0A174880ED000A9FED14
:104CB0000D0A164880ED000A07480088B0F5165F17
:104CC00004DA0D4A08490248FEF7CEFE10BD000086
:104CD000E8320020580B0020320B0020540B00203B
:104CE0002E34002000000000300A00202C0B002091
:104CF000280B0020240B00200C0A0020B8340020D0
:104D0000BC340020CC340020C4340020C83400203F
:104D10002497FF3BC03400206F12033B380B002068
:104D200010B504462046FEF773F934F8522F0021DF
:104D30000D4801F0FAF8628800210C4801F0F5F8FE
:104D4000A288523C00210A4801F0EFF801210948ED
:104D500001F044F81021074801F040F84FF4805169
:104D6000044801F03BF810BD00040240000202407C
:104D7000000102400000024010B570E003213A48F3
:104D800001F009FC01280AD138480088401C374945
:104D9000088008460088642804D1012460E00020CF
:104DA0003249088032480088642807DD09212E48EE
:104DB00001F0F1FB012801D1032451E02C480088C7
:104DC000652804DA2A480088401C294908800821FF
:104DD000254801F0E0FB50B926480088401C2549D1
:104DE000088008460088642801D1042438E00321A3
:104DF000214801F0D0FB58B920480088401C1F49C9
:104E0000088008460088B0F57A7F01D1052427E0A4
:104E10001B480078C0F3C00088B10721124801F098
:104E2000BAFB01280BD117480088401C154908809F
:104E300008460088B0F5FA7F01D1062410E010483A
:104E40000078C0F3800040B10C210F4801F0A3FBB3
:104E500008B9072404E0002402E0002400E08DE704
:104E600000BF204610BD000000800248CA04002098
:104E7000D0040020C8040020008F0248CC04002089
:104E8000D4040020D2040020008E024810B57848D7
:104E9000006800F0010070B97548001D006840F01E
:104EA00001007449C1F8040200BF7148006800F0B5
:104EB00001000028F9D07048006800F4007058B173
:104EC0006D480830006840F400706B490831086094
:104ED00041F64C5005F03FFD6848006840F4002062
:104EE0006649086040F6C41005F035FD6348006867
:104EF000634908406149086060481038006800F064
:104F0000300060B35D48103800685E4908405B4976
:104F100010390860FCF7F0FF5B49B0FBF1F0401E70
:104F200056491039096841EA00405449103908606F
:104F300052480830006820F00100504908310860EC
:104F40004E48006820F400304C49086000BF4B48D0
:104F5000001F006800F46070B0F5607FF7D147482B
:104F6000006840F00100454908600846006840F0CC
:104F7000100008604548091D0860081F006840F0DF
:104F80004000091F08600846006820F01000086013
:104F90000846006840F48020086000BF3748001FC2
:104FA000006800F004000028F8D03448006820F0C1
:104FB00001003249086000BF3048001F006800F05F
:104FC00001000028F8D13248006840F480303049B0
:104FD000086000202E4908310860091F08602C492C
:104FE00014310860091D0860032029490C3108604C
:104FF0002248006820F04000204908602548091D2B
:10500000086040F6B83005F0A6FC00BF1B48001F42
:10501000006800F004000028F8D01F481749091D57
:10502000086041F2941005F096FC00BF1348001F81
:10503000006800F004000028F8D018480F49091D46
:10504000086041F2707005F086FC00BF0B48001F3D
:10505000006800F004000028F8D0052004499439C5
:10506000086000200A490839086000F019F810BDEE
:1050700000420050004000500044005014470050CF
:10508000FDFFFEFFCFFFF0FFA0252600003B130130
:105090000C460050003B0701003B0401003B0301AC
:1050A00070B52449096801F4803181B32249096847
:1050B00001F0010109B1214801E0FCF71DFF1E4983
:1050C0000C39096801F00401C1B11B49091F0968C5
:1050D000C1F303614E1C1849091F0968C1F3062179
:1050E0004D1C1549091F0968C1F306414C1C16FBEC
:1050F00004F1B0FBF1F101FB05F00AE00E49091FD4
:10510000096801F07F014C1CB0FBF4F001E0FFE7FF
:105110000A4808490968C9B2491CB0FBF1F00549C1
:10512000091D096801F00101491CB0FBF1F00449B7
:10513000086070BD0C4600501C47005000366E01E0
:10514000C0FF002072B61249124A116000BF00BFB2
:1051500000BFBFF34F8F00BF00BF00BF62B60D4955
:105160008031096841F470010A4A803211600949AE
:105170000C31096821F00801064A0C321160064919
:10518000486920F00F0040F00300486170470000BC
:105190000000000808ED00E00020005810B51022C3
:1051A00051060648FBF792F90548064B0ECB0EC098
:1051B000FFF7C8FFFFF76AFE10BD0000C4FF002024
:1051C000D4FF00208400002010B50446FDF7FAFC4F
:1051D00002F030F902F0A8F9FEF7AAFAA06900F08F
:1051E000A3F9E06903F022F9D4E9041002F0B4FA5B
:1051F000D4E9001003F022F8D4E9021002F040FCD8
:10520000FDF7DAF80421094801F044FA01210848C1
:1052100001F040FA0621074801F03CFA0420012180
:105220008140024A516000BF10BD00000083024867
:10523000008402480081024810B540F2145410481E
:10524000008810490988884214D001200E4908704E
:105250000B4802880088401C094B18800B48815C71
:105260000B4801F0EEFD00BF201EA4F101018CB23D
:10527000FAD104E0FDF7A0F800200349087010BD42
:10528000F8040020FA04002000050020CCA500202E
:105290000000034010B5144801F08CFDC4B213485F
:1052A000007838B95A2C05D1002011490880012016
:1052B0000E4908700E480088B0F5967F08DA0C4851
:1052C00001880088401C0A4A10800A4844540AE0B9
:1052D000002007490880084601880088401C044ACD
:1052E00010800448445410BD000003403A030020DD
:1052F000FE040020F9A600207047704770470000A8
:1053000010B5044801F056FDC4B22146014801F031
:1053100098FD10BD0000024810B500216A4801F058
:1053200024FFC0F30B00694908800021684801F0A0
:105330001CFFC0F30B00674908800021664801F09C
:1053400014FFC0F30B00654908800021644801F098
:105350000CFFC0F30B006349088001215A4801F09B
:1053600004FFC0F30B00604908800221564801F099
:10537000FCFEC0F30B005D49088054480088A0F58E
:10538000006000EE100AB8EEC00A5948D0ED000ADD
:10539000F1EE600A20EE200A564880ED0C0A4D48D6
:1053A0000088A0F5006000EE100AB8EEC00A504870
:1053B000D0ED000AF1EE600A20EE200A4D4880EDA3
:1053C000130A46480088A0F5F96000EE100AB8EE0E
:1053D000C00A4948D0ED000AF1EE600A20EE200A2A
:1053E000464880ED0F0A3F480088A0F5FB6000EEBC
:1053F000100AB8EEC00A4048D0ED000A20EE200A9C
:105400003E4880ED100AFCF77BFA01213C4800F091
:1054100059FC00F480103B4908603948703000683E
:105420004EF6602188420DD900BF02203449086140
:1054300000BF9FED350A354880ED000A0120344950
:10544000088030E02F48006868B33148008840B1D8
:105450009FED2D0A2D4880ED000A00202C49088080
:1054600021E00121264800F02DFC2A49088000BFD8
:105470002948006EC0F30020012801DA012001E074
:105480004FF0FF302549484300EE100AF8EEC00AFD
:105490002048008800EE100AB8EE400A80EE801A1C
:1054A0001A4880ED001A194890ED000A1C4880ED5A
:1054B000000A0BF089FBFEF7D5F900BF012019495E
:1054C000086000BF10BD00000044004074080020C8
:1054D0000050004076080020004C0040700800207A
:1054E0000048004072080020780800207A08002058
:1054F00080080020300A00207C080020A808002036
:1055000000C40040A408002000000000840800201F
:10551000980800209E080020008002406889090049
:10552000940800209845004010B56B494FF040208A
:1055300001F0A8FD69496A4801F01EFE6749694803
:1055400001F01AFE6549684801F016FE6349674894
:1055500001F012FE6649624801F095FE6549614816
:1055600001F091FE6449604801F08DFE63495F4897
:1055700001F089FE624A0221594801F0BBFD614AEF
:105580000321574801F0B6FD5F4A0421544801F059
:10559000B1FD5E4A0721534801F0ACFD5C4A02218F
:1055A000514801F0A7FD5B4A0021504801F0A2FDDF
:1055B000594A00214A4801F0AAFE574A01214848A9
:1055C00001F0A5FE544A0221454801F0A0FE524ACE
:1055D0000021444801F09BFE4F4A0021424801F05F
:1055E00096FE4D4A0021414801F091FE12204B4A9F
:1055F0005178002804DB8A06130E494A135406E04A
:105600008A06140E474A00F00F031B1FD45400BF34
:105610000021334801F072FE1220002809DB00F05F
:105620001F02012191404209920002F1E022C2F8DA
:10563000001100BF03212A4801F070FE0321294810
:1056400001F06CFE0321284801F068FE0321274881
:1056500001F064FE4FF0402001F02EFD3248016859
:105660001F4801F046FE314801681D4801F041FE27
:105670002F4801681A4801F03CFE2E48016819487D
:1056800001F037FE2C480168174801F032FE2B4824
:105690000168164801F02DFE294A0221294800F030
:1056A00099FF274A0321274800F094FF244A042148
:1056B000244800F08FFF224A0F21224800F08AFF81
:1056C0001F4A0221204800F085FF1D4A08211E487C
:1056D00000F080FF10BD0000040600201C06002022
:1056E0000044004000480040004C00400050004092
:1056F000300600203C06002048060020540600200A
:105700006006002070060020800600209006002021
:10571000A0060020B0060020C0060020E8060020F9
:1057200000E400E018ED00E0C4060020C8060020F8
:10573000CC060020D0060020D4060020D806002089
:10574000DC060020008E0248008F024870B50B4630
:1057500000BF00BFD0F8C41101F4407109B90121A4
:1057600000E000210029F4D002215D1CECB24FF4CE
:105770007F0505EA02450D434FF07F4606EA0466C1
:105780003543C0F8C45100BF70BD000010B50446D9
:10579000084801F011FA074801F06CFA206820F07F
:1057A0000100206000BF206800F002000028FAD14C
:1057B00010BD0000100000102DE9F04F85B0044628
:1057C0000D4601F02FF880462046FFF7DFFF00204E
:1057D000B8FBF5F2C2F58061884201D9024600E0CB
:1057E0000A46934640F2FF3158460AF071F9814665
:1057F000C9F58060B8FBF0F00490A80901904FEA69
:10580000981701988002B0FBF7FB40F2FF31584631
:105810000AF05EF9064607FB06F0800A039003983B
:10582000800103900498291A0398281A814201D80C
:10583000012000E000208246BAF1000F01D0484666
:1058400000E030460290BAF1000F01D0012000E0E4
:1058500002200090E0684CF2FF318843E060E1688C
:10586000029A009842EA80300143E16005B0BDE849
:10587000F08F0000F0B504462A492068401AA0F5D0
:10588000805046097009400306F01F0140EA0127D5
:105890002068806820F47F402168886020688068E4
:1058A0003843216888606068C0F3407020B1606848
:1058B000C0F34070002834D0207E10B1207E012833
:1058C0002FD120202168C8616068C0F3407080B982
:1058D000656805F06045A08845EA804520688561D7
:1058E000A56805F06045208945EA80452068C560C7
:1058F00005E0D4E9001088612168A068C860207EB6
:10590000012807D1204600F023F84FF000602168FD
:10591000C86103E04FF400602168C8610248216853
:10592000C861F0BD004001484000A006026812684E
:105930000A4303681A60704710B503689B68072420
:105940008C40A34302FA01F423430468A36010BD12
:10595000014603200A7E012A14D120220B68DA6155
:105960000B7B0A68126863F31B620B681A600B6892
:105970000A691A610B684A695A61034A0B68DA615D
:10598000002000E00320704740002800B1F5800FA0
:1059900003D002680A43026002E082690A4382611E
:1059A00070472DE9F84F02460C250C264FF0000AEF
:1059B0004FF0010800200090814642F21077012547
:1059C00044E0D1F800B00BEB8B0B4FEA4B0BBBFB69
:1059D000F5FCD1F804B0BCFBFBF04FF00A0BB0FBB8
:1059E000FBFE0BFB1E0BBBF1050F05D94FF00A0B9D
:1059F000B0FBFBF0401C03E04FF00A0BB0FBFBF0E8
:105A000030B100EB800B4FEA4B0BBCFBFBF304E027
:105A10004FF00A0BBCFBFBF30120D1F804B09B450F
:105A200004D8D1F804B0A3EB0B0403E0D1F804B020
:105A3000ABEB0304142808D8A74206D9AA4681462E
:105A40002746B4F57A7F00D202E06D1C402DB8D90C
:105A500000BF42F21077402617E0741C42F2107C1F
:105A600004FB0CF4B4FBF9F00C89844202D80C89D5
:105A7000031B01E00C89231A9F4201D9B0461F463F
:105A80000C89844200D902E0761E032EE5D200BFC5
:105A9000A9EB0800401E009000BF106840F04000D5
:105AA000106000BF0098401E4FF4E04303EA00304E
:105AB0004B895B1EC02404EA83131843A8F1010339
:105AC0004FF4706404EA03231843AAF1010303F0BE
:105AD0003F031843106100BF106820F040001060C1
