:020000040800F2
:10000000C8BF0020E9020008F5020008F502000858
:10001000F5020008F5020008F502000800000000E3
:10002000000000000000000000000000F5020008D1
:10003000F502000800000000F5020008F5020008C3
:10004000F5020008F9180008F5020008F50200089A
:10005000F5020008F5020008F5020008F5020008A4
:10006000F502000800000000000000000000000091
:10007000F502000800000000F5020008F502000883
:10008000F5020008F5020008D55C0008F50200083A
:10009000F5020008F5020008F5020008F502000864
:1000A000F5020008F5020008F5020008F502000854
:1000B000F5020008F5020008F5020008F502000844
:1000C000F5020008F5020008F5020008F502000834
:1000D000F5020008F5020008F5020008F502000824
:1000E000F5020008F5020008F5020008F502000814
:1000F000F5020008F5020008E50A0008F50200080C
:10010000F5020008F5020008F5020008F5020008F3
:10011000F5020008F5020008F5020008F5020008E3
:10012000F5020008F50200089D0C0008F502000821
:10013000F5020008F5020008F5020008F5020008C3
:10014000F5020008F5020008F5020008F5020008B3
:10015000F5020008F5020008F5020008F5020008A3
:10016000F5020008F5020008F5020008F502000893
:10017000F5020008F5020008F5020008F502000883
:10018000F5020008F5020008F5020008F502000873
:10019000C95B0008255C0008F50200083D5C00080A
:1001A000F50200083F5C0008F5020008F5020008AF
:1001B000F5020008415C0008455C0008F5020008F3
:1001C000000000000000000000000000000000002F
:1001D0000000000000000000F50200080000000020
:1001E000F5020008F91D000800000000F5020008F3
:1001F00000000000000000000000000000000000FF
:1002000000F002F800F060F80AA090E8000C8244C8
:100210008344AAF10107DA4501D100F055F8AFF2A5
:10022000090EBAE80F0013F0010F18BFFB1A43F0D4
:1002300001031847243402004434020010F8013B43
:100240000A4413F0030408BF10F8014B1D1108BF46
:1002500010F8015B641E05D010F8016B641E01F8F4
:10026000016BF9D1002D15D010F8014B03F00C03F0
:100270000C2BA1EB04040ABF10F8013BA4EB831480
:10028000A4EB032405F1010314F8016B5B1E01F8D4
:10029000016BF9D5914238BF10F8013BD1D37047BB
:1002A0000023002400250026103A28BF78C1FBD87F
:1002B000520728BF30C148BF0B6070471FB51FF001
:1002C0009DFE1FBD10B510BD00F018FA1146FFF7D6
:1002D000F5FF10F0C5FE00F036FA03B4FFF7F2FFA9
:1002E00003BC00F03DFA0000DFF818D00648804754
:1002F00006480047FEE7000005480649064A074B46
:1003000070470000C8BF00202D5B000801020008F4
:10031000C8B50020C8BF0020C8B70020C8B700205B
:100320009FED1A1AF5EE000A40EE010ABDEEE00A52
:10033000F5EEC00A10EE100AF1EE10FA38BF401EBA
:1003400000EE100A1349F7EE001AB8EEC00A30EEBC
:10035000C00ADFED0F0A20EE200AFCEEC00A10EE04
:10036000900AC0F3080000EE900A01EB8000F8EE5E
:10037000600A90ED011A70EE600A90ED000A71EECD
:10038000E01A21EE800A00EE810A704783F9223ECE
:1003900000000044542E0208B5EEC00AF1EE10FA37
:1003A00007D2DFED1E0AB4EEE00AF1EE10FAA8BFA4
:1003B0007047DFED1B0AB5EEC00A60EE200ABDEE05
:1003C000E01A11EE100AF1EE10FA38BF401E00EEEE
:1003D000100A1549F7EE001AB8EEC00A30EEC00A4E
:1003E000DFED100A60EE200ABCEEE00A10EE100A03
:1003F000C0F3080000EE100A01EB8000B8EE400ADE
:1004000090ED011A70EEC00A90ED000A71EEE01A4C
:1004100021EE800A00EE810A70470000CD024CB444
:1004200083F9223E00000044542E020810B54C10FF
:1004300084EA530404D54042C1F1000138BF491E8B
:100440001B4204D55242C3F1000338BF5B1E00F0CB
:10045000DEF814F0804F04D04042C1F1000138BFF3
:10046000491E14F0004F04D05242C3F1000338BFBC
:100470005B1E10BD40EA010310B59B070FD1042A93
:100480000DD310C808C9121F9C42F8D020BA19BA5F
:10049000884201D9012010BD4FF0FF3010BD1AB1C4
:1004A000D30703D0521C07E0002010BD10F8013B19
:1004B00011F8014B1B1B07D110F8013B11F8014B40
:1004C0001B1B01D1921EF1D1184610BD032A40F228
:1004D000308010F0030C00F0158011F8013BBCF1E6
:1004E000020F624498BF11F801CB00F8013B38BFFE
:1004F00011F8013BA2F1040298BF00F801CB38BF0C
:1005000000F8013B11F0030300F02580083AC0F029
:10051000088051F8043B083A51F804CBA0E80810D1
:10052000F5E7121D5CBF51F8043B40F8043BAFF304
:100530000080D20724BF11F8013B11F801CB48BF5E
:1005400011F8012B24BF00F8013B00F801CB48BF94
:1005500000F8012B704710B5203AC0F00B80B1E8CD
:100560001850203AA0E81850B1E81850A0E81850E8
:10057000BFF4F5AF5FEA027C24BFB1E81850A0E8F1
:10058000185044BF18C918C0BDE810405FEA827C0B
:1005900024BF51F8043B40F8043B08BF7047D20722
:1005A00028BF31F8023B48BF11F8012B28BF20F8C3
:1005B000023B48BF00F8012B70474FF0000200B526
:1005C000134694469646203922BFA0E80C50A0E876
:1005D0000C50B1F12001BFF4F7AF090728BFA0E824
:1005E0000C5048BF0CC05DF804EB890028BF40F8F0
:1005F000042B08BF704748BF20F8022B11F0804F32
:1006000018BF00F8012B704770477047704753EAD6
:10061000020C00F069802DE9F04B4FF00006002B32
:100620001FBFB3FA83F503FA05F424FA05F65E401A
:1006300012BF1643B2FA82F502FA05F4C5F120059D
:100640001EBF22FA05FC44EA0C04203556EA044C8D
:100650004FEA144418BF641C4FF000084FF0000923
:10066000904271EB030C39D3002919BFB1FA81F71D
:1006700001FA07F6B0FA80F700FA07F6C7F120078B
:100680001EBF20FA07FC46EA0C062037B6FBF4FC36
:10069000A7EB0507103F07F01F0BCBF120060CFA64
:1006A0000BFB2CFA06F644BFB3460026202FA4BF4E
:1006B0005E464FF0000B5BEA060C08BF4FF0010BE3
:1006C00019EB0B09ABFB027C48EB0608C01B06FBD1
:1006D00002CC0BFB03CC71EB0C01C1E70B460246CD
:1006E00041464846BDE8F08B13B54FF000004FF08F
:1006F0000001AFF30080BDE81C407047754600F074
:100700002BF8AE4605006946534620F007008546A3
:1007100018B020B5FFF7F0FDBDE820404FF000060F
:100720004FF000074FF000084FF0000B21F00701D9
:10073000AC46ACE8C009ACE8C009ACE8C009ACE81C
:10074000C0098D46704710B50446AFF300802046BF
:10075000BDE81040FFF7C1BD0048704768B50020F4
:1007600001491820ABBEFEE72600020070470000DA
:1007700091F0000F04BF6FF00040704710B54FF0CC
:10078000010E90EA010F48BF4FF0000E002848BF4D
:100790004042002948BF4942B0FA80F40A2CA8BF61
:1007A0000A2400FA04F2C4F10A0CB2FBF1F0B0FA28
:1007B00080F39C45A4BFCEF1004010BD01FB102288
:1007C000B2FA82F464450EDAACEB040C02FA04F2DD
:1007D00000FA04F0B2FBF1F301FB13221844B2FA61
:1007E00082F46445F0DD02FA0CF200FA0CF0B2FB80
:1007F000F1F318449EF0000F08BF404210BD000006
:1008000080FB01014FEA902000EB8150704700000F
:10081000B0FA80F303F01F0242B300FA03F000B510
:100820004FEA9052134951F82210A0FB01E2A2FBBB
:1008300001E2C2F14042A2FB01E14FEA4101A0FB0B
:1008400001E2A2FB01E2C2F14042A2FB01E14FEA58
:100850004101A0FB01E003F114035B1024BF064A31
:10086000A2FB0010D84040F1000000BD4FF0000096
:1008700070470000FCEF010834F304B591F0000F5D
:1008800004BF6FF00040704710B54FF0010E90EAC2
:10089000010F48BF4FF0000E002848BF404200291A
:1008A00048BF4942B0FA80F4142CA8BF142400FABF
:1008B00004F2C4F1140CB2FBF1F0B0FA80F39C45E1
:1008C000A4BFCEF1004010BD01FB1022B2FA82F4A9
:1008D00064450EDAACEB040C02FA04F200FA04F000
:1008E000B2FBF1F301FB13221844B2FA82F464451F
:1008F000F0DD02FA0CF200FA0CF0B2FBF1F318444E
:100900009EF0000F08BF404210BD000080FB0101B7
:100910004FEA105000EB01307047000043F60651DB
:10092000024A1180024A118070470000E234002020
:10093000B00A00202DE9F04104460027D4F8908049
:10094000206801F049FA0746002F5BD1D4E9010184
:1009500005F029FD6068016841F04001016000BFB9
:100960006068016841F00101016000BF94F8A700D0
:10097000012806D16068C16841F48071C16000BF80
:1009800010E08434D4E905321979186806F0AAFB1E
:1009900054F8800C217F843CC26861F30202C2607B
:1009A00000BF00BF204600F057F800250EE004F11C
:1009B0000C0050F82560327994F8A110236858682B
:1009C00005F0C6FB304600F021F86D1C94F8A2003B
:1009D000A842ECD86068016821F04001016000BFC6
:1009E0006068016821F00101016000BF94F8A70070
:1009F00048B998F80410D4F89420D8F8000006F00C
:100A000071FB00E001273846BDE8F08110B50446CF
:100A1000206805F031FCE07901280CD162790421CD
:100A2000206805F08BFC00BF4FF40031206805F012
:100A30007FFC00BF00BF207A01280CD1A2790021E1
:100A4000206805F07BFC00BF4FF48031206805F082
:100A50006FFC00BF00BF10BD70B5044600252046E6
:100A600000F020F894F8A400012801D145F0020517
:100A700094F8A300012801D145F0040594F8A500DD
:100A8000012801D145F008052946606805F080FC81
:100A900094F8A600012804D14FF48001606805F0A5
:100AA00077FC70BD10B50446D4F88C100A7800218C
:100AB000606805F01AFDD4F88C104A78042160684B
:100AC00005F013FDD4F88C108A780821606805F0D1
:100AD0000CFDD4F88C10CA780C21606805F005FD77
:100AE00010BD000010B500205A490968012282405B
:100AF0001143584AB03AC2F8B01000BF56480078C7
:100B000001287DD110F0FAFB5448006810B1534918
:100B1000086880470C21524806F0D1FA70B9514854
:100B20000088401C4F490880084600880A280ADBD4
:100B30000020088001204C49087004E00020494949
:100B4000088049490870494890ED030A20EE000AE0
:100B5000D0ED020A90ED021A00EE810A444880EDC1
:100B6000000A90ED000ADFED430AB4EEE00AF1EE70
:100B700010FA1DDB404890ED030AB0EEC00ADFED2D
:100B80003F0AB4EEE00AF1EE10FA11DB3C480088AF
:100B9000401C3B49088008460088B0F57A7F0ADB94
:100BA0000020088004F002F901203649087002E0B4
:100BB0000020334908802E4890ED000ADFED2F0A0F
:100BC000B4EEE00AF1EE10FA1FDD2B4890ED030AB7
:100BD000B0EEC00ADFED290AB4EEE00AF1EE10FA39
:100BE00013D229480088401C2749088008460088FD
:100BF000B0F5FA6F0CDB0020088004F0D7F800E0B5
:100C000023E001202149087002E000201E490880ED
:100C1000194890ED030AB0EEC00ADFED1D0AB4EEEC
:100C2000E00AF1EE10FA11DD1A480088401C19495B
:100C3000088008460088B0F57A7F0ADB002008802B
:100C400004F0B4F801201449087002E000201149B2
:100C5000088010BDB0C30040FD0800205CB3002038
:100C6000008E0248240900201C09002030090020C1
:100C70002C0900200000A24268B300200000C842F6
:100C8000260900201D090020280900201E09002037
:100C900000409C452A0900201F09002010B50020B3
:100CA0001049096801228240114009B1012100E088
:100CB000002161B100200B491031096801228240F6
:100CC0001143084AA03AC2F8B01000BF00BF06485E
:100CD000408818B904F018FD034948800BF0B0FEB5
:100CE00010BD0000A0440048E004002010B5002121
:100CF000904805F057FC00218F4805F053FC8D48C3
:100D000005F03AFD8C4805F037FD0021894805F0D3
:100D10002BFD0021884805F027FD8849884805F00B
:100D20007CFC88480068C0084FF4FA61B0FBF1F021
:100D3000401E84B22146824805F00FFD0021804804
:100D400005F000FD4FF480717A4805F029FC02227D
:100D500000217B4805F0C9FC00207949A4310968CD
:100D6000012282401143764AC2F8A41000BF2E200F
:100D7000754A9178002804DB8A06130E734A1354CF
:100D800006E08A06140E724A00F00F031B1FD454AB
:100D900000BF2E20002809DB00F01F020121914036
:100DA0004209920002F1E022C2F8001100BF0221C4
:100DB000604805F0A4FB00BF01206149C86000BF86
:100DC0006449654805F029FC6249644805F025FC42
:100DD0006049634805F021FC5E49624805F01DFC4E
:100DE0006149624805F001FC5F49614805F0FDFB7F
:100DF0004FF6FF71584805F0B0FC41F63F71574877
:100E000005F0ABFC0321564805F0A7FC032155482B
:100E100005F0A3FC1121474805F0C2FB112146480B
:100E200005F0BEFB01214C4805F03EFC02214A487A
:100E300005F042FC0121494805F036FC02214748F3
:100E400005F03AFC0121494805F0BFFB0121474864
:100E500005F0C3FB0121464805F0B7FB01214448DA
:100E600005F0BBFB01213E4805F01EFC01213D4879
:100E700005F01AFC3F4A0121374805F0E6FB3E4ADF
:100E80000221354805F0E1FB3A4A0121334805F0DB
:100E9000DCFB394A0221314805F0D7FB374A0121F2
:100EA0002F4805F0D2FB354A01212E4805F0CDFB35
:100EB000334A01212D4805F0C8FB314A02212B4855
:100EC00005F0C3FB2E4A0121294805F0BEFB2C4A40
:100ED0000221274805F0B9FB0221214805F030FC2A
:100EE0000221204805F02CFC1021124805F058FB87
:100EF0001021114805F054FB00210E4805F0FFFABF
:100F000001210C4805F0FBFA02210A4805F0F7FA26
:100F10000321084805F0F3FA0021074805F0EFFA2D
:100F20000121054805F0EBFA0221034805F0E7FA34
:100F300010BD000000C00040000001402C35002022
:100F400000C30040C0FF0020C807002000E400E00C
:100F500018ED00E0F834002000C10040000101401D
:100F600000C20040000201400035002000C40040E3
:100F700000030140083500200C3500201435002006
:100F80001835002010B5A64A0121A64806F0AAF897
:100F9000012001218140A34A516000BF0021A248E5
:100FA00005F024FC0021A14805F020FC9E4805F036
:100FB000DFFC9E4805F0DCFC00219B4805F0D0FCDE
:100FC00000219A4805F0CCFC99499A4805F021FC8B
:100FD0009749994805F01DFC9549984805F019FC7A
:100FE0009349974805F015FC9649974805F011FC80
:100FF00041F26F718F4805F09FFC41F26F718E488E
:1010000005F09AFC41F26F718C4805F095FC41F2B5
:101010006F718B4805F090FC41F26F718A4805F0C2
:101020008BFC41F270720021824805F080FC41F295
:1010300070720021804805F07AFC41F27072002144
:101040007E4805F074FC41F2707200217C4805F086
:101050006EFC41F2707200217B4805F068FC41F2A1
:1010600070720121764805F062FC0221714805F09A
:1010700053FC0221704805F04FFC02216F4805F037
:101080004BFC02216E4805F047FC02216E4805F03A
:1010900043FC0121644805F0A5FB1021624805F0DE
:1010A000A1FB4FF48051604805F09CFB01215F4893
:1010B00005F098FB10215D4805F094FB634A01217F
:1010C0005C4805F0C4FB614A01215B4805F0BFFBA9
:1010D0005E4A0121594805F0BAFB5C4A0121584893
:1010E00005F0B5FB594A0121574805F0B0FB012234
:1010F0001146504805F022FC012211464E4805F0E9
:101100001DFC012211464D4805F018FC0122114634
:101110004B4805F013FC012211464B4805F00EFC2C
:10112000012045495C390968012282401143414A46
:10113000C2F8A41000BF022201213E4805F0BDFB09
:1011400043493C4805F0B2FB41493B4805F0AEFB42
:101150003F493A4805F0AAFB3E4A05213E4805F0C2
:10116000C1FF3C4A02213C4805F0BCFF394A04213A
:10117000394805F0B7FF374A0121374805F0B2FF7B
:10118000344A0621344805F0ADFF324A0B2132487B
:1011900005F0A8FF224A0B212F4805F0A3FF204AA3
:1011A00001212D4805F09EFF1D4A02212A4805F025
:1011B00099FF284A0F21294805F094FF284A072162
:1011C000284805F08FFF264A0B21244805F08AFFA6
:1011D000254A0021134805F085FF244A06211F48AF
:1011E00005F080FF0021104805F0CBFA01210E48E0
:1011F00005F0C7FA03210C4805F0C3FA00210B489B
:1012000005F0BFFA0121094805F0BBFA4FF4407020
:101210001749C96C0143164AD16400BF10BD0000D4
:10122000840A00200084024800000240004002407E
:101230002C0A00200001024000020240000402408B
:10124000004102403C0A002000420240640A0020A3
:101250004C0A00206C0A00200080024800810248ED
:10126000780A0020008502489C0A0020900A00208D
:101270000040005070B50446B048006842F6E06196
:101280000844AE49086008460068AD4909688842CC
:101290007ED33FE1A9480068A9490968401AA749D7
:1012A00008600020A7490860A748B0F9B600A74920
:1012B0000968A74A126800FB0120A3494860084654
:1012C0004068A3490860A348007858B39E48B0F925
:1012D000B600A149096848439C4909689F4A1268B9
:1012E00000FB012098494860084640689B49086017
:1012F00008460068964908600020994908609949A5
:1013000008808E4908609848008840B900208E49BE
:1013100081F8BA008F4908708949086001E000F03F
:101320002FF970BD91480078012871D100208F49B4
:10133000087089480068FF2866DB8348B0F8B80069
:1013400085490968091A8048D0F8C00081425BDDF0
:101350007D4890ED010AB8EEC00AD0ED050A30EEE6
:10136000600ABDEEC00A10EE100A7749B1F9B61056
:1013700048437649096890FBF1F07D4908600846CA
:101380000068643808607048B0F8B800096800E088
:10139000C2E0884204DA6C48B0F8B80074490860CA
:1013A00073480068002802DA002071490860664826
:1013B00041686F480068654A12685043624AB2F952
:1013C000B62000FB1210604948600846406860493A
:1013D00008605D48B0F8B80065490988401A5A4964
:1013E000A1F8B8000846B0F8BC0062490880564829
:1013F000B0F8B810D0F8C000084457490860084653
:1014000000885D49088003E04DF2A0005A49088039
:101410004D48B0F8B8005049096888422BDB4A486B
:10142000B0F9B6004949096848434B4909684B4A35
:10143000126800FB0120444948600846406847495B
:101440000860084600684249086000203E4981F86B
:10145000BA000120474908803B49A1F8B8000020A4
:1014600036490860374908603D4908603D490880B1
:10147000424908804FE03448D0F8BC003D49098813
:1014800088420EDC3048B0F8B810D0F8C0000844EC
:1014900031490968884204DA36480088401E3549D7
:1014A00008802948B0F8C80004EB4001264890F8AD
:1014B000CA2030480088104131F810502248D0F836
:1014C000C4102846FFF79CF91D4908601E48B0F873
:1014D000B800401C1C49A1F8B80026480088401CF0
:1014E000244908801548006815490968884200D3D6
:1014F00010E02248008803280BD0114801684FF4FF
:101500000060FFF7BBF91049B1F9B61048430D4927
:10151000086000E0BEE600BF08490968094A126891
:1015200001FB02F009490968FFF7F0F90849096869
:1015300001EBE0200449486000BFF2E6C40B002044
:10154000C80B0020CC0B002098330020DC0B0020BF
:10155000D40B0020F00B0020D00B0020D80B002073
:10156000E80B0020E20B0020E60B0020F10B00202E
:10157000F80B0020E00B0020F40B0020E40B00200F
:101580002DE9F8435048018850480088401C8142AA
:1015900070D04D480088642817D14D480088052830
:1015A00012D2DFE800F007080903100002204849C2
:1015B000088009E000BF00BF4648006840F0040012
:1015C0004449086000E000BF00BF3F480088C828C9
:1015D00002DB00203C4908803F483B49098800EB7A
:1015E000410000880090BDF80000C0F3871084021D
:1015F000394935480088401C31F81000C0F3871085
:10160000850221462046FFF7FBF8804629462846FA
:10161000FFF7F6F808EB00073846FFF7F9F806463B
:10162000BDF8000000F03F042B4927480088401C0B
:1016300011F8100000F03F0504EB8510411C304606
:10164000FFF7DEF8254908600846006881024FF47C
:101650004800FFF78DF822490860BDF80000C0F38C
:10166000871020490860BDF80000C0F3803010B931
:10167000012002E01CE04FF0FF301B49A1F8B6004A
:10168000164800684FF4FA71484318490860154835
:1016900000681349096848431349B1F9B610484333
:1016A0001349086008480088801C0749088009E041
:1016B00000200D4981F8BA000E4908700B490860F6
:1016C00001490880BDE8F883000C0020020C0020CE
:1016D000E60B0020EC0B0020D8B3002038350020AA
:1016E0003C350020D00B002098330020C80B002090
:1016F000CC0B0020F00B002070B50346474C24783B
:101700000B2C03D0454C2478102C07D1444C247862
:101710000A2594FBF5F605FB164213E03F4C2478AE
:101720000D2C08D13F4CB4F900400A2594FBF5F686
:1017300005FB164206E03C4C24780A2594FBF5F69E
:1017400005FB1642B3F5C87F31DA0A2A2ED2DFE84C
:1017500002F005090D1115191D2125294FF4DB6033
:10176000252123E040F2F34023211FE040F2F63030
:101770001D211BE04FF45470182117E040F2DA20CD
:10178000152113E04FF41F7013210FE040F23720B2
:1017900011210BE040F207200F2107E040F2D710A3
:1017A0000E2103E040F27D100E2100BF2DE00A2A39
:1017B0002AD2DFE802F005090D1115191D20232694
:1017C0004FF48260FB211FE040F29720D9211BE0FB
:1017D00040F2E710BB2117E040F28310A22113E092
:1017E0004FF4A17090210FE04FF48B707F210BE03C
:1017F000F320742108E0D9206A2105E0C32062218A
:1018000002E08E20502100BF00BF03FB00F44FF424
:101810007A75B4FBF5F4601870BD0000C8000020B4
:10182000A70200207E020020A602002078B5034611
:101830000E46144646F26330009000BF13F8015B79
:101840006946284604F034FA701EC0B2061EF5D16F
:10185000BDF800002070BDF80000000A607078BD7F
:1018600010B502465478210993781C4661F3DF14C1
:101870002146802B02DB4C4220B200E008B210BDB2
:1018800010B50246547804F00F01D3781C4661F37A
:10189000DF142146802B02DB4C4220B200E008B26C
:1018A00010BD00000B480088C0F30E0009494988AC
:1018B000C1F30E01084447F6FF71884207D105487D
:1018C000808845F25551884201D10120704700209F
:1018D000FCE70000B20A002070B505460C46002661
:1018E000284601F08DF946B226EA0400C1B2284626
:1018F00004F00AFC70BD000010B51B48002100F187
:10190000100252F8212022F0800300F1100242F868
:10191000213000BF15480078012824D11448B0F9BF
:101920000800B0F5AF6F05DD1148B0F90800B0F55B
:10193000B46F09DD0E48B0F90800002813DB0C482D
:10194000B0F9080028280EDA0A4800680A49088019
:101950000A48806810B109498868804708480078BB
:10196000401C0749087010BD00480050FE080020C8
:1019700068B3002070C10040EC0800205CB3002078
:101980002309002070B52DED028B00BF4648006E84
:10199000C0F30020012801DA012001E04FF0FF3000
:1019A000401E00EB4001C1EBC0104049096801EB4B
:1019B000401004B23E480088201A05B215F57A6F2F
:1019C00006DA3C48006800F5FA503A49086008E039
:1019D000B5F57A6F05DD37480068A0F5FA5035494E
:1019E000086034480068204400EE100AB8EEC00ACF
:1019F0003148D0ED0D0A30EE600A304880ED010A22
:101A00002B4804802D4890ED010A2B48D0ED0C0A9C
:101A100020EE208AB0EE480A06F09AFA38EE400A24
:101A2000264880ED1D0A90ED010A2548D0ED000AF8
:101A300070EE608A234890ED000A2348D0ED000A3A
:101A400000EEA80A1F4880ED000A90ED000A1F482A
:101A5000D0ED000A00EEA80A1D4880ED000A1748E4
:101A600090ED050A1448D0ED0E0A194890ED001AC1
:101A700011EE200A1148D0ED050A9FED161A41EE2D
:101A8000000AC0ED050A0E4890ED000A1048D0ED9E
:101A9000000A9FED111A01EE200A094880ED000AA4
:101AA000BDEC028B70BD000000C00240700101401F
:101AB000C8090020C0090020740B0020E00A0020A3
:101AC000C4090020D4090020D0090020CC0900203E
:101AD000D80900208A8EE43DAC8BDB3B2DE9F04138
:101AE00007460C4615461848B0F8C80035F810608F
:101AF0001548D0F8C4103046FEF782FE134908603E
:101B0000084601684FF40060FEF7B8FE0E49B1F9CF
:101B1000B61048430E49086000200E4908600E497F
:101B2000088022460D490E4802F0F2FB01200649CA
:101B300081F8BA00084690ED370A094880ED0A0A94
:101B40000120BDE8F081000098330020C80B002080
:101B5000CC0B0020E80B0020E20B0020740B0020CF
:101B6000E00A002010B52448008841F288318842FC
:101B700012DA21480088401C1F490880B1EE040A8F
:101B80001E4880ED000A9FED1E0A80ED010A03F059
:101B9000E9F802F019FB2EE01748008842F21071B4
:101BA000884212DA14480088401C13490880B1EEBC
:101BB000040A124880ED000AB9EE040A80ED010A19
:101BC00003F0D0F802F000FB15E00B48008842F269
:101BD000117188420FDA08480088401C06490880C5
:101BE00001200849088003F029F900BF02200649B6
:101BF000086100BF00BF10BD34350020BC0A0020C2
:101C000000000000B80A00200001014030B50324A4
:101C1000544D6D6AE54005F001050DB9012400E061
:101C200000240481504C2488C4F344234E4C24885F
:101C3000C4F304114C4C247804F00F04621C4A4C89
:101C40002488C4F380340CB9012401E04FF0FF3440
:101C50006442C4808488062C70D2DFE804F0030E4E
:101C60002A3A5870048914B10124848001E00324C5
:101C7000848000243D4DAC8172E00489A4B9418187
:101C80004488641C44804488944209D1C4886442D6
:101C900024B2364DAC81022484800024448007E0C5
:101CA000C488324DAC8103E0C488304DAC8143819F
:101CB00056E04181048934B10024048001248481E8
:101CC0000024848004E0C488644224B2274DAC819F
:101CD00046E00489A4B141814488641C448044885E
:101CE000944207D1C488214DAC810424848000240F
:101CF00044800BE0C488644224B21C4DAC8105E0F2
:101D0000C488644224B2194DAC81438128E04181EA
:101D100004897CB94488641C4480448894420CD172
:101D2000C488644224B2114DAC810524848000240F
:101D3000448002E0C4880D4DAC8111E00FE00489BD
:101D400034B100240480012484810024848005E0CF
:101D5000C488644224B2054DAC81418100E000BFDB
:101D600000BF30BD008202480C0C002080340020EF
:101D70001648006848B31548007830B3002014496D
:101D800008801248007800F0800018B14CF23F0043
:101D9000104908800D48007800F0200018B14DF27D
:101DA000A5500C4908800948007800F0040018B1DB
:101DB0004CF23E00074908800448007800F001001A
:101DC00018B14DF2A110034908807047EC0B0020B8
:101DD000EA340020B00A002070B504460025607A7D
:101DE000012806D0D4E9001004F0E8F9012060725F
:101DF00000BF284670BD000010B5024805F056F837
:101E000010BD0000004001502DE9FF4F89B0894608
:101E100092469B46179D35F81A00001D84B20AF1C0
:101E2000010035F81000001D80B20790169868B1C7
:101E300000BF601C84B20798844200DB03E035F8E1
:101E40001460B145F5D200BF601E84B2EE88A019BF
:101E500084B235F814000290A01984B235F8140049
:101E60000390A01984B235F814000490A01984B22C
:101E700035F81410049800EB01400490A01984B2C6
:101E800035F81400ADF81400A01984B235F8140028
:101E9000ADF81600BDF8161002980841BDF81410F0
:101EA00005EB410101EB400030F8020C0299A9EB6F
:101EB0000101039A891A049A00FB012004900498F6
:101EC000C117CDE900010A488BFB007080460B4624
:101ED00038464146009AFEF7A9FA0490CDF818B0AA
:101EE000142202A90998FEF736FB0DB0BDE8F08F69
:101EF000005307000148B0F90800704768B300209C
:101F000010B5FFF7F7FF044608480088201A04B20E
:101F1000002C03DA04F5B46004B205E0B4F5B46F44
:101F200002DDA4F5B46004B2204610BD3E020020DC
:101F30000148B0F90400704768B3002000487047BA
:101F4000630901000246002A05DB002901DB0120AC
:101F500070470420FCE7002901DB0220F8E703209A
:101F6000F6E7F0B503460C4603F00701C1F10700A0
:101F7000062801D9062001E0C1F107000646881DA8
:101F8000072801D2002000E0481E05460120B0408D
:101F9000401E2040A8400127AF407F1E1740384315
:101FA000F0BD0000004870470024F4002DE9F04720
:101FB00082463548B0F900403448B0F9005029460F
:101FC0002046FFF7BFFF00F0FF094FF00008002C8C
:101FD00001DB204600E060420446002D01DB28467C
:101FE00000E068420546E6B2EFB246E0B8F1000F05
:101FF00022DBB9F1010F09D0B9F1020F0FD0B9F10D
:10200000030F0DD0B9F1040F12D100E000BF002E74
:1020100004DD012005F0D4FF701EC6B208E000BF49
:10202000002E04DD022005F0CBFF701EC6B200BFFB
:1020300000BFA8EB050820E0B9F1010F09D0B9F104
:10204000020F07D0B9F1030F0CD0B9F1040F12D170
:1020500009E000BF002F04DD032005F0B1FF781E6A
:10206000C7B208E000BF002F04DD042005F0A8FF80
:10207000781EC7B200BF00BFA044002EB6DC002F00
:10208000B4DCBDE8F08700002E0100203001002004
:1020900010B503211420FFF71FFC10BD10B514204C
:1020A00000F0AEFD044604F0030018B9032114202B
:1020B00001F03AFF10BDF0B587B0054600270821B2
:1020C0000846FFF709FC00210D2004F01DF88021CF
:1020D0000E20FFF701FC93208DF8040020208DF8DE
:1020E000050006A801AB022201A900900C2000F017
:1020F00053F806468EB9002407E001A8005D285574
:1021000001A8005D4740601CC4B2042CF5DB01A8A7
:10211000005DB84201D06FF0010680210E2001F071
:1021200003FF304607B0F0BD2DE9F04387B0064607
:102130000F46904699468DF804608DF8057000248E
:1021400006E018F8041001AAA01C1154601CC4B2C7
:10215000062CF6DB002407E019F8041001AA04F1AC
:1021600008001154601CC4B2062CF5DB06A801ABB4
:102170000C2201A900900E2000F00EF805462DB9A2
:10218000082000F03DFD00F0080008B96FF00105DF
:10219000284607B0BDE8F0832DE9FE4F0646884685
:1021A00091469A46DDF830B06FF0010002900020B1
:1021B000019000900C2E06D00E2E09D11220019015
:1021C0001020009005E0772001903020009000E082
:1021D00000BF00BF019840F08001022003F094FF8F
:1021E00080210420FFF778FB0021012003F08CFF01
:1021F00080210A2001F098FE002506E018F805105D
:10220000092003F081FF681C85B24D45F6DB31469D
:10221000012003F079FF0C2E03D180210D2001F065
:1022200083FE4FF4167500BF042000F0E9FC04465D
:10223000681E85B235B104F0010018B9009820403D
:102240000028F1D080210D20FFF746FB002D39D06A
:10225000062000F0D5FC00F01B0078BB00200290A7
:102260000198204000F0010010B14FF0FF300290C3
:102270000C2E27D10A2000F0C3FC04460C2000F0ED
:10228000BFFC00F007072FB1601E07EBC000ABF8E2
:10229000000002E0E000ABF8000004B90124122CB9
:1022A00000DD1224002506E0092000F0A9FC0AF850
:1022B0000500681C85B2A542F6DB03E0FFE76FF07E
:1022C0000100029080210C2001F02EFE002101204F
:1022D00003F01AFF0298BDE8FE8F10B588B05020B9
:1022E0008DF8080000208DF809000DF10A02022186
:1022F00002A8FFF79BFA07A802AB042202A90090EC
:102300000C20FFF749FF0446002008B010BDF0B5CF
:1023100087B005460E4630208DF804008DF8055034
:102320000DF10602022101A8FFF780FA06A801AB11
:10233000042201A900900C20FFF72EFF07466FB979
:10234000BDF81800902809D1002404E001A8005D20
:102350003055601CC4B2102CF8DB01E06FF00107AF
:10236000384607B0F0BD70B588B005460C46082168
:102370000846FFF7B1FA07210D2003F0C5FE03213F
:10238000142001F0D1FD8DF8085007A802AB0122FE
:1023900002A900900C20FFF7FFFE064656B9BDF8D3
:1023A0001C00102806D19DF8080020709DF8090037
:1023B000607001E06FF00106304608B070BD10B5E6
:1023C0000F21012003F0A0FE1E2009F03EFB3D215D
:1023D000112003F099FE1E2009F037FB1E212D204D
:1023E00003F092FE1E2009F030FB00212C2003F0A8
:1023F0008BFE1E2009F029FB8D212A2003F084FE8C
:102400001E2009F022FB3E212B2003F07DFE1E2022
:1024100009F01BFB4021152003F076FE1E2009F079
:1024200014FB80213320FFF757FA002010BD70B550
:1024300088B0054693208DF8080070208DF80900BB
:1024400000208DF80E0000240BE0295D02AAA01CDC
:1024500011549DF80E00295D48408DF80E00601C57
:10246000C4B2042CF1DB0DF10F02072102A8FFF723
:10247000DDF908210846FFF72FFA07A802AB092269
:1024800002A900900C20FFF787FE06462EB9BDF882
:102490001C00182801D1002601E06FF0010630462B
:1024A00008B070BDF0B587B006460F46A0208DF885
:1024B00004008DF805600DF10602022101A8FFF766
:1024C000B5F906A801AB042201A900900C20FFF782
:1024D00063FE05464DB9BDF81800042805D19DF8E6
:1024E000040000F00F000A2801D06FF001051DBBA9
:1024F000002404E0385D01A90855601CC4B2102C0A
:10250000F8DB05AA102101A8FFF790F906A801AB96
:10251000122201A900900C20FFF73EFE05464DB99E
:10252000BDF81800042805D19DF8040000F00F0044
:102530000A2801D06FF00105284607B0F0BD90EDE4
:10254000000AD0ED010A30EE600A80ED020A90ED3B
:10255000020AD0ED030AB4EEE00AF1EE10FA04DB51
:1025600090ED030A80ED020A10E090ED020AD0ED32
:10257000030AF1EE600AB4EEE00AF1EE10FA05D8B3
:1025800090ED030AB1EE400A80ED020A90ED070AD1
:10259000D0ED020A20EE200A80ED0B0A90ED0B0A26
:1025A000D0ED080A90ED0C1A00EE810AD0ED090A70
:1025B00090ED0F1A00EE810AD0ED0A0A90ED001A94
:1025C00000EE810A80ED110A90ED0C0AD0ED020AAE
:1025D00030EE200A80ED0C0A90ED0C0AD0ED0D0AC9
:1025E000B4EEE00AF1EE10FA04DB90ED0D0A80ED96
:1025F0000C0A0CE090ED0C0AD0ED0E0AB4EEE00AE5
:10260000F1EE10FA03D890ED0E0A80ED0C0A90ED71
:10261000020AD0ED040A30EE600A80ED0F0A90ED58
:10262000020A80ED040A704701781D4A1180418832
:1026300009B25180818809B2D1801146B1F90010E8
:10264000002901DA002111801549B1F90010012992
:1026500002DD0121124A11801149B1F9021000294D
:1026600002DA00210E4A518006E00D49C988A1F521
:10267000B46109B20A4AD1800949B1F90610B1F52D
:10268000B46FF2DA06E00649C98801F5B46109B20F
:10269000034AD1800249B1F906100029F3DB7047E3
:1026A00068B3002010B59FED1E0A1E4880ED050A94
:1026B0009FED1D0A80ED120A9FED1C0A80ED130AA2
:1026C00002211B4804F0FBFC1A490968497888423A
:1026D00003D101201849088002E000201649088033
:1026E0000020164908700120154908701549087026
:1026F00000201549087015490870154908701549DA
:102700000870154908701548006800B2144908801F
:102710001448D0F8700100B21349088010BD0000C1
:1027200000000000300900209A9999419A99993F38
:102730000083024848B3002068B30020FE08002050
:10274000F0080020FF0800201C0900201D090020BF
:102750001E0900201F0900202009002070C1004030
:10276000E207002000C00040E407002010B5044646
:102770000D4821880180A178817000200B490870E4
:10278000FEF700FC00F082F803F0ACFB06210848DD
:1027900004F012FD074A0849084802F021F8002019
:1027A0000749087010BD0000C8070020FD08002080
:1027B0000081024898330020740B0020E00A0020BA
:1027C000FF08002070B50446049D0E480460416077
:1027D0008260C360056102200A4EB668307028200E
:1027E000084EB668B071D220064EB668B080282078
:1027F000044EB668F0710720024EF6687080002023
:1028000070BD000048B3002010B50C21034804F04F
:1028100056FC08B9012010BD0020FCE7008E0248DC
:102820000F480078012800D170470E480078012831
:1028300001D10220F8E70C480078012801D10320DB
:10284000F2E70A480078012801D10420ECE70848A3
:102850000078012801D10520E6E70020E4E7000028
:102860001C0900201D0900201E0900201F0900204E
:10287000200900200148007870470000F00800207F
:102880000148807A7047000068B3002010B5434AC1
:102890000C21434804F026FC424A0221424804F03D
:1028A00021FC424A0021424804F0C8FB414A002171
:1028B0003F4804F0EBFB02203B49096E01228240B5
:1028C0009143394A116600BF01203B4A1178002824
:1028D00004DB8A06130E394A135406E08A06140EE6
:1028E000374A00F00F031B1FD45400BF01200028FB
:1028F00009DB00F01F02012191404209920002F120
:10290000E022C2F8001100BF2E492F4804F07CFCE1
:102910002E492D4804F085FC2D492E4804F074FC06
:102920002A492C4804F07DFCFEF7E0F92A4A0721E9
:102930001B4804F0D7FB284A0621194804F0D2FBB3
:10294000254A0521254804F0CDFB234A04212348CC
:1029500004F0C8FB204A0321204804F0C3FB00BF59
:1029600001201949886000BF00BF1A49886000BF74
:102970001B4803F0F6FE1B4803F0F3FE1A4803F071
:10298000F0FE1A4803F0EDFE194803F0EAFE19487C
:1029900003F0E7FE184803F0E4FE10BD200A002013
:1029A000008E0248CCB3002000830248E4090020D6
:1029B00000480050EC090020C807002000E400E0B7
:1029C00018ED00E0040A002000800240F009002019
:1029D000000A002000C00240080A002000820248CD
:1029E00000C1004000C2004000C3004000C40040DD
:1029F000000101400002014000030140014691ED49
:102A0000340AB5EEC00AF1EE10FA04D291ED340AA0
:102A1000B1EE400A01E091ED340AD1ED2C0AF8EE56
:102A2000E00AB4EEE00AF1EE10FA01DD0120704791
:102A30000020FCE710B559495220FFF794FC0446EA
:102A40001CB957480078012805D100205549088055
:102A50005349087010BD5148FFF72DFB04461CB9BF
:102A60004F480078012805D100204E4908804C4984
:102A70000870EFE74948FFF7DAFC04461CB94848FC
:102A80000078012805D10020464908804449087093
:102A9000E0E7424B444A01216020FFF745FB044632
:102AA0001CB93F480078012805D100203D49088025
:102AB0003B490870CEE73D480078012842D13C48A8
:102AC00000783C4908703A480088000A48700020A5
:102AD0008870C87008460078C0430871084640787E
:102AE000C043487108468078C04388710846C07862
:102AF000C043C8710846007808720846407848729A
:102B00000846807888720846C078C8720120087329
:102B1000FE20487301208873FE20C8730120FFF750
:102B2000C1FC04461CB91E480078012806D10120CA
:102B30002149087000201A4908708BE700201E49BF
:102B4000087026E015490120FFF7E1FB04461CB997
:102B500013480078012805D1002012490880104947
:102B6000087077E70D4800780E4908800B484078D8
:102B7000098841EA00200B49088005E009480088DF
:102B8000A0F2E7300749088006480088B0F57A7F50
:102B9000F4DAFFF7A2FB01205CE7000014B3002089
:102BA000DF04002068030020980600207C04002039
:102BB0007A040020840600207D04002010B5002047
:102BC0000D4908700D490870FFF7F9FBFFF760FA2F
:102BD000142008F03AFFFFF761FA142008F035FFDF
:102BE0007A211F2003F090FA142008F02EFF4FF4F2
:102BF000E13006F02BFA10BDDB040020DF040020DA
:102C00007CB504460A480078012801D100207CBD2B
:102C100044F080000190012101A806F0C9FA0546A0
:102C20000121684606F096FA05469DF80000EEE799
:102C3000DF04002010B50A21014804F0B8FA10BDE5
:102C40000081024810B50A21014804F0A3FA10BD22
:102C5000008102482DE9F04188B005460E46002764
:102C600000242869012808D16869B0F5807F04D85C
:102C70003146284600F014FBF7E068890028FBD1B4
:102C800096F86A0000EE100AB8EE400A784880ED27
:102C9000390A7749B1F8AA10491C286900FB01F4E8
:102CA000B4F5E67F01D90B272DE0B4F5D27F01D929
:102CB0000A2728E0B4F5BE7F01D9092723E0B4F53F
:102CC000AA7F01D908271EE0B4F5967F01D907270E
:102CD00019E0B4F5827F01D9062714E0DC2C01D974
:102CE000052710E0B42C01D904270CE08C2C01D965
:102CF000032708E0642C01D9022704E03C2C01D909
:102D0000012700E0002707EB8700345C00EE104A43
:102D1000B8EE400ADFED570A20EE200A564880ED53
:102D2000020A07EB87003044447800EE104AB8EE00
:102D3000400ADFED520A20EE200A4F4880ED060AD5
:102D400007EB87003044847800EE104AB8EE400A62
:102D5000DFED4B0A20EE200A474880ED070A07EB1B
:102D600087003044C47800EE104AB8EE400ADFED28
:102D7000450A20EE200A404880ED090A07EB87004B
:102D80003044047900EE104AB8EE400ADFED3E0A06
:102D900020EE200A384880ED200A3548B0F8A80017
:102DA000384100F00100324981F8AC00084690F843
:102DB000AC0081F895000846B0F8B400022805D1AF
:102DC000084690ED370A2C4880ED0A0A284890F80A
:102DD000BA00A8B12648B0F9B6002C4909684843A2
:102DE0002B4909682B4A126800FB012020494860E2
:102DF0000846406827490860084600682649086078
:102E0000234928690860D5F8148024480068012106
:102E100043460022CDE900101D48016803A8FEF7D3
:102E2000F3FF142203A91248BC30FDF794FB0020E5
:102E30001B49086001201B4908800D49A1F8B80012
:102E4000A889A1F8B6001548314602680020FEF7AF
:102E500045FE002805DA1448006840F004001249D5
:102E600008600020024981F8940008B0BDE8F081B4
:102E7000983300208C4A6A3DE00A0020624EAF3948
:102E8000D5FFFF38CDCCCC3D0AD7233CDC0B00204E
:102E9000D00B0020D80B0020D40B0020F4340020ED
:102EA000C40B0020E00B0020EC0B00202DE9F84FB4
:102EB00004460F463F4830F81400C0F387108602DE
:102EC0003C49601C31F81000C0F387108502314680
:102ED0003046FDF795FC834629462846FDF790FCD1
:102EE0000BEB000A5046FDF793FC0090314810F8B8
:102EF000140000F03F062F49601C11F8100000F08C
:102F00003F0506EB8510411C0098FDF779FC8046D3
:102F10004FEA88214FF44800FDF72AFC8146012042
:102F2000254981F8AC0081F89500224830F814005A
:102F3000C0F38710214908601E4830F81400C0F320
:102F4000803008B9012001E04FF0FF301A49A1F8A4
:102F5000B60000201A4908604FF4FA7008FB00F030
:102F6000184908601548006800FB09F01249B1F9DA
:102F7000B6104843144908603A461449144801F011
:102F8000C7F90D4890ED370A114880ED0A0A012073
:102F900010490870084981F8BA00A01C0E49088041
:102FA00008460088C82803DB08460088C83808801F
:102FB000BDE8F88FD8B3002098330020D00B002054
:102FC000C40B0020C80B0020CC0B0020740B002089
:102FD000E00A0020F00B0020000C00202DE9F04159
:102FE00088B006460D4600270024708900287CD151
:102FF00095F86A0000EE100AB8EE400A994880ED94
:10300000390A9849B1F8AA10491C306900FB01F44B
:10301000B4F5FE7F6AD8B4F5E67F01D90B272DE021
:10302000B4F5D27F01D90A2728E0B4F5BE7F01D9D3
:10303000092723E0B4F5AA7F01D908271EE0B4F5DB
:10304000967F01D9072719E0B4F5827F01D90627B9
:1030500014E0DC2C01D9052710E0B42C01D9042799
:103060000CE08C2C01D9032708E0642C01D902273D
:1030700004E03C2C01D9012700E0002707EB870082
:103080002C5C00EE104AB8EE400ADFED770A20EE25
:10309000200A764880ED020A07EB8700284444782E
:1030A00000EE104AB8EE400ADFED710A20EE200A69
:1030B0006E4880ED060A07EB87002844847800EE0E
:1030C000104AB8EE400ADFED6B0A20EE200A67488E
:1030D00080ED070A07EB87002844C47800EE104A09
:1030E000B8EE400ADFED640A01E0B7E014E020EE3C
:1030F000200A5E4880ED090A07EB8700284404791E
:1031000000EE104AB8EE400ADFED5C0A20EE200A1D
:10311000564880ED200A39E015F83C4F00EE104A81
:10312000B8EE400ADFED500A20EE200A4F4880ED4D
:10313000020A6C7800EE104AB8EE400ADFED4C0A45
:1031400020EE200A80ED060AAC7800EE104AB8EEB8
:10315000400ADFED480A20EE200A80ED070AEC78ED
:1031600000EE104AB8EE400ADFED430A20EE200AD6
:1031700080ED090A2C793C3D00EE104AB8EE400A79
:10318000DFED3E0A20EE200A80ED200A354890F857
:10319000BA00A8B13348B0F9B600394909684843C4
:1031A00038490968384A126800FB01202D494860F7
:1031B000084640683449086008460068334908609A
:1031C000284890F8AC00274981F895000846B0F8E7
:1031D000B400022806D1084690ED370A234880ED56
:1031E0000A0A0AE01F4890F89500012805D11D48F9
:1031F00090ED370A1D4880ED0A0A224930690860BF
:10320000D6F8148000202249086001202149088056
:103210001449A1F8B800B089A1F8B6001E480068AA
:10322000012143460022CDE900101648016803A899
:10323000FEF7EAFD142203A90A48BC30FDF78BF91A
:103240001548294602680020FEF748FC002805DAE8
:103250001248006840F004001049086008B0BDE85A
:10326000F0810000983300208C4A6A3DE00A00207B
:10327000624EAF39D5FFFF38CDCCCC3D0AD7233CC9
:10328000DC0B0020D00B0020D80B0020D40B00203A
:10329000C40B0020E00B0020F4340020EC0B0020D5
:1032A00070B504460D466089002876D19FED530A1B
:1032B000534880ED390A53480078C0B15048B0F9FE
:1032C000B60051490968484350490968504A126894
:1032D00000FB01204A494860084640684C490860A4
:1032E000084600684B49086000204B49086015F803
:1032F000410F00EE100AB8EE400ADFED480A20EE5A
:10330000200A474880ED020A687800EE100AB8EEFD
:10331000400ADFED440A20EE200A414880ED060A0B
:10332000A878413D00EE100AB8EE400ADFED3E0AF3
:1033300020EE200A3A4880ED070A606930B9002083
:103340002F4981F8AC0081F8950005E001202C4957
:1033500081F8AC0081F895002B4920690860A089AC
:103360002749A1F8B60000202B4908602F480088A3
:10337000012813DC244800682D4948432D49086082
:103380001F48B0F8B60040F6783110FB01F02A492A
:1033900008600120254908801DE02DE023480088B1
:1033A000401E42F6E0614843224908601F4A1288E5
:1033B000521E42F6E06302FB03F1134A1268D00288
:1033C000FDF75CFA0E49B1F9B61048431A49086096
:1033D0000120164908802A461849114800F098FF34
:1033E000074890ED370A0E4880ED0A0A012005498A
:1033F0000870034981F8BA0070BD000000000000A9
:1034000098330020F00B0020D00B0020DC0B0020B4
:10341000D80B0020D40B0020C40B00208C4A6A3D3E
:10342000E00A0020624EAF39D5FFFF38060C0020BD
:1034300000941100C80B0020CC0B0020740B00205E
:1034400010B5054803F088FF002004F073F920212F
:10345000012004F0FFF810BD5401020870B50024EB
:103460005249534804F008FA00BF5148406B40F0FD
:1034700001004F49486300BF082000BF496B21F09D
:103480007062411E42EA0161494A516300BF00BFB8
:1034900000BF00BF1146496B21F47C12411E42EA75
:1034A0000141434A516300BF00BF0021084600BFED
:1034B000526922F050420A4302433D4B5A6100BF19
:1034C00000BF02201946496921F4FE41421EC30192
:1034D00043EA82221143364A516100BF354A022134
:1034E000354803F0FFFD32490020024601F11C037C
:1034F00053F8203023F0400343F0100501F11C0382
:1035000043F8205000BF01F11C0353F8203023F092
:103510000703134301F11C0545F8203000BF00BF2D
:1035200000BF0120096C21F00F010143204A116402
:1035300000BF00BF214A0521214803F0D3FD214AE5
:1035400006211F4803F0CEFD1F4A01211C4803F04D
:10355000C9FD1E4A0D211E4803F0C4FD1D4A0E215F
:103560001B4803F0BFFD00221021114804F0D6FAD9
:103570000123052220210E4804F0DAFA032210214B
:103580000B4804F0F0FA002305221946084804F01D
:103590004FFA05221021064804F068FA052213218B
:1035A000034804F063FA204670BD00004400002088
:1035B00000020340B8470020008202481C0000209F
:1035C00000830248800102089C01020830000020AC
:1035D00000810248C00102082DE9F04706460F4667
:1035E00090461D464FF00209B468207F20BB07B308
:1035F000B8F1000F1DD0E5B1E07FF8B994F82000D4
:10360000E0B90120E077C4F81480A761656000206C
:1036100084F8210084F82200706890F88500022860
:103620000CD12946304600F00CF881460020E077A6
:1036300004E04FF0030901E04FF001094846BDE8FE
:10364000F0872DE9F041054688460126AC68002741
:1036500000202061A060A8680068082800D9022620
:10366000701E08FA00F0E060217F286804F029F954
:10367000686890F87D00002877D028684FF4804172
:10368000C0F8181100BF286800F0F6F894F821007F
:10369000012806D1227F4FF6FF71286804F05EFAF8
:1036A0000DE0022E03D1A168A069475A02E0A1688B
:1036B000A069475C227F3946286804F04FFAA06869
:1036C0003044A06032E094F82100012806D1227F26
:1036D0004FF6FF71286804F041FA0DE0022E03D185
:1036E000A168A069475A02E0A168A069475C227FEF
:1036F0003946286804F032FA00BF286804F0B0F9AF
:103700000028FAD1286804F0AAF80746D4E9042171
:103710008F54022E04D13912D4E90402401C1154F2
:10372000206930442061A0683044A060A068E1684E
:103730008842C8D300BF286804F092F90028FAD163
:10374000286804F08CF80746D4E904218F54022E2F
:1037500004D13912D4E90402401C1154052128680F
:10376000C0F8181100BF81E0FFE7286800F084F876
:1037700000BF286804F057F98028FAD094F8210097
:10378000012806D1227F4FF6FF71286804F0F7F96F
:103790000DE0022E03D1A168A069475A02E0A1689A
:1037A000A069475C227F3946286804F0E8F9A068E0
:1037B0003044A0603DE000BF286804F034F9802860
:1037C000FAD094F82100012806D1227F4FF6FF712C
:1037D000286804F0D4F90DE0022E03D1A168A06995
:1037E000475A02E0A168A069475C227F39462868F1
:1037F00004F0C5F900BF286804F010F90028FAD0D9
:10380000286804F02CF80746D4E904218F54022ECE
:1038100004D13912D4E90402401C11542069304407
:103820002061A0683044A0604FF44041286803F054
:10383000E1FFA068E1688842BDD300BF286804F0BA
:10384000EDF80028FAD0286804F009F80746D4E912
:1038500004218F54022E04D13912D4E90402401CF1
:1038600011544FF44041286803F0C4FF0020E06089
:103870002061A060BDE8F08110B50446204603F049
:10388000EEFF204603F0EBFF10BD000010B52DED5C
:103890000A8B04469FEDFE0AB0EE40CA9FEDFC0A7B
:1038A000F0EE40CA9FEDFA0AB0EE409A9FEDF80A9A
:1038B000F0EE409A9FEDF60AF0EE40BA9FEDF50A61
:1038C00084ED0A0A002084F8500094ED0E0ADFED22
:1038D000F20AB4EEE00AF1EE10FA07DB94ED0E0AFC
:1038E000DFEDED0A30EE600A84ED0E0A94ED0E0A6B
:1038F000B5EEC00AF1EE10FA07D294ED0E0ADFED34
:10390000E60A30EE200A84ED0E0A94ED0F0AB1EEBD
:10391000400AD4ED100A30EE600A84ED110A204608
:1039200007F020FC20460EF0BFFB9FEDD90A84ED86
:10393000040A94ED050AD948D0ED000AB4EEE00A75
:10394000F1EE10FA02DD90ED000A01E094ED050AB7
:1039500084ED050A94ED050AD048D0ED000AF1EE99
:10396000600AB4EEE00AF1EE10FA04D290ED000A1B
:10397000B1EE400A01E094ED050A84ED050A94EDEC
:10398000040AD4ED020A30EE600AC54880ED000A50
:1039900090ED000AF0EE000AB4EEE00AF1EE10FA43
:1039A00002DDB0EE000A02E0BD4890ED000ABC481E
:1039B00080ED000A90ED000AF8EE000AB4EEE00A8D
:1039C000F1EE10FA02D2B8EE000A02E0B44890ED2F
:1039D000000AB34880ED000A94ED120AD0ED000A07
:1039E00020EE200AB0EE40CAAE4890ED000AAC4886
:1039F000D0ED000A30EE200AAA4880ED000A90EDD2
:103A0000000ADFEDA90AB4EEE00AF1EE10FA02DDD9
:103A10009FEDA50A02E0A34890ED000AA14880EDC1
:103A2000000A90ED000ADFEDA10AB4EEE00AF1EE23
:103A300010FA02D29FED9D0A02E09A4890ED000A2A
:103A4000984880ED000A90ED000A994880ED000A40
:103A5000D4ED130A90ED001AB0EE4C0A10EEC10A34
:103A600084ED000A94ED000ADFED920AB4EEE00A5C
:103A7000F1EE10FA02DD9FED8F0A01E094ED000AED
:103A800084ED000A94ED000ADFED8B0AB4EEE00A43
:103A9000F1EE10FA02D29FED880A01E094ED000ADF
:103AA00084ED000A94ED050AD4ED030A30EE600AB5
:103AB000824880ED000A90ED000AF0EE000AB4EEB4
:103AC000E00AF1EE10FA02DDB0EE000A02E07B48F7
:103AD00090ED000A794880ED000A90ED000AF8EEBA
:103AE000000AB4EEE00AF1EE10FA02D2B8EE000AD3
:103AF00002E0724890ED000A704880ED000A94EDF3
:103B0000120AD0ED000A20EE200AF0EE40CA6C48FE
:103B100090ED000A6948D0ED000A30EE200A6848AE
:103B200080ED000A90ED000ADFED5F0AB4EEE00AD6
:103B3000F1EE10FA02DD9FED5C0A02E0604890EDC4
:103B4000000A5F4880ED000A90ED000ADFED570A99
:103B5000B4EEE00AF1EE10FA02D29FED540A02E050
:103B6000574890ED000A564880ED000A90ED000A93
:103B7000544880ED000AD4ED130A90ED001AB0EE1F
:103B80006C0A10EEC10A84ED010A94ED010ADFED22
:103B9000490AB4EEE00AF1EE10FA02DD9FED450AA3
:103BA00001E094ED010A84ED010A94ED010ADFEDD4
:103BB000420AB4EEE00AF1EE10FA02D29FED3E0A9C
:103BC00001E094ED010A84ED010A94F85A000128FD
:103BD0001BD19FED2F0A84ED000A9FED2D0A84ED85
:103BE000010A9FED2B0A2F4880ED000A9FED280A5D
:103BF000334880ED000A9FED260A2D4880ED000A2B
:103C00009FED230A2F4880ED000A20460CF0C0FEED
:103C100094ED07AA94ED060ADFED2B0A20EE200AA8
:103C2000F6EE000A20EE200AD4ED070AB6EE001ADE
:103C3000F0EE40AA40EEC1AA94ED060ADFED220A9A
:103C400020EE200AF6EE000A20EE600AD4ED070A04
:103C5000B6EE001AB0EE40BA00EEC1BAB5EEC0AA98
:103C6000F1EE10FA02DD012084F85000F5EEC0AA52
:103C7000F1EE10FA04DD94F85000801C84F8500036
:103C8000B5EEC0BAF1EE10FA23DD94F850001DE055
:103C9000000000001C68533B0000B443AC09002046
:103CA000B00900209C0900200000C8420000C8C2E2
:103CB0009809002000003343000033C3B4090020FA
:103CC000A4090020A009002074B5DD3F001D84F880
:103CD000500094F850009049087094F85000012862
:103CE00010D19FED8E0A2AEE800AD4ED0A0A20EE4A
:103CF000608A9FED8A0A2BEE000AD4ED0A0A60EE74
:103D0000608A67E094F85000022810D19FED830A82
:103D10002BEE000AD4ED0A0A20EE608A9FED7F0A9E
:103D20002AEE000AD4ED0A0A60EE608A52E094F8A6
:103D30005000032810D19FED790A2AEE800AD4EDB5
:103D40000A0A20EE208A9FED750A2AEE000AD4EDB9
:103D50000A0A60EE208A3DE094F85000042810D151
:103D60009FED6E0A2AEE000AD4ED0A0A20EE608A60
:103D70009FED6A0A2AEE800AD4ED0A0A60EE608A94
:103D800028E094F85000052810D19FED640A2AEE2F
:103D9000000AD4ED0A0A20EE208A9FED600A2BEE7D
:103DA000000AD4ED0A0A60EE208A13E094F850006D
:103DB00006280FD19FED590A2BEE000AD4ED0A0A0E
:103DC00020EE208A9FED550A2AEE800AD4ED0A0AD9
:103DD00060EE208A38EE280ADFED510AB4EEE00AE0
:103DE000F1EE10FA0FDD9FED4E0A28EE000A78EE94
:103DF000280A80EE201AB0EE418A9FED490A30EE83
:103E0000480AF0EE408A9FED460A30EE480A30EE4E
:103E1000680AF5EE000A20EE200AB0EE409AF6EEAF
:103E2000000AB0EE490A08EE200AF0EE409AF6EEDB
:103E3000000AB0EE690A08EEA00AF0EE40BA94F863
:103E40005000012806D1C4ED0B9A84ED0C9AC4ED04
:103E50000DBA42E094F85000022806D184ED0B9A86
:103E6000C4ED0CBAC4ED0D9A37E094F85000032865
:103E700006D184ED0B9AC4ED0C9AC4ED0DBA2CE07A
:103E800094F85000042806D1C4ED0BBAC4ED0C9A86
:103E900084ED0D9A21E094F85000052806D1C4ED78
:103EA0000BBA84ED0C9AC4ED0D9A16E094F850000C
:103EB000062806D1C4ED0B9AC4ED0CBA84ED0D9A18
:103EC0000BE09FED180A84ED0B0A9FED160A84EDB6
:103ED0000C0A9FED140A84ED0D0A2C3494ED000AAF
:103EE000BCEEC00A10EE100A41F27071081AE084AC
:103EF00094ED010ABCEEC00A10EE100A081A2085E3
:103F000094ED020ABCEEC00A10EE100A081A608591
:103F10002C3CBDEC0A8B10BD900900206662A246C5
:103F200000803B4600803B4570B505460C460026A8
:103F30002846FEF765FE46B246EA0400C1B22846AE
:103F400002F0E2F870BD000010B533480078022896
:103F50000BDB31480078202807DC2F4800786421EB
:103F600010FB01F02D4908800AE02B48007838B991
:103F70002A48B0F90000642190FBF1F0264908704E
:103F8000274890F90000002814DD264800786421B5
:103F900010FB01F0244948800846FEF745FB224803
:103FA000408800B2214908801D480178012018F09E
:103FB000B3F830E01A4890F9000000282BDA1848CE
:103FC00090F90000002803DB154890F9000003E099
:103FD000134890F900004042C4B2124800786421AE
:103FE00010FB01F0104948800846FEF71DFB0E4803
:103FF000408800B20D4908802146002018F08CF856
:1040000001E014F0ADFCFDF77BFF1028F9DA214642
:10401000012018F081F810BD58010020C8010020CF
:10402000B3030020DA010020CC000020340400207B
:1040300070B505460C46FDF79BFE1748006848B171
:104040001648008820801548008860801348008842
:10405000A0800BE01148008820801048018847F6B6
:10406000FF708843608045F25550A080002006E034
:1040700035F810100A4A22F81010411CC8B2032863
:10408000F6DB07480088054908800648006818F0F4
:104090000BFA002070BD0000EC0B0020B00A0020DD
:1040A000B20A0020F034002010B53A4A0A213A48FA
:1040B00003F018F8374A0921374803F013F8354A56
:1040C0000821354803F00EF8324A0021324803F047
:1040D00009F8304A0121304803F004F82D4A08213C
:1040E0002E4802F0FFFF2B4A0E212C4802F0FAFF67
:1040F000284A0D21294802F0F5FF264A01212748C8
:1041000002F0F0FF234A0021244802F0EBFF214A8D
:104110000921234802F0E6FF224A0221224802F048
:10412000E1FF204A0321214802F0DCFF1D4A0C2157
:104130001E4802F0D7FF1B4A00211D4802F0D2FFA3
:10414000184A0721194802F0CDFF164A08211748DE
:1041500002F0C8FF134A0021144802F0C3FF114ABD
:104160000121124802F0BEFF0E4A02210F4802F060
:10417000B9FF0C4A02210E4802F0B4FF094A01219E
:104180000B4802F0AFFF074A0421074802F0AAFFDC
:1041900010BD00001400020800820248008E024890
:1041A000008F02480800020800830248008102488C
:1041B00000850248012001048140024A516000BF8D
:1041C0007047000000840248062001218140024A15
:1041D000516000BF704700000081024810B52748B9
:1041E0000068401C25490860084600684CF25031C0
:1041F000884201D9FDF7B6FC00202149496AC14037
:1042000001F0010129B91F48006840F001001D4973
:1042100008601C48006810B100201B4908801B483A
:10422000008848B31848008880B91948008848B900
:1042300000F004FE012016490880164A1649174866
:1042400000F0CEFA00201649088015E00E480088DC
:10425000012811D11348006800F01CFE124800F03C
:1042600081FD0F48008820B9FFF7AEFF01200C49FF
:10427000088000200649088010BD0000AC0A00201C
:1042800000840248EC0B0020EA340020B80A002029
:10429000A80A002098330020740B0020E00A0020B8
:1042A000AA0A0020F0340020BC0A002012F8543F73
:1042B00000EE103AB8EE400AF6EE060A20EE200AAA
:1042C00080ED0D0A537800EE103AB8EE400ADFEDAB
:1042D0000F0A20EE200A80ED0E0A937A00EE103AC3
:1042E000B8EE400AF6EE060A20EE200A80ED140A27
:1042F000D37A543A00EE103AB8EE400ADFED030AE2
:1043000020EE200A80ED150A7047000040DA7F3960
:104310002E4BB3F8B4300A2B15D12D4B93ED000A78
:10432000B8EEC00ADFED2B0A20EE200A80ED0D0A60
:1043300093ED000AB8EEC00ADFED260A20EE200A4F
:1043400080ED140A40E012F8503F00EE103AB8EE4B
:10435000400AF6EE060A20EE200A80ED0D0A537898
:1043600000EE103AB8EE400ADFED1B0A20EE200AFC
:1043700080ED0E0A937A00EE103AB8EE400AF6EE9F
:10438000060A20EE200A80ED140AD37A503A00EE95
:10439000103AB8EE400ADFED100A20EE200A80ED58
:1043A000150A4B8C00EE103AB8EE400A80ED1C0A5C
:1043B0009FED0A0A80ED0F0A9FED080A80ED160AAC
:1043C0009FED060A80ED080A704700009833002030
:1043D000FC0B002035FE2F3740DA7F39000000004B
:1043E00070B52DED048B05460C461646B5F8B400A5
:1043F000022875D095F89500002872D094ED010A36
:10440000D5ED360A20EE200A85ED050A95ED020A63
:10441000B8EEC00AD5ED050A30EE609A95ED020AB5
:10442000B8EEC00AD5ED390A94ED241A39EE411AD6
:10443000F0EE408A40EE818A95ED050A38EEC00A1A
:1044400085ED340A84ED249A95ED340ADFED750A82
:10445000B4EEE00AF1EE10FA25DD94ED1D0AF5EE5A
:10446000000A30EE208AB7EE000AB4EEC08AF1EE00
:1044700010FA06DDB7EE000A38EE400AB0EE408AC8
:104480000AE0B5EEC08AF1EE10FA05D2B7EE000AE6
:1044900038EE000AB0EE408A9FED630A28EE000A6B
:1044A00084ED1A0A40E095ED340ADFED600AB4EEBF
:1044B000E00AF1EE10FA27D294ED1D0AF5EE000A9B
:1044C00030EE608AB7EE000AB4EEC08AF1EE10FA60
:1044D00008DDB7EE000A38EE400AB0EE408A0CE084
:1044E00072E031E0B5EEC08AF1EE10FA05D2B7EE17
:1044F000000A38EE000AB0EE408A9FED4B0A28EE23
:10450000000A84ED1A0A0FE09FED490A28EE808A1E
:10451000B0EE480A03F01CFD38EE400ADFED420A17
:1045200020EE200A84ED1A0A9FED420A84ED110A5A
:10453000204600F081F894ED000A84ED210A9FEDF9
:104540003D0A84ED230A62E094ED010AD5ED360AB6
:1045500020EE200A85ED050A95ED020AB8EEC00AA4
:10456000D5ED050A30EE600A85ED340A95ED020AB4
:10457000B8EEC00AD5ED350A20EE200A84ED000A17
:1045800094ED000AD4ED210A70EE600AB4F88800B8
:1045900000EE100AB8EE400A20EE800A84ED1E0AF2
:1045A00094ED000A84ED210A94ED1D0ADFED1E0A48
:1045B00020EE200A84ED1A0A9FED1E0A84ED0A0AF5
:1045C000204600F0F9F922E095ED020AB8EEC00AA3
:1045D000DFED170A20EE208AB0EE480A03F0B8FC9F
:1045E00038EE400ADFED100A20EE200A84ED1A0AA8
:1045F0009FED100A84ED110A204600F01DF894ED9D
:10460000000A84ED210A9FED0B0A84ED230A94ED44
:10461000180A86ED000A94ED190A86ED010ABDEC30
:10462000048B70BD0000A046D00FC9400000A0C69A
:10463000AACC4C370000000010B52DED088B0446C5
:10464000D4ED1A0AB0EE600AFBF7A6FEF0EE408A3F
:10465000D4ED1A0AB0EE600AFBF762FEB0EE409AA3
:1046600094ED0C0A20EE090AD4ED130A08EEA00A14
:1046700084ED0B0A94ED0C0AF1EE680A20EE200A94
:10468000D4ED130A09EE200A84ED120A94ED0A0A09
:10469000D4ED0B0A30EE600AB0EE40BA94ED0D0A8C
:1046A00020EE0B0AF0EE40AA94ED0E0A20EE2A0A44
:1046B000B0EE408A94ED0F0A30EE080A84ED0F0A3E
:1046C00094ED0F0A30EE2A0A84ED100A94ED100AD8
:1046D000D4ED1C0AB4EEE00AF1EE10FA0ADD94ED16
:1046E0001C0A84ED100A94ED0F0A30EE480A84ED9E
:1046F0000F0A16E094ED100AD4ED1C0AF1EE600AE0
:10470000B4EEE00AF1EE10FA0BD294ED1C0AB1EE11
:10471000400A84ED100A94ED0F0A30EE480A84ED49
:104720000F0A94ED110AD4ED120A30EE60AA94ED4E
:10473000140A60EE0A9A94ED150A20EE290AB0EEEA
:10474000408A94ED160A30EE080A84ED160A94EDBC
:10475000160A30EE290A84ED170A94ED170AD4EDF3
:104760001C0AB4EEE00AF1EE10FA0ADD94ED1C0A20
:1047700084ED170A94ED160A30EE480A84ED160A05
:1047800016E094ED170AD4ED1C0AF1EE600AB4EEBF
:10479000E00AF1EE10FA0BD294ED1C0AB1EE400AD9
:1047A00084ED170A94ED160A30EE480A84ED160AD5
:1047B00094ED100A20EE090AD4ED170A08EEE00A7B
:1047C00084ED180A94ED100A20EE280AD4ED170A99
:1047D00009EE200A84ED190ABDEC088B10BD00001B
:1047E00070B504460D4616469FED660A84ED060A2E
:1047F0009FED650A84ED070AB1EE020A84ED090A0D
:104800009FED620A84ED020A6148006890F84D004D
:1048100020B15F48006890F84E0010B95D485C49CF
:10482000086041F287315C48006807F0C7F85A49D0
:10483000096801F50051B1F80E17884202D05748B7
:10484000554908605248006890F84E0020B946204B
:104850004F49096881F84E004D48006890F84E00B5
:1048600000EE100AB8EE400ADFED4D0A20EE200AF5
:1048700084ED0D0A4648006890F84D0000EE100ADD
:10488000B8EE400ADFED410A60EE200A40480068B9
:1048900090F84E0000EE100AB8EE400A80EE801A42
:1048A00084ED0E1A94ED0D0A84ED140A94ED0E0AAF
:1048B00084ED150A688C00EE100AB8EE400A84ED0B
:1048C0001C0A96ED380A84ED0A0A9FED360A84ED3B
:1048D0000F0A9FED340A84ED160A9FED320A84ED2B
:1048E000080A288C00EE100AF8EE400AA88D00EEA7
:1048F000100AB8EE400A80EE801A85ED0C1AA88DD9
:10490000298C90FBF1F000EE100AB8EEC00AF4EE2C
:10491000000A20EE200A85ED0D0A1D48006890F877
:104920004C00552804D06E201949096881F84C00C4
:104930001748006890F84C0000EE100AB8EE400AE4
:10494000194880ED020A90ED020AF7EE000A80EEA7
:10495000801A80ED081A0E48006890F84B0080001D
:1049600000EE100AB8EEC00A104880ED030A0848AD
:10497000006890F86B000E49096848430D490860CB
:1049800070BD0000B37B723C8C4A6A3CCDCCCC3D00
:10499000F03400201E330020F43400200E0C0020E0
:1049A000499D003D00000000BC0A0020E00A0020F4
:1049B000DC0B0020080C002010B52DED028B044606
:1049C00094ED000AD4ED010A30EE600AB0EE408AA0
:1049D00094ED1E0AD4ED020A00EE880A84ED040A62
:1049E00094ED040AD4ED030AB4EEE00AF1EE10FAF5
:1049F00004DD94ED030A84ED040A10E094ED040A4A
:104A0000D4ED030AF1EE600AB4EEE00AF1EE10FA1A
:104A100005D294ED030AB1EE400A84ED040A204663
:104A200000F02CF9BDEC028B10BD00009FED914A07
:104A3000B0EE440A9FED8F4AF0EE440A9FED8D4A96
:104A4000B0EE441A9FED8B4AB0EE442A9FED894A9E
:104A5000F0EE441A9FED874AF0EE442A9FED854A16
:104A6000B0EE443A9FED834AF0EE443A90ED004AAE
:104A7000D0ED084A24EE244AB0EE440A90ED014AF3
:104A8000D0ED084A24EE244AF0EE440AB0EEC04AC3
:104A9000B0EE442AB0EEE04AF0EE441A32EE214A7B
:104AA000B0EE441A20EE204AB5EEC04AF1EE10FAFC
:104AB00046DBB4EEE12AF1EE10FA20DBB7EE004A55
:104AC00030EE044AF6EE004A24EE244A80ED034A12
:104AD000B7EE004A34EE404AF6EE004A24EE244A8D
:104AE00080ED044AB7EE004A74EE404AB6EE005A32
:104AF000B0EE604A05EE244A80ED054A53E0B7EE79
:104B0000004A74EE604AB6EE005AB0EE404A05EE36
:104B1000244A80ED034AB7EE004A34EE604AF6EECE
:104B2000004A24EE244A80ED044AB7EE004A30EEF3
:104B3000844AF6EE004A24EE244A80ED054A32E02B
:104B4000B7EE004AB4EEC41AF1EE10FA07DD80EEBB
:104B5000014AB0EE440A80EE814AF0EE440AB7EE14
:104B6000004A30EE044A34EE604AF6EE004A24EE83
:104B7000244A80ED034AB7EE004A34EE404A34EE50
:104B8000604AF6EE004A24EE244A80ED044AB7EE6D
:104B9000004A34EE404A34EE204AF6EE004A24EE53
:104BA000244A80ED054A90ED034AF7EE004A34EEC0
:104BB000C44AF0EE442A90ED044AF7EE004A34EE7F
:104BC000C44AB0EE443A90ED054AF7EE004A34EE9E
:104BD000C44AF0EE443A9FED284AF4EEC42AF1EEBE
:104BE00010FA02D29FED244A01E0B0EE624AF0EEE4
:104BF000442A9FED214AB4EEC43AF1EE10FA02D2F3
:104C00009FED1D4A01E0B0EE434AB0EE443A9FEDFD
:104C10001A4AF4EEC43AF1EE10FA02D29FED164AA7
:104C200001E0B0EE634AF0EE443AC18B04EE101A94
:104C3000B8EE444A24EE224ABCEEC44A14EE101ADE
:104C40000183C18B04EE101AB8EE444A24EE034AE5
:104C5000BCEEC44A14EE101A4183C18B04EE101A44
:104C6000B8EE444A24EE234ABCEEC44A14EE101AAD
:104C700081837047000000000AD7A33D10B52DEDD9
:104C8000048B044694ED040AD4ED050A30EE600A64
:104C9000B0EE409A94ED060A20EE090AF0EE408A42
:104CA00094ED070A20EE280AB0EE408A94ED080A37
:104CB00030EE080A84ED080A94ED080A30EE280A5E
:104CC000D4ED200A94ED1F1A00EE810A84ED110A3A
:104CD00094ED110AD4ED090AB4EEE00AF1EE10FAEF
:104CE0000ADD94ED090A84ED110A94ED080A30EE0C
:104CF000480A84ED080A16E094ED110AD4ED090A79
:104D0000F1EE600AB4EEE00AF1EE10FA0BD294ED87
:104D1000090AB1EE400A84ED110A94ED080A30EE5A
:104D2000480A84ED080A2046FFF786FCBDEC048B98
:104D300010BD00000149086070470000F4340020F5
:104D400005490860096891F86B10044A12685143DC
:104D5000034A116070470000F0340020DC0B002093
:104D6000080C002010B504462046FFF75FFE228B9A
:104D700000210B4801F0DBFD628B0121084801F0A6
:104D8000D6FDA28B0021074801F0D1FD0121064884
:104D900001F02AFD1021044801F026FD10BD00009D
:104DA00000410240004202400040024010B5012094
:104DB000012181401C4A516000BF41F27072002104
:104DC0001A4801F0B4FD41F270720021184801F058
:104DD000AEFD41F270720021164801F0A8FD41F2CB
:104DE00070720121114801F0A2FD41F2707201219F
:104DF0000F4801F09CFD41F2707201210D4801F055
:104E000096FD01210C4801F0EBFC10210A4801F04D
:104E1000E7FC4FF48071084801F0E2FC4FF4805148
:104E2000054801F0DDFC10BD00840248000102408D
:104E300000020240000402400000024010B50620BB
:104E40004FF4803181400F4A516000BF41F27072CF
:104E500000210D4801F06BFD41F2707200210B48FA
:104E600001F065FD41F270720121074801F05FFD1C
:104E70000121074801F0B8FC1021054801F0B4FCFD
:104E800010BD000000810248004102400042024083
:104E90000040024010B50446FE48B0F8B4000228B5
:104EA0007ED0FC48FDF7AAFD48B3FB48008830BB24
:104EB000F84890F8BA0088B1F8480068401CF749F3
:104EC0000860F448D0F8A400096888421ADAF44867
:104ED000006840F02000F249086013E0EF480068E5
:104EE000401CEE49086008460068B0F5FA4F09DD3D
:104EF000EB48006840F02000E949086002E000202B
:104F0000E6490860E34890F8BA0048B1E54800680F
:104F1000FCF7B0F90020E4490880E4490880EBE0A0
:104F2000E3480088012817D1E148FCF76FFE002014
:104F3000E04948810120086100024861DC4840895D
:104F4000401C4FF6FF7101EA0010DB490880214642
:104F5000D848FEF7A5F9CFE0CE4890F89500002894
:104F600078D1D148008800281EDDCF480088401C39
:104F7000CD49088008460088D0490988884212DB5C
:104F80000020C9490880C34890ED380ACC4880ED1C
:104F90000A0A2246CB49FFF789F90120BD4900E002
:104FA000A2E081F89500A7E0C548D0ED000A94F88A
:104FB000670000EE100AB8EE400A30EEC00AC048A2
:104FC000D0ED010AB4EEE00AF1EE10FA0ED8B148C5
:104FD000B0F9B600002809DDB94890ED050ADFED0B
:104FE000BA0AB4EEE00AF1EE10FA21D9B448D0EDD5
:104FF000000A94F8670000EE100AB8EE400A30EE9E
:10500000800AAF48D0ED010AB4EEE00AF1EE10FAE2
:1050100072DBA048B0F9B60000286DDAA84890ED20
:10502000050ADFEDAA0AB4EEE00AF1EE10FA63DB3E
:1050300094F8460000EE100AB8EE400ADFEDA40A2C
:1050400020EE200A9E4880ED020A01209649088041
:1050500052E0FFE79A48D0ED000A94F8670000EEAE
:10506000100AB8EE400A30EEC00A9548D0ED010AA9
:10507000B4EEE00AF1EE10FA0ED88648B0F9B600A8
:10508000002809DD8E4890ED050ADFED8F0AB4EEA9
:10509000E00AF1EE10FA21D98948D0ED000A94F81F
:1050A000670000EE100AB8EE400A30EE800A84482D
:1050B000D0ED010AB4EEE00AF1EE10FA1CDB7548FF
:1050C000B0F9B600002817DA7D4890ED050ADFED4B
:1050D0007F0AB4EEE00AF1EE10FA0DDB22467949C0
:1050E0007748FFF7E3F807E06A4890F8BA0018B18C
:1050F0006C480068FCF7BEF86648406865498968F6
:10510000401A00EE100AF8EEC00A94F8680000EEAB
:10511000100AB8EE401ADFED6F1AB7EE000A01EE82
:10512000610A20EE800ABDEEC00A10EE100A59494D
:105130008968084457498860084690ED010AB8EE2E
:10514000C00AD0ED360A9FED641A60EE810AB4EE13
:10515000E00AF1EE10FA3FDD91ED360ADFED5F0A6D
:1051600020EE200ABDEEC00A10EE100A5C49096864
:10517000A1F5FA515A4A1160514991ED010ADFED4A
:10518000570A30EE200A81ED010A564991ED000AD6
:10519000DFED520A30EE200A81ED000A484991ED18
:1051A000210ADFED4E0A30EE200A81ED210A39494D
:1051B00049680144374A51604B49096801444A4AE9
:1051C00011604A4909680144484A116031498968B7
:1051D0000144304A916050E02E4890ED010AB8EE4B
:1051E000C00AD0ED360A9FED421A60EE810AB4EE95
:1051F000E00AF1EE10FA40D2014691ED360ADFEDF9
:105200003D0A20EE200ABDEEC00A10EE100A344915
:10521000096801F5FA51324A1160294991ED010AF4
:10522000DFED340A30EE200A81ED010A2D4991EDBF
:10523000000ADFED300A30EE200A81ED000A204935
:1052400091ED210ADFED2B0A30EE200A81ED210AD3
:105250001049496801440F4A5160234909680144D3
:10526000214A1160214909680144204A1160094915
:1052700089680144074A916000BF064890F895008C
:1052800001284CD1034890ED340AB5EEC00AF1EE86
:1052900010FA31E098330020DE3400204035002041
:1052A000EC0B0020F434002044350020E20B0020F9
:1052B000B40B002080340020060C0020040C0020D9
:1052C000E00A0020740B002000004842000048C2A1
:1052D0008C4A6A3D24977F3B00401C460000FAC57B
:1052E000C0090020C4090020D80B0020D40B0020E6
:1052F00000401CC60000FA4504D290ED340AB1EE1D
:10530000400A02E0D64890ED340AD648D0ED000AB3
:10531000F8EE600AB4EEE00AF1EE10FA04D3D048D9
:10532000B0F8B400022871D1CD4890F8BA00002836
:10533000F9D1CD480088401CCB4908800846008838
:10534000B0F5165F02DB4FF416500880C64800889F
:10535000C6490988884260DBC3480088B0F5165FFB
:105360005BDAC3480088012851D19FEDC20AC248C8
:1053700080ED0A0ABD480088BB490880B848D0EDD6
:10538000340ABE4890ED000AB8EEC00AF4EEC00A36
:10539000F1EE10FA15DDB2484068B8490968401AC4
:1053A000AF494860B6480068B4490968401AB44932
:1053B0000860B4480068B1490968401AB1490860FA
:1053C0002BE0A748D0ED340AAC480068404200EE1C
:1053D000100AB8EEC00AF4EEC00AF1EE10FA1CD2C0
:1053E0009F484068A549096808449D494860A44809
:1053F0000068A24909680844A1490860A1480068FA
:105400009E49096808449F49086006E00BE19448FA
:1054100090ED380A984880ED0A0A9348008842F2D5
:105420002731884219DB9048008842F22651884291
:1054300013DC954890ED000A9448D0ED000A30EE58
:10544000200A80ED000A904890ED010A9048D0EDC6
:10545000000A30EE200A80ED000A83480088B0F58B
:10546000AF6F09D19FED830A884880ED000A9FED58
:10547000810A874880ED000A7B480088B0F5165FF6
:105480000DDA0020834908809FED7A0A824880ED7A
:10549000000A9FED780A814880ED000AD4E0704848
:1054A00090ED340AB5EEC00AF1EE10FA04D290ED98
:1054B000340AB1EE400A02E0694890ED340A6948C6
:1054C000D0ED000AF8EE600AB4EEE00AF1EE10FA50
:1054D00002DD0020644908806E480088401C6D4948
:1054E0000880654890ED0B0A6B48D0ED000A30EE5D
:1054F000200A80ED000A604890ED120A6748D0ED5E
:10550000000A30EE200A80ED000A08460088802854
:1055100074DB614890ED000ADFED610A20EE200A9D
:1055200080ED000A5D4890ED000ADFED5D0A20EE97
:10553000200A80ED000A504890ED0A0A5648D0ED46
:10554000000A30EE600AB5EEC00AF1EE10FA0AD297
:10555000494890ED0A0AB1EE400A4F48D0ED000AE2
:1055600030EE600A07E0444890ED0A0A4A48D0ED60
:10557000000A30EE600A4B48D0ED000AB4EEE00AB3
:10558000F1EE10FA02DB0020374908803A4890ED2E
:10559000110A4248D0ED000A30EE600AB5EEC00AAA
:1055A000F1EE10FA0AD2344890ED110AB1EE400A39
:1055B0003A48D0ED000A30EE600A07E02E4890ED40
:1055C000110A3648D0ED000A30EE600A3548D0EDB9
:1055D000000AB4EEE00AF1EE10FA02DB00202249E4
:1055E000088000202B4908809FED220A2A4880ED80
:1055F000000A9FED200A294880ED000A234890ED1B
:10560000000ADFED290A20EE200A1F4880ED000A7B
:105610001F4890ED000ADFED240A20EE200A1A4808
:1056200080ED010A10E00020204908600E49088042
:10563000184908809FED0F0A174880ED000A9FED7A
:105640000D0A164880ED000A07480088B0F5165F7D
:1056500004DA0D4A08490248FEF7C2FE10BD0000F8
:1056600098330020080C0020E20B0020040C0020DE
:10567000DE34002000000000E00A0020DC0B0020E7
:10568000D80B0020D40B0020BC0A00204835002095
:105690004C3500205C350020543500205835002062
:1056A0002497FF3B503500206F12033BE80B00208E
:1056B00010B504462046FEF7E9F834F8522F0021D1
:1056C0000D4801F034F9628800210C4801F02FF9EF
:1056D000A288523C00210A4801F029F90121094819
:1056E00001F07EF81021074801F07AF84FF480515C
:1056F000044801F075F810BD0004024000020240A9
:10570000000102400000024010B570E003213A4859
:1057100001F0C9FC01280AD138480088401C3749EB
:10572000088008460088642804D1012460E0002035
:105730003249088032480088642807DD09212E4854
:1057400001F0B1FC012801D1032451E02C4800886C
:10575000652804DA2A480088401C29490880082165
:10576000254801F0A0FC50B926480088401C254976
:10577000088008460088642801D1042438E0032109
:10578000214801F090FC58B920480088401C1F496E
:10579000088008460088B0F57A7F01D1052427E00B
:1057A0001B480078C0F3C00088B10721124801F0FF
:1057B0007AFC01280BD117480088401C1549088045
:1057C00008460088B0F5FA7F01D1062410E01048A1
:1057D0000078C0F3800040B10C210F4801F063FC59
:1057E00008B9072404E0002402E0002400E08DE76B
:1057F00000BF204610BD000000800248E8040020E1
:10580000EE040020E6040020008F0248EA04002095
:10581000F2040020F0040020008E024810B5784801
:10582000006800F0010070B97548001D006840F084
:1058300001007449C1F8040200BF7148006800F01B
:1058400001000028F9D07048006800F4007058B1D9
:105850006D480830006840F400706B4908310860FA
:1058600041F64C5006F0E5F86848006840F4002026
:105870006649086040F6C41006F0DBF8634800682B
:10588000634908406149086060481038006800F0CA
:10589000300060B35D48103800685E4908405B49DD
:1058A00010390860FCF77EFB5B49B0FBF1F0401E4D
:1058B00056491039096841EA0040544910390860D6
:1058C00052480830006820F0010050490831086053
:1058D0004E48006820F400304C49086000BF4B4837
:1058E000001F006800F46070B0F5607FF7D1474892
:1058F000006840F00100454908600846006840F033
:10590000100008604548091D0860081F006840F045
:105910004000091F08600846006820F01000086079
:105920000846006840F48020086000BF3748001F28
:10593000006800F004000028F8D03448006820F027
:1059400001003249086000BF3048001F006800F0C5
:1059500001000028F8D13248006840F48030304916
:10596000086000202E4908310860091F08602C4992
:1059700014310860091D0860032029490C310860B2
:105980002248006820F04000204908602548091D91
:10599000086040F6B83006F04CF800BF1B48001F06
:1059A000006800F004000028F8D01F481749091DBE
:1059B000086041F2941006F03CF800BF1348001F45
:1059C000006800F004000028F8D018480F49091DAD
:1059D000086041F2707006F02CF800BF0B48001F01
:1059E000006800F004000028F8D00520044994392C
:1059F000086000200A490839086000F019F810BD55
:105A00000042005000400050004400501447005035
:105A1000FDFFFEFFCFFFF0FFA0252600003B130196
:105A20000C460050003B0701003B0401003B030112
:105A300070B52449096801F4803181B322490968AD
:105A400001F0010109B1214801E0FCF7ABFA1E4960
:105A50000C39096801F00401C1B11B49091F09682B
:105A6000C1F303614E1C1849091F0968C1F30621DF
:105A70004D1C1549091F0968C1F306414C1C16FB52
:105A800004F1B0FBF1F101FB05F00AE00E49091F3A
:105A9000096801F07F014C1CB0FBF4F001E0FFE766
:105AA0000A4808490968C9B2491CB0FBF1F0054928
:105AB000091D096801F00101491CB0FBF1F004491E
:105AC000086070BD0C4600501C47005000366E0147
:105AD000C0FF002072B61249124A116000BF00BF19
