:020000040800F2
:10000000F8750020E1020008ED020008ED0200088A
:10001000ED020008ED020008ED02000800000000FB
:10002000000000000000000000000000ED020008D9
:10003000ED02000800000000ED020008ED020008DB
:10004000ED020008ED020008ED020008ED020008D4
:10005000ED020008ED020008ED020008ED020008C4
:10006000ED02000800000000000000000000000099
:10007000ED02000800000000ED020008ED0200089B
:10008000ED020008ED02000815150008ED02000859
:10009000ED020008ED020008ED020008ED02000884
:1000A000ED020008ED020008ED020008ED02000874
:1000B000ED020008ED020008ED020008ED02000864
:1000C000ED020008ED020008ED020008ED02000854
:1000D000ED020008ED020008ED020008ED02000844
:1000E000ED020008ED020008ED020008ED02000834
:1000F0007D060008ED020008ED020008ED02000890
:10010000ED020008ED020008ED020008ED02000813
:10011000ED020008ED020008ED020008ED02000803
:10012000ED020008ED020008B5060008ED02000827
:10013000ED020008ED020008ED020008ED020008E3
:10014000ED020008ED020008ED020008ED020008D3
:10015000ED020008ED020008ED020008ED020008C3
:10016000ED020008ED020008ED020008ED020008B3
:10017000ED020008ED020008ED020008ED020008A3
:10018000ED020008ED020008ED020008ED02000893
:100190001914000875140008ED020008D9140008AD
:1001A000ED020008E9140008F9140008FD14000825
:1001B000ED020008ED020008ED020008ED02000863
:1001C000000000000000000000000000000000002F
:1001D0000000000000000000ED0200080000000028
:1001E000ED0200089908000800000000ED02000878
:1001F00000000000000000000000000000000000FF
:1002000000F002F800F05CF80AA090E8000C8244CC
:100210008344AAF10107DA4501D100F051F8AFF2A9
:10022000090EBAE80F0013F0010F18BFFB1A43F0D4
:1002300001031847B03B0100D03B01000A444FF0D6
:10024000000C10F8013B13F0070408BF10F8014B35
:100250001D1108BF10F8015B641E05D010F8016B7A
:10026000641E01F8016BF9D113F0080F1EBF10F8DE
:10027000014BAD1C0C1B09D16D1E58BF01F801CB01
:10028000FAD505E014F8016B01F8016B6D1EF9D584
:100290009142D6D370470000002300240025002699
:1002A000103A28BF78C1FBD8520728BF30C148BFD9
:1002B0000B6070471FB513F003FA1FBD10B510BDDA
:1002C00000F0CBF81146FFF7F5FF09F00DF800F04C
:1002D000E9F803B4FFF7F2FF03BC00F0F1F8000007
:1002E000DFF818D00648804706480047FEE70000C0
:1002F00005480649064A074B70470000F87500207C
:100300007D13000801020008F86B0020F87500203A
:10031000F86D0020F86D0020032A40F2308010F0C4
:10032000030C00F0158011F8013BBCF1020F624490
:1003300098BF11F801CB00F8013B38BF11F8013B21
:10034000A2F1040298BF00F801CB38BF00F8013BCE
:1003500011F0030300F02580083AC0F0088051F83E
:10036000043B083A51F804CBA0E80810F5E7121D49
:100370005CBF51F8043B40F8043BAFF30080D20768
:1003800024BF11F8013B11F801CB48BF11F8012B34
:1003900024BF00F8013B00F801CB48BF00F8012B57
:1003A000704710B5203AC0F00B80B1E81850203AE1
:1003B000A0E81850B1E81850A0E81850BFF4F5AF05
:1003C0005FEA027C24BFB1E81850A0E8185044BF8F
:1003D00018C918C0BDE810405FEA827C24BF51F8FC
:1003E000043B40F8043B08BF7047D20728BF31F8F0
:1003F000023B48BF11F8012B28BF20F8023B48BF41
:1004000000F8012B70474FF0000200B513469446E8
:100410009646203922BFA0E80C50A0E80C50B1F15C
:100420002001BFF4F7AF090728BFA0E80C5048BF70
:100430000CC05DF804EB890028BF40F8042B08BF0E
:10044000704748BF20F8022B11F0804F18BF00F80A
:10045000012B7047704770477047754600F02CF8C5
:10046000AE4605006946534620F00700854618B0A1
:1004700020B5FFF73DFFBDE820404FF000064FF0EC
:1004800000074FF000084FF0000B21F00701AC46C9
:10049000ACE8C009ACE8C009ACE8C009ACE8C009E8
:1004A0008D46704710B50446AFF300802046BDE886
:1004B0001040FFF70EBF000000487047986B002007
:1004C00001491820ABBEFEE72600020070472DE967
:1004D000F04104460027D4F89080206800F0CDF960
:1004E0000746002F5BD1D4E9010101F00AFB6068E7
:1004F000016841F04001016000BF6068016841F09F
:100500000101016000BF94F8A700012806D16068CE
:10051000C16841F48071C16000BF10E08434D4E947
:1005200005321979186801F025FF54F8800C217FF5
:10053000843CC26861F30202C26000BF00BF204673
:1005400000F057F800250EE004F10C0050F825608B
:10055000327994F8A1102368586801F0A7F9304661
:1005600000F021F86D1C94F8A200A842ECD8606855
:10057000016821F04001016000BF6068016821F05E
:100580000101016000BF94F8A70048B998F8041071
:10059000D4F89420D8F8000001F0ECFE00E0012728
:1005A0003846BDE8F08110B50446206801F012FA23
:1005B000E07901280CD162790421206801F06CFAFD
:1005C00000BF4FF40031206801F060FA00BF00BFA7
:1005D000207A01280CD1A2790021206801F05CFA70
:1005E00000BF4FF48031206801F050FA00BF00BF17
:1005F00010BD70B504460025204600F020F894F8A0
:10060000A400012801D145F0020594F8A3000128B7
:1006100001D145F0040594F8A500012801D145F069
:1006200008052946606801F061FA94F8A6000128DF
:1006300004D14FF48001606801F058FA70BD10B524
:100640000446D4F88C100A780021606801F0FBFAA7
:10065000D4F88C104A780421606801F0F4FAD4F8D8
:100660008C108A780821606801F0EDFAD4F88C10BB
:10067000CA780C21606801F0E6FA10BD00200C4930
:10068000096801228240114009B1012100E00021E6
:1006900001290CD10020064910310968012282404D
:1006A0001143034AA03AC2F8B01000BF00BF704720
:1006B000A0C1004010B50020104909680122824005
:1006C000114009B1012100E0002161B100200B4976
:1006D00010310968012282401143084AA03AC2F849
:1006E000B01000BF00BF0648408818B900F034FCC5
:1006F0000349488006F06EF910BD0000A044004890
:10070000B405002070B50346474C24780B2C03D069
:10071000454C2478102C07D1444C24780A2594FBAE
:10072000F5F605FB164213E03F4C24780D2C08D15A
:100730003F4CB4F900400A2594FBF5F605FB164240
:1007400006E03C4C24780A2594FBF5F605FB16429E
:10075000B3F5C87F31DA0A2A2ED2DFE802F00509A4
:100760000D1115191D2125294FF4DB60252123E0EA
:1007700040F2F34023211FE040F2F6301D211BE040
:100780004FF45470182117E040F2DA20152113E0DD
:100790004FF41F7013210FE040F2372011210BE0BE
:1007A00040F207200F2107E040F2D7100E2103E0AE
:1007B00040F27D100E2100BF2DE00A2A2AD2DFE888
:1007C00002F005090D1115191D2023264FF4826032
:1007D000FB211FE040F29720D9211BE040F2E710F7
:1007E000BB2117E040F28310A22113E04FF4A17067
:1007F00090210FE04FF48B707F210BE0F3207421E8
:1008000008E0D9206A2105E0C320622102E08E20A1
:10081000502100BF00BF03FB00F44FF47A75B4FB16
:10082000F5F4601870BD0000D0010020A70300207F
:100830007E030020A603002010B50246547821094B
:1008400093781C4661F3DF142146802B02DB4C4277
:1008500020B200E008B210BD10B50246547804F092
:100860000F01D3781C4661F3DF142146802B02DB95
:100870004C4220B200E008B210BD70B5044600251D
:10088000607A012806D0D4E9001001F045F8012073
:10089000607200BF284670BD10B5024801F09CFC94
:1008A00010BD000000400150F0B503460C4603F0B7
:1008B0000701C1F10700062801D9062001E0C1F1B6
:1008C00007000646881D072801D2002000E0481EC8
:1008D00005460120B040401E2040A8400127AF40FF
:1008E0007F1E17403843F0BD004870470024F400D5
:1008F00010B50A21014801F09EFD10BD008102489B
:1009000010B50A21014801F08DFD10BD008102489B
:1009100010B5054801F01AFE002002F005F820216C
:10092000012001F091FF10BDF437010870B50024DB
:100930005249534802F07AF800BF5148406B40F0EA
:1009400001004F49486300BF082000BF496B21F0F8
:100950007062411E42EA0161494A516300BF00BF13
:1009600000BF00BF1146496B21F47C12411E42EAD0
:100970000141434A516300BF00BF0021084600BF48
:10098000526922F050420A4302433D4B5A6100BF74
:1009900000BF02201946496921F4FE41421EC301ED
:1009A00043EA82221143364A516100BF354A02218F
:1009B000354801F0DFFC32490020024601F11C03FA
:1009C00053F8203023F0400343F0100501F11C03DD
:1009D00043F8205000BF01F11C0353F8203023F0EE
:1009E0000703134301F11C0545F8203000BF00BF89
:1009F00000BF0120096C21F00F010143204A11645E
:100A000000BF00BF214A0521214801F0B3FC214A63
:100A100006211F4801F0AEFC1F4A01211C4801F0CD
:100A2000A9FC1E4A0D211E4801F0A4FC1D4A0E21FE
:100A30001B4801F09FFC00221021114802F032F9FE
:100A40000123052220210E4802F036F9032210214D
:100A50000B4802F052F9002305221946084802F01B
:100A600099F805221021064802F0B2F80522132158
:100A7000034802F0ADF8204670BD00005001002090
:100A800000020340D0060020008202482801002016
:100A900000830248203801083C3801083C0100204E
:100AA00000810248603801082DE9F04105460E46F4
:100AB000AC68002728E02069E168884210D22868E5
:100AC00001F0A7FF0746D4E904218F54022E04D178
:100AD0003912D4E90402401C1154206930442061C9
:100AE0002069E16888420FD10020E07784F8210076
:100AF0004FF0C041286802F065F86868406F10B197
:100B00006968486F804706E02868D0F81411C1F37F
:100B1000C0010029CFD000BFBDE8F0812DE9F04130
:100B200005460126AC680027A8680068082800D997
:100B30000226686890F87D00A8B131462846FFF784
:100B4000B3FFD4E90301421A686890F87D00401EA3
:100B5000012181408A425ED8D4E90302811A2846E5
:100B600000F05BF857E0286802F00EF800F400503F
:100B7000A0B12069E168884210D2286801F049FFDD
:100B80000746D4E904218F54022E04D13912D4E946
:100B90000402401C1154206930442061286801F08F
:100BA000F3FF00F48040A0B12069E168884210D2D0
:100BB000286801F02EFF0746D4E904218F54022E45
:100BC00004D13912D4E90402401C11542069304484
:100BD00020612069E16888421DD1686890F87D0035
:100BE00028B14FF0C041286801F0ECFF04E04FF459
:100BF0004041286801F0F8FE0020E07784F82100E9
:100C0000012084F82200002060616868406F10B104
:100C10006968486F8047BDE8F0812DE9F0410446DE
:100C20000D46606890F87D00C0B1BDB1606890F875
:100C30007D10012000FA01F6A0680068082800D99C
:100C40006D08B5EB560F01D26F1E00E077086268A1
:100C500092F87D103A46206801F0C6FFBDE8F081A9
:100C60002DE9F04105460126AC68A868006808280F
:100C700000D90226A068616888424CD200276868C3
:100C800090F87C0050B321E0A068616888421CD2D3
:100C900094F82100012806D1227F4FF6FF712868C1
:100CA00002F026F80DE0022E03D1A168A069475A90
:100CB00002E0A168A069475C227F3946286802F0FB
:100CC00017F8A0683044A06000E006E02868D0F87B
:100CD0001411C1F300310029D6D047E094F8210067
:100CE000012806D1227F4FF6FF71286802F011F823
:100CF0000DE0022E03D1A168A069475A02E0A16865
:100D0000A069475C227F3946286802F002F8A06893
:100D10003044A0602AE02868D0F81411C1F3C02143
:100D200021B3686890F87C0028B14FF080412868B2
:100D300001F0D8FF07E04FF400512868026C8A43A5
:100D4000026400BF00BF00BF2868816B01F0800112
:100D50008029F9D0002084F82000A0616868006F25
:100D600020B1E07F10B96968086F8047BDE8F08165
:100D700010B53048007802280BDB2E480078202878
:100D800007DC2C480078642110FB01F02A49088018
:100D90000AE02848007838B92748B0F900006421F3
:100DA00090FBF1F023490870244890F900000028D6
:100DB00010DD23480078642110FB01F021490883ED
:100DC0000846008B204908801C480178012011F05A
:100DD000BBFE2DE0194890F90000002828DA1748DA
:100DE00090F90000002803DB144890F9000003E0AC
:100DF000124890F900004042C4B2114800786421C2
:100E000010FB01F00F4908830846008B0E4908804B
:100E10002146002011F098FE01E00EF0EFFC094899
:100E2000B0F914001028F8DA2146012011F08CFEE8
:100E300010BD000058020020C8020020B3040020AA
:100E4000DA020020E40600203405002010B53A4AFA
:100E50000A213A4801F08EFA374A0921374801F051
:100E600089FA354A0821354801F084FA324A0021CE
:100E7000324801F07FFA304A0121304801F07AFA15
:100E80002D4A08212E4801F075FA2B4A0E212C48D4
:100E900001F070FA284A0D21294801F06BFA264A20
:100EA0000121274801F066FA234A0021244801F075
:100EB00061FA214A0921234801F05CFA224A022101
:100EC000224801F057FA204A0321214801F052FA42
:100ED0001D4A0C211E4801F04DFA1B4A00211D48F5
:100EE00001F048FA184A0721194801F043FA164A56
:100EF0000821174801F03EFA134A0021144801F076
:100F000039FA114A0121124801F034FA0E4A02213D
:100F10000F4801F02FFA0C4A02210E4801F02AFA7C
:100F2000094A01210B4801F025FA074A0421074824
:100F300001F020FA10BD0000D836010800820248F6
:100F4000008E0248008F0248CC3601080083024818
:100F5000008102480085024810B570E003213A483C
:100F600001F002FA01280AD138480088401C3749AC
:100F7000088008460088642804D1012460E000202D
:100F80003249088032480088642807DD09212E484C
:100F900001F0EAF9012801D1032451E02C4800882E
:100FA000652804DA2A480088401C2949088008215D
:100FB000254801F0D9F950B926480088401C254938
:100FC000088008460088642801D1042438E0032101
:100FD000214801F0C9F958B920480088401C1F4930
:100FE000088008460088B0F57A7F01D1052427E003
:100FF0001B480078C0F3C00088B10721124801F0F7
:10100000B3F901280BD117480088401C1549088006
:1010100008460088B0F5FA7F01D1062410E0104898
:101020000078C0F3800040B10C210F4801F09CF91A
:1010300008B9072404E0002402E0002400E08DE762
:1010400000BF204610BD000000800248BC05002003
:10105000C2050020BA050020008F0248BE0500200E
:10106000C6050020C4050020008E024810B578484F
:10107000006800F0010070B97548001D006840F07C
:1010800001007449C1F8040200BF7148006800F013
:1010900001000028F9D07048006800F4007058B1D1
:1010A0006D480830006840F400706B4908310860F2
:1010B00041F64C5004F0A0FC6848006840F4002061
:1010C0006649086040F6C41004F096FC6348006866
:1010D000634908406149086060481038006800F0C2
:1010E000300060B35D48103800685E4908405B49D5
:1010F00010390860FFF7F8FB5B49B0FBF1F0401EC8
:1011000056491039096841EA0040544910390860CD
:1011100052480830006820F001005049083108604A
:101120004E48006820F400304C49086000BF4B482E
:10113000001F006800F46070B0F5607FF7D1474889
:10114000006840F00100454908600846006840F02A
:10115000100008604548091D0860081F006840F03D
:101160004000091F08600846006820F01000086071
:101170000846006840F48020086000BF3748001F20
:10118000006800F004000028F8D03448006820F01F
:1011900001003249086000BF3048001F006800F0BD
:1011A00001000028F8D13248006840F4803030490E
:1011B000086000202E4908310860091F08602C498A
:1011C00014310860091D0860032029490C310860AA
:1011D0002248006820F04000204908602548091D89
:1011E000086040F6B83004F007FC00BF1B48001F41
:1011F000006800F004000028F8D01F481749091DB6
:10120000086041F2941004F0F7FB00BF1348001F80
:10121000006800F004000028F8D018480F49091DA4
:10122000086041F2707004F0E7FB00BF0B48001F3C
:10123000006800F004000028F8D005200449943923
:10124000086000200A490839086000F019F810BD4C
:10125000004200500040005000440050144700502D
:10126000FDFFFEFFCFFFF0FFA0252600003B13018E
:101270000C460050003B0701003B0401003B03010A
:1012800070B52449096801F4803181B322490968A5
:1012900001F0010109B1214801E0FFF725FB1E49DA
:1012A0000C39096801F00401C1B11B49091F096823
:1012B000C1F303614E1C1849091F0968C1F30621D7
:1012C0004D1C1549091F0968C1F306414C1C16FB4A
:1012D00004F1B0FBF1F101FB05F00AE00E49091F32
:1012E000096801F07F014C1CB0FBF4F001E0FFE75E
:1012F0000A4808490968C9B2491CB0FBF1F0054920
:10130000091D096801F00101491CB0FBF1F0044915
:10131000086070BD0C4600501C47005000366E013E
:10132000C0FF002072B61249124A116000BF00BF10
:1013300000BFBFF34F8F00BF00BF00BF62B60D49B3
:101340008031096841F470010A4A8032116009490C
:101350000C31096821F00801064A0C321160064977
:10136000486920F00F0040F003004861704700001A
:101370000000000808ED00E00020005810B5102221
:1013800051060648FEF7C8FF0548064B0ECB0EC0B7
:10139000FFF7C8FFFFF76AFE10BD0000C4FF002082
:1013A000D4FF00208400002010B50446FFF7B0FAF7
:1013B00001F078FE01F0D0FEFFF748FDA06900F0D3
:1013C00065F9E06902F0C0FAD4E9041001F0C6FF43
:1013D000D4E9001002F0C0F9D4E9021002F066F876
:1013E000FFF786FA0421094801F020F80121084896
:1013F00001F01CF80621074801F018F8042001212B
:101400008140024A516000BF10BD000000830248C5
:10141000008402480081024810B540F2145410487C
:10142000008810490988884214D001200E490870AC
:101430000B4802880088401C094B18800B48815CCF
:101440000B4801F05AFB00BF201EA4F101018CB231
:10145000FAD104E0FFF74CFA00200349087010BDF0
:10146000E8050020EA050020F0050020F1670020D3
:101470000000034010B5144801F0F8FAC4B2134854
:10148000007838B95A2C05D1002011490880012074
:101490000E4908700E480088B0F5967F08DA0C48AF
:1014A00001880088401C0A4A10800A4844540AE017
:1014B000002007490880084601880088401C044A2B
:1014C00010800448445410BD000003404204002032
:1014D000EE0500201E69002010B50248FFF7C0FB92
:1014E00010BD00007C01002010B50248FFF716FB7C
:1014F00010BD00007C0100207047000010B50448BA
:1015000001F0B4FAC4B22146014801F0F6FA10BD68
:101510000000024810B500214A4801F096FCC0F3D3
:101520000B00494908800021484801F08EFCC0F3B7
:101530000B00474908800021464801F086FCC0F3B3
:101540000B00454908800021444801F07EFCC0F3AF
:101550000B004349088001213A4801F076FCC0F3B2
:101560000B00404908800221364801F06EFCC0F3B0
:101570000B003D49088034480088A0F5006000EE6B
:10158000100AB8EEC00A3948D0ED000AF1EE600A40
:1015900020EE200A364880ED090ABCEEC00A10EEA3
:1015A000100A344908802A480088A0F5006000EE3F
:1015B000100AB8EEC00A2D48D0ED000AF1EE600A1C
:1015C00020EE200A2A4880ED100ABCEEC00A10EE78
:1015D000100A2949088020480088A0F5006000EE24
:1015E000100AB8EEC00A2148D0ED000AF1EE600AF8
:1015F00020EE200A214880ED090ABCEEC00A10EE58
:10160000100A1F49088016480088A0F5006000EE07
:10161000100AB8EEC00A1548D0ED000AF1EE600AD3
:1016200020EE200A154880ED100ABCEEC00A10EE2C
:10163000100A1449088000BF01201349086000BF48
:1016400010BD000000440040040000200050004095
:1016500006000020004C0040000000200048004030
:1016600002000020080000200A00002014000020D2
:10167000680600200C0000200E000020000600205C
:1016800010000020120000209845004070B504466C
:101690006A494FF0402001F065FB6949694801F053
:1016A000DBFB6749684801F0D7FB6549674801F0F3
:1016B000D3FB6349664801F0CFFB6649614801F0FE
:1016C00052FC6549604801F04EFC64495F4801F0F6
:1016D0004AFC63495E4801F046FC624A02215948CF
:1016E00001F078FB604A0321564801F073FB5F4A22
:1016F0000421544801F06EFB5D4A0721524801F075
:1017000069FB5C4A0221514801F064FB5A4A0021FE
:101710004F4801F05FFB594A00214A4801F067FC3D
:10172000564A0121474801F062FC544A02214548CB
:1017300001F05DFC514A0021434801F058FC4F4A3A
:101740000021424801F053FC4C4A0021404801F07E
:101750004EFC12202146002804DB8A06130E484A5C
:10176000135406E08A06150E464A00F00F031B1FAD
:10177000D55400BF0021334801F030FC122000286E
:1017800009DB00F01F02012191404209920002F1A1
:10179000E022C2F8001100BF03212A4801F02EFC0C
:1017A0000321294801F02AFC0321284801F026FCE6
:1017B0000321274801F022FC4FF0402001F0ECFA11
:1017C000314801681F4801F004FC304801681D4899
:1017D00001F0FFFB2E4801681A4801F0FAFB2D4882
:1017E0000168194801F0F5FB2B480168174801F022
:1017F000F0FB2A480168164801F0EBFB284A022159
:10180000284800F0B7FD264A0321264800F0B2FD23
:10181000234A0421234800F0ADFD214A0F2121482D
:1018200000F0A8FD1E4A02211F4800F0A3FD1C4A3B
:1018300008211D4800F09EFD70BD00003000002012
:10184000480000200044004000480040004C004098
:10185000005000405C000020680000207400002060
:10186000800000208C0000209C000020AC000020A4
:10187000BC000020CC000020DC000020EC00002098
:1018800000E400E018ED00E0F0000020F40000208B
:10189000F8000020FC0000200001002004010020CE
:1018A00008010020008E0248008F024870B50B46E8
:1018B00000BF00BFD0F8C41101F4407109B9012183
:1018C00000E000210029F4D002215D1CECB24FF4AD
:1018D0007F0505EA02450D434FF07F4606EA0466A0
:1018E0003543C0F8C45100BF70BD000010B50446B8
:1018F000084800F0E7FF074801F042F8206820F0B0
:101900000100206000BF206800F002000028FAD12A
:1019100010BD0000100000102DE9F04F85B0044606
:101920000D4600F005FE80462046FFF7DFFF002051
:10193000B8FBF5F2C2F58061884201D9024600E0A9
:101940000A46934640F2FF31584607F061FD814652
:10195000C9F58060B8FBF0F00490A80901904FEA47
:10196000981701988002B0FBF7FB40F2FF31584610
:1019700007F04EFD064607FB06F0800A0390039829
:10198000800103900498291A0398281A814201D8EB
:10199000012000E000208246BAF1000F01D0484645
:1019A00000E030460290BAF1000F01D0012000E0C3
:1019B00002200090E0684CF2FF318843E060E1686B
:1019C000029A009842EA80300143E16005B0BDE828
:1019D000F08F0000F0B504462A492068401AA0F5AF
:1019E000805046097009400306F01F0140EA0127B4
:1019F0002068806820F47F402168886020688068C3
:101A00003843216888606068C0F3407020B1606826
:101A1000C0F34070002834D0207E10B1207E012811
:101A20002FD120202168C8616068C0F3407080B960
:101A3000656805F06045A08845EA804520688561B5
:101A4000A56805F06045208945EA80452068C560A5
:101A500005E0D4E9001088612168A068C860207E94
:101A6000012807D1204600F023F84FF000602168DC
:101A7000C86103E04FF400602168C8610248216832
:101A8000C861F0BD004001484000A006026812682D
:101A90000A4303681A60704710B503689B680724FF
:101AA0008C40A34302FA01F423430468A36010BDF1
:101AB000014603200A7E012A14D120220B68DA6134
:101AC0000B7B0A68126863F31B620B681A600B6871
:101AD0000A691A610B684A695A61034A0B68DA613C
:101AE000002000E00320704740002800B1F5800F7F
:101AF00003D002680A43026002E082690A438261FD
:101B000070472DE9F84F02460C250C264FF0000ACD
:101B10004FF0010800200090814642F21077012525
:101B200044E0D1F800B00BEB8B0B4FEA4B0BBBFB47
:101B3000F5FCD1F804B0BCFBFBF04FF00A0BB0FB96
:101B4000FBFE0BFB1E0BBBF1050F05D94FF00A0B7B
:101B5000B0FBFBF0401C03E04FF00A0BB0FBFBF0C6
:101B600030B100EB800B4FEA4B0BBCFBFBF304E006
:101B70004FF00A0BBCFBFBF30120D1F804B09B45EE
:101B800004D8D1F804B0A3EB0B0403E0D1F804B0FF
:101B9000ABEB0304142808D8A74206D9AA4681460D
:101BA0002746B4F57A7F00D202E06D1C402DB8D9EB
:101BB00000BF42F21077402617E0741C42F2107CFE
:101BC00004FB0CF4B4FBF9F00C89844202D80C89B4
:101BD000031B01E00C89231A9F4201D9B0461F461E
:101BE0000C89844200D902E0761E032EE5D200BFA4
:101BF000A9EB0800401E009000BF106840F04000B4
:101C0000106000BF0098401E4FF4E04303EA00302C
:101C10004B895B1EC02404EA83131843A8F1010317
:101C20004FF4706404EA03231843AAF1010303F09C
:101C30003F031843106100BF106820F0400010609F
:101C400000BFBDE8F88F10B5836807248C40A3431C
:101C500002FA01F42343836010BD000070B504460E
:101C6000102000F0F9FB25461C48854203D10420D2
:101C700000F028FE13E01A48854203D1082000F046
:101C800021FE0CE01748854203D1102000F01AFE17
:101C900005E01548854202D1144800F013FE00BF4C
:101CA00025460E48854203D1042000F069FE13E06A
:101CB0000B48854203D1082000F062FE0CE0094881
:101CC000854203D1102000F05BFE05E00648854206
:101CD00002D1064800F054FE00BF70BD00C00040B5
:101CE0000000014000400140004000480100001099
:101CF00070B504460E462046FFF7B0FF00BFE0680F
:101D000040F48070E06000BF256825F4404545EA56
:101D10008635256070BDD0F8B02001238B401A4372
:101D2000C0F8B02070470A6842618A88C2F3403226
:101D3000120542600A7902F00F0242628A88C2F3F9
:101D4000032202628A88C2F3003282610A79C2F3F6
:101D50000312C26270470246D2F8A00001238B40F2
:101D6000184008B1012070470020FCE770B5034619
:101D70000C461546D3F8A8200A2C16D2DFE804F04A
:101D80000506090A151515150D1100BF03210020C0
:101D90000FE000BF0C2102200BE04FF4407108203F
:101DA00007E04FF440610A2003E04FF440510C205B
:101DB00000BF00BF8A4305FA00F63243C3F8A820EB
:101DC00070BD21B9426922F00102426103E042691B
:101DD00042F0010242617047016770470A4601689C
:101DE00021F0300141EA02110160704770B50346ED
:101DF00000200BE001248440144034B101248C40C5
:101E0000460003F54E7545F82640401C0528F1D3E1
:101E100070BD70B5034600200CE0012484401440DE
:101E20003CB140F201148C40460003F5447545F87E
:101E30002640401C0528F0D370BD00002DE9F04776
:101E400004460D461646204600F070FA00287CD065
:101E50002946204600F084F9002877D105EB45019A
:101E600001EBC501706844F8310005EB450101EB59
:101E7000C50104EBC101B068886005EB450101EBC9
:101E8000C50104EBC101F0680861308B05EB450129
:101E900001EBC50104EBC101C86105EB450101EB94
:101EA000C50104EBC10130688861F07E40F44060F8
:101EB00005EB450101EBC50104EBC1010864A7482E
:101EC000844211D1022D0FDA05EB450101EBC5016A
:101ED00004EBC1013069886405EB450101EBC501E4
:101EE00004EBC10170690865308C80BB3068C0F3B9
:101EF0000250012804D03068C0F30250032830D1CA
:101F000096F8220000F0070796F822004FEA201901
:101F100005EB450000EBC50004EBC000406C40EA57
:101F2000C72005EB450101EBC50104EBC101486485
:101F30004A463946204600F033F905EB450000EBF0
:101F4000C50004EBC000006C02E002E1FEE008E026
:101F500020F4806005EB450101EBC50104EBC101F4
:101F60000864B08BA0BB3068C0F30250022804D0D4
:101F70003068C0F3025003282AD1B07F00F0070771
:101F8000B07F4FEA201905EB450000EBC50004EBDC
:101F9000C000406C40EAC71005EB450101EBC501EC
:101FA00004EBC10148644A463946204600F0F8F87F
:101FB00005EB450000EBC50004EBC000006C20F40D
:101FC000006005EB450101EBC50104EBC1010864AC
:101FD0001F2229462046FFF709FFB07E09287DD23F
:101FE000DFE800F005061728394A6B7D9E00A9E05E
:101FF00005EB450000EBC50004EBC000006C40F0B1
:10200000004005EB450101EBC50104EBC10108648B
:1020100098E005EB450000EBC50004EBC000006C48
:1020200040F0804005EB450101EBC50104EBC10127
:10203000086487E005EB450000EBC50004EBC00039
:10204000006C40F0404005EB450101EBC50104EB9D
:10205000C101086476E005EB450000EBC50004EB28
:10206000C000806940F0006005EB450101EBC5014F
:1020700004EBC101886165E005EB450000EBC5009C
:1020800004EBC000006C40F0804005EB450101EB23
:10209000C50104EBC101086405EB450000EBC50078
:1020A00004EBC000806940F0006005EB450101EBE6
:1020B000C50104EBC101886144E005EB450000EB7C
:1020C000C50004EBC000806940F0805005EB45017D
:1020D00001EBC50104EBC101886133E031E005EBA0
:1020E000450000EBC50004EBC000006C40F0004070
:1020F00005EB450101EBC50104EBC101086405EBEB
:10210000450000EBC50004EBC000806940F0805042
:1021100005EB450101EBC50104EBC101886111E04C
:1021200005EB450000EBC50004EBC000806940F002
:10213000C05005EB450101EBC50104EBC10188610D
:1021400000E000BF00BF4FF0000804E04FF00208BD
:1021500001E04FF001084046BDE8F0870040015023
:102160000246D2F8A00301238B40184008B1012099
:1021700070470020FCE70000014B43F82120704726
:10218000786B002010B50446044800F09BFB034820
:1021900000F0F6FB0120C4F8980310BD10000020E9
:1021A00030B503460B4800688D000F24AC40A043B7
:1021B0008C0002FA04F42043064C206005480830E5
:1021C000006801F007050124AC402043014C0834AD
:1021D000206030BD084900502DE9F0470546DFF882
:1021E0003C9100BFD5F860030646002406F01000BD
:1021F000D0B100BF4FF442704059064611E00120B3
:1022000000FA04F806EA080050B1E1B210222846AC
:10221000FFF7ECFD59F824700FB11020B84702E029
:10222000641C002EEBD176E006F00100C8B100BFBF
:10223000D5F8E802064611E0012000FA04F806EAA3
:10224000080050B1E1B20F222846FFF7CFFD59F840
:1022500024700FB10120B84702E0641C002EEBD1BE
:1022600059E006F00200D0B100BF4FF43C70405975
:10227000064611E0012000FA04F806EA080050B111
:10228000E1B20E222846FFF7B1FD59F824700FB1D4
:102290000220B84702E0641C002EEBD13BE006F0C0
:1022A0000400D0B100BF4FF43E704059064611E023
:1022B000012000FA04F806EA080050B1E1B2042255
:1022C0002846FFF793FD59F824700FB10420B84752
:1022D00002E0641C002EEBD11DE006F00800D0B136
:1022E00000BF4FF440704059064611E0012000FA4B
:1022F00004F806EA080050B1E1B208222846FFF7C8
:1023000075FD59F824700FB10820B84702E0641C2D
:10231000002EEBD100BFBDE8F0870000786B0020F5
:1023200010B504462046FFF72DFF10BD70B50546D9
:102330000C4800F031FB80F001042CB1094800F09A
:102340006BF908B9012000E000200446012C07D1F8
:1023500024B1D5F8980308B1012000E0002004461C
:10236000204670BD100000200246506AC84000F0B0
:102370000100704730B58C1000F1100353F8243081
:102380008C07E50EF824AC40A3438D1000F1100437
:1023900044F82530436F4D000324AC40A34343670A
:1023A0001E4B984202D01E4B984205D1036E012469
:1023B0008C40A343036620E053688B404360CC10FD
:1023C00000F1400353F824304C07E50E0724AC40DD
:1023D000A343CD1000F1400444F82530137A4C0794
:1023E000E40EA340CD1000F1400454F825402343EF
:1023F000CD1000F1400444F8253013788C07E40E2A
:10240000A3408D1000F1100454F8254023438D1093
:1024100000F1100444F8253030BD0000008E024861
:10242000008F024801228A40426070474FF4803298
:102430008A40426070474FF480328A404260704761
:1024400003480068034908430149086070470000D9
:102450001447005002000100014908607047000065
:102460000446005010B50E48006820F480300C4936
:102470000860FEF739FA0B49B0FBF1F0401E08493D
:1024800010390968084A114041EA004004491039EE
:1024900008600348006820F400300149086010BD5E
:1024A00014470050A0252600CFFFF0FF00BF1848BA
:1024B000006800F080000028F9D11648006820F07C
:1024C00030001349C439C1F81C0300BF104800682C
:1024D00000F008000028F9D10E481038006840F0DC
:1024E00008000B49C439C1F80C0300BF0848006854
:1024F00000F004000028F9D10820064914390860CA
:1025000000BF00BF024800680028FAD170470000F1
:10251000C44000501C430050034800680349084071
:10252000014908607047000014470050FDFFFEFF9E
:1025300000BF044800680449096801F00101C8406F
:1025400070470000C0FF00201446005038B5044614
:10255000002000F0C1F800F0C1F9E079012806D1AF
:10256000FFF7A4FF00BF00F04FF80028FBD0607A0F
:1025700000F0F0F900BF00BF1B4800680028FAD146
:10258000207A00F05BF8207C00F09AF8607C00F084
:102590007FF8A07C00F070F8E07C00F085F8A0796E
:1025A000012806D1FFF75EFF00BF00F01FF80028EA
:1025B000FBD0E07810B9FFF743FF09E0FFF7ACFF6D
:1025C000A078009023786278E178A08800F0A2F8E3
:1025D000E068B0F5803F03D14FF4803000F07CF824
:1025E000FEF74EFE38BD0000C440005005480068AC
:1025F00000F46070B0F5607F01D1012070470020C9
:10260000FCE700001047005002480068012121EA61
:10261000D00070470043005010B501460A0F21F06A
:102620007043054802EB420450F82400184008B1FA
:10263000012010BD0020FCE74046005010B50446C4
:102640000C48006840F480100A490860012C0DD144
:102650000846006820F480100860642000F0AEF99D
:102660000448006840F4002002490860642000F03B
:10267000A5F910BD144700500449096821F0010173
:10268000421E1143014A116070470000204600506D
:102690000449096821F00101421E1143014A1160F9
:1026A00070470000104600500449096821F00101FC
:1026B000421E1143014A1160704700001446005049
:1026C0000449096821F0FF01421E1143014A1160CB
:1026D000704700000C4600500349096821F480311E
:1026E0000143014A116070470C46005038B908494F
:1026F000096840F201129143054A116006E004495D
:10270000096840F201121143014A1160704700004C
:102710001C4700502DE9F04781468A4617469846E7
:10272000089E4846FFF7E2FFBAF1010F6BD1B9F1FD
:10273000000F06D1FEF7D8F84049B0FBF1F0840550
:1027400001E04FF0C06404FB08F0B0FBF7F4182080
:10275000B4FBF0F0850D3A48006840F001003849BC
:1027600008600846006840F010000860081D006816
:1027700034490840A8F1010140EA0121681E41EAFC
:102780000041781E41EA00602D49091D0860081FBC
:10279000006840F04000091F08600846006820F00B
:1027A000100008600846006840F48020086000BF00
:1027B0002348001F006800F004000028F8D02048DB
:1027C000006820F001001E49086000BF1C48001F7F
:1027D000006800F001000028F8D13C20B4FBF0F0C4
:1027E000850DAE4202D2284600F05AF85A20B4FBBA
:1027F000F0F0850DAE4202D2284600F051F8304686
:1028000000F04EF817E00E48001D006820F07F0031
:10281000711E08430A49091D0860081F006840F03E
:102820000100091F086000BF0548001F006800F094
:1028300001000028F8D0BDE8F087000040420F00FA
:1028400014470050FF8080F0144A126842F00102E1
:10285000124B1A601A46126842F010021A604A1EA1
:102860001302421E43EA02620C4B1A601A461268B7
:1028700042F040021A601A46126822F010021A60F2
:102880001A46126842F480221A6000BF034A121FDF
:10289000126802F00402002AF8D070472447005062
:1028A00010B504460648006820F4FE01601E41EAA7
:1028B000004003490860322000F080F810BD00009D
:1028C0001847005010B5010F20F07042024B01EB89
:1028D000410443F8242010BD4846005010480068C9
:1028E00000F0010050B901200D49091D086000BF2A
:1028F0000B48006800F001000028F9D00948006882
:1029000000F4007058B14FF40070064908310860B7
:1029100000BF0448006800F400700028F9D1704737
:10292000004200500044005000BF0849096801F00F
:1029300008010029F9D10649096821F04001014345
:10294000024AC43AC2F80C1370470000C440005059
:102950000C43005000BF0849096801F00801002934
:10296000F9D10649096821F080010143024AC43ABD
:10297000C2F80C1370470000C44000500C430050D4
:1029800010B5010F20F07042024B01EB410443F8F7
:10299000242010BD1444005010B501460A0F21F048
:1029A0007043054802EB420450F82400184008B177
:1029B000012010BD0020FCE70C44005070B5044617
:1029C000FEF75EFC064800680649B0FBF1F04443A0
:1029D000002501E000BF6D1CA542FBD370BD0000C7
:1029E000C0FF002040420F00026C01F4FE339A4306
:1029F0000264C26B4FF4604303EA41339A43C263FB
:102A00007047C26B22F47F02C263C26B0A43C26387
:102A100070470146D1F80C2102F0E06212B94A6D0C
:102A200090B202E0D1F81C2190B2704770B5044614
:102A30000D46204600F078F8287920B90222204679
:102A4000296800F0E3F8084860634FF4A260A063CF
:102A5000287918B9687940F00B00E0634FF0FF3037
:102A6000E064E888206470BD02013F070146D1F8A8
:102A70000C2102F0E06212B94A6D90B202E0D1F886
:102A80001C2190B2704770B504460D4610262046B2
:102A900000F04AF8E87900B1EE793246204629681C
:102AA00000F0B4F8A879401E4000012101EB560166
:102AB00040EA0120401C40F44030E0632879401E89
:102AC0004FF4817141EA00606063687930B1616BF5
:102AD0006879401E41EA0040606305E0616B287937
:102AE000401E41EA004060634FF4A060A0634FF0D5
:102AF000FF30E0642889206470BDD0F8082102F01E
:102B0000E0626AB900BF00BF826B02F08002802AD7
:102B1000F9D04FF40052C26400BFC0F8801001E049
:102B2000C0F880117047000010B504461048844278
:102B300002D01048844204D10D48083000F0EEF86D
:102B400009E00D48844202D00C48844203D10A486F
:102B5000083000F0E3F80320E06000BFE06800F018
:102B600001000028FAD0206C20F00F00206410BD76
:102B70000000034000020340000002480002024837
:102B8000026C0A43026470470146086D00F4C040BD
:102B90007047000070B5D0F80C4124F0E064C0F834
:102BA0000C4141EA032444EA026444F08054D0F822
:102BB0000C51034E35402C43C0F80C4170BD000051
:102BC000C0C0FFEFD0F80C218A43C0F80C21704739
:102BD00010B5D0F80C3107248C40A34302FA01F45D
:102BE0002343C0F80C3110BDD0F80C3123F0E06362
:102BF000C0F80C31D0F80C3123F47C5343EA0223A3
:102C000043EA0163C0F80C31704700002DE9FF5F13
:102C100005460E461746642E3BD3002F39D0FFF7EA
:102C200087FC6421B0FBF1F003906420B6FBF0F662
:102C300001200290019040F2FF300090044615E020
:102C40000398604306FB07F1B0FBF1F94FEA992ABC
:102C5000C9F3090BBAF5806F07D20098834504D2F7
:102C6000CDF800B0CDF804A00294641E002CE7D18A
:102C7000029840F400402861686909490840791EBB
:102C800040EA81210198401E41EA00406861A04667
:102C900001E04FF00108404604B0BDE8F09F00009D
:102CA000EF8000FC10B5836907248C40A34302FA2F
:102CB00001F42343836110BD70B5D0F8084124F0BE
:102CC000E064C0F8084141EA032444EA0264D0F811
:102CD0000851034E35402C43C0F8084170BD000038
:102CE000C0C0FFF8D0F808218A43C0F80821704717
:102CF00000F5C07343F82210704710B5D0F80831C2
:102D000007248C40A34302FA01F42343C0F808319E
:102D100010BD00F1800343F82210704710B504463F
:102D20000948844206D1C014FFF7CCFDE014FFF738
:102D300027FE08E00548844205D10548FFF7C2FD9B
:102D40000348FFF71DFE10BD0800034008000248BD
:102D50008000001010B50120FFF7B4FD0120FFF73F
:102D60000FFE10BD70B505460C46FFF7F3FF606916
:102D70002860606840F40040C5F88000A068C5F88D
:102D8000A000A420E16841512069C5F880022068B4
:102D9000C5F8B80070BD0000D0F8803043F00043A3
:102DA000C0F88030002110E0094B53F82120D2F800
:102DB000803003F4403333B100BFD2F8803003F0E9
:102DC0008053002BF9D14B1CD9B20429ECD37047A6
:102DD000D43D0108F0B5157BD0F8883001268E402F
:102DE000B34305FA01F63343C0F8883092F90D6019
:102DF000002E1ADB0024012907D10824D0F8B06086
:102E000026F4F856C0F8B06007E031B90024D0F8D5
:102E1000B06026F01F06C0F8B060D0F8B06092F93C
:102E20000D70A7403E43C0F8B06050F8C86F5768B7
:102E30003E430660866897683E438660C83800F562
:102E40000076176846F82170F0BD024602F5407022
:102E500050F8210080B2704738B505460C46002373
:102E60001A462846616800F040F8002301222846EF
:102E7000616800F03AF8012300222846A16800F0BA
:102E800034F801231A462846A16800F02EF820697C
:102E9000C5F88000E068C5F8B80020680090009987
:102EA00001F00701009AC2F3094241EA0240C5F865
:102EB000F0010099C1F300710907009AC2F3816221
:102EC00041EA8261009AC2F3407241EA427000997D
:102ED000C1F3807140EA8170D5F8F01140F00042F2
:102EE0001143C5F8F01100BF38BD2DE9FF4304467A
:102EF0009046B8F1000F0DD108214FF4E065002293
:102F00001F26DDF8049009F01F07DDF80490C9F3CF
:102F1000022C0DE018214FF0E06510224FF4F81656
:102F2000DDF80490C9F30447DDF80490C9F3026C9E
:102F300004F1A00959F82300A8430CFA01F949EA61
:102F40000000B04307FA02F949EA000004F1A009C1
:102F500049F82300BDE8FF83D0F8841021F0807188
:102F6000C0F88410704770B504460D462046FFF740
:102F7000F3FFD4F8846026F003062878C0F38100BC
:102F80000643287800F0030008B146F00806C4F8AC
:102F90008460686840F0802040F40000C4F80001BC
:102FA000A86840F00100C4F80401287800F003008C
:102FB000022805D1D4F8040140F48030C4F804019B
:102FC00000BFD4F8840040F08070C4F8840000BFD3
:102FD00070BD03B50199C0F810110CBD0A46D0F8B8
:102FE000C01121F00F011143C0F8C011704710B596
:102FF00000F52073146843F8214010BD0A46D0F84C
:10300000801021F003011143C0F8801070470028A0
:1030100009DB00F01F02012191404209920002F1F8
:10302000E022C2F800117047002809DB00F01F02FF
:10303000012191404209920002F1E022C2F8001100
:103040007047000002480068C0F30220704700008B
:103050000CED00E010B5002804DB8A06130E054ACB
:10306000135406E08A06140E034A00F00F031B1FD8
:10307000D45410BD00E400E018ED00E010B50028C5
:1030800004DB8A06130E054A135406E08A06140E62
:10309000034A00F00F031B1FD45410BD00E400E0EE
:1030A00018ED00E010B50248FDF711FA10BD000060
:1030B0004439010810B504462146012000F042F8C9
:1030C00010BD000010B5FA20FFF7F4FF08480078A3
:1030D000FA2802DDFA2006490870054800780549FB
:1030E000087000200449088001200449087010BDC0
:1030F000C1020020E6040020D6030020D8030020EF
:103100000C48007838B10B48007801280AD10A48E9
:103110000078012806D103200849087031200849A9
:10312000087005E000200549087051200449087026
:103130007047000013020020E00200204903002035
:1031400048030020034A02F1140343F8201000BF93
:10315000704700000080014810B52C48007900F04D
:103160000F01012088402A490968B1FBF0F04FF4B3
:103170007A71B0FBF1F0B0FBF1F026490860002154
:103180002548FEF7B5FD00BF2348C06840F48070B5
:103190002149C86000BF00211F48FEF71FFE1B49E0
:1031A0001E48FEF7C0FD1A490968C9084FF47A7233
:1031B000B1FBF2F1491E88B21849486300BF0021F3
:1031C0001648FEF7FEFD4FF480501349086100BF1A
:1031D0000320C9680122824011430F4AD16000BF19
:1031E00000BF01200D49C86000BF032200210B4829
:1031F000FEF7BCFD00200949A43109680122824084
:103200001143064AC2F8A41000BF10BD20010020DF
:10321000C0FF00201C01002000400048004400487E
:1032200010B5044600211148FEF7D6FD00BF01206D
:103230000E49C86000BF00210C48FEF76CFD09E094
:1032400000210A48FEF787FD20B100210748FEF75C
:1032500062FD641E002CF3D100210448FEF75BFDE3
:1032600000BF01200149086100BF10BD00440048B3
:1032700070B5044600211E48FEF7AEFD00BF0120D8
:103280001B49C86000BF00211948FEF744FD4FF4F8
:103290007A70B4FBF0F509E000211548FEF75BFDFC
:1032A00020B100211248FEF736FD6D1E002DF3D12E
:1032B0004FF47A70B4FBF0F100FB114400BF002121
:1032C0000B48FEF748FD40B900BF0948006F80B2C7
:1032D0000849096861438842F1D300210448FEF798
:1032E0001AFD00BF01200249086100BF70BD000047
:1032F000004400481C0100200EB5144A07CA8DE89E
:1033000007006A4603211248FFF734F86A460C2189
:103310000F48FFF72FF86A4609210D48FFF72AF8F2
:103320006A4608210A48FFF725F86A46032109483A
:10333000FFF720F86A4607210548FFF71BF86A46A1
:103340000C210548FFF716F80EBD000000390108F2
:1033500000800248008F0248008E024870B58CB091
:1033600004460D464149D1E900028968CDE90A21A8
:10337000099009943D4A0C32D2E900109268CDE9D7
:1033800007020691394A1832D2E900109268CDE955
:1033900004020391354A2432D2E900109268CDE943
:1033A0000102009109A93248FFF76DFB3049002066
:1033B000012201F11C0353F8203023F0500601F1E3
:1033C0001C0343F8206000BF01F11C0353F82030B8
:1033D00023F00703134301F11C0646F8203000BF19
:1033E00000BF00BF0846006C20F00F00801C08647E
:1033F00000BF06AA05211F48FEF7BCFF03AA04214F
:103400001C48FEF7B7FF6A460A211A48FEF7B2FFCA
:10341000B1141748FFF7B4FB4FF480411448FFF78D
:10342000AFFB4FF400411248FFF7AAFB0022114600
:103430000F48FFF737FC012208210D48FFF732FC47
:1034400001220C210A48FFF72DFC29465420FFF7E2
:1034500001FE5420FFF7DBFD29465520FFF7FAFD5A
:103460005520FFF7D4FD0CB070BD0000E436010814
:10347000000003400081024810B50446012C04D12D
:1034800001040948FFF7BDFA0DE0022C04D1A104A4
:103490000548FFF7B6FA06E0032C04D14FF480216B
:1034A0000148FFF7AEFA10BD000203402DE9F047D6
:1034B000A0B004460D469C48FEF732FF69219B4BA5
:1034C0001B68C3F302202E4600270346C3F10709F9
:1034D000B9F1060F02D94FF0060901E0C3F107095F
:1034E000C84603F10609B9F1070F02D24FF00009EF
:1034F00001E0A3F10109CC464FF0010909FA08F9EE
:10350000A9F1010909EA060909FA0CF94FF0010AC3
:103510000AFA0CFAAAF1010A0AEA070A49EA0A02B7
:1035200000BF002904DB9006030E8148435407E0E6
:103530009006060E7D480C3001F00F031B1FC65489
:1035400000BF6920002809DB00F01F020121914023
:103550004209920002F1E022C2F8001100BF2422C9
:10356000744917A8FCF71DFF17AA734801786E4825
:10357000FEF764FC0122704801786B48FEF749FCB5
:103580006E4A6D4801786848FEF7F6FD24226949C5
:1035900024310EA8FCF705FF0EAA6948017862489D
:1035A000FEF74CFC0122664801785F48FEF731FCCB
:1035B000644A634801785C48FEF7DEFD5D494831A6
:1035C00003C9CDE90C010C940CA95F48FFF72EFA52
:1035D00000BF5D48406B40F001005B49486300BF9D
:1035E000082000BF496B21F07062411E42EA016170
:1035F000554A516300BF00BF402000BF1146496BD0
:1036000021F47C12411E42EA01414F4A516300BF3E
:1036100000BF4106002000BF526922F050420A4319
:103620000243494B5A6100BF00BF01201946496956
:1036300021F4FE41421E030243EA82221143424A20
:10364000516100BF11460020032201F11C0353F811
:10365000203023F0400343F0100601F11C0343F82F
:10366000206000BF01F11C0353F8203023F0070352
:10367000134301F11C0646F8203000BF00BF00BF15
:103680000120096C21F00F0101432F4A116400BF92
:1036900000BF284A503207CA09AB07C30020069072
:1036A00007900890234A5C3207CA03AB07C3214A3C
:1036B000683207CA8DE8070006AA00212348FEF7F2
:1036C00059FE09AA09212248FEF754FE03AA0A213D
:1036D0001E48FEF74FFE6A4603211E48FEF74AFECB
:1036E0004FF480311848FFF78CF900220421164866
:1036F000FFF7D8FA012208211348FFF7D3FA012275
:103700000C211148FFF7CEFA022210210E48FFF7D4
:10371000C9FA00204FF4803181400B4A916600BF06
:1037200020B0BDE8F0870000004001500CED00E043
:1037300000E400E08037010818010020ED2E0108A8
:1037400019010020C92E0108000202480080024829
:103750000081024800830248F0B5A1B004460D463E
:10376000744903C9CDE91F011F941422714908311E
:103770001AA8FCF716FE142115A8FCF744FE142223
:103780006C491C3110A8FCF70CFE14226949303139
:103790000BA8FCF706FE14226649443106A8FCF784
:1037A00000FE14226349583101A8FCF7FAFD1FA955
:1037B0006148FFF73BF900BF5F48406B40F00100F4
:1037C0005D49486300BF082000BF496B21F070626B
:1037D000411E42EA0161584A516300BF00BF00BF69
:1037E00000BF1146496B21F47C12411E42EA01419F
:1037F000514A516300BF00BF0021084600BF526913
:1038000022F050420A4302434B4B5A6100BF00BFB3
:1038100002201946496921F4FE41421EC30143EAD0
:1038200082221143444A516100BF15AA0221434834
:10383000FEF7A0FD40490020024601F11C0353F8A9
:10384000203023F0400343F0100601F11C0343F83D
:10385000206000BF01F11C0353F8203023F0070360
:10386000134301F11C0646F8203000BF00BF00BF23
:103870000120096C21F00F0101432F4A116400BFA0
:1038800000BF1AAA05212E48FEF774FD10AA0621D2
:103890002B48FEF76FFD0BAA01212948FEF76AFDB0
:1038A00006AA0D212748FEF765FD01AA0E2125482D
:1038B000FEF760FD002210211F48FFF7F3F90123F6
:1038C000052220211C48FFF7F7F9032210211A488E
:1038D000FFF713FA0023052219461748FFF75AF994
:1038E000052210211448FFF773F90522132112480D
:1038F000FFF76EF9FFF7A6FB074600222946FCF703
:10390000D3FF064631465720FFF7B8FB5720FFF795
:103910008BFBFFF797FB074600222946FCF7C4FF05
:10392000064631465920FFF7A9FB5920FFF77CFBDB
:1039300021B0F0BD143701080002034000820248A4
:10394000008302480081024870B50446FFF7D4FCAA
:1039500000213348FEF7CCF900BF3148C06840F47D
:1039600080702F49C86000BF00212D48FEF736FA4D
:103970002C492D48FEF7D7F92C490968C9084FF49E
:103980007A72B1FBF2F1491E88B22749486300BF41
:1039900000212548FEF715FA4FF480702049086190
:1039A00000BF022200212048FEF7E0F900201E4956
:1039B000A43109680122824011431B4AC2F8A410B5
:1039C00000BF3A202146002804DB8A06130E184A5D
:1039D000135406E08A06150E164A00F00F031B1F4B
:1039E000D55400BF3A20002809DB00F01F02012156
:1039F00091404209920002F1E022C2F8001100BF9A
:103A000002200749C968012282401143044AD1605B
:103A100000BF00BF01200449C86000BF70BD0000A6
:103A2000004000488801002000430048C0FF0020FB
:103A300000E400E018ED00E0F0B50025544EB6F9C2
:103A40000000544E3678012E02DB534EB6F90000CA
:103A5000642690FBF6F630B2504EB6F90060002EA8
:103A600003DB4E4EB6F9006003E04C4EB6F9006041
:103A70007642B3B24A4EB6F90060002E03DB484EE0
:103A8000B6F9006003E0464EB6F900607642B4B283
:103A9000444E365C444F3E70444E36F8106031B2AE
:103AA000434E365C434F3E70434E36F8106032B2A0
:103AB0003D4E3678414F3F783E443B4F3E70404E3E
:103AC000365C3F78BE4204DC3D4E365C761E364F97
:103AD0003E70354E3678062E02DA0626324F3E709C
:103AE000344E3678374F3F783E44324F3E70344E36
:103AF000365C3F78BE4204DC314E365C761E2D4F7C
:103B00003E702C4E3678062E02DA0626294F3E707D
:103B10002D4E36880E4431B20A2900DA0A21B1F559
:103B2000AF7F01DD4FF4AF71284E3688164432B2B4
:103B30000A2A00DA0A22B2F5AF7F01DD4FF4AF7234
:103B40003BB9002C05DD11461A4E3678164F3E70F3
:103B500007E034B9002B04DD0A46134E3678154FC2
:103B60003E70914201DD154600E00D468E0036B2F2
:103B7000174F3E80960036B2164F3E80B5F5AF7FA8
:103B800001DD4FF4AF75AE0036B2134F3E80F0BD8D
:103B90003405002003030020C20300202E02002071
:103BA00030020020B23D0108AE020020703D010845
:103BB0004E3D0108AF0200200C3D0108C304002067
:103BC000EA3C0108C4040020C8040020CA04002004
:103BD000B0020020B2020020AA020020194AB2F965
:103BE0000020002A03DB174AB2F9002003E0154A3F
:103BF000B2F900205242D0B2134AB2F90020002A92
:103C000003DB114AB2F9002003E00F4AB2F90020A9
:103C10005242D1B2884202DD0C4A108001E00B4AC8
:103C200011800A4AB2F900203F2A02DD3F22074BE9
:103C30001A80064AB2F90020022A02DA0222034B55
:103C40001A8070472E02002030020020D40300208A
:103C50002DE9F14F8DB001200A90002004900390CF
:103C6000F848B0F9000002900020019008900790F9
:103C70008246F54908700B90F448D0F80090002671
:103C8000D0E199F80000142878D007DC082876D213
:103C9000DFE800F075FDFCFBFA13F9F821286FD07E
:103CA00006DC1B286DD01D2810D01F2867D130E1FD
:103CB000412867D06128F9D150E1E348007820B964
:103CC0000120E1490870F0B2099054E199F801002F
:103CD00002280DD0032802D0062808D123E0DA48B4
:103CE000007820B90120D8490870F0B20990FFE0AF
:103CF00099F902000490D64801880498084400B25B
:103D000003900398502801DD502003900398002869
:103D100001DA00200390DDE90210401A00B20190A0
:103D200003980290E4E0CB48007800287DD199F810
:103D3000020000B9DCE0042EF8D10120C54908706A
:103D40000020C54908700920C4490870002706E012
:103D5000C348008BC34921F81700781C87B20A2F8B
:103D6000F6DBC14890F83000642110FB01F0BD493A
:103D7000088199F9020006280AD204E0C6E0F9E0B9
:103D8000EEE0D4E0EBE0DFE800F0B10304153669C3
:103D9000ACE0B54890F87300642110FB01F0B14924
:103DA000C880B14890F87300642110FB01F0AD4960
:103DB00048819BE0AC4890F87400642110FB01F04E
:103DC000A8498880A84890F87300642110FB01F08E
:103DD000A449C880A44890F87300642110FB01F046
:103DE000A0494881A04890F87400642110FB01F0BC
:103DF0009C4988817AE09C4890F87500642110FB0A
:103E000001F098494880984890F87400642110FBAC
:103E100001F094498880944890F87300642110FB65
:103E200001F09049C880904800E060E090F873008D
:103E3000642110FB01F08B4948818B4890F8740095
:103E4000642110FB01F087498881874890F875004C
:103E5000642110FB01F08349C88147E0824890F853
:103E60007600642110FB01F07E4908807E4890F8BE
:103E70007500642110FB01F07A4948807A4890F877
:103E8000740005E044E042E03FE051E032E068E0E9
:103E9000642110FB01F073498880734890F8730027
:103EA000642110FB01F06F49C8806F4890F87300DF
:103EB000642110FB01F06B4948816B4890F8740055
:103EC000642110FB01F067498881674890F875000C
:103ED000642110FB01F06349C881634890F87600C3
:103EE000642110FB01F05F49088200BF00BF00BFE2
:103EF00000BF40E05448007830B9012052490870B2
:103F0000F0B2099001200A9035E000BF00BF00BF69
:103F100000BF4D48007848B901204B490870F0B205
:103F2000099052480078012800D10A9023E000BF90
:103F30004846FCF781FC08904846FCF78DFC07904A
:103F40004148007848B901203F490870F0B2099013
:103F500047480078012800D10A900CE000BF00BF5C
:103F600000BF4846FCF768FC08904846FCF774FC24
:103F7000079000E000BF00BF09F104093D48007848
:103F8000012804D13C48814501D3DFF8F09008981E
:103F9000002804DB3A49089831F8105004E0384909
:103FA0000898404231F810500798002806DB344941
:103FB000079831F81000284485B206E03049079888
:103FC000404231F81000284485B2002707E02C4811
:103FD00030F81700A84200DB03E0781C87B2FF2FFF
:103FE000F5DD00BF3D460EB926480780554500DD8A
:103FF000AA46019840B2002802DB019840B202E0D4
:10400000019840B24042C0B20C90DDE90B108842EA
:1040100001DD0C980B900C480078012800D106E0D7
:10402000701C06B2184800788642FFF62AAE00BF20
:104030001648007840B200282ADB1448007840B2C5
:104040002AE00000CC0300209D020020D4010020C3
:10405000CA030020710400207204002070040020B4
:10406000E40600204E660020706600200304002055
:104070000204002073040020C86400200807002008
:10408000EC390108FA030020DF040020C8030020F7
:10409000FA48007840B240420B9988420EDDF7485A
:1040A000007840B2002803DBF448007840B203E017
:1040B000F248007840B24042C0B20B90F048008B0A
:1040C000F0490880BAF17F0F01DD4FF07E0ABAF1A6
:1040D000000F01D14FF0010A0A209AFBF0F080B2E4
:1040E0000590E948007801286FD10D2005900998C6
:1040F000052830D2DFE800F00330557B8800E34824
:104100000078A0B1DE48B0F91800E149098801EB58
:1041100081014900884206DBDD48008800EB800011
:104120004004040C17E0D748008884B213E0D44858
:10413000B0F91800D749098801EB8101490088428C
:1041400006DBD448008800EB80004004040C02E049
:10415000CC48008884B264E0CC480078A0B1C8485C
:10416000B0F91800CA49098801EB81014900884269
:1041700006DBC748008800EB80004004040C0FE019
:10418000C048008884B20BE0BD48B0F91800B0F513
:10419000C87F02DB4FF4C87402E0BA48008884B2DA
:1041A0003FE0BA480078A8B1B548B0F91800B8495E
:1041B000098801EB81014900884207DBB448008887
:1041C00000EB80004004040C10E02BE0AD480088B8
:1041D00084B20BE0AA48B0F91800B0F57A7F02DB90
:1041E0004FF47A7402E0A748008884B219E0A4482A
:1041F000B0F91800B0F5C86F02DB4FF4C86402E0F4
:10420000A048008884B20CE09D48B0F9180040F640
:104210009801884201DB0C4602E09A48008884B28B
:1042200000BF88E0AAF101009B4931F810409B488B
:104230000078032805D19A480088844201DD984817
:1042400004889848007800EBC00101EB0010964903
:10425000B1F90010B1EB800F06DD924800786421BF
:1042600010FB01F0904908808E48007800EBC001F7
:1042700001EB0010B4EB800F04DD8A480078642164
:1042800010FB01F48848B0F90000A04222DD7D480F
:10429000B0F90000A0420EDD7A480088001B0FFA3A
:1042A00080F840F2DC50804545DD76480088A0F279
:1042B000DC5084B23FE073480088201A0FFA80F87F
:1042C00040F2DC50804536DD6E48008800F2DC505C
:1042D00084B230E06B48B0F900007349B1F90010C6
:1042E000884214DD674800886F490988401A0FFA30
:1042F00080F840F2DC50804505DD62480088A0F27D
:10430000DC5084B217E06848008884B213E0664845
:1043100000885C490988401A0FFA80F840F2DC50A6
:10432000804505DD5748008800F2DC5084B202E089
:104330005D48008884B25D48007801282DD1059839
:104340000D2803D15A480078012826D15948007811
:1043500000281FDD0D98012804D156480078401E22
:104360005449087054485549097830F811000690AE
:104370000698C82801DAC82006900698844200DD15
:10438000069C0D98012808D14C480078401C4B49E8
:10439000087002E0002045490870494890F8720012
:1043A000012848D147480088122843DA4548008848
:1043B00012283BD2DFE800F03A090B0D1013161952
:1043C0001C1F2225282B2E313437C8252EE0C82566
:1043D0002CE04FF4C87529E04FF4167526E04FF431
:1043E000487523E04FF47A7520E04FF496651DE0A0
:1043F0004FF4AF651AE040F2DC5517E040F2A465D7
:1044000014E04FF4FA6511E040F634050EE040F692
:1044100098050BE040F6FC0508E04FF4166505E052
:1044200040F6C41502E040F6282500BF00BFAC42AC
:104430007ADD2C4678E023480088062874DA214883
:104440000088062865D2DFE800F064030E434E5969
:104450001D480078642110FB01F540F2DC508542D4
:1044600000DD054656E019480078642110FB01F58F
:1044700040F6B830854200DD05464BE0C803002019
:10448000E4060020B60200209D020020B5040020B2
:1044900042050020EA020020EC3B0108E80300206E
:1044A000AE05002082030020C80200207104002015
:1044B00036050020700400204E66002072040020A3
:1044C0007066002028020020DA020020DB020020B3
:1044D0004E480078642110FB01F540F6B830854263
:1044E00000DD054616E04A480078642110FB01F51E
:1044F00040F6B830854200DD05460BE045480078BF
:10450000642110FB01F540F6B830854200DD054618
:1045100000E000BF00BF40480078012801D12C46D0
:1045200002E0AC4200DD2C4605980D281ED03B4829
:1045300090F8720018B93A480088052808DC374816
:1045400090F87200012811D13548008811280DDD3E
:104550003448007850B934480078824506DC334846
:104560000078032802D03248008884B220B2314952
:10457000088005980D283CD02F480078012830DBB2
:10458000642094FBF0F02D49085C2D4908702A48FE
:104590000078012808D12B48007800EB400040F259
:1045A0005911A1EB400B07E02748007800EB4000D1
:1045B00040F25911A1EB400B2148007800EB40007C
:1045C00000904FF4FA700BFB00F10098B1FBF0FB88
:1045D0000BF132006421B0FBF1F000FB01FB1FFA8C
:1045E0008BF41448B0F90000844202DD11480088C1
:1045F00084B20D98012805D120B21449088320B255
:10460000134908800EB0BDE8F08F0000DC020020E6
:10461000DD020020DE02002054020020706600202F
:104620002802002071040020B3030020E8030020CA
:10463000C8020020C203002003030020B23D01088D
:10464000AE0200200503002006030020E40600203F
:10465000340500200F480078012800D170470E482B
:10466000007820B90D48007888B90120F6E70C4899
:10467000007820B90948007848B90120EEE70748DA
:10468000007820B90748007808B90120E6E7002043
:10469000E4E70000E0020020750300201302002080
:1046A0003104002014020020014601207047000060
:1046B00010B545F2555112200CF0FCFD054800885C
:1046C00041F23421884201D1012400E00024204637
:1046D00010BD0000FA050020174800886FF009019E
:1046E00010FB01F01549B1F90010884220DC144894
:1046F000B0F9000000EB800040001049B1F9001053
:10470000884215DB0F4800886FF0090110FB01F0AB
:104710000D49B1F9001088420ADC0C48B0F90000DC
:1047200000EB800040000849B1F90010884201DA2E
:10473000012070470020FCE7EE0200202A02002042
:10474000F0020020F40200202C020020F2020020DF
:1047500005480078152806D0002004490870024852
:10476000007803490870704774020020420200205C
:10477000D001002070B50020FA490870FA4800788E
:10478000042800D170BDF9480078012802D100202A
:10479000F6490870F6480078012802D102F02AF89C
:1047A00041E2F4480078012876D1F34800780028E7
:1047B00073D0F248007800283ED1F148007848B91B
:1047C0000020F04908800120ED4908700020EE49E2
:1047D00008807BE0EB4800884EF66021884275DB5C
:1047E0000020E8490880E9480088401CE749088023
:1047F000084600883C2869DBE3480088401CE24901
:10480000088008460088E249097888425EDB00207B
:10481000D94908700DF04EF801E00AF0EFFFD148D9
:1048200040780028F9D004F071FC962001F0F0F8EF
:104830000020D349087049E0D148007848B90020E9
:10484000D04908800120CE4908700020CE49088058
:104850003CE0CC480088B0F57A7F37DB0020C949BE
:104860000880C9480088401CC7490880084600885D
:10487000C7490978884229DB0DF01CF80020C2499D
:104880000880BF49087001E00AF0B8FFB5484078D9
:104890000028F9D000240BE0DCE085E04FF47A70CA
:1048A00001F0B6F8B448007800B905E0601C84B2A5
:1048B000B24800788442F1DB00BF0020B149088093
:1048C0000120AF4908700020AF490880A548407812
:1048D000012868D1A8480078002864D0AD48007845
:1048E000012804D103F033F90020AA490870AA492D
:1048F000087804F0B9FBA0480078202802DD2020C9
:104900009D490870002440E014B9A448057812E0DD
:10491000012C02D1A24805780DE0022C02D1A14859
:10492000057808E0032C02D19F48057803E0042CA9
:1049300001D19E48057890480078854207DB8E4873
:104940000078642110FB01F08649088304E06420AC
:10495000684300B2834908830A2001F059F801E056
:104960000AF04CFF7F48B0F914001028F8DA01E093
:104970000AF044FF7B48B0F914001028F8DB7E48A9
:10498000007800B903E0601C84B2052CBCDB00BFDA
:10499000794800780028A0D077480078642110FB7F
:1049A00001F0704908833EE16E4840780028FAD152
:1049B00000243FE06B48B0F91800B0F5966F02DCB8
:1049C0000CF078FF38E06748B0F91800B0F5E16FF7
:1049D00004DA4FF47A706349088316E06148B0F94D
:1049E000180040F6C411884204DA4FF4C8605D49EB
:1049F00008830AE05B48B0F9180040F6C411884209
:104A000003DB40F6FC00574908830F2001F000F853
:104A100001E00AF0F3FE5348B0F914001028F8DA68
:104A200001E00AF0EBFE4F48B0F914001028F8DB63
:104A3000601C84B2052CBDDB00BF01E00AF0DEFE85
:104A4000484840780028F9D004F060FB962000F038
:104A5000DFFFE8E048480078002868D04148407807
:104A60000128A0D14B480078012804D103F06FF849
:104A70000020484908704849087804F0F5FA3E4893
:104A80000078202802DD20203B490870002440E007
:104A900014B94248057812E0012C02D1404805784B
:104AA0000DE0022C02D13F48057808E0032C02D12A
:104AB0003D48057803E0042C01D13C4805782E4898
:104AC0000078854207DB2C480078642110FB01F058
:104AD0002449088304E06420684300B22149088324
:104AE0000A2000F095FF01E00AF088FE1D48B0F9A9
:104AF00014001028F8DA01E00AF080FE1948B0F935
:104B000014001028F8DB1C48007800B903E0601C92
:104B100084B2052CBCDB00BF1748007800B31648F0
:104B20000078642110FB01F00E4908837BE00D48FA
:104B30004078A8B9002467E00A48B0F91800B0F539
:104B4000966F02DC0CF0B6FE60E00648B0F9180083
:104B5000B0F5E16F2CDA4FF47A70024908833EE039
:104B600061E00000E4060020D00100201C020020CB
:104B700013020020300500204003002034030020F1
:104B8000090500203A050020060500203C0500200C
:104B900014050020DD030020CA030020DA020020F3
:104BA000DB020020DC020020DD020020DE0200200B
:104BB0003348B0F9180040F6C411884204DA4FF4C3
:104BC000C8602F4908830AE02D48B0F9180040F664
:104BD000C411884203DB40F6FC00294908830F20FA
:104BE00000F016FF01E00AF009FE2548B0F91400B4
:104BF0001028F8DA01E00AF001FE2148B0F91400AB
:104C00001028F8DB601C84B2052C95DB00BF01E0A6
:104C10000AF0F4FD1A4840780028F9D004F076FA3A
:104C2000962000F0F5FE1748007801281BD10420DB
:104C3000154908701549087002201349488016204C
:104C4000134908700020134908700CF033FE01E08E
:104C50000AF0D4FD0A4840780028F9D004F056FA4A
:104C6000962000F0D5FE09480078162806D00020CE
:104C700009490870054800780349087000BF81E5BC
:104C8000E406002055030020D0010020740200201B
:104C9000C2020020400300204202002010B56048FC
:104CA00000780D2815D2DFE800F0AA07152232405F
:104CB0004D5A6774818E9C0004200EF015FA5948F5
:104CC000008800F0A5FE04200EF00DFA00205449E3
:104CD000087094E001200EF007FAC82000F098FE5A
:104CE00001200EF000FA00204D49087087E04E4880
:104CF0000078012802D101F0FFFC01E001F04EFD37
:104D0000C82000F085FE00204549087077E047483C
:104D10000078012803D1002004F0A6F901E004F096
:104D2000F5F900203E49087069E0FF20FEF7C2F95E
:104D3000C82000F06DFE0020FEF7BCF900203849C5
:104D400008705CE00D200EF0CFF9C82000F060FE86
:104D50000D200EF0C8F90020314908704FE00F20F7
:104D60000EF0C2F9C82000F053FE0F200EF0BBF980
:104D700000202B49087042E010200EF0B5F9C82041
:104D800000F046FE10200EF0AEF900202449087015
:104D900035E011200EF0A8F9C82000F039FE1120EE
:104DA0000EF0A1F900201E49087028E012200EF034
:104DB0009BF9C82000F02CFE12200EF094F9002080
:104DC000174908701BE013200EF08EF9C82000F080
:104DD0001FFE13200EF087F900201149087008709B
:104DE0000DE014200EF080F9C82000F011FE142010
:104DF0000EF079F900200A490870087000BF00BF62
:104E00000020074908700A480078172806D00020BB
:104E100008490870064800780749087010BD00006E
:104E20004103002010020020130200201502002080
:104E30007402002042020020D001002010B52E484C
:104E40000078042800D110BD2C48007820B901F06A
:104E5000D1FC0220294908702948007801280FD187
:104E600000202849087002F07BFC182026490870B1
:104E700000202349087001F0BDFC322000F0C8FD7D
:104E800022480078032804D100202049087002F04D
:104E900069FC1E48007802280AD100201B490870CE
:104EA0001B48007810B901F0D1FC01E001F0A2FC30
:104EB0001848007888280BD11748007800F0F000D7
:104EC00030B1154800781349087001201349087063
:104ED000104800780CF0C8FE0020114908701148F5
:104EE0000078182805D0002008700E480078024984
:104EF000087000BFA7E70000D001002020020020BA
:104F00001C020020F2030020C20200200402002044
:104F1000130200204B0300204C0300204D0300200F
:104F2000420200207402002005480078192806D0AB
:104F3000002004490870024800780349087070474F
:104F40007402002042020020D001002010B5124857
:104F50000078012804D102F0FAFD00200E49087003
:104F60000E48007801280BD10D480078022804D1A2
:104F700001F0C2FBC82000F04BFD002004F074F8E3
:104F8000084800781A2806D000200749087005480C
:104F900000780649087010BDDD03002015020020CE
:104FA000FE0200207402002042020020D0010020F6
:104FB00010B594480078042803D100209249087065
:104FC00010BD92480078012802D100208F49087056
:104FD0008F480078012826D18E48B0F900000028BB
:104FE00004DA8D49087804F03FF814E08948008815
:104FF000512808D100F0E8FD04460CB901F066F92B
:1050000004F084F807E0C82000F002FD8148B0F900
:10501000000004F02BF8782000F0FAFC00207C4916
:105020000870794908707D48007801280CD100F09B
:10503000CBFD04460CB901F049F9472077490870C7
:1050400000207149087018E074480078A8B97448C5
:105050000078012809D17049087804F005F89620F5
:1050600000F0D6FC00206B49088004F0FDFD4720CD
:105070006A4908700020644908706A48007803286B
:1050800015D100206749087000F09EFD04460CB958
:1050900001F01CF902F05BFD002063490870FF205D
:1050A000624908706248008800B25A4908805F4827
:1050B000007805286ED2DFE800F003172C41560077
:1050C00002F045FDE62000F0A3FC5A48B0F90000CC
:1050D00050490880002054490870FF205349087047
:1050E00000204949087056E0472003F0BFFFE62042
:1050F00000F08EFC4F48B0F90000464908800120BE
:1051000049490870FF204949087000203E4908704D
:1051100041E0232003F0AAFFE62000F079FC454897
:10512000B0F900003B49088002203F490870FF2089
:105130003E4908700020344908702CE0002003F03C
:1051400095FFE62000F064FC3A48B0F900003149D0
:105150000880032034490870FF203449087000207B
:105160002949087017E02C48B0F9000003F07EFFD1
:105170001E2000F04DFC2F48B0F9000025490880A2
:10518000042029490870FF202849087000201E4982
:10519000087000E000BF00BF2748007810B1012868
:1051A0001CD10DE00121881E04F02AFD012000F031
:1051B0002FFCFF20204908700020134908700EE0E2
:1051C0000121084604F01CFD012000F021FCFF2015
:1051D0001949087000200C49087000E000BF00BFAA
:1051E000142000F015FC00200749087013480078CF
:1051F0001B2805D00020087010480078014908706D
:1052000000BFDDE6D0010020420200201C02002089
:10521000D9030020CC030020CA030020590200203B
:105220001502002004020020460300204503002050
:10523000C60300201602002047030020740200204D
:10524000054800781C2806D0002004490870024850
:105250000078034908707047740200204202002061
:10526000D001002000200449088004490880044936
:105270000870044908807047E8050020EA0500200E
:1052800042040020EC05002070B50020D5490880BC
:10529000D54908800025D5490870D5490870D549F9
:1052A0000870D5490870D5490870D5490870D549A6
:1052B0000870D5490870D5490870D5490870D54996
:1052C0000870D5490870D5490870D5490870D54986
:1052D000087083E1D4480068D4490968884207D13E
:1052E000D3480078012803D00120C049087076E136
:1052F00000F0C6FCBD480078012800D16FE1CA4823
:10530000006800780D282FD00ADC0D2876D2DFE85F
:1053100000F075F11FF02446565B7575753D34003D
:105320001F2810D008DC142841D01B2867D01C2867
:105330006FD01D2862D14CE021286BD041286AD063
:105340006128F7D10AE10120B1490870012541E146
:105350000120A949087001253CE10120A7490870F6
:10536000B4490870012535E10420B34908700120D3
:10537000AA490870B14908702CE10320AE490870B1
:105380000120A6490870AD49087023E10220AA490E
:1053900008700120A1490870A84908701AE101208D
:1053A000A54908709D490870A449087012E10120C0
:1053B0009249087002209F49087001250AE10120E6
:1053C0008F490870012505E101208F4908700125EA
:1053D00000E19548006840780A286FD2DFE800F0C5
:1053E00005101C3D6E6E476E6E490520924908708F
:1053F00001208A490870914908705FE0E9E098E06F
:1054000006208D4908700120844908708B49087076
:1054100054E055E0A4E0A2E08348006890F902005F
:1054200087490880874800880988084400B286496F
:1054300008800846B0F90000502801DD502008809F
:105440008148B0F90000002802DA00207E49088077
:10545000012074490870012530E001206B49087073
:1054600071480068807879490870012526E0012597
:1054700024E07748007801281FD16B48006890F934
:10548000030004026848006890F902000443714870
:10549000007820447049087008460078FF2801DD34
:1054A000FF2008706C4800786C4908706C48B0F9AF
:1054B0001800002801DDFDF705FE00BF00BF89E0F0
:1054C00059480068407830B1012814D002281BD018
:1054D00003282BD121E05448006890F90200C0F164
:1054E00009006049087001205F4908704049087050
:1054F0001CE022E035E00120464908704A48006877
:1055000080785A49087011E00120434908704648E4
:10551000006880785649087008E043480068807841
:105520005449087001203749087000BF00BF0125A9
:1055300050E001204C49087000BF3B480068FBF771
:105540007BF92849088038480068FBF785F9264927
:10555000088001202649087001253BE000BF00BFFC
:1055600000BF31480068FBF767F91E4908802E48E4
:105570000068FBF771F91C49088001201D4908707B
:105580000125294800680078612804D13A4800784C
:105590003A4908701CE0244800680078412804D18A
:1055A000374800783549087012E01F4800680078D5
:1055B000212804D1334800783049087008E01A489F
:1055C00000680078012803D12F4800782B49087023
:1055D00000E000BF00BF012D00D100E07AE600BF6F
:1055E00070BD00002E02002030020020A102002029
:1055F0008B020020830200208C02002098020020F1
:105600008902002056020020540200207D02002062
:105610009A020020910300209303002095030020AC
:1056200082020020CE030020D4010020D8010020F7
:10563000730400209902002096030020E00300205C
:1056400068050020CA030020CC030020320500209A
:10565000E5040020E7040020E9040020C102002046
:10566000E40600208A030020880200209203002024
:105670009403002057020020F6020020820300203D
:10568000F8020020F9020020F702002010B50B48B4
:10569000007800B910BD0120094908700948B0F927
:1056A00000100948B0F9000001F0C8FF00200449CB
:1056B00008700649087000BFECE7000022030020D4
:1056C000420200203802002036020020230200207F
:1056D0002DE9F04100209A490880FFF7D5FD99484F
:1056E0000078012806D10020964908709649087074
:1056F000BDE8F08195480078012865D1944800788C
:10570000012807D19348007820B903F0FFFC6420FA
:1057100000F07EF99048007801280AD18D48007881
:10572000012806D18D49087803F09EFC642000F022
:105730006FF98B480078012846D18A4800888A4949
:1057400008808A480468241F21E020781D281DD184
:10575000607802281AD194F90200854908808548AA
:1057600000880988084400B2834908800846B0F9D7
:105770000000502801DD502008807F48B0F900006B
:10578000002802DA00207C49088004E0241F7648C3
:1057900000880028D9DC00BF7348008820B975480C
:1057A000B0F90000744908807348B0F900006B49F3
:1057B00008807148B0F9000003F058FC00206849E7
:1057C0000870C82000F024F96348007801287DD1D2
:1057D0006A4908706A4800886A490988401A00B214
:1057E000674908806848008868490988401A00B2FB
:1057F000654908806348B0F90000002803DB614870
:10580000B0F9000003E05F48B0F90000404285B203
:105810005E48B0F90000002803DB5C48B0F90000E6
:1058200003E05A48B0F90000404286B2B54201DDBB
:105830002F4600E0374607B90127FEF7CFF90020D1
:105840005349087053490870002D0DDD3C4800781D
:105850004F4908704B480088404200B204F0B0F94C
:105860004FF4C87000F0AAF9002E09DD3448007822
:105870004849087045480088404200B204F0B0F939
:105880004348007843490978884204DD404800785D
:105890002B49088003E03F48007829490880002010
:1058A0002B4908702C4908703B480078012802D128
:1058B00000202549087000203849087038480088C1
:1058C000401E374908804FF0000807E00EE0012035
:1058D00000F09EF808F101001FFA80F81848B0F9AE
:1058E00000008045F3DB0020244908702D48007833
:1058F000012804D105F078FA00202A4908702A48C6
:10590000007801280FD02948007801280BD02848BA
:105910000078012807D027480078012803D02648BE
:10592000007801280AD100201F4908701F4908701B
:105930001F4908701F4908701F49087000BFD7E64B
:10594000D4030020A1020020490300202B040020E2
:105950008B0200201502002083020020DE030020BD
:10596000CE030020760400207A040020D401002019
:1059700068050020CA030020CC0300206F0200202D
:105980002A0200202E0200202C02002030020020DB
:10599000AE020020AF0200201605002042020020C7
:1059A0005E0200207D0200208C020020890200207F
:1059B000560200205402002098020020704770B563
:1059C00003460C461046002113E033F81160704086
:1059D00000250AE000F0010626B141F2210686EA20
:1059E000600000E040106E1CB5B2102DF2DB4E1CC2
:1059F000B1B2A142E9DB70BD08B50021009103E01E
:105A000000BF0099491C009100998142F8D308BD5C
:105A100070B504462646002506E00120FDF700FC8F
:105A200009F0ECFE681C85B2B542F6DB70BD0000E3
:105A300010B55D48007801285ED15C4800880128D7
:105A400018D15B4800880E2802DD0E2058490880D6
:105A500057480088401E56490880098801EB4102DA
:105A6000C2EBC11142F22832A2EB810188B200F0F0
:105A7000A5F834E04D480088022818D14C48008829
:105A8000102802DD10204A49088049480088401E3D
:105A900047490880098801EB4102C2EBC11142F27B
:105AA0002832A2EB810188B200F088F817E0404864
:105AB0000088112802DD11203D4908803C480088FB
:105AC000401E3B490880098801EB4102C2EBC1112D
:105AD00042F22832A2EB810188B200F06FF834481C
