:020000040800F2
:10000000A0B90020E9020008F5020008F502000886
:10001000F5020008F5020008F502000800000000E3
:10002000000000000000000000000000F5020008D1
:10003000F502000800000000F5020008F5020008C3
:10004000F50200080D180008F5020008F502000886
:10005000F5020008F5020008F5020008F5020008A4
:10006000F502000800000000000000000000000091
:10007000F502000800000000F5020008F502000883
:10008000F5020008F5020008C14C0008F50200085E
:10009000F5020008F5020008F5020008F502000864
:1000A000F5020008F5020008F5020008F502000854
:1000B000F5020008F5020008F5020008F502000844
:1000C000F5020008F5020008F5020008F502000834
:1000D000F5020008F5020008F5020008F502000824
:1000E000F5020008F5020008F5020008F502000814
:1000F000F5020008F5020008CD0A0008F502000824
:10010000F5020008F5020008F5020008F5020008F3
:10011000F5020008F5020008F5020008F5020008E3
:10012000F5020008F5020008690C0008F502000855
:10013000F5020008F5020008F5020008F5020008C3
:10014000F5020008F5020008F5020008F5020008B3
:10015000F5020008F5020008F5020008F5020008A3
:10016000F5020008F5020008F5020008F502000893
:10017000F5020008F5020008F5020008F502000883
:10018000F5020008F5020008F5020008F502000873
:10019000E14B00083D4C0008F5020008A14C0008A6
:1001A000F5020008A34C0008A54C0008A94C000863
:1001B000F5020008F5020008F5020008F502000843
:1001C000000000000000000000000000000000002F
:1001D0000000000000000000F50200080000000020
:1001E000F5020008CD1C000800000000F502000820
:1001F00000000000000000000000000000000000FF
:1002000000F002F800F060F80AA090E8000C8244C8
:100210008344AAF10107DA4501D100F055F8AFF2A5
:10022000090EBAE80F0013F0010F18BFFB1A43F0D4
:1002300001031847C4BF0100E4BF010010F8013BEF
:100240000A4413F0030408BF10F8014B1D1108BF46
:1002500010F8015B641E05D010F8016B641E01F8F4
:10026000016BF9D1002D15D010F8014B03F00C03F0
:100270000C2BA1EB04040ABF10F8013BA4EB831480
:10028000A4EB032405F1010314F8016B5B1E01F8D4
:10029000016BF9D5914238BF10F8013BD1D37047BB
:1002A0000023002400250026103A28BF78C1FBD87F
:1002B000520728BF30C148BF0B6070471FB51AF006
:1002C000D1FE1FBD10B510BD00F07DF91146FFF73E
:1002D000F5FF0EF037FB00F09BF903B4FFF7F2FFD8
:1002E00003BC00F01DFA0000DFF818D00648804774
:1002F00006480047FEE7000005480649064A074B46
:1003000070470000A0B90020454B0008010200081A
:10031000A0AF0020A0B90020A0B10020A0B1002013
:100320009FED1A1AF5EE000A40EE010ABDEEE00A52
:10033000F5EEC00A10EE100AF1EE10FA38BF401EBA
:1003400000EE100A1349F7EE001AB8EEC00A30EEBC
:10035000C00ADFED0F0A20EE200AFCEEC00A10EE04
:10036000900AC0F3080000EE900A01EB8000F8EE5E
:10037000600A90ED011A70EE600A90ED000A71EECD
:10038000E01A21EE800A00EE810A704783F9223ECE
:1003900000000044F4B90108B5EEC00AF1EE10FA0D
:1003A00007D2DFED1E0AB4EEE00AF1EE10FAA8BFA4
:1003B0007047DFED1B0AB5EEC00A60EE200ABDEE05
:1003C000E01A11EE100AF1EE10FA38BF401E00EEEE
:1003D000100A1549F7EE001AB8EEC00A30EEC00A4E
:1003E000DFED100A60EE200ABCEEE00A10EE100A03
:1003F000C0F3080000EE100A01EB8000B8EE400ADE
:1004000090ED011A70EEC00A90ED000A71EEE01A4C
:1004100021EE800A00EE810A70470000CD024CB444
:1004200083F9223E00000044F4B9010840EA0103C8
:1004300010B59B070FD1042A0DD310C808C9121F8D
:100440009C42F8D020BA19BA884201D9012010BDC7
:100450004FF0FF3010BD1AB1D30703D0521C07E094
:10046000002010BD10F8013B11F8014B1B1B07D1F8
:1004700010F8013B11F8014B1B1B01D1921EF1D169
:10048000184610BD032A40F2308010F0030C00F033
:10049000158011F8013BBCF1020F624498BF11F8BE
:1004A00001CB00F8013B38BF11F8013BA2F1040277
:1004B00098BF00F801CB38BF00F8013B11F00303EF
:1004C00000F02580083AC0F0088051F8043B083A53
:1004D00051F804CBA0E80810F5E7121D5CBF51F8F5
:1004E000043B40F8043BAFF30080D20724BF11F86F
:1004F000013B11F801CB48BF11F8012B24BF00F8D4
:10050000013B00F801CB48BF00F8012B704710B544
:10051000203AC0F00B80B1E81850203AA0E81850FB
:10052000B1E81850A0E81850BFF4F5AF5FEA027CBC
:1005300024BFB1E81850A0E8185044BF18C918C02B
:10054000BDE810405FEA827C24BF51F8043B40F8CC
:10055000043B08BF7047D20728BF31F8023B48BFB1
:1005600011F8012B28BF20F8023B48BF00F8012BEF
:1005700070474FF0000200B5134694469646203966
:1005800022BFA0E80C50A0E80C50B1F12001BFF44C
:10059000F7AF090728BFA0E80C5048BF0CC05DF8B2
:1005A00004EB890028BF40F8042B08BF704748BF00
:1005B00020F8022B11F0804F18BF00F8012B704774
:1005C000704770477047754600F02CF8AE4605003E
:1005D0006946534620F00700854618B020B5FFF75E
:1005E0008BFEBDE820404FF000064FF000074FF0B3
:1005F00000084FF0000B21F00701AC46ACE8C00941
:10060000ACE8C009ACE8C009ACE8C0098D46704749
:1006100010B50446AFF300802046BDE81040FFF758
:100620005CBE00000048704740AF00201FB584B09A
:1006300000200A9C06AB04AA02A90094AFF3008034
:1006400018B1DDE9020108B010BD0348204000F0F8
:1006500005F800200146F6E70000207C10B500F008
:1006600009F8BDE81040AFF30080002801D000F089
:1006700057B8704710B5022803D0410103D50DA12A
:1006800012E0002010BD010101D50FA10CE0C10056
:1006900001D511A108E0810001D512A104E04000BC
:1006A00001D513A100E0002115A000F03FF80120C2
:1006B00010BD0000496E76616C6964204F706572F0
:1006C0006174696F6E000000446976696465204258
:1006D00079205A65726F00004F766572666C6F778D
:1006E00000000000556E646572666C6F7700000054
:1006F000496E657861637420526573756C7400008F
:100700005349474650453A2041726974686D657493
:10071000696320657863657074696F6E3A200000C4
:1007200001491820ABBEFEE72600020070B5054661
:100730000C460A2000E06D1C00F011F835B1287855
:100740000028F8D102E0641C00F009F814B1207808
:100750000028F8D1BDE870400A20AFF3008008B54A
:1007600069468DF800000320ABBE08BD704700004D
:1007700091F0000F04BF6FF00040704710B54FF0CC
:10078000010E90EA010F48BF4FF0000E002848BF4D
:100790004042002948BF4942B0FA80F40A2CA8BF61
:1007A0000A2400FA04F2C4F10A0CB2FBF1F0B0FA28
:1007B00080F39C45A4BFCEF1004010BD01FB102288
:1007C000B2FA82F464450EDAACEB040C02FA04F2DD
:1007D00000FA04F0B2FBF1F301FB13221844B2FA61
:1007E00082F46445F0DD02FA0CF200FA0CF0B2FB80
:1007F000F1F318449EF0000F08BF404210BD000006
:1008000080FB01014FEA902000EB8150704700000F
:10081000B0FA80F303F01F0242B300FA03F000B510
:100820004FEA9052134951F82210A0FB01E2A2FBBB
:1008300001E2C2F14042A2FB01E14FEA4101A0FB0B
:1008400001E2A2FB01E2C2F14042A2FB01E14FEA58
:100850004101A0FB01E003F114035B1024BF064A31
:10086000A2FB0010D84040F1000000BD4FF0000096
:10087000704700006899010834F304B591F0000F47
:1008800004BF6FF00040704710B54FF0010E90EAC2
:10089000010F48BF4FF0000E002848BF404200291A
:1008A00048BF4942B0FA80F4142CA8BF142400FABF
:1008B00004F2C4F1140CB2FBF1F0B0FA80F39C45E1
:1008C000A4BFCEF1004010BD01FB1022B2FA82F4A9
:1008D00064450EDAACEB040C02FA04F200FA04F000
:1008E000B2FBF1F301FB13221844B2FA82F464451F
:1008F000F0DD02FA0CF200FA0CF0B2FBF1F318444E
:100900009EF0000F08BF404210BD000080FB0101B7
:100910004FEA105000EB0130704700002DE9F04124
:1009200004460027D4F89080206801F0BFF90746FC
:10093000002F5BD1D4E9010104F007FD6068016874
:1009400041F04001016000BF6068016841F00101B1
:10095000016000BF94F8A700012806D16068C16853
:1009600041F48071C16000BF10E08434D4E90532E5
:100970001979186805F0FCFA54F8800C217F843C42
:10098000C26861F30202C26000BF00BF204600F0EF
:1009900057F800250EE004F10C0050F8256032797C
:1009A00094F8A1102368586804F0A4FB304600F0C6
:1009B00021F86D1C94F8A200A842ECD86068016888
:1009C00021F04001016000BF6068016821F0010171
:1009D000016000BF94F8A70048B998F80410D4F853
:1009E0009420D8F8000005F0C3FA00E0012738464B
:1009F000BDE8F08110B50446206804F00FFCE079F2
:100A000001280CD162790421206804F069FC00BF40
:100A10004FF40031206804F05DFC00BF00BF207A75
:100A200001280CD1A2790021206804F059FC00BFF4
:100A30004FF48031206804F04DFC00BF00BF10BDB2
:100A400070B504460025204600F020F894F8A40074
:100A5000012801D145F0020594F8A300012801D135
:100A600045F0040594F8A500012801D145F00805DA
:100A70002946606804F05EFC94F8A600012804D1C1
:100A80004FF48001606804F055FC70BD10B5044659
:100A9000D4F88C100A780021606804F0F8FCD4F8CF
:100AA0008C104A780421606804F0F1FCD4F88C10B2
:100AB0008A780821606804F0EAFCD4F88C10CA78BF
:100AC0000C21606804F0E3FC10BD000010B50020AC
:100AD00055490968012282401143534AB03AC2F88D
:100AE000B01000BF51480078012875D10DF0F4FF17
:100AF0004F48006810B14E49086880470C214D48A6
:100B000005F029FA70B94C480088401C4A49088011
:100B1000084600880A280ADB00200880012047498F
:100B2000087004E0002044490880444908704448A3
:100B300090ED030AB0EEC00AF1EE040AB4EEE00A4A
:100B4000F1EE10FA1BDB3F4890ED030AB0EEC00A4D
:100B5000DFED3D0AB4EEE00AF1EE10FA0FDB3B48A0
:100B60000088401C3949088008460088B0F5FA6FB3
:100B70000ADB0020088001203549087004E00020CD
:100B800032490880324908702D4890ED030AB0EED2
:100B9000C00AF2EE060AB4EEE00AF1EE10FA1CDD2D
:100BA000284890ED030AB0EEC00ADFED270AB4EE44
:100BB000E00AF1EE10FA10D226480088401C2549C0
:100BC000088008460088B0F5FA6F0BDB002008802B
:100BD00001202149087005E01FE000201D49088020
:100BE0001D490870174890ED030AB0EEC00ADFED0A
:100BF0001B0AB4EEE00AF1EE10FA0FDD1848008887
:100C0000401C1749088008460088B0F57A7F0ADB47
:100C10000020088001201349087004E000201049DA
:100C200008801049087010BDB0C3004023070020A1
:100C300034AD0020008E0248500700204C070020F1
:100C40009007002040AD00200000C842520700205D
:100C50004D070020540700204E07002000409C450F
:100C6000560700204F07002010B5002010490968E2
:100C700001228240114009B1012100E0002161B14F
:100C800000200B4910310968012282401143084AB3
:100C9000A03AC2F8B01000BF00BF0648408818B99B
:100CA00003F03EFD034948800AF036FA10BD00000B
:100CB000A0440048C204002010B50021904804F070
:100CC00043FC00218F4804F03FFC8D4804F026FDD2
:100CD0008C4804F023FD0021894804F017FD002111
:100CE000884804F013FD8849884804F068FC884867
:100CF0000068C0084FF4FA61B0FBF1F0401E84B206
:100D00002146824804F0FBFC0021804804F0ECFC02
:100D10004FF480717A4804F015FC022200217B48D0
:100D200004F0B5FC00207949A43109680122824011
:100D30001143764AC2F8A41000BF2E20754A91785C
:100D4000002804DB8A06130E734A135406E08A0651
:100D5000140E724A00F00F031B1FD45400BF2E2044
:100D6000002809DB00F01F02012191404209920096
:100D700002F1E022C2F8001100BF0221604804F035
:100D800090FB00BF01206149C86000BF644965480D
:100D900004F015FC6249644804F011FC60496348A2
:100DA00004F00DFC5E49624804F009FC61496248A8
:100DB00004F0EDFB5F49614804F0E9FB4FF6FF7179
:100DC000584804F09CFC41F63F71574804F097FCEA
:100DD0000321564804F093FC0321554804F08FFC8E
:100DE0001121474804F0AEFB1121464804F0AAFB4C
:100DF00001214C4804F02AFC02214A4804F02EFC50
:100E00000121494804F022FC0221474804F026FC55
:100E10000121494804F0ABFB0121474804F0AFFB36
:100E20000121464804F0A3FB0121444804F0A7FB3C
:100E300001213E4804F00AFC01213D4804F006FC73
:100E40003F4A0121374804F0D2FB3E4A022135488F
:100E500004F0CDFB3A4A0121334804F0C8FB394A7B
:100E60000221314804F0C3FB374A01212F4804F026
:100E7000BEFB354A01212E4804F0B9FB334A01215B
:100E80002D4804F0B4FB314A02212B4804F0AFFB9B
:100E90002E4A0121294804F0AAFB2C4A02212748A6
:100EA00004F0A5FB0221214804F01CFC022120488B
:100EB00004F018FC1021124804F044FB10211148E2
:100EC00004F040FB00210E4804F0EBFA01210C482D
:100ED00004F0E7FA02210A4804F0E3FA0321084883
:100EE00004F0DFFA0021074804F0DBFA012105488D
:100EF00004F0D7FA0221034804F0D3FA10BD000031
:100F000000C00040000001407033002000C30040DA
:100F1000C0FF00205C06002000E400E018ED00E0C7
:100F20003C33002000C100400001014000C20040ED
:100F3000000201404433002000C40040000301408F
:100F40004C33002050330020583300205C33002005
:100F500010B59E4A01219E4805F00AF801200121A2
:100F600081409B4A516000BF00219A4804F010FC68
:100F70000021994804F00CFC964804F0CBFC9648FC
:100F800004F0C8FC0021934804F0BCFC0021924806
:100F900004F0B8FC9149924804F00DFC8F49914847
:100FA00004F009FC8D49904804F005FC8B498F48FA
:100FB00004F001FC8E498F4804F0FDFB41F26F7193
:100FC000874804F08BFC41F26F71864804F086FC80
:100FD00041F26F71844804F081FC41F26F718348E3
:100FE00004F07CFC41F26F71824804F077FC41F21E
:100FF000707200217A4804F06CFC41F2707200219A
:10100000784804F066FC41F270720021764804F0E2
:1010100060FC41F270720021744804F05AFC41F205
:1010200070720021734804F054FC41F27072012187
:101030006E4804F04EFC0221694804F03FFC022196
:10104000684804F03BFC0221674804F037FC0221A9
:10105000664804F033FC0221664804F02FFC0121AD
:101060005C4804F091FB10215A4804F08DFB4FF4CA
:101070008051584804F088FB0121574804F084FB54
:101080001021554804F080FB5B4A0121544804F0CC
:10109000B0FB594A0121534804F0ABFB564A0121E9
:1010A000514804F0A6FB544A0121504804F0A1FB2A
:1010B000514A01214F4804F09CFB01221146484847
:1010C00004F00EFC01221146464804F009FC0122FE
:1010D0001146454804F004FC01221146434804F03F
:1010E000FFFB01221146434804F0FAFB01203D4971
:1010F0005C390968012282401143394AC2F8A410C0
:1011000000BF02220121364804F0A9FB3B493448C4
:1011100004F09EFB3949334804F09AFB37493248C2
:1011200004F096FB364A0521364804F021FF364A82
:101130000221344804F01CFF314A0421314804F0F4
:1011400017FF2F4A01212F4804F012FF2C4A0621D5
:101150002C4804F00DFF2A4A0B212A4804F008FF0E
:10116000274A0F21294804F003FF274A072128486E
:1011700004F0FEFE244A0B21244804F0F9FE254A1F
:101180000021134804F0F4FE234A06211F4804F00E
:10119000EFFE00210F4804F0C6FA01210D4804F0CB
:1011A000C2FA03210B4804F0BEFA00210A4804F0F9
:1011B000BAFA0121084804F0B6FA4FF44070174912
:1011C000C96C0143154AD16400BF10BDB8080020A6
:1011D00000840248000002400040024060080020F5
:1011E00000010240000202400004024000410240AF
:1011F000700800200042024098080020800800206B
:10120000A008002000800248AC08002000810248AD
:1012100000850248D0080020C4080020004000508B
:1012200070B50446AC48006842F6E0610844AA493B
:10123000086008460068A949096888427ED336E1FB
:10124000A5480068A5490968401AA349086000201C
:10125000A3490860A348B0F9C610A3480068A34A90
:10126000126801FB00209F494860084640689F497A
:1012700008609F48007858B39A48B0F9C6009D4965
:1012800009684843984909689B4A126800FB012095
:1012900094494860084640689749086008460068D5
:1012A00092490860002095490860954908808A495C
:1012B00008609448008840B900208A4981F8CA0033
:1012C0008B4908708549086001E000F027F970BD7E
:1012D0008D480078012868D100208B490870854826
:1012E0000068FF285DDB7F48B0F8C80081490968C5
:1012F000091A7C48D0F8D000814252DD7948416813
:10130000406A081A7749B1F9C61048437649096816
:1013100090FBF1F07D490860084600686438086079
:101320007048B0F8C8000968884204DA6D48B0F81F
:10133000C800764908607548006800E0B9E00028F8
:1013400002DA002071490860664841686F48006809
:10135000654A12685043634AB2F9C62000FB121076
:101360006049486008464068604908605D48B0F8D8
:10137000C80066490988401A5A49A1F8C8000846B9
:10138000B0F8CC00624908805648B0F8C810D0F8D0
:10139000D000084457490860084600885D49088025
:1013A00003E04DF2A0005B4908804E48B0F8C80049
:1013B0005049096888422BDB4A48B0F9C6004A49BF
:1013C000096848434B4909684B4A126800FB0120F1
:1013D0004449486008464068474908600846006834
:1013E0004249086000203F4981F8CA00012048496D
:1013F00008803C49A1F8C8000020374908603849F6
:1014000008603E4908603E490880434908804FE033
:101410003448D0F8CC003E49098888420EDC314877
:10142000B0F8C810D0F8D0000844324909688842A2
:1014300004DA37480088401E354908802948B0F84A
:10144000D80004EB4001274890F8DA2030480088A3
:10145000104131F810502348D0F8D4102846FFF737
:10146000CFF91E4908601F48B0F8C800401C1D494C
:10147000A1F8C80026480088401C25490880164865
:10148000006816490968884200D310E022480088A5
:1014900003280BD0114801684FF40060FFF7EEF904
:1014A0001049B1F9C61048430D49086000E0C7E68D
:1014B00000BF094909680A4A126801FB02F00A499B
:1014C0000968FFF723FA0949096801EBE02005499B
:1014D000486000BFFBE60000F0090020F40900208E
:1014E000F8090020C0310020080A0020000A00206E
:1014F0001C0A0020FC090020040A0020140A002015
:101500000E0A0020120A00201D0A0020240A0020D2
:101510000C0A0020200A0020100A00202DE9F843C0
:101520005048018850480088401C814270D04D4886
:101530000088642817D14D480088052812D2DFE8BA
:1015400000F007080903100002204849088009E05C
:1015500000BF00BF4648006840F0040044490860EE
:1015600000E000BF00BF3F480088C82802DB002021
:101570003C4908803F483B49098800EB410000880E
:101580000090BDF80000C0F3871084023949354847
:101590000088401C31F81000C0F3871085022146F6
:1015A0002046FFF72DF9804629462846FFF728F9FF
:1015B00008EB00073846FFF72BF90646BDF8000098
:1015C00000F03F042B4927480088401C11F8100008
:1015D00000F03F0504EB8510411C3046FFF710F981
:1015E000254908600846006881024FF44800FFF76B
:1015F000BFF822490860BDF80000C0F387102049F9
:101600000860BDF80000C0F3803010B9012002E08E
:101610001CE04FF0FF301B49A1F8C60016480068D7
:101620004FF4FA7148431849086015480068134997
:10163000096848431349B1F9C61048431349086083
:1016400008480088801C0749088009E000200D49EF
:1016500081F8CA000E4908700B49086001490880EA
:10166000BDE8F8832C0A00202E0A0020120A002070
:10167000180A0020B0AD0020A0330020A4330020C1
:10168000FC090020C0310020F4090020F8090020E6
:101690001C0A002070B50346474C24780B2C03D05D
:1016A000454C2478102C07D1444C24780A2594FB0F
:1016B000F5F605FB164213E03F4C24780D2C08D1BB
:1016C0003F4CB4F900400A2594FBF5F605FB1642A1
:1016D00006E03C4C24780A2594FBF5F605FB1642FF
:1016E000B3F5C87F31DA0A2A2ED2DFE802F0050905
:1016F0000D1115191D2125294FF4DB60252123E04B
:1017000040F2F34023211FE040F2F6301D211BE0A0
:101710004FF45470182117E040F2DA20152113E03D
:101720004FF41F7013210FE040F2372011210BE01E
:1017300040F207200F2107E040F2D7100E2103E00E
:1017400040F27D100E2100BF2DE00A2A2AD2DFE8E8
:1017500002F005090D1115191D2023264FF4826092
:10176000FB211FE040F29720D9211BE040F2E71057
:10177000BB2117E040F28310A22113E04FF4A170C7
:1017800090210FE04FF48B707F210BE0F320742148
:1017900008E0D9206A2105E0C320622102E08E2002
:1017A000502100BF00BF03FB00F44FF47A75B4FB77
:1017B000F5F4601870BD0000C00000209F020020FA
:1017C000760200209E02002010B5024654782109BE
:1017D00093781C4661F3DF142146802B02DB4C42D8
:1017E00020B200E008B210BD10B50246547804F0F3
:1017F0000F01D3781C4661F3DF142146802B02DBF6
:101800004C4220B200E008B210BD000010B51948EB
:10181000002100F1100252F8212022F0800300F193
:10182000100242F8213000BF1348806810B11249FD
:101830008868804711480078012819D11048B0F90C
:101840000800B0F5AF6F05DD0D48B0F90800B0F540
:10185000B46F09DD0A48B0F90800002808DB084821
:10186000B0F90800282803DA06480068064908800D
:1018700010BD00000048005034AD002024070020B7
:1018800040AD002070C100401C07002070B52DED58
:10189000028B00BF5B48006EC0F30020012801DA14
:1018A000012001E04FF0FF3000EE100AF8EEC08A90
:1018B0005548006800EE100AB8EE400AF7EE000A3C
:1018C00078EEE00A9FED511A00EE810ABDEEC00AE3
:1018D00010EE100A04B200EE104AB8EEC00A4C48EE
:1018E000D0ED000A30EE600ABDEEC00A10EE100A1C
:1018F00005B215F57A6F06DA46480088401C00B23A
:101900004449088008E0B5F57A6F05DD4148008854
:10191000401E00B23F4908803E48B0F9000000EB8D
:101920004001C1EBC01004EB801000EE100AB8EECD
:10193000C00A3948D0ED0D0A30EE600A374880ED14
:10194000010A00EE104AB8EEC00A314880ED000AE4
:101950003148D0ED0D0A00EE104AB8EEC00A30EE64
:10196000600AD0ED0C0A20EE208AB0EE480A05F09D
:10197000FBF938EE400A294880ED1F0A012128486A
:1019800003F074FE00F4801026490860244870308B
:1019900000684CF2503188420DD900BF0220204926
:1019A000086100BF9FED200A1C4880ED060A012057
:1019B0001E49088023E01B48006800B31B480088CC
:1019C00040B19FED190A154880ED060A002017491D
:1019D000088014E00121124803F048FE86B2144842
:1019E00090ED3B0AB8EE400A60EE280A00EE106A5D
:1019F000B8EE400A80EE801A084880ED061ABDEC69
:101A0000028B70BD00C002407001014000007A45A9
:101A10003833002030330020A4090020240900209E
:101A20000003014034330020000000003233002066
:101A3000C031002010B52848008841F28831884222
:101A400016DA25480088401C234908809FED230AA8
:101A5000234880ED020AB8EE080A80ED000AB0EED5
:101A6000080A80ED010A02F06DFA01F057FC32E03D
:101A70001948008842F21071884216DA1648008828
:101A8000401C154908809FED150A154880ED020A93
:101A9000B0EE080A80ED000AB8EE080A80ED010AEF
:101AA00002F050FA01F03AFC15E00B48008842F2CF
:101AB000117188420FDA08480088401C06490880E6
:101AC00001200849088002F0A9FA00BF0220064957
:101AD000086100BF00BF10BD7C3300200000DC4265
:101AE00000090020FC0800200001014030B503245B
:101AF000544D6D6AE54005F001050DB9012400E083
:101B000000240481504C2488C4F344234E4C248880
:101B1000C4F304114C4C247804F00F04621C4A4CAA
:101B20002488C4F380340CB9012401E04FF0FF3461
:101B30006442C4808488062C70D2DFE804F0030E6F
:101B40002A3A5870048914B10124848001E00324E6
:101B5000848000243D4DAC8172E00489A4B94181A8
:101B60004488641C44804488944209D1C4886442F7
:101B700024B2364DAC81022484800024448007E0E6
:101B8000C488324DAC8103E0C488304DAC814381C0
:101B900056E04181048934B1002404800124848109
:101BA0000024848004E0C488644224B2274DAC81C0
:101BB00046E00489A4B141814488641C448044887F
:101BC000944207D1C488214DAC8104248480002430
:101BD00044800BE0C488644224B21C4DAC8105E013
:101BE000C488644224B2194DAC81438128E041810C
:101BF00004897CB94488641C4480448894420CD194
:101C0000C488644224B2114DAC8105248480002430
:101C1000448002E0C4880D4DAC8111E00FE00489DE
:101C200034B100240480012484810024848005E0F0
:101C3000C488644224B2054DAC81418100E000BFFC
:101C400000BF30BD00820248340A0020B8320020B4
:101C50001349096819B31249097801B30021114ADF
:101C600011800F49097801F0800109B14CF23F0061
:101C70000B49097801F0200109B14DF2A55008493E
:101C8000097801F0040109B14CF23E0004490978D9
:101C900001F0010109B14DF2A1100349088070471C
:101CA000180A002022330020F408002070B50446F2
:101CB0000025607A012806D0D4E9001003F050FA1C
:101CC0000120607200BF284670BD000010B50248B8
:101CD00004F038F810BD0000004001500148B0F990
:101CE0000800704740AD002010B5FFF7F7FF04462D
:101CF00008480088201A04B2002C03DA04F5B46006
:101D000004B205E0B4F5B46F02DDA4F5B46004B22A
:101D1000204610BD360200200148B0F9040070478B
:101D200040AD0020F0B503460C4603F00701C1F1B9
:101D30000700062801D9062001E0C1F10700064688
:101D4000881D072801D2002000E0481E054601201A
:101D5000B040401E2040A8400127AF407F1E1740E2
:101D60003843F0BD004870470024F40090ED000AAD
:101D7000D0ED010A30EE600A80ED020A90ED020A11
:101D8000DFED540AB4EEE00AF1EE10FA08DD90ED52
:101D9000020ADFED510A30EE600A80ED020A10E01F
:101DA00090ED020ADFED4D0AB4EEE00AF1EE10FA12
:101DB00007D290ED020ADFED480A30EE200A80EDEE
:101DC000020A90ED020AD0ED030AB4EEE00AF1EE49
:101DD00010FA04DB90ED030A80ED020A10E090EDAA
:101DE000020AD0ED030AF1EE600AB4EEE00AF1EE69
:101DF00010FA05D890ED030AB1EE400A80ED020A10
:101E000090ED070AD0ED020A20EE200A80ED0B0AC1
:101E100090ED0B0AD0ED080A90ED0C1A00EE810A45
:101E2000D0ED090A90ED0F1A00EE810AD0ED0A0AF2
:101E300090ED001A00EE810A80ED110A90ED110A72
:101E4000D0ED050AB4EEE00AF1EE10FA04DB90EDF5
:101E5000050A80ED110A0CE090ED110AD0ED060A9A
:101E6000B4EEE00AF1EE10FA03D890ED060A80ED28
:101E7000110A90ED0C0AD0ED020A30EE200A80ED36
:101E80000C0A90ED0C0AD0ED0D0AB4EEE00AF1EE6A
:101E900010FA04DB90ED0D0A80ED0C0A0CE090EDD9
:101EA0000C0AD0ED0E0AB4EEE00AF1EE10FA03D8F7
:101EB00090ED0E0A80ED0C0A90ED020AD0ED040AB6
:101EC00030EE600A80ED0F0A90ED020A80ED040A00
:101ED00070470000000096430000B443000096C322
:101EE00090ED000AD0ED010A30EE600A80ED020AA2
:101EF00090ED020AD0ED030AB4EEE00AF1EE10FA1A
:101F000004DB90ED030A80ED020A10E090ED020A76
:101F1000D0ED030AF1EE600AB4EEE00AF1EE10FA39
:101F200005D890ED030AB1EE400A80ED020A90ED6B
:101F3000070AD0ED020A20EE200A80ED0B0A90ED90
:101F40000B0AD0ED080A90ED0C1A00EE810AD0EDD4
:101F5000090A90ED0F1A00EE810AD0ED0A0A90ED01
:101F6000001A00EE810A80ED110A90ED0C0AD0ED06
:101F7000020A30EE200A80ED0C0A90ED0C0AD0ED3A
:101F80000D0AB4EEE00AF1EE10FA04DB90ED0D0A52
:101F900080ED0C0A0CE090ED0C0AD0ED0E0AB4EEC8
:101FA000E00AF1EE10FA03D890ED0E0A80ED0C0A6B
:101FB00090ED020AD0ED040A30EE600A80ED0F0ABF
:101FC00090ED020A80ED040A704700000178044A8F
:101FD0001180418809B25180818809B2D18070474F
:101FE00040AD002010B517488068807900EE100AD7
:101FF000B8EE400ADFED140A20EE200A134880ED07
:10200000050A9FED130A80ED120A9FED120A80ED7A
:10201000130A0221104803F09EFF0A490968497813
:10202000884203D101200D49088002E000200B49BD
:10203000088000200A49087001200A4908700A49EE
:10204000087010BD20AD0020CDCCCC3D9007002005
:1020500000000C429A99193E0083024840AD0020CE
:1020600024070020200700202507002010B5044683
:102070000E4821880180A178817000200C490870E9
:10208000FEF766FF00F078F802F022FF06204FF41A
:1020900080318140074A516000BF074A074908481C
:1020A00001F0DEFB00200749087010BD5C0600202F
:1020B0002307002000810248C0310020A40900202D
:1020C000240900202507002070B50446049D0C4813
:1020D000046041608260C36005610220084EB668FA
:1020E00030701420064EB668B071B420044EB66845
:1020F000B0802820024EB668F071002070BD00004C
:1021000020AD002010B50C21034803F024FF08B9CE
:10211000012010BD0020FCE7008E02480C4800782A
:10212000012800D170470B480078012801D1022016
:10213000F8E709480078012801D10320F2E70748B1
:102140000078012801D10420ECE70020EAE7000034
:102150004C0700204D0700204E0700204F070020AD
:102160000148007870470000200700200148807A6D
:102170007047000040AD002010B5434A0C21434891
:1021800003F0F6FE424A0221424803F0F1FE424AC1
:102190000021424803F09EFE414A00213F4803F0DF
:1021A000C1FE02203B49096E012282409143394A17
:1021B000116600BF01203B4A1178002804DB8A0623
:1021C000130E394A135406E08A06140E374A00F0FB
:1021D0000F031B1FD45400BF0120002809DB00F0AF
:1021E0001F02012191404209920002F1E022C2F84F
:1021F000001100BF2E492F4803F042FF2E492D4801
:1022000003F04BFF2D492E4803F03AFF2A492C4892
:1022100003F043FFFEF750FD2A4A07211B4803F055
:10222000A7FE284A0621194803F0A2FE254A0521E7
:10223000254803F09DFE234A0421234803F098FE1D
:10224000204A0321204803F093FE00BF01201949D2
:10225000886000BF00BF1A49886000BF1B4803F0B8
:1022600052FA1B4803F04FFA1A4803F04CFA1A4886
:1022700003F049FA194803F046FA194803F043FA03
:10228000184803F040FA10BD54080020008E0248A0
:10229000A4AD002000830248180800200048005028
:1022A000200800205C06002000E400E018ED00E0BB
:1022B0003808002000800240240800203408002054
:1022C00000C002403C0800200082024800C10040DB
:1022D00000C2004000C3004000C4004000010140B3
:1022E000000201400003014070B52DED088B04464B
:1022F0009FED670AB0EE408A00259FED650AF0EE7B
:10230000408A94ED0A0AD4ED0B0AB4EEE00AF1EE2D
:1023100010FA06D294ED060AB1EE400AB0EE408AF9
:1023200004E094ED060AB0EE408A0025B6EE000AFD
:1023300028EE000A10EE101A084618F0DDFD41ECF8
:10234000190B94ED0A0AD4ED0B0A30EE600A10EE78
:10235000101A084618F0D0FD41EC1B0BB0EE4B0AEA
:10236000F0EE6B0A04F0F6FCB0EE40AAF0EE60AAC4
:1023700053EC192B51EC1A0B18F010FB04D894ED08
:102380000A0A84ED0B0A01254DB994ED0C0A30EED2
:10239000080A84ED0B0A94ED0B0A84ED0C0A94ED07
:1023A000070AD4ED090AB4EEE00AF1EE10FA04DDF2
:1023B00094ED0B0AF0EE408A0EE094ED070AD4ED9E
:1023C000090AB4EEE00AF1EE10FA05D294ED0B0A18
:1023D000B1EE400AF0EE408A18EE900A18F08CFD3B
:1023E00041EC190B94ED080AD4ED070A30EE600AAF
:1023F00010EE101A084618F07FFD41EC1B0BB0EEF2
:102400004B0AF0EE6B0A04F0A5FCB0EE40AAF0EE29
:1024100060AA53EC192B51EC1A0B18F0BFFA04D830
:1024200094ED070A84ED080A05E094ED090A30EE00
:10243000280A84ED080A94ED080A84ED100A94ED48
:10244000100AB5EEC00AF1EE10FA08D294ED100AA7
:10245000DFED100A30EE200A84ED100A10E094ED52
:10246000100ADFED0C0AB4EEE00AF1EE10FA07DB19
:1024700094ED100ADFED070A30EE600A84ED100AD1
:1024800094ED080A84ED090ABDEC088B70BD0000CC
:10249000000000000000B443014691ED380AB5EE9B
:1024A000C00AF1EE10FA04D291ED380AB1EE400AFA
:1024B00001E091ED380AD1ED300AF8EEE00AB4EE11
:1024C000E00AF1EE10FA01DD012070470020FCE780
:1024D00010B50A21014803F0B0FD10BD008102488B
:1024E00010B50A21014803F09BFD10BD0081024890
:1024F00070B504460D46608918B15348008801281C
:1025000071D152480078C0B15148B0F9C600514964
:102510000968484350490968504A126800FB012085
:102520004B494860084640684C49086008460068C6
:102530004B49086000204B49086095F8410000EEC7
:10254000100AB8EE400ADFED480A20EE200A47489C
:1025500080ED020A95F8420000EE100AB8EE400A3B
:10256000DFED430A20EE200A404880ED070AA878F4
:1025700000EE100AB8EE400ADFED3E0A20EE200A17
:102580003A4880ED080A606930B90020304981F886
:10259000BC0081F8A50005E001202D4981F8BC00B0
:1025A00081F8A5002B4920690860A0892849A1F875
:1025B000C60000202B4908602F480088012813DC42
:1025C000244800682D4948432D4908602048B0F848
:1025D000C60043F2EC7110FB01F02A4908600120AB
:1025E000254908801DE02DE023480088401E42F662
:1025F000E0614843224908601F4A1288521E41F692
:102600006A0302FB03F1134A12885005FEF736F9FC
:102610000F49B1F9C61048431A490860012016490C
:1026200008802A461849114800F018FF084890ED24
:102630003C0A0E4880ED0C0A012004490870044948
:1026400081F8CA0070BD00001E0A00201C0A00208C
:10265000C0310020FC090020080A0020040A0020E4
:10266000000A0020F00900208C5E6A38240900204E
:10267000624EAF39D5FFFF38320A002000941100B6
:10268000F4090020F8090020A409002010B505482D
:1026900003F09EFD002003F089FF2021012003F0BC
:1026A00015FF10BD04B4010870B500245249534809
:1026B00004F01EF800BF5148406B40F001004F4944
:1026C000486300BF082000BF496B21F07062411EC3
:1026D00042EA0161494A516300BF00BF00BF00BF29
:1026E0001146496B21F47C12411E42EA0141434AE2
:1026F000516300BF00BF0021084600BF526922F0AD
:1027000050420A4302433D4B5A6100BF00BF0220C2
:102710001946496921F4FE41421EC30143EA82225F
:102720001143364A516100BF354A0221354803F052
:102730001FFC32490020024601F11C0353F82030EF
:1027400023F0400343F0100501F11C0343F820502F
:1027500000BF01F11C0353F8203023F0070313439B
:1027600001F11C0545F8203000BF00BF00BF01206B
:10277000096C21F00F010143204A116400BF00BF22
:10278000214A0521214803F0F3FB214A06211F4875
:1027900003F0EEFB1F4A01211C4803F0E9FB1E4A2F
:1027A0000D211E4803F0E4FB1D4A0E211B4803F0D7
:1027B000DFFB00221021114804F0D2F8012305228A
:1027C00020210E4804F0D6F8032210210B4804F013
:1027D000ECF8002305221946084804F04BF80522BE
:1027E0001021064804F064F805221321034804F080
:1027F0005FF8204670BD00003C000020000203404E
:10280000A8430020008202481400002000830248F0
:1028100030B401084CB401082800002000810248AF
:1028200070B401082DE9F04706460F4690461D4654
:102830004FF00209B468207F20BB07B3B8F1000F46
:102840001DD0E5B1E07FF8B994F82000E0B901208F
:10285000E077C4F81480A7616560002084F8210047
:1028600084F82200706890F8850002280CD129466F
:10287000304600F00CF881460020E07704E04FF08D
:10288000030901E04FF001094846BDE8F0872DE952
:10289000F041054688460126AC68002700202061EB
:1028A000A060A8680068082800D90226701E08FAEF
:1028B00000F0E060217F286803F03FFF686890F82F
:1028C0007D00002877D028684FF48041C0F81811A7
:1028D00000BF286800F0F6F894F82100012806D11E
:1028E000227F4FF6FF71286804F05AF80DE0022E9F
:1028F00003D1A168A069475A02E0A168A069475CBA
:10290000227F3946286804F04BF8A0683044A06064
:1029100032E094F82100012806D1227F4FF6FF71A2
:10292000286804F03DF80DE0022E03D1A168A069EB
:10293000475A02E0A168A069475C227F39462868AF
:1029400004F02EF800BF286803F0ACFF0028FAD18D
:10295000286803F0C0FE0746D4E904218F54022EF4
:1029600004D13912D4E90402401C115420693044C6
:102970002061A0683044A060A068E1688842C8D3A4
:1029800000BF286803F08EFF0028FAD1286803F002
:10299000A2FE0746D4E904218F54022E04D1391235
:1029A000D4E90402401C115405212868C0F818110C
:1029B00000BF81E0FFE7286800F084F800BF2868C6
:1029C00003F053FF8028FAD094F82100012806D1A3
:1029D000227F4FF6FF71286803F0F3FF0DE0022E0F
:1029E00003D1A168A069475A02E0A168A069475CC9
:1029F000227F3946286803F0E4FFA0683044A060D5
:102A00003DE000BF286803F030FF8028FAD094F83A
:102A10002100012806D1227F4FF6FF71286803F0BC
:102A2000D0FF0DE0022E03D1A168A069475A02E051
:102A3000A168A069475C227F3946286803F0C1FF7E
:102A400000BF286803F00CFF0028FAD0286803F0C4
:102A500042FE0746D4E904218F54022E04D13912D4
:102A6000D4E90402401C1154206930442061A0685C
:102A70003044A0604FF44041286803F0F7FDA0689F
:102A8000E1688842BDD300BF286803F0E9FE002852
:102A9000FAD0286803F01FFE0746D4E904218F54BA
:102AA000022E04D13912D4E90402401C11544FF40F
:102AB0004041286803F0DAFD0020E0602061A0605A
:102AC000BDE8F08110B50446204603F004FE204620
:102AD00003F001FE10BD000010B52DED088B04467B
:102AE0009FEDFB0AB0EE409A9FEDF90AF0EE409A96
:102AF0009FEDF70AB0EE40BA9FEDF60A84ED0A0AA0
:102B0000002084F8500094ED0E0ADFEDF30AB4EED5
:102B1000E00AF1EE10FA07DD94ED0E0ADFEDEE0AA1
:102B200030EE600A84ED0E0A94ED0E0AB5EEC00A8E
:102B3000F1EE10FA07D294ED0E0ADFEDE70A30EE5F
:102B4000200A84ED0E0A94ED0F0AB1EE400AD4ED8E
:102B5000100A30EE600A84ED110A204606F0D6FE17
:102B600020460CF0CFFE9FEDDA0A84ED040A94EDC6
:102B7000050ADA48D0ED000AB4EEE00AF1EE10FAE8
:102B800003DD90ED000A84ED050A94ED050AD348B3
:102B9000D0ED000AF1EE600AB4EEE00AF1EE10FAB0
:102BA00005D290ED000AB1EE400A84ED050A94EDDD
:102BB000040AD4ED020A30EE600AC94880ED000A2A
:102BC00094ED050AD4ED030A30EE600AC54880EDA5
:102BD000000AC54890ED000ADFEDC40AB4EEE00A31
:102BE000F1EE10FA04DB9FEDC10A80ED000A0DE062
:102BF000BD4890ED000ADFEDBE0AB4EEE00AF1EE4A
:102C000010FA03D89FEDBA0A80ED000AB94890ED9A
:102C1000000ADFEDB60AB4EEE00AF1EE10FA04DBCA
:102C20009FEDB20A80ED000A0DE0B24890ED000A77
:102C3000DFEDAF0AB4EEE00AF1EE10FA03D89FED33
:102C4000AC0A80ED000A94ED120AA548D0ED000A06
:102C500020EE200AD4ED130AA64890ED001A11EEDA
:102C6000600A84ED000A94ED120A9E48D0ED000A35
:102C700020EE200AD4ED130A9B4890ED001A11EEC5
:102C8000600A84ED010A9B4890ED000A9448D0ED5B
:102C9000000A30EE200A974880ED000A924890ED35
:102CA000000A9048D0ED000A30EE200A8E4880EDF0
:102CB000000A94ED010ADFED900AB4EEE00AF1EEAD
:102CC00010FA04DB9FED8C0A84ED010A0CE094ED10
:102CD000010ADFED8A0AB4EEE00AF1EE10FA03D839
:102CE0009FED860A84ED010A94ED000ADFED840A67
:102CF000B4EEE00AF1EE10FA04DB9FED810A84EDF8
:102D0000000A0CE094ED000ADFED7E0AB4EEE00A62
:102D1000F1EE10FA03D89FED7B0A84ED000A94EDE2
:102D20000F0AF1EE080AB4EEE00AF1EE10FA08DC40
:102D300094ED0F0AF9EE080AB4EEE00AF1EE10FA8B
:102D400005D271480078401C6F49087008E06E4851
:102D50000078012804DD6C480078401E6A4908703C
:102D600094ED100AF1EE080AB4EEE00AF1EE10FA62
:102D700008DC94ED100AF9EE080AB4EEE00AF1EE70
:102D800010FA05D260480078401C5F49087008E0DE
:102D90005D480078012804DD5B480078401E5A49F0
:102DA0000870594800780A2809DD9FED490A84ED2A
:102DB000000A9FED470A84ED010A01F0E7F894F854
:102DC0005A00012811D19FED420A84ED000A9FEDBF
:102DD000400A84ED010A9FED3E0A464880ED000A54
:102DE0009FED3B0A404880ED000A20460BF03AFC7C
:102DF00094ED07AA94ED060ADFED440A20EE200ABE
:102E0000F6EE000A20EE200AD4ED070AB6EE001A0C
:102E1000F0EE40BA40EEC1BA94ED060ADFED3B0A8F
:102E200020EE200AF6EE000A20EE600AD4ED070A32
:102E3000B6EE001AF0EE40AA40EEC1AAB5EEC0AA66
:102E4000F1EE10FA02DD012084F85000F5EEC0BA70
:102E5000F1EE10FA04DD94F85000801C84F8500064
:102E6000F5EEC0AAF1EE10FA04DD94F85000001D52
:102E700084F8500094F850002549087094F85000E8
:102E8000012810D19FED230A2BEEC00AD4ED0A0AC7
:102E900080EE208A9FED1F0A2AEEC00AD4ED0A0AAE
:102EA000C0EE208A8BE094F85000022834D19FEDC8
:102EB000190A2AEEC00AD4ED0A0A80EE208A9FED94
:102EC000150A2AEE400AD4ED0A0AC0EE208A76E0FE
:102ED0000000000000009B430000B44304080020F1
:102EE000080800200C080020FC07002000004843D0
:102EF000000048C3F807002000002043000020C362
:102F00000000A0420000A0C2F107002074B5DD3F20
:102F1000F00700206662A24694F85000032810D102
:102F20001FED040A2BEE800AD4ED0A0A80EE208AF7
:102F30001FED080A2AEE000AD4ED0A0AC0EE208A24
:102F40003DE094F85000042810D11FED0E0A2AEE3F
:102F5000400AD4ED0A0A80EE208A1FED120A2BEEF9
:102F6000C00AD4ED0A0AC0EE208A28E094F8500086
:102F7000052810D11FED190A2AEE000AD4ED0A0A1D
:102F800080EE208A1FED1D0A2AEE800AD4ED0A0A7F
:102F9000C0EE208A13E094F8500006280FD11FEDF0
:102FA000230A2AEE800AD4ED0A0A80EE208A1FED59
:102FB000270A2BEE800AD4ED0A0AC0EE208A38EEEA
:102FC000280ADFED520AB4EEE00AF1EE10FA13DD42
:102FD0009FED4E0A28EE000A78EE280A80EE201AAD
:102FE000B0EE418A9FED490A28EE800A78EE280A61
:102FF00080EE201AF0EE418A9FED440A30EE480A36
:1030000030EE680AF5EE000A20EE200AB0EE409A93
:10301000F6EE000AB0EE490A08EE200AF0EE409AF9
:10302000F6EE000AB0EE690A08EEA00AB0EE40BA69
:1030300094F85000012806D1C4ED0B9A84ED0C9A47
:1030400084ED0DBA42E094F85000022806D184EDD8
:103050000B9A84ED0CBAC4ED0D9A37E094F8500049
:10306000032806D184ED0B9AC4ED0C9A84ED0DBAB9
:103070002CE094F85000042806D184ED0BBAC4ED7E
:103080000C9A84ED0D9A21E094F85000052806D1A1
:1030900084ED0BBA84ED0C9AC4ED0D9A16E094F809
:1030A0005000062806D1C4ED0B9A84ED0CBA84EDCD
:1030B0000D9A0BE09FED160A84ED0B0A9FED140AA2
:1030C00084ED0C0A9FED120A84ED0D0A2C3494ED68
:1030D000000ABCEEC00A10EE100A41F27071081A24
:1030E000E08494ED010ABCEEC00A10EE100A081A42
:1030F000208594ED020ABCEEC00A10EE100A081AF0
:1031000060852C3CBDEC088B10BD000000803B4668
:1031100000803B4510B53348007802280BDB31486E
:103120000078202807DC2F480078642110FB01F08C
:103130002D4908800AE02B48007838B92A48B0F9B0
:103140000000642190FBF1F026490870274890F9AF
:103150000000002814DD26480078642110FB01F0EF
:10316000244948800846FEF731FF2248408800B2D3
:10317000214908801D480178012015F0B9FE30E092
:103180001A4890F9000000282BDA184890F900003E
:10319000002803DB154890F9000003E0134890F97C
:1031A00000004042C4B212480078642110FB01F0D4
:1031B000104948800846FEF709FF0E48408800B2D3
:1031C0000D4908802146002015F092FE01E012F022
:1031D00057FCFEF789FD1028F9DA2146012015F089
:1031E00087FE10BD50010020C0010020AB0300206D
:1031F000D2010020C40000202C04002010B53A4A5F
:103200000A213A4802F0B4FE374A0921374802F051
:10321000AFFE354A0821354802F0AAFE324A0021A5
:10322000324802F0A5FE304A0121304802F0A0FEEB
:103230002D4A08212E4802F09BFE2B4A0E212C48D5
:1032400002F096FE284A0D21294802F091FE264AF6
:103250000121274802F08CFE234A0021244802F075
:1032600087FE214A0921234802F082FE224A0221D8
:10327000224802F07DFE204A0321214802F078FE18
:103280001D4A0C211E4802F073FE1B4A00211D48F6
:1032900002F06EFE184A0721194802F069FE164A2C
:1032A0000821174802F064FE134A0021144802F076
:1032B0005FFE114A0121124802F05AFE0E4A022115
:1032C0000F4802F055FE0C4A02210E4802F050FE53
:1032D000094A01210B4802F04BFE074A0421074826
:1032E00002F046FE10BD0000E8B20108008202486C
:1032F000008E0248008F0248DCB2010800830248B9
:103300000081024800850248012001048140024AF0
:10331000516000BF70470000008402480620012170
:103320008140024A516000BF70470000008102489E
:1033300010B525480068401C23490860084600680D
:103340004CF25031884201D9FEF774FB00201F492E
:10335000496AC14001F0010129B91D48006840F0E7
:1033600001001B490860FEF773FC1A48008848B347
:103370001948008880B91948008848B900F04EFE05
:10338000012016490880164A1649174800F068FAC5
:1033900000201649088015E00F480088012811D147
:1033A0001348006800F066FE124800F0CBFD0F489D
:1033B000008820B9FFF7B2FF01200C4908800020E7
:1033C0000649088010BD0000F00800200084024873
:1033D000180A0020FC080020223300207833002047
:1033E000C0310020A4090020240900207A330020E5
:1033F000283300200009002012F8543F00EE103A54
:10340000B8EE400AF6EE060A20EE200A80ED0F0A1A
:10341000537800EE103AB8EE400ADFED0F0A20EEC6
:10342000200A80ED100A937A00EE103AB8EE400AB6
:10343000F6EE060A20EE200A80ED160AD37A543AF8
:1034400000EE103AB8EE400ADFED030A20EE200A43
:1034500080ED170A7047000040DA7F392C4BB3F833
:10346000C4300A2B15D12B4B93ED000AB8EEC00ADD
:10347000DFED290A20EE200A80ED0F0A93ED000A05
:10348000B8EEC00ADFED240A20EE200A80ED160A0D
:103490003CE012F8503F00EE103AB8EE400AF6EE6B
:1034A000060A20EE200A80ED0F0A537800EE103A4B
:1034B000B8EE400ADFED190A20EE200A80ED100A6E
:1034C000937A00EE103AB8EE400AF6EE060A20EEC5
:1034D000200A80ED160AD37A503A00EE103AB8EE80
:1034E000400ADFED0E0A20EE200A80ED170A4B8C11
:1034F00000EE103AB8EE400A80ED1E0A9FED080A71
:1035000080ED110A9FED060A80ED180A7047000051
:10351000C0310020280A002035FE2F3740DA7F39DD
:103520000000000070B52DED028B05460C461646D6
:1035300095ED020AB8EEC00AD5ED390A20EE200A50
:1035400084ED000A95ED020AB8EEC00A94ED011A66
:10355000B5F8E80000EE900AF8EE600A01EE600AA5
:1035600085ED380AB5F8C40002284FD095F8A500BB
:10357000D8B395ED380ADFED3A0AB4EEE00AF1EE81
:1035800010FA06DD94ED1F0AF5EE000A30EE208AEF
:1035900017E095ED380ADFED330AB4EEE00AF1EEFC
:1035A00010FA06D294ED1F0AF5EE000A30EE608A9A
:1035B00007E095ED020AB8EEC00ADFED2B0A20EE17
:1035C000208AB0EE480A03F0CFFB38EE400ADFED68
:1035D000270A20EE200A84ED1C0A9FED250A84EDBF
:1035E000130A204600F048F82BE0FFE794ED1F0A8D
:1035F000DFED1E0A20EE200A84ED1C0A9FED1C0A56
:1036000084ED0C0A204600F08DF91AE095ED020ACF
:10361000B8EEC00ADFED140A20EE208AB0EE480AA8
:1036200003F0A2FB38EE400ADFED100A20EE200A7C
:1036300084ED1C0A9FED0E0A84ED130A204600F06B
:103640001BF89FED0C0A86ED020A94ED1A0A86ED2E
:10365000000A94ED1B0A86ED010ABDEC028B70BDD9
:103660000000A0460000A0C6AACC4C37D00FC9402D
:10367000000000000000DC4210B52DED068B044672
:10368000D4ED1C0AB0EE600AFCF74AFED4ED0E0A37
:1036900020EE20AAD4ED1C0AB0EE600AFCF77CFEF6
:1036A000D4ED150A00EE20AA84ED0DAAD4ED1C0A73
:1036B000B0EE600AFCF770FEB1EE400AD4ED0E0ADF
:1036C00020EE20AAD4ED1C0AB0EE600AFCF728FE1A
:1036D000D4ED150A00EE20AA84ED14AA94ED0C0A8C
:1036E000D4ED0D0A30EE600AF0EE409A94ED0F0A28
:1036F00020EE290AF0EE408A94ED110AD4ED100A6A
:1037000000EEA80A84ED110A94ED110A30EE280AA1
:1037100084ED120A94ED120AD4ED1E0AB4EEE00A0A
:10372000F1EE10FA0CDD94ED1E0A84ED120A94ED10
:10373000110AD4ED100A00EEE80A84ED110A18E02F
:1037400094ED120AD4ED1E0AF1EE600AB4EEE00A1E
:10375000F1EE10FA0DD294ED1E0AB1EE400A84ED9E
:10376000120A94ED110AD4ED100A00EEE80A84ED75
:10377000110A94ED130AD4ED140A30EE609A94ED18
:10378000160A20EE098A94ED180AD4ED170A00EE05
:10379000880A84ED180A94ED180A30EE080A84EDC0
:1037A000190A94ED190AD4ED1E0AB4EEE00AF1EEFE
:1037B00010FA0CDD94ED1E0A84ED190A94ED180A36
:1037C000D4ED170A00EEC80A84ED180A18E094ED4B
:1037D000190AD4ED1E0AF1EE600AB4EEE00AF1EE29
:1037E00010FA0DD294ED1E0AB1EE400A84ED190ACA
:1037F00094ED180AD4ED170A00EEC80A84ED180AF1
:10380000D4ED1C0AB0EE600AFCF78AFDD4ED120A72
:1038100020EE20AAD4ED1C0AB0EE600AFCF7BCFD35
:10382000D4ED190A00EE60AA84ED1AAAD4ED1C0AA0
:10383000B0EE600AFCF7B0FDD4ED120A20EE20AA2B
:10384000D4ED1C0AB0EE600AFCF76AFDD4ED190A4B
:1038500000EE20AA84ED1BAABDEC068B10BD000073
:1038600010B59FED2A0A80ED070A9FED290A80ED29
:10387000080AB1EE020A80ED0B0A9FED260A80EDE0
:10388000020A9FED250A80ED0F0A9FED240A80EDC4
:10389000100A90ED0F0A80ED160A90ED100A80EDE7
:1038A000170A4B8C00EE103AB8EE400A80ED1E0A63
:1038B00092ED3D0A80ED0C0A9FED190A80ED110A88
:1038C0009FED170A80ED180A9FED150A80ED090A91
:1038D0000B8C00EE103AF8EE400A8B8D00EE103A99
:1038E000B8EE400A80EE801A81ED0C1A8B8D0C8C9C
:1038F00093FBF4F300EE103AB8EEC00AF4EE000ABF
:1039000020EE200A81ED0D0A10BD00003B704E3CF8
:103910006C09F93BCDCCCC3D42BE0C4205A3923C98
:103920000000000010B52DED068B044694ED000A52
:10393000E648D0ED000A30EE600ADFEDE50A20EE41
:10394000200ADFEDE40A20EE200AE34880ED000AB9
:1039500094ED000ADD4880ED000A94ED000AD4EDF4
:10396000010A30EE600AF0EE408AF5EEC08AF1EE10
:1039700010FA02DDB0EE680A01E0B1EE680AB0EEBE
:10398000408AB2EE040AB4EEC08AF1EE10FA05D213
:103990009FEDD20A28EE000A84ED020A9FEDD00ABC
:1039A000B4EEC08AF1EE10FA06D29FEDCE0A28EEF0
:1039B000000A84ED020A03E0B2EE040A84ED020A72
:1039C000D4ED020AC44890ED000A00EEA80A84ED86
:1039D000030A94ED030AD4ED040AB4EEE00AF1EE12
:1039E00010FA04DD94ED040A84ED030A10E094ED6E
:1039F000030AD4ED040AF1EE600AB4EEE00AF1EE37
:103A000010FA05D294ED040AB1EE400A84ED030ADF
:103A100094ED030A84ED050A94ED050AD4ED060A37
:103A200030EE609A94ED070A20EE090AAE4880ED68
:103A3000000A94ED090AD4ED080A90ED001A00EE90
:103A4000810A84ED090A94ED090AD0ED000A30EEEE
:103A5000200A84ED0A0A94ED0A0AD4ED0B0AB4EEAA
:103A6000E00AF1EE10FA0EDD94ED0B0A84ED0A0A7D
:103A700094ED090AD4ED080A90ED001A00EEC10A8F
:103A800084ED090A1BE094ED0A0AD4ED0B0AF1EE6D
:103A9000600AB4EEE00AF1EE10FA10D294ED0B0ACF
:103AA000B1EE400A84ED0A0A94ED090AD4ED080A41
:103AB0008D4890ED001A00EEC10A84ED090A94EDDC
:103AC0000A0A84ED130AD4ED1C0AB0EE600AFCF772
:103AD00027FCD4ED0E0A60EE20AAD4ED1C0AB0EE4D
:103AE000600AFCF759FCD4ED150A40EE20AAC4ED9B
:103AF0000DAAD4ED1C0AB0EE600AFCF74DFCB1EE45
:103B0000400AD4ED0E0A60EE20AAD4ED1C0AB0EEF5
:103B1000600AFCF705FCD4ED150A40EE20AAC4EDBE
:103B200014AA94ED0C0AD4ED0D0A70EE609A94ED8F
:103B30000F0A20EE290A6D4880ED000A94ED110A63
:103B4000D4ED100A90ED001A00EE810A84ED110AFE
:103B500094ED110AD0ED000A30EE200A84ED120A2D
:103B600094ED120AD4ED1E0AB4EEE00AF1EE10FA5A
:103B70000EDD94ED1E0A84ED120A94ED110AD4EDC7
:103B8000100A90ED001A00EEC10A84ED110A1BE044
:103B900094ED120AD4ED1E0AF1EE600AB4EEE00ACA
:103BA000F1EE10FA10D294ED1E0AB1EE400A84ED47
:103BB000120A94ED110AD4ED100A4C4890ED001A47
:103BC00000EEC10A84ED110A94ED130AD4ED140A33
:103BD00030EE60AA94ED160A20EE0A0A444880ED01
:103BE000000A94ED180AD4ED170A90ED001A00EEC1
:103BF000810A84ED180A94ED180AD0ED000A30EE1F
:103C0000200A84ED190A94ED190AD4ED1E0AB4EEC7
:103C1000E00AF1EE10FA0EDD94ED1E0A84ED190AA9
:103C200094ED180AD4ED170A90ED001A00EEC10ABF
:103C300084ED180A1BE094ED190AD4ED1E0AF1EE8A
:103C4000600AB4EEE00AF1EE10FA10D294ED1E0A0A
:103C5000B1EE400A84ED190A94ED180AD4ED170A62
:103C6000234890ED001A00EEC10A84ED180AD4ED45
:103C70001C0AB0EE600AFCF753FBD4ED120A60EEAA
:103C800020AAD4ED1C0AB0EE600AFCF785FBD4ED47
:103C9000190A40EE60AAC4ED1AAAD4ED1C0AB0EECF
:103CA000600AFCF779FBD4ED120A60EE20AAD4ED8D
:103CB0001C0AB0EE600AFCF733FBD4ED190A40EEA3
:103CC00020AAC4ED1BAABDEC068B10BDDC080020A9
:103CD00000401C468FC2753CE0080020CDCC4C3D16
:103CE0000000C842CDCCCC3DE4080020E80800200C
:103CF000EC0800209FED914AB0EE440A9FED8F4AF8
:103D0000F0EE440A9FED8D4AB0EE441A9FED8B4AC7
:103D1000B0EE442A9FED894AF0EE441A9FED874A9F
:103D2000F0EE442A9FED854AB0EE443A9FED834A77
:103D3000F0EE443A90ED004AD0ED084A24EE244AD1
:103D4000B0EE440A90ED014AD0ED084A24EE244A30
:103D5000F0EE440AB0EEC04AB0EE442AB0EEE04ABB
:103D6000F0EE441A32EE214AB0EE441A20EE204A18
:103D7000B5EEC04AF1EE10FA46DBB4EEE12AF1EE00
:103D800010FA20DBB7EE004A30EE044AF6EE004AA5
:103D900024EE244A80ED034AB7EE004A34EE404A4E
:103DA000F6EE004A24EE244A80ED044AB7EE004ABB
:103DB00074EE404AB6EE005AB0EE604A05EE244A70
:103DC00080ED054A53E0B7EE004A74EE604AB6EE65
:103DD000005AB0EE404A05EE244A80ED034AB7EEA1
:103DE000004A34EE604AF6EE004A24EE244A80EDA2
:103DF000044AB7EE004A30EE844AF6EE004A24EE5A
:103E0000244A80ED054A32E0B7EE004AB4EEC41A07
:103E1000F1EE10FA07DD80EE014AB0EE440A80EEC2
:103E2000814AF0EE440AB7EE004A30EE044A34EE1E
:103E3000604AF6EE004A24EE244A80ED034AB7EECB
:103E4000004A34EE404A34EE604AF6EE004A24EE70
:103E5000244A80ED044AB7EE004A34EE404A34EE7C
:103E6000204AF6EE004A24EE244A80ED054A90ED01
:103E7000034AF7EE004A34EEC44AF0EE442A90EDCD
:103E8000044AF7EE004A34EEC44AB0EE443A90EDEC
:103E9000054AF7EE004A34EEC44AF0EE443A9FED8C
:103EA000284AF4EEC42AF1EE10FA02D29FED244A19
:103EB00001E0B0EE624AF0EE442A9FED214AB4EEF2
:103EC000C43AF1EE10FA02D29FED1D4A01E0B0EEC5
:103ED000434AB0EE443A9FED1A4AF4EEC43AF1EE8A
:103EE00010FA02D29FED164A01E0B0EE634AF0EEFE
:103EF000443AC18B04EE101AB8EE444A24EE224A2A
:103F0000BCEEC44A14EE101A0183C18B04EE101AE1
:103F1000B8EE444A24EE034ABCEEC44A14EE101A2A
:103F20004183C18B04EE101AB8EE444A24EE234AB2
:103F3000BCEEC44A14EE101A8183704700000000E2
:103F40000AD7A33D10B504462046FFF7D3FE228BC7
:103F500000210B4801F0BDFC628B0121084801F0F3
:103F6000B8FCA28B0021074801F0B3FC01210648F0
:103F700001F00CFC1021044801F008FC10BD000009
:103F800000410240004202400040024010B50120C2
:103F9000012181401C4A516000BF41F27072002132
:103FA0001A4801F096FC41F270720021184801F0A5
:103FB00090FC41F270720021164801F08AFC41F237
:103FC00070720121114801F084FC41F270720121EC
:103FD0000F4801F07EFC41F2707201210D4801F0A2
:103FE00078FC01210C4801F0CDFB10210A4801F0BA
:103FF000C9FB4FF48071084801F0C4FB4FF48051B5
:10400000054801F0BFFB10BD0084024800010240DA
:1040100000020240000402400000024010B50620E9
:104020004FF4803181400F4A516000BF41F27072FD
:1040300000210D4801F04DFC41F2707200210B4847
:1040400001F047FC41F270720121074801F041FC88
:104050000121074801F09AFB1021054801F096FB69
:1040600010BD0000008102480041024000420240B1
:104070000040024070B50446FD48B0F8C400022874
:104080007ED0FB48FEF708FA48B3FA48008830BBF8
:10409000F74890F8CA0088B1F7480068401CF64914
:1040A0000860F348D0F8B400096888421ADAF34887
:1040B000006840F02000F149086013E0EE48006815
:1040C000401CED49086008460068B0F5FA4F09DD6C
:1040D000EA48006840F02000E849086002E000205B
:1040E000E5490860E24890F8CA0048B1E448006831
:1040F000FDF796F80020E3490880E3490880B0E026
:10410000E2480088012817D1E048FDF7EFFC0020C5
:10411000DF4948810120086100024861DB4840898D
:10412000401C4FF6FF7101EA0010DA490880214671
:10413000D748FEF7DDF994E0CD4890F8A5000028B7
:104140005AD1D048008800281EDDCE480088401C87
:10415000CC49088008460088CF490988884212DB8C
:104160000020C8490880C24890ED3D0ACB4880ED48
:104170000C0A2246CA49FFF73FF90120BC4900E07A
:1041800067E081F8A5006CE0B948816894F86700A1
:10419000A1EB8021B648406A814208DCB448B0F9FE
:1041A000C600002803DDB248806A332813DDB0481A
:1041B000816894F8670001EB8021AD48406A814234
:1041C0004FDBAB48B0F9C60000284ADAA848806A3D
:1041D00010F1330F45DB94F8460000EE100AB8EEFC
:1041E000400ADFEDB00A20EE200AAC4880ED070A55
:1041F0000120A449088034E09D48816894F8670054
:10420000A1EB80219A48406A814208DC9848B0F9C5
:10421000C600002803DD9648806A332813DD9448E1
:10422000816894F8670001EB80219148406A8142DF
:1042300017DB8F48B0F9C600002812DA8C48806A74
:1042400010F1330F0DDB224695499448FFF7D4F85F
:1042500007E0874890F8CA0018B189480068FCF761
:10426000DFFF83484068C117814A9268D317821ADA
:1042700061EB030194F868004FF40043A3EBC01016
:1042800094F86930A0EB6300C517A2FB003601FB70
:10429000006002FB05007649D1E904219A184841E3
:1042A0007349C1E9042008460169808A420442EA50
:1042B000D1306F498860084690F8A500012816D1D2
:1042C000084690ED380AB5EEC00AF1EE10FA04D2B5
:1042D00090ED380AB1EE400A02E0654890ED380AE8
:1042E000DFED710AB4EEE00AF1EE10FA04D3604893
:1042F000B0F8C400022871D15D4890F8CA000028C7
:10430000F9D161480088401C5F4908800846008850
:10431000B0F5165F02DB4FF4165008805A4800884B
:104320005D490988884260DB57480088B0F5165F10
:104330005BDA50480088012851D19FED5C0A57484C
:1043400080ED0C0A544800884F4908804848D0ED59
:10435000380A574890ED000AB8EEC00AF4EEC00AD9
:10436000F1EE10FA15DD4248406851490968401ADB
:104370003F4948604F4800684D490968401A4D4917
:1043800008604D4800684A490968401A4A4908606F
:104390002BE03748D0ED380A45480068404200EE2F
:1043A000100AB8EEC00AF4EEC00AF1EE10FA1CD200
:1043B0002F4840683E49096808442D4948603D48F7
:1043C00000683B49096808443A4908603A4800686F
:1043D0003749096808443849086006E03BE1244849
:1043E00090ED3D0A2D4880ED0C0A2748008842F2E6
:1043F0002731884219DB2448008842F2265188423E
:1044000013DC2E4890ED000A2D48D0ED000A30EE66
:10441000200A80ED000A294890ED010A2948D0EDD4
:10442000000A30EE200A80ED000A17480088B0F537
:10443000AF6F09D19FED1D0A214880ED000A9FED65
:104440001B0A204880ED000A0F480088B0F5165F6F
:1044500040DA00201C4908809FED140A1B4880EDBB
:10446000000A9FED120A1A4880ED000A04E10000DC
:10447000C03100201633002080330020180A0020AD
:104480002C330020843300200E0A0020E009002095
:10449000B8320020320A0020300A0020240900200F
:1044A000A4090020624EAF390000884600000000D9
:1044B000080A0020040A0020000A00200009002049
:1044C000883300208C3300209C330020943300205C
:1044D000983300206E4890ED380AB5EEC00AF1EE30
:1044E00010FA04D290ED380AB1EE400A02E06848B2
:1044F00090ED380ADFED670AB4EEE00AF1EE10FA4B
:1045000002DD00206449088064480088401C63493B
:104510000880634890ED0D0A6248D0ED000A30EE45
:10452000200A80ED000A5E4890ED140A5E48D0ED46
:10453000000A30EE200A80ED000A08460088802834
:1045400074DB584890ED000ADFED580A20EE200A8F
:1045500080ED000A544890ED000ADFED540A20EE89
:10456000200A80ED000A4E4890ED0C0A4D48D0ED2F
:10457000000A30EE600AB5EEC00AF1EE10FA0AD277
:10458000474890ED0C0AB1EE400A4648D0ED000ACB
:1045900030EE600A07E0424890ED0C0A4148D0ED49
:1045A000000A30EE600A4248D0ED000AB4EEE00A9C
:1045B000F1EE10FA02DB002037490880384890ED10
:1045C000130A3948D0ED000A30EE600AB5EEC00A91
:1045D000F1EE10FA0AD2324890ED130AB1EE400A19
:1045E0003148D0ED000A30EE600A07E02C4890ED2B
:1045F000130A2D48D0ED000A30EE600A2C48D0EDA9
:10460000000AB4EEE00AF1EE10FA02DB00202249C3
:1046100008800020214908801FED5C0A214880EDB8
:10462000000A1FED5E0A204880ED000A214890ED47
:10463000000ADFED210A20EE200A204880ED000A62
:104640001F4890ED000ADFED1C0A20EE200A1B48EF
:1046500080ED010A10E000201A4908600E49088028
:104660000E4908801FED6F0A0E4880ED000A1FED0D
:10467000710A0D4880ED000A07480088B0F5165F02
:1046800004DA0E4A06490248FEF74CFF70BD0000EE
:10469000C031002000008C460E0A00209C33002010
:1046A0002409002094330020983300202497FF3BF6
:1046B00090330020883300206F12033B0009002054
:1046C0008C330020140A002010B504462046FEF763
:1046D00003FA34F8522F00210D4801F0FAF86288ED
:1046E00000210C4801F0F5F8A288523C00210A484C
:1046F00001F0EFF80121094801F044F810210748C2
:1047000001F040F84FF48051044801F03BF810BD2F
:10471000000402400002024000010240000002408A
:1047200010B570E003213A4801F009FC01280AD1D4
:1047300038480088401C37490880084600886428AB
:1047400004D1012460E0002032490880324800880A
:10475000642807DD09212E4801F0F1FB012801D171
:10476000032451E02C480088652804DA2A48008890
:10477000401C294908800821254801F0E0FB50B978
:1047800026480088401C254908800846008864287F
:1047900001D1042438E00321214801F0D0FB58B9AD
:1047A00020480088401C1F49088008460088B0F552
:1047B0007A7F01D1052427E01B480078C0F3C000B0
:1047C00088B10721124801F0BAFB01280BD1174824
:1047D0000088401C1549088008460088B0F5FA7F1B
:1047E00001D1062410E010480078C0F3800040B1E9
:1047F0000C210F4801F0A3FB08B9072404E00024B2
:1048000002E0002400E08DE700BF204610BD00005C
:1048100000800248CA040020D0040020C804002000
:10482000008F0248CC040020D4040020D2040020D1
:10483000008E024810B57848006800F0010070B999
:104840007548001D006840F001007449C1F8040279
:1048500000BF7148006800F001000028F9D07048DE
:10486000006800F4007058B16D480830006840F4EA
:1048700000706B490831086041F64C5005F07FFC30
:104880006848006840F400206649086040F6C4109B
:1048900005F075FC63480068634908406149086099
:1048A00060481038006800F0300060B35D48103890
:1048B00000685E4908405B4910390860FDF752FA0C
:1048C0005B49B0FBF1F0401E56491039096841EAD6
:1048D000004054491039086052480830006820F000
:1048E00001005049083108604E48006820F400304B
:1048F0004C49086000BF4B48001F006800F460701E
:10490000B0F5607FF7D14748006840F001004549A5
:1049100008600846006840F0100008604548091D1E
:104920000860081F006840F04000091F0860084642
:10493000006820F0100008600846006840F48020FD
:10494000086000BF3748001F006800F0040000281E
:10495000F8D03448006820F001003249086000BFF8
:104960003048001F006800F001000028F8D13248EC
:10497000006840F480303049086000202E4908313A
:104980000860091F08602C4914310860091D08607F
:10499000032029490C3108602248006820F04000BB
:1049A000204908602548091D086040F6B83005F028
:1049B000E6FB00BF1B48001F006800F00400002851
:1049C000F8D01F481749091D086041F2941005F0FE
:1049D000D6FB00BF1348001F006800F00400002849
:1049E000F8D018480F49091D086041F2707005F0B1
:1049F000C6FB00BF0B48001F006800F00400002841
:104A0000F8D0052004499439086000200A49083983
:104A1000086000F019F810BD00420050004000503E
:104A20000044005014470050FDFFFEFFCFFFF0FF91
:104A3000A0252600003B13010C460050003B070157
:104A4000003B0401003B030170B52449096801F4EF
:104A5000803181B32249096801F0010109B121487F
:104A600001E0FDF77FF91E490C39096801F00401E6
:104A7000C1B11B49091F0968C1F303614E1C1849E4
:104A8000091F0968C1F306214D1C1549091F096852
:104A9000C1F306414C1C16FB04F1B0FBF1F101FB24
:104AA00005F00AE00E49091F096801F07F014C1C5E
:104AB000B0FBF4F001E0FFE70A4808490968C9B211
:104AC000491CB0FBF1F00549091D096801F001011D
:104AD000491CB0FBF1F00449086070BD0C46005061
:104AE0001C47005000366E01C0FF002072B612490C
:104AF000124A116000BF00BF00BFBFF34F8F00BF5D
:104B000000BF00BF62B60D498031096841F47001F1
:104B10000A4A8032116009490C31096821F0080104
:104B2000064A0C3211600649486920F00F0040F037
:104B300003004861704700000000000808ED00E035
:104B40000020005810B5102251060648FBF79AFCC9
:104B50000548064B0ECB0EC0FFF7C8FFFFF76AFEF5
:104B600010BD0000C4FF0020D4FF002084000020FE
:104B700010B50446FDF78AFD02F02EF902F0A6F901
:104B8000FEF73CFBA06900F0A3F9E06903F020F90F
:104B9000D4E9041002F0B2FAD4E9001003F020F8CE
:104BA000D4E9021002F03EFCFDF792FC0421094812
:104BB00001F03EFA0121084801F03AFA06210748BF
:104BC00001F036FA042001218140024A516000BF01
:104BD00010BD0000008302480084024800810248A2
:104BE00010B540F2145410480088104909888842D2
:104BF00014D001200E4908700B4802880088401C20
:104C0000094B18800B48815C0B4801F0E2FD00BFA6
:104C1000201EA4F101018CB2FAD104E0FDF758FC8A
:104C200000200349087010BDF8040020FA04002099
:104C300000050020A4A400200000034010B5144883
:104C400001F080FDC4B21348007838B95A2C05D160
:104C500000201149088001200E4908700E48008884
:104C6000B0F5967F08DA0C4801880088401C0A4A93
:104C700010800A4844540AE000200749088008468A
:104C800001880088401C044A10800448445410BD28
:104C9000000003403A030020FE040020D1A50020BC
:104CA000704770477047000010B5044801F04AFD96
:104CB000C4B22146014801F08CFD10BD000002483D
:104CC00010B500216A4801F018FFC0F30B006949D4
:104CD00008800021684801F010FFC0F30B0067490D
:104CE00008800021664801F008FFC0F30B00654909
:104CF00008800021644801F000FFC0F30B00634905
:104D0000088001215A4801F0F8FEC0F30B00604909
:104D100008800221564801F0F0FEC0F30B005D4907
:104D2000088054480088A0F5006000EE100AB8EE34
:104D3000C00A5948D0ED000AF1EE600A20EE200AC0
:104D4000564880ED0E0A4D480088A0F5006000EE40
:104D5000100AB8EEC00A5048D0ED000AF1EE600A21
:104D600020EE200A4D4880ED150A46480088A0F53F
:104D7000F96000EE100AB8EEC00A4948D0ED000A0A
:104D8000F1EE600A20EE200A464880ED0F0A3F4807
:104D90000088A0F5FB6000EE100AB8EEC00A40489B
:104DA000D0ED000A20EE200A3E4880ED100AFCF704
:104DB0006DFD01213C4800F059FC00F480103B4996
:104DC00008603948703000684EF6602188420DD97D
:104DD00000BF02203449086100BF9FED350A354805
:104DE00080ED000A01203449088030E02F48006837
:104DF00068B33148008840B19FED2D0A2D4880ED01
:104E0000000A00202C49088021E00121264800F0FA
:104E10002DFC2A49088000BF2948006EC0F30020FD
:104E2000012801DA012001E04FF0FF302549484315
:104E300000EE100AF8EEC00A2048008800EE100AC2
:104E4000B8EE400A80EE801A1A4880ED001A194820
:104E500090ED000A1C4880ED000A0AF08FFEFEF774
:104E600067FA00BF01201949086000BF10BD0000AB
:104E7000004400405C070020005000405E07002016
:104E8000004C004058070020004800405A0700200E
:104E90006007002062070020680700202409002026
:104EA000640700209007002000C400408C07002009
:104EB000000000006C07002080070020860700200B
:104EC00000800240688909007C0700209845004066
:104ED00010B56B494FF0402001F09CFD69496A48CC
:104EE00001F012FE6749694801F00EFE6549684805
:104EF00001F00AFE6349674801F006FE6649624810
:104F000001F089FE6549614801F085FE6449604809
:104F100001F081FE63495F4801F07DFE624A022193
:104F2000594801F0AFFD614A0321574801F0AAFD3D
:104F30005F4A0421544801F0A5FD5E4A0721534809
:104F400001F0A0FD5C4A0221514801F09BFD5B4A43
:104F50000021504801F096FD594A00214A4801F0CD
:104F60009EFE574A0121484801F099FE544A022109
:104F7000454801F094FE524A0021444801F08FFE5A
:104F80004F4A0021424801F08AFE4D4A0021414823
:104F900001F085FE12204B4A5178002804DB8A0676
:104FA000130E494A135406E08A06140E474A00F0CD
:104FB0000F031B1FD45400BF0021334801F066FECD
:104FC0001220002809DB00F01F0201219140420954
:104FD000920002F1E022C2F8001100BF03212A482A
:104FE00001F064FE0321294801F060FE03212848F6
:104FF00001F05CFE0321274801F058FE4FF04020ED
:1050000001F022FD324801681F4801F03AFE3148A4
:1050100001681D4801F035FE2F4801681A4801F06B
:1050200030FE2E480168194801F02BFE2C4801681B
:10503000174801F026FE2B480168164801F021FEB2
:10504000294A0221294800F093FF274A03212748D3
:1050500000F08EFF244A0421244800F089FF224AF0
:105060000F21224800F084FF1F4A0221204800F04F
:105070007FFF1D4A08211E4800F07AFF10BD000086
:1050800078050020900500200044004000480040C2
:10509000004C004000500040A4050020B005002056
:1050A000BC050020C8050020D4050020E405002030
:1050B000F405002004060020140600202406002029
:1050C000340600205C06002000E400E018ED00E05B
:1050D000380600203C060020400600204406002040
:1050E000480600204C06002050060020008E024892
:1050F000008F024870B50B4600BF00BFD0F8C41146
:1051000001F4407109B9012100E000210029F4D027
:1051100002215D1CECB24FF47F0505EA02450D4308
:105120004FF07F4606EA04663543C0F8C45100BF1D
:1051300070BD000010B50446084801F005FA0748A4
:1051400001F060FA206820F00100206000BF2068B4
:1051500000F002000028FAD110BD0000100000107D
:105160002DE9F04F85B004460D4601F023F8804646
:105170002046FFF7DFFF0020B8FBF5F2C2F58061A3
:10518000884201D9024600E00A46934640F2FF31C8
:10519000584609F099FC8146C9F58060B8FBF0F0EB
:1051A0000490A80901904FEA981701988002B0FB7B
:1051B000F7FB40F2FF31584609F086FC064607FB34
:1051C00006F0800A03900398800103900498291A3E
:1051D0000398281A814201D8012000E0002082466D
:1051E000BAF1000F01D0484600E030460290BAF113
:1051F000000F01D0012000E002200090E0684CF296
:10520000FF318843E060E168029A009842EA80300A
:105210000143E16005B0BDE8F08F0000F0B5044641
:105220002A492068401AA0F58050460970094003B9
:1052300006F01F0140EA01272068806820F47F40C3
:1052400021688860206880683843216888606068C9
:10525000C0F3407020B16068C0F34070002834D0C3
:10526000207E10B1207E01282FD120202168C86126
:105270006068C0F3407080B9656805F06045A0883B
:1052800045EA804520688561A56805F0604520896C
:1052900045EA80452068C56005E0D4E900108861D2
:1052A0002168A068C860207E012807D1204600F050
:1052B00023F84FF000602168C86103E04FF40060FC
:1052C0002168C86102482168C861F0BD00400148FA
:1052D0004000A006026812680A4303681A6070471B
:1052E00010B503689B6807248C40A34302FA01F4BD
:1052F00023430468A36010BD014603200A7E012AEF
:1053000014D120220B68DA610B7B0A68126863F300
:105310001B620B681A600B680A691A610B684A699C
:105320005A61034A0B68DA61002000E003207047ED
:1053300040002800B1F5800F03D002680A430260E4
:1053400002E082690A43826170472DE9F84F024604
:105350000C250C264FF0000A4FF0010800200090A9
:10536000814642F21077012544E0D1F800B00BEB02
:105370008B0B4FEA4B0BBBFBF5FCD1F804B0BCFB2D
:10538000FBF04FF00A0BB0FBFBFE0BFB1E0BBBF15F
:10539000050F05D94FF00A0BB0FBFBF0401C03E0F2
:1053A0004FF00A0BB0FBFBF030B100EB800B4FEA83
:1053B0004B0BBCFBFBF304E04FF00A0BBCFBFBF315
:1053C0000120D1F804B09B4504D8D1F804B0A3EB78
:1053D0000B0403E0D1F804B0ABEB0304142808D8A5
:1053E000A74206D9AA4681462746B4F57A7F00D25D
:1053F00002E06D1C402DB8D900BF42F21077402664
:1054000017E0741C42F2107C04FB0CF4B4FBF9F0BE
:105410000C89844202D80C89031B01E00C89231AF1
:105420009F4201D9B0461F460C89844200D902E050
:10543000761E032EE5D200BFA9EB0800401E0090A7
:1054400000BF106840F04000106000BF0098401E90
:105450004FF4E04303EA00304B895B1EC02404EAAA
:1054600083131843A8F101034FF4706404EA032383
:105470001843AAF1010303F03F031843106100BF72
:10548000106820F04000106000BFBDE8F88F10B534
:10549000836807248C40A34302FA01F4234383600A
:1054A00010BDC26801238B401A43C26070470000E0
:1054B00070B50446102000F011FE25461C488542B8
:1054C00003D1042001F040F813E01A48854203D1CB
:1054D000082001F039F80CE01748854203D110206C
:1054E00001F032F805E01548854202D1144801F078
:1054F0002BF800BF25460E48854203D1042001F059
:1055000081F813E00B48854203D1082001F07AF8B6
:105510000CE00948854203D1102001F073F805E042
:105520000648854202D1064801F06CF800BF70BD04
:1055300000C0004000000140004001400040004821
:10554000010000100161704770B504460E46204608
:10555000FFF7AEFF00BFE06840F48070E06000BF7E
:10556000256825F4404545EA8635256070BD0A4624
:10557000416821F0300141EA0211416070470A465A
:10558000416821F0C00141EA8211416070470A6818
:1055900042618A88C2F30022120542600A7902F051
:1055A0000F0242620A79C2F30312C2627047D0F856
:1055B000B02001238B401A43C0F8B02070470A681E
:1055C00042618A88C2F34032120542600A7902F0D1
:1055D0000F0242628A88C2F3032202628A88C2F3FF
:1055E000003282610A79C2F30312C262704770B559
:1055F00004460D466E1EF3B22068102606EB4306E5
:10560000F1B203268E40B04356788E40304303F10A
:105610001606F1B201268E40B04396788E40304394
:10562000192606EB4306F1B203268E40B043D67826
:105630008E403043002606EB8306F1B20F268E40E3
:10564000B04316788E403043206070BD0A464168F2
:1056500021F4404141EA8231416070470A46416885
:1056600021F4406141EA822141607047024602F123
:10567000740050F8210070470246D2F8A0000123C0
:105680008B40184008B1012070470020FCE770B53E
:1056900003460C461546D3F8A8200A2C16D2DFE89C
:1056A00004F00506090A151515150D1100BF032193
:1056B00000200FE000BF0C2102200BE04FF44071EE
:1056C000082007E04FF440610A2003E04FF4405106
:1056D0000C2000BF00BF8A4305FA00F63243C3F82E
:1056E000A82070BDC163704721B9426922F0010250
:1056F000426103E0426942F0010242617047416346
:105700007047016770470121C16070470A46016810
:1057100021F0300141EA021101607047C16841F493
:105720008071C1607047C26801238B401A43C26018
:105730007047000070B50446102000F0CFFC2546ED
:105740000E48854203D1802000F0FEFE05E00C48A3
:10575000854202D1801500F0F7FE00BF25460748BC
:10576000854203D1802000F04DFF05E004488542CA
:1057700002D1801500F046FF00BF70BD000002405E
:10578000004002400161704701617047016170474C
:1057900070B504460E462046FFF7CCFF00BFE06818
:1057A00040F48070E06000BF256825F4404545EA7C
:1057B0008635256070BD00BF0122026100BF0A6806
:1057C00042618A89C2F30032120542600A7B02F00C
:1057D0000F0242620A7BC2F30312C2628A89C2F3D9
:1057E000032202624A6882618A6882F0140282643B
:1057F000704770B504460D466E1EF3B22068102641
:1058000006EB4306F1B203268E40B04356788E4035
:10581000304303F11606F1B201268E40B04396786C
:105820008E403043192606EB4306F1B203268E4024
:10583000B043D6788E403043002606EB8306F1B2A3
:105840000F268E40B04316788E403043206070BDE6
:105850004A6802658A6842650A68C264704770B522
:1058600003460C461546D3F8A8200A2C1AD2DFE8C6
:1058700004F00506090A0D0E1919111500BF0320C1
:10588000002113E000BF0C2002210FE000BF3020F8
:1058900004210BE04FF44070082107E04FF4406012
:1058A0000A2103E04FF440500C2100BF00BF8243A7
:1058B00005FA01F63243C3F8A82070BDD0F8B42031
:1058C00022F00C02062303EA41031A43C0F8B42075
:1058D000704709B9C26300E0426470474163704792
:1058E00030B50C461346416821F003012143416065
:1058F0004269012B02D142F4806201E022F480620D
:10590000426130BD0A46016821F0300141EA0211CE
:1059100001607047C16841F48071C160704770B523
:10592000034600200BE001248440144034B10124DC
:105930008C40460003F54E7545F82640401C05286E
:10594000F1D370BD40F201128A40C0F8A023704725
:1059500070B5034600200CE00124844014403CB1A3
:1059600040F201148C40460003F5447545F826408A
:10597000401C0528F0D370BD2DE9F04704460D46C4
:105980001646204600F088FA00287CD0294620469A
:1059900000F084F9002877D105EB450101EBC50142
:1059A000706844F8310005EB450101EBC50104EBDB
:1059B000C101B068886005EB450101EBC50104EB4E
:1059C000C101F0680861308B05EB450101EBC501B1
:1059D00004EBC101C86105EB450101EBC50104EB16
:1059E000C10130688861F07E40F4406005EB4501FC
:1059F00001EBC50104EBC1010864A748844211D141
:105A0000022D0FDA05EB450101EBC50104EBC101E5
:105A10003069886405EB450101EBC50104EBC10168
:105A200070690865308C80BB3068C0F30250012873
:105A300004D03068C0F30250032830D196F8220019
:105A400000F0070796F822004FEA201905EB450001
:105A500000EBC50004EBC000406C40EAC72005EB3A
:105A6000450101EBC50104EBC10148644A463946D2
:105A7000204600F04BF905EB450000EBC50004EBB8
:105A8000C000006C02E002E1FEE008E020F480606B
:105A900005EB450101EBC50104EBC1010864B08BC6
:105AA000A0BB3068C0F30250022804D03068C0F3B5
:105AB000025003282AD1B07F00F00707B07F4FEAD9
:105AC000201905EB450000EBC50004EBC000406C5D
:105AD00040EAC71005EB450101EBC50104EBC1012C
