:020000040800F2
:10000000F0BC0020E9020008F5020008F502000833
:10001000F5020008F5020008F502000800000000E3
:10002000000000000000000000000000F5020008D1
:10003000F502000800000000F5020008F5020008C3
:10004000F5020008A1180008F5020008F5020008F2
:10005000F5020008F5020008F5020008F5020008A4
:10006000F502000800000000000000000000000091
:10007000F502000800000000F5020008F502000883
:10008000F5020008F502000819540008F5020008FE
:10009000F5020008F5020008F5020008F502000864
:1000A000F5020008F5020008F5020008F502000854
:1000B000F5020008F5020008F5020008F502000844
:1000C000F5020008F5020008F5020008F502000834
:1000D000F5020008F5020008F5020008F502000824
:1000E000F5020008F5020008F5020008F502000814
:1000F000F5020008F5020008E50A0008F50200080C
:10010000F5020008F5020008F5020008F5020008F3
:10011000F5020008F5020008F5020008F5020008E3
:10012000F5020008F5020008990C0008F502000825
:10013000F5020008F5020008F5020008F5020008C3
:10014000F5020008F5020008F5020008F5020008B3
:10015000F5020008F5020008F5020008F5020008A3
:10016000F5020008F5020008F5020008F502000893
:10017000F5020008F5020008F5020008F502000883
:10018000F5020008F5020008F5020008F502000873
:10019000D952000835530008F502000899530008A9
:1001A000F50200089B5300089D530008A153000866
:1001B000F5020008F5020008F5020008F502000843
:1001C000000000000000000000000000000000002F
:1001D0000000000000000000F50200080000000020
:1001E000F5020008A11D000800000000F50200084B
:1001F00000000000000000000000000000000000FF
:1002000000F002F800F060F80AA090E8000C8244C8
:100210008344AAF10107DA4501D100F055F8AFF2A5
:10022000090EBAE80F0013F0010F18BFFB1A43F0D4
:1002300001031847F01D0200101E020010F8013BD8
:100240000A4413F0030408BF10F8014B1D1108BF46
:1002500010F8015B641E05D010F8016B641E01F8F4
:10026000016BF9D1002D15D010F8014B03F00C03F0
:100270000C2BA1EB04040ABF10F8013BA4EB831480
:10028000A4EB032405F1010314F8016B5B1E01F8D4
:10029000016BF9D5914238BF10F8013BD1D37047BB
:1002A0000023002400250026103A28BF78C1FBD87F
:1002B000520728BF30C148BF0B6070471FB51EF002
:1002C00095FB1FBD10B510BD00F018FA1146FFF7E1
:1002D000F5FF10F043F800F036FA03B4FFF7F2FF31
:1002E00003BC00F03DFA0000DFF818D00648804754
:1002F00006480047FEE7000005480649064A074B46
:1003000070470000F0BC00203952000801020008CC
:10031000F0B20020F0BC0020F0B40020F0B40020C7
:100320009FED1A1AF5EE000A40EE010ABDEEE00A52
:10033000F5EEC00A10EE100AF1EE10FA38BF401EBA
:1003400000EE100A1349F7EE001AB8EEC00A30EEBC
:10035000C00ADFED0F0A20EE200AFCEEC00A10EE04
:10036000900AC0F3080000EE900A01EB8000F8EE5E
:10037000600A90ED011A70EE600A90ED000A71EECD
:10038000E01A21EE800A00EE810A704783F9223ECE
:100390000000004420180208B5EEC00AF1EE10FA81
:1003A00007D2DFED1E0AB4EEE00AF1EE10FAA8BFA4
:1003B0007047DFED1B0AB5EEC00A60EE200ABDEE05
:1003C000E01A11EE100AF1EE10FA38BF401E00EEEE
:1003D000100A1549F7EE001AB8EEC00A30EEC00A4E
:1003E000DFED100A60EE200ABCEEE00A10EE100A03
:1003F000C0F3080000EE100A01EB8000B8EE400ADE
:1004000090ED011A70EEC00A90ED000A71EEE01A4C
:1004100021EE800A00EE810A70470000CD024CB444
:1004200083F9223E000000442018020810B54C1049
:1004300084EA530404D54042C1F1000138BF491E8B
:100440001B4204D55242C3F1000338BF5B1E00F0CB
:10045000DEF814F0804F04D04042C1F1000138BFF3
:10046000491E14F0004F04D05242C3F1000338BFBC
:100470005B1E10BD40EA010310B59B070FD1042A93
:100480000DD310C808C9121F9C42F8D020BA19BA5F
:10049000884201D9012010BD4FF0FF3010BD1AB1C4
:1004A000D30703D0521C07E0002010BD10F8013B19
:1004B00011F8014B1B1B07D110F8013B11F8014B40
:1004C0001B1B01D1921EF1D1184610BD032A40F228
:1004D000308010F0030C00F0158011F8013BBCF1E6
:1004E000020F624498BF11F801CB00F8013B38BFFE
:1004F00011F8013BA2F1040298BF00F801CB38BF0C
:1005000000F8013B11F0030300F02580083AC0F029
:10051000088051F8043B083A51F804CBA0E80810D1
:10052000F5E7121D5CBF51F8043B40F8043BAFF304
:100530000080D20724BF11F8013B11F801CB48BF5E
:1005400011F8012B24BF00F8013B00F801CB48BF94
:1005500000F8012B704710B5203AC0F00B80B1E8CD
:100560001850203AA0E81850B1E81850A0E81850E8
:10057000BFF4F5AF5FEA027C24BFB1E81850A0E8F1
:10058000185044BF18C918C0BDE810405FEA827C0B
:1005900024BF51F8043B40F8043B08BF7047D20722
:1005A00028BF31F8023B48BF11F8012B28BF20F8C3
:1005B000023B48BF00F8012B70474FF0000200B526
:1005C000134694469646203922BFA0E80C50A0E876
:1005D0000C50B1F12001BFF4F7AF090728BFA0E824
:1005E0000C5048BF0CC05DF804EB890028BF40F8F0
:1005F000042B08BF704748BF20F8022B11F0804F32
:1006000018BF00F8012B704770477047704753EAD6
:10061000020C00F069802DE9F04B4FF00006002B32
:100620001FBFB3FA83F503FA05F424FA05F65E401A
:1006300012BF1643B2FA82F502FA05F4C5F120059D
:100640001EBF22FA05FC44EA0C04203556EA044C8D
:100650004FEA144418BF641C4FF000084FF0000923
:10066000904271EB030C39D3002919BFB1FA81F71D
:1006700001FA07F6B0FA80F700FA07F6C7F120078B
:100680001EBF20FA07FC46EA0C062037B6FBF4FC36
:10069000A7EB0507103F07F01F0BCBF120060CFA64
:1006A0000BFB2CFA06F644BFB3460026202FA4BF4E
:1006B0005E464FF0000B5BEA060C08BF4FF0010BE3
:1006C00019EB0B09ABFB027C48EB0608C01B06FBD1
:1006D00002CC0BFB03CC71EB0C01C1E70B460246CD
:1006E00041464846BDE8F08B13B54FF000004FF08F
:1006F0000001AFF30080BDE81C407047754600F074
:100700002BF8AE4605006946534620F007008546A3
:1007100018B020B5FFF7F0FDBDE820404FF000060F
:100720004FF000074FF000084FF0000B21F00701D9
:10073000AC46ACE8C009ACE8C009ACE8C009ACE81C
:10074000C0098D46704710B50446AFF300802046BF
:10075000BDE81040FFF7C1BD004870478CB20020D3
:1007600001491820ABBEFEE72600020070470000DA
:1007700091F0000F04BF6FF00040704710B54FF0CC
:10078000010E90EA010F48BF4FF0000E002848BF4D
:100790004042002948BF4942B0FA80F40A2CA8BF61
:1007A0000A2400FA04F2C4F10A0CB2FBF1F0B0FA28
:1007B00080F39C45A4BFCEF1004010BD01FB102288
:1007C000B2FA82F464450EDAACEB040C02FA04F2DD
:1007D00000FA04F0B2FBF1F301FB13221844B2FA61
:1007E00082F46445F0DD02FA0CF200FA0CF0B2FB80
:1007F000F1F318449EF0000F08BF404210BD000006
:1008000080FB01014FEA902000EB8150704700000F
:10081000B0FA80F303F01F0242B300FA03F000B510
:100820004FEA9052134951F82210A0FB01E2A2FBBB
:1008300001E2C2F14042A2FB01E14FEA4101A0FB0B
:1008400001E2A2FB01E2C2F14042A2FB01E14FEA58
:100850004101A0FB01E003F114035B1024BF064A31
:10086000A2FB0010D84040F1000000BD4FF0000096
:1008700070470000ECD9010834F304B591F0000F83
:1008800004BF6FF00040704710B54FF0010E90EAC2
:10089000010F48BF4FF0000E002848BF404200291A
:1008A00048BF4942B0FA80F4142CA8BF142400FABF
:1008B00004F2C4F1140CB2FBF1F0B0FA80F39C45E1
:1008C000A4BFCEF1004010BD01FB1022B2FA82F4A9
:1008D00064450EDAACEB040C02FA04F200FA04F000
:1008E000B2FBF1F301FB13221844B2FA82F464451F
:1008F000F0DD02FA0CF200FA0CF0B2FBF1F318444E
:100900009EF0000F08BF404210BD000080FB0101B7
:100910004FEA105000EB01307047000043F60651DB
:10092000024A1180024A11807047000056340020AC
:10093000240A00202DE9F04104460027D4F89080D5
:10094000206801F01DFA0746002F5BD1D4E90101B0
:1009500005F0A7F86068016841F04001016000BF40
:100960006068016841F00101016000BF94F8A700D0
:10097000012806D16068C16841F48071C16000BF80
:1009800010E08434D4E905321979186805F028FF9D
:1009900054F8800C217F843CC26861F30202C2607B
:1009A00000BF00BF204600F057F800250EE004F11C
:1009B0000C0050F82560327994F8A110236858682B
:1009C00004F044FF304600F021F86D1C94F8A200BA
:1009D000A842ECD86068016821F04001016000BFC6
:1009E0006068016821F00101016000BF94F8A70070
:1009F00048B998F80410D4F89420D8F8000005F00D
:100A0000EFFE00E001273846BDE8F08110B504464E
:100A1000206804F0AFFFE07901280CD1627904214D
:100A2000206805F009F800BF4FF40031206804F099
:100A3000FDFF00BF00BF207A01280CD1A279002160
:100A4000206804F0F9FF00BF4FF48031206804F003
:100A5000EDFF00BF00BF10BD70B504460025204665
:100A600000F020F894F8A400012801D145F0020517
:100A700094F8A300012801D145F0040594F8A500DD
:100A8000012801D145F008052946606804F0FEFF01
:100A900094F8A600012804D14FF48001606804F0A6
:100AA000F5FF70BD10B50446D4F88C100A7800210B
:100AB000606805F098F8D4F88C104A7804216068D2
:100AC00005F091F8D4F88C108A780821606805F058
:100AD0008AF8D4F88C10CA780C21606805F083F885
:100AE00010BD000010B5002059490968012282405C
:100AF0001143574AB03AC2F8B01000BF55480078C9
:100B000001287DD10FF00EFD5348006810B1524905
:100B1000086880470C21514805F04FFE70B95048D5
:100B20000088401C4E490880084600880A280ADBD5
:100B30000020088001204B49087004E0002048494B
:100B4000088048490870484890ED030A20EE000AE2
:100B5000D0ED020A90ED021A00EE810A434880EDC2
:100B6000000A90ED000ADFED420AB4EEE00AF1EE71
:100B700010FA1DDB3F4890ED030AB0EEC00ADFED2E
:100B80003E0AB4EEE00AF1EE10FA11DB3B480088B1
:100B9000401C3A49088008460088B0F57A7F0ADB95
:100BA0000020088003F088FC01203549087002E02D
:100BB0000020324908802D4890ED000ADFED2E0A12
:100BC000B4EEE00AF1EE10FA1DDD2A4890ED030ABA
:100BD000B0EEC00ADFED280AB4EEE00AF1EE10FA3A
:100BE00011D228480088401C264908800846008801
:100BF000B0F5FA6F0ADB002008800120224900E0EE
:100C000021E0087002E000201E490880194890ED9C
:100C1000030AB0EEC00ADFED1D0AB4EEE00AF1EE01
:100C200010FA11DD1A480088401C1949088008464E
:100C30000088B0F57A7F0ADB0020088003F03CFCD6
:100C400001201449087002E000201149088010BDFD
:100C5000B0C300406108002080B00020008E024830
:100C60008808002080080020CC0800209008002080
:100C70000000A2428CB000200000C8428A08002078
:100C8000810800208C0800208208002000409C453C
:100C90008E0800208308002010B500201049096844
:100CA00001228240114009B1012100E0002161B11F
:100CB00000200B4910310968012282401143084A83
:100CC000A03AC2F8B01000BF00BF0648408818B96B
:100CD00004F0A0F8034948800BF000F910BD0000B3
:100CE000A0440048D004002010B50021904804F032
:100CF000D7FF00218F4804F0D3FF8D4805F0BAF8E4
:100D00008C4805F0B7F80021894805F0ABF80021C0
:100D1000884805F0A7F88849884804F0FCFF88480F
:100D20000068C0084FF4FA61B0FBF1F0401E84B2D5
:100D30002146824805F08FF80021804805F080F8B0
:100D40004FF480717A4804F0A9FF022200217B4809
:100D500005F049F800207949A43109680122824050
:100D60001143764AC2F8A41000BF2E20754A91782C
:100D7000002804DB8A06130E734A135406E08A0621
:100D8000140E724A00F00F031B1FD45400BF2E2014
:100D9000002809DB00F01F02012191404209920066
:100DA00002F1E022C2F8001100BF0221604804F005
:100DB00024FF00BF01206149C86000BF6449654845
:100DC00004F0A9FF6249644804F0A5FF6049634844
:100DD00004F0A1FF5E49624804F09DFF614962484A
:100DE00004F081FF5F49614804F07DFF4FF6FF7119
:100DF000584805F030F841F63F71574805F02BF898
:100E00000321564805F027F80321554805F023F83B
:100E10001121474804F042FF1121464804F03EFFEB
:100E200001214C4804F0BEFF02214A4804F0C2FFF1
:100E30000121494804F0B6FF0221474804F0BAFFF7
:100E40000121494804F03FFF0121474804F043FFD6
:100E50000121464804F037FF0121444804F03BFFDC
:100E600001213E4804F09EFF01213D4804F09AFF15
:100E70003F4A0121374804F066FF3E4A02213548C7
:100E800004F061FF3A4A0121334804F05CFF394A1B
:100E90000221314804F057FF374A01212F4804F05E
:100EA00052FF354A01212E4804F04DFF334A0121FB
:100EB0002D4804F048FF314A02212B4804F043FF3B
:100EC0002E4A0121294804F03EFF2C4A02212748DE
:100ED00004F039FF0221214804F0B0FF022120482C
:100EE00004F0ACFF1021124804F0D8FE1021114884
:100EF00004F0D4FE00210E4804F07FFE01210C48CE
:100F000004F07BFE02210A4804F077FE0321084822
:100F100004F073FE0021074804F06FFE012105482C
:100F200004F06BFE0221034804F067FE10BD0000D0
:100F300000C0004000000140BC34002000C300405D
:100F4000C0FF00200807002000E400E018ED00E0EA
:100F50008834002000C100400001014000C2004070
:100F6000000201409034002000C400400003014012
:100F7000983400209C340020A4340020A8340020A1
:100F800010B5A64A0121A64805F02AFC012001213E
:100F90008140A34A516000BF0021A24804F0A4FF91
:100FA0000021A14804F0A0FF9E4805F05FF89E488C
:100FB00005F05CF800219B4805F050F800219A48A4
:100FC00005F04CF899499A4804F0A1FF97499948CF
:100FD00004F09DFF9549984804F099FF934997487C
:100FE00004F095FF9649974804F091FF41F26F7124
:100FF0008F4805F01FF841F26F718E4805F01AF81E
:1010000041F26F718C4805F015F841F26F718B4811
:1010100005F010F841F26F718A4805F00BF841F2C3
:1010200070720021824805F000F841F270720021D0
:10103000804804F0FAFF41F2707200217E4804F00B
:10104000F4FF41F2707200217C4804F0EEFF41F29F
:10105000707200217B4804F0E8FF41F270720121B8
:10106000764804F0E2FF0221714804F0D3FF022128
:10107000704804F0CFFF02216F4804F0CBFF02213B
:101080006E4804F0C7FF02216E4804F0C3FF01213F
:10109000644804F025FF1021624804F021FF4FF45A
:1010A0008051604804F01CFF01215F4804F018FFE4
:1010B00010215D4804F014FF634A01215C4804F0EC
:1010C00044FF614A01215B4804F03FFF5E4A012171
:1010D000594804F03AFF5C4A0121584804F035FFB2
:1010E000594A0121574804F030FF01221146504867
:1010F00004F0A2FF012211464E4804F09DFF012298
:1011000011464D4804F098FF012211464B4804F067
:1011100093FF012211464B4804F08EFF0120454900
:101120005C390968012282401143414AC2F8A41087
:1011300000BF022201213E4804F03DFF43493C48E4
:1011400004F032FF41493B4804F02EFF3F493A4842
:1011500004F02AFF3E4A05213E4805F041FB3C4A87
:1011600002213C4805F03CFB394A0421394805F08E
:1011700037FB374A0121374805F032FB344A062154
:10118000344805F02DFB324A0B21324805F028FB8C
:10119000224A0B212F4805F023FB204A01212D482C
:1011A00005F01EFB1D4A02212A4805F019FB284ABA
:1011B0000F21294805F014FB284A0721284805F08B
:1011C0000FFB264A0B21244805F00AFB254A002183
:1011D000134805F005FB244A06211F4805F000FBD3
:1011E0000021104804F04BFE01210E4804F047FE98
:1011F00003210C4804F043FE00210B4804F03FFE9D
:101200000121094804F03BFE4FF440701749C96CB6
:101210000143164AD16400BF10BD0000FC09002044
:10122000008402480000024000400240A40900205F
:10123000000102400002024000040240004102405E
:10124000B409002000420240DC090020C40900204B
:10125000E40900200080024800810248F0090020D3
:1012600000850248140A0020080A002000400050AF
:1012700070B50446B048006842F6E0610844AE49E3
:10128000086008460068AD49096888427ED33FE19E
:10129000A9480068A9490968401AA74908600020C0
:1012A000A7490860A748B0F9B600A7490968A74A46
:1012B000126800FB0120A349486008464068A34922
:1012C0000860A348007858B39E48B0F9B600A14919
:1012D000096848439C4909689F4A126800FB01203D
:1012E00098494860084640689B490860084600687D
:1012F00096490860002099490860994908808E49FC
:1013000008609848008840B900208E4981F8BA00EA
:101310008F4908708949086001E000F02FF970BD1D
:1013200091480078012871D100208F4908708948C0
:101330000068FF2866DB8348B0F8B8008549096873
:10134000091A8048D0F8C00081425BDD7D4890EDED
:10135000010AB8EEC00AD0ED050A30EE600ABDEE13
:10136000C00A10EE100A7749B1F9B6104843764921
:10137000096890FBF1F07D49086008460068643810
:1013800008607048B0F8B800096800E0C2E0884220
:1013900004DA6C48B0F8B800744908607348006813
:1013A000002802DA002071490860664841686F48E9
:1013B0000068654A12685043624AB2F9B62000FBE1
:1013C00012106049486008464068604908605D48FE
:1013D000B0F8B80065490988401A5A49A1F8B80020
:1013E0000846B0F8BC00624908805648B0F8B8100A
:1013F000D0F8C000084457490860084600885D4995
:10140000088003E04DF2A0005A4908804D48B0F82A
:10141000B8005049096888422BDB4A48B0F9B60049
:101420004949096848434B4909684B4A126800FB1F
:10143000012044494860084640684749086008461A
:1014400000684249086000203E4981F8BA00012046
:10145000474908803B49A1F8B80000203649086098
:10146000374908603D4908603D4908804249088085
:101470004FE03448D0F8BC003D49098888420EDC72
:101480003048B0F8B810D0F8C000084431490968B5
:10149000884204DA36480088401E354908802948C9
:1014A000B0F8C80004EB4001264890F8CA20304844
:1014B0000088104131F810502248D0F8C410284656
:1014C000FFF79EF91D4908601E48B0F8B800401C9F
:1014D0001C49A1F8B80026480088401C244908800F
:1014E0001548006815490968884200D310E0224871
:1014F000008803280BD0114801684FF40060FFF703
:10150000BDF91049B1F9B61048430D49086000E033
:10151000BEE600BF08490968094A126801FB02F0EB
:1015200009490968FFF7F2F90849096801EBE02069
:101530000449486000BFF2E6380B00203C0B002055
:10154000400B00200C330020500B0020480B0020E3
:10155000640B0020440B00204C0B00205C0B00208F
:10156000560B00205A0B0020650B00206C0B00204E
:10157000540B0020680B0020580B00202DE9F84385
:101580005048018850480088401C814270D04D4826
:101590000088642817D14D480088052812D2DFE85A
:1015A00000F007080903100002204849088009E0FC
:1015B00000BF00BF4648006840F00400444908608E
:1015C00000E000BF00BF3F480088C82802DB0020C1
:1015D0003C4908803F483B49098800EB41000088AE
:1015E0000090BDF80000C0F38710840239493548E7
:1015F0000088401C31F81000C0F387108502214696
:101600002046FFF7FDF8804629462846FFF7F8F800
:1016100008EB00073846FFF7FBF80646BDF8000068
:1016200000F03F042B4927480088401C11F81000A7
:1016300000F03F0504EB8510411C3046FFF7E0F851
:10164000254908600846006881024FF44800FFF70A
:101650008FF822490860BDF80000C0F387102049C8
:101660000860BDF80000C0F3803010B9012002E02E
:101670001CE04FF0FF301B49A1F8B6001648006887
:101680004FF4FA7148431849086015480068134937
:10169000096848431349B1F9B61048431349086033
:1016A00008480088801C0749088009E000200D498F
:1016B00081F8BA000E4908700B490860014908809A
:1016C000BDE8F883740B0020760B00205A0B002035
:1016D000600B0020FCB00020C4340020C83400207F
:1016E000440B00200C3300203C0B0020400B00205A
:1016F000640B002070B50346474C24780B2C03D0B4
:10170000454C2478102C07D1444C24780A2594FBAE
:10171000F5F605FB164213E03F4C24780D2C08D15A
:101720003F4CB4F900400A2594FBF5F605FB164240
:1017300006E03C4C24780A2594FBF5F605FB16429E
:10174000B3F5C87F31DA0A2A2ED2DFE802F00509A4
:101750000D1115191D2125294FF4DB60252123E0EA
:1017600040F2F34023211FE040F2F6301D211BE040
:101770004FF45470182117E040F2DA20152113E0DD
:101780004FF41F7013210FE040F2372011210BE0BE
:1017900040F207200F2107E040F2D7100E2103E0AE
:1017A00040F27D100E2100BF2DE00A2A2AD2DFE888
:1017B00002F005090D1115191D2023264FF4826032
:1017C000FB211FE040F29720D9211BE040F2E710F7
:1017D000BB2117E040F28310A22113E04FF4A17067
:1017E00090210FE04FF48B707F210BE0F3207421E8
:1017F00008E0D9206A2105E0C320622102E08E20A2
:10180000502100BF00BF03FB00F44FF47A75B4FB16
:10181000F5F4601870BD0000C00000209F02002099
:10182000760200209E02002010B50246547821095D
:1018300093781C4661F3DF142146802B02DB4C4277
:1018400020B200E008B210BD10B50246547804F092
:101850000F01D3781C4661F3DF142146802B02DB95
:101860004C4220B200E008B210BD00000B480088D6
:10187000C0F30E0009494988C1F30E01084447F638
:10188000FF71884207D10548808845F2555188424A
:1018900001D1012070470020FCE70000260A00204B
:1018A00010B51B48002100F1100252F8212022F04F
:1018B000800300F1100242F8213000BF1548007883
:1018C000012824D11448B0F90800B0F5AF6F05DD48
:1018D0001148B0F90800B0F5B46F09DD0E48B0F951
:1018E0000800002813DB0C48B0F9080028280EDA9D
:1018F0000A4800680A4908800A48806810B1094906
:101900008868804708480078401C0749087010BD67
:1019100000480050620800208CB0002070C10040D8
:101920005008002080B000208708002070B52DED01
:10193000028B00BF4648006EC0F30020012801DA88
:10194000012001E04FF0FF30401E00EB4001C1EBF1
:10195000C0104049096801EB401004B23E480088BD
:10196000201A05B215F57A6F06DA3C48006800F5D2
:10197000FA503A49086008E0B5F57A6F05DD374856
:101980000068A0F5FA5035490860344800682044E2
:1019900000EE100AB8EEC00A3148D0ED0D0A30EE64
:1019A000600A304880ED010A2B4804802D4890EDF4
:1019B000010A2B48D0ED0C0A20EE208AB0EE480A2E
:1019C00005F00AFE38EE400A264880ED1D0A90ED2B
:1019D000010A2548D0ED000A70EE608A234890ED98
:1019E000000A2348D0ED000A00EEA80A1F4880ED47
:1019F000000A90ED000A1F48D0ED000A00EEA80A88
:101A00001D4880ED000A174890ED050A1448D0EDF6
:101A10000E0A194890ED001A11EE200A1148D0ED77
:101A2000050A9FED161A41EE000AC0ED050A0E48A0
:101A300090ED000A1048D0ED000A9FED111A01EE5A
:101A4000200A094880ED000ABDEC028B70BD000041
:101A500000C0024070010140743400206C3400204A
:101A6000E80A0020540A002070340020803400204E
:101A70007C34002078340020843400208A8EE43DB9
:101A8000AC8BDB3B2DE9F04107460C461546184868
:101A9000B0F8C80035F810601548D0F8C4103046CA
:101AA000FEF7AEFE13490860084601684FF4006077
:101AB000FEF7E4FE0E49B1F9B61048430E4908603E
:101AC00000200E4908600E49088022460D490E4844
:101AD00001F0A4FF0120064981F8BA00084690ED04
:101AE000370A094880ED0A0A0120BDE8F0810000AC
:101AF0000C3300203C0B0020400B00205C0B00202E
:101B0000560B0020E80A0020540A002010B5244893
:101B1000008841F28831884212DA21480088401C4E
:101B20001F490880B1EE040A1E4880ED000A9FEDAF
:101B30001E0A80ED010A02F09BFC01F0CBFE2EE0B4
:101B40001748008842F21071884212DA144800885F
:101B5000401C13490880B1EE040A124880ED000AC7
:101B6000B9EE040A80ED010A02F082FC01F0B2FE37
:101B700015E00B48008842F2117188420FDA0848DC
:101B80000088401C0649088001200849088002F0AE
:101B9000DBFC00BF02200649086100BF00BF10BD8A
:101BA000D0340020300A0020000000002C0A002061
:101BB0000001014030B50324544D6D6AE54005F045
:101BC00001050DB9012400E000240481504C248853
:101BD000C4F344234E4C2488C4F304114C4C2478A1
:101BE00004F00F04621C4A4C2488C4F380340CB9FE
:101BF000012401E04FF0FF346442C4808488062C45
:101C000070D2DFE804F0030E2A3A5870048914B148
:101C10000124848001E00324848000243D4DAC81B4
:101C200072E00489A4B941814488641C44804488DA
:101C3000944209D1C488644224B2364DAC81022456
:101C400084800024448007E0C488324DAC8103E0E6
:101C5000C488304DAC81438156E04181048934B160
:101C600000240480012484810024848004E0C4884A
:101C7000644224B2274DAC8146E00489A4B141817D
:101C80004488641C44804488944207D1C488214D10
:101C9000AC8104248480002444800BE0C488644226
:101CA00024B21C4DAC8105E0C488644224B2194DB5
:101CB000AC81438128E0418104897CB94488641C5B
:101CC0004480448894420CD1C488644224B2114DAB
:101CD000AC81052484800024448002E0C4880D4D3A
:101CE000AC8111E00FE0048934B1002404800124A8
:101CF00084810024848005E0C488644224B2054DB8
:101D0000AC81418100E000BF00BF30BD00820248CD
:101D1000800B0020F43300201648006848B31548B3
:101D2000007830B30020144908801248007800F091
:101D3000800018B14CF23F00104908800D4800782F
:101D400000F0200018B14DF2A5500C490880094858
:101D5000007800F0040018B14CF23E0007490880FA
:101D60000448007800F0010018B14DF2A1100349B9
:101D700008807047600B00205E340020240A002099
:101D800070B504460025607A012806D0D4E9001019
:101D900003F092FD0120607200BF284670BD000074
:101DA00010B5024804F000FC10BD000000400150D6
:101DB0002DE9FF4F89B0894692469B46179D35F81D
:101DC0001A00001D84B20AF1010035F81000001D50
:101DD00080B20790169868B100BF601C84B2079863
:101DE000844200DB03E035F81460B145F5D200BF52
:101DF000601E84B2EE88A01984B235F814000290F7
:101E0000A01984B235F814000390A01984B235F8F3
:101E100014000490A01984B235F81410049800EB53
:101E200001400490A01984B235F81400ADF81400F4
:101E3000A01984B235F81400ADF81600BDF81610DC
:101E400002980841BDF8141005EB410101EB400078
:101E500030F8020C0299A9EB0101039A891A049A3D
:101E600000FB012004900498C117CDE900010A4845
:101E70008BFB007080460B4638464146009AFEF7C1
:101E8000D5FA0490CDF818B0142202A90998FEF7EB
:101E900062FB0DB0BDE8F08F005307000148B0F9B8
:101EA000080070478CB0002010B5FFF7F7FF04461C
:101EB00008480088201A04B2002C03DA04F5B46044
:101EC00004B205E0B4F5B46F02DDA4F5B46004B269
:101ED000204610BD360200200148B0F904007047CA
:101EE0008CB0002010B528B90021054A116051605E
:101EF000916003E0024990E81C001CC110BD000085
:101F000080B00020F0B503460C4603F00701C1F194
:101F10000700062801D9062001E0C1F107000646A6
:101F2000881D072801D2002000E0481E0546012038
:101F3000B040401E2040A8400127AF407F1E174000
:101F40003843F0BD004870470024F40090ED000ACB
:101F5000D0ED010A30EE600A80ED020A90ED020A2F
:101F6000D0ED030AB4EEE00AF1EE10FA04DB90EDD6
:101F7000030A80ED020A10E090ED020AD0ED030A98
:101F8000F1EE600AB4EEE00AF1EE10FA05D890ED39
:101F9000030AB1EE400A80ED020A90ED070AD0ED87
:101FA000020A20EE200A80ED0B0A90ED0B0AD0ED1C
:101FB000080A90ED0C1A00EE810AD0ED090A90EDA6
:101FC0000F1A00EE810AD0ED0A0A90ED001A00EE19
:101FD000810A80ED110A90ED0C0AD0ED020A30EE74
:101FE000200A80ED0C0A90ED0C0AD0ED0D0AB4EE3B
:101FF000E00AF1EE10FA04DB90ED0D0A80ED0C0A18
:102000000CE090ED0C0AD0ED0E0AB4EEE00AF1EE11
:1020100010FA03D890ED0E0A80ED0C0A90ED020A3A
:10202000D0ED040A30EE600A80ED0F0A90ED020A4E
:1020300080ED040A7047000001781D4A1180418834
:1020400009B25180818809B2D1801146B1F90010DE
:10205000002901DA002111801549B1F90010012988
:1020600002DD0121124A11801149B1F90210002943
:1020700002DA00210E4A518006E00D49C988A1F517
:10208000B46109B20A4AD1800949B1F90610B1F523
:10209000B46FF2DA06E00649C98801F5B46109B205
:1020A000034AD1800249B1F906100029F3DB7047D9
:1020B0008CB0002010B59FED1E0A1E4880ED050A69
:1020C000B3EE060A80ED120AB0EE080A80ED130A9C
:1020D0000221194804F071FB1849096849788842BF
:1020E00003D101201649088002E00020144908802D
:1020F0000020144908700120134908701349087022
:1021000000201349087013490870134908701349D7
:102110000870134908701348006800B2124908801B
:102120001248D0F8700100B21149088010BD0000BB
:1021300000000000CC080020008302486CB00020A2
:102140008CB00020620800205408002063080020A2
:1021500080080020810800208208002083080020D9
:102160008408002070C100402207002000C0004009
:102170002407002010B504460D4821880180A1786D
:10218000817000200B490870FEF7FAFE00F082F81B
:1021900003F04AFA0621084804F08CFB074A084974
:1021A000084801F0A3FE00200749087010BD000098
:1021B0000807002061080020008102480C3300203D
:1021C000E80A0020540A00206308002070B5044685
:1021D000049D0E48046041608260C3600561022076
:1021E0000A4EB66830702820084EB668B071D2200A
:1021F000064EB668B0802820044EB668F07140F6EE
:10220000B830024EF6687080002070BD6CB00020BF
:1022100010B50C21034804F0D0FA08B9012010BD14
:102220000020FCE7008E02480F480078012800D10A
:1022300070470E480078012801D10220F8E70C48C9
:102240000078012801D10320F2E70A48007801282C
:1022500001D10420ECE708480078012801D10520CD
:10226000E6E70020E4E70000800800208108002065
:10227000820800208308002084080020014800789C
:1022800070470000540800200148807A7047000021
:102290008CB0002010B5434A0C21434804F0A0FA4A
:1022A000424A0221424804F09BFA424A0021424835
:1022B00004F042FA414A00213F4804F065FA022046
:1022C0003B49096E012282409143394A116600BFA1
:1022D00001203B4A1178002804DB8A06130E394A94
:1022E000135406E08A06140E374A00F00F031B1F32
:1022F000D45400BF0120002809DB00F01F02012197
:1023000091404209920002F1E022C2F8001100BFA0
:102310002E492F4804F0F6FA2E492D4804F0FFFA12
:102320002D492E4804F0EEFA2A492C4804F0F7FA19
:10233000FEF7DAFC2A4A07211B4804F051FA284A22
:102340000621194804F04CFA254A0521254804F0D5
:1023500047FA234A0421234804F042FA204A032181
:10236000204804F03DFA00BF01201949886000BFF1
:1023700000BF1A49886000BF1B4803F070FD1B486E
:1023800003F06DFD1A4803F06AFD1A4803F067FD7B
:10239000194803F064FD194803F061FD184803F083
:1023A0005EFD10BD98090020008E0248F0B00020AC
:1023B000008302485C0900200048005064090020A6
:1023C0000807002000E400E018ED00E07C09002090
:1023D00000800240680900207809002000C0024007
:1023E000800900200082024800C1004000C2004075
:1023F00000C3004000C40040000101400002014051
:1024000000030140014691ED340AB5EEC00AF1EE39
:1024100010FA04D291ED340AB1EE400A01E091EDD8
:10242000340AD1ED2C0AF8EEE00AB4EEE00AF1EE3F
:1024300010FA01DD012070470020FCE710B50A21E9
:10244000014804F032FA10BD0081024810B50A219B
:10245000014804F01DFA10BD008102482DE9F04149
:1024600088B005460E46002700242869012808D1B7
:102470006869B0F5807F04D83146284600F014FB27
:10248000F7E068890028FBD196F86A0000EE100A90
:10249000B8EE400A784880ED390A7749B1F8AA10B9
:1024A000491C286900FB01F4B4F5E67F01D90B272C
:1024B0002DE0B4F5D27F01D90A2728E0B4F5BE7F1C
:1024C00001D9092723E0B4F5AA7F01D908271EE026
:1024D000B4F5967F01D9072719E0B4F5827F01D9B9
:1024E000062714E0DC2C01D9052710E0B42C01D913
:1024F00004270CE08C2C01D9032708E0642C01D9B7
:10250000022704E03C2C01D9012700E0002707EB5B
:102510008700345C00EE104AB8EE400ADFED570A3F
:1025200020EE200A564880ED020A07EB870030446F
:10253000447800EE104AB8EE400ADFED520A20EE71
:10254000200A4F4880ED060A07EB87003044847864
:1025500000EE104AB8EE400ADFED4B0A20EE200AEA
:10256000474880ED070A07EB87003044C47800EE47
:10257000104AB8EE400ADFED450A20EE200A404836
:1025800080ED090A07EB87003044047900EE104A19
:10259000B8EE400ADFED3E0A20EE200A384880ED12
:1025A000200A3548B0F8A800384100F0010032494F
:1025B00081F8AC00084690F8AC0081F89500084618
:1025C000B0F8B400022805D1084690ED370A2C482F
:1025D00080ED0A0A284890F8BA00A8B12648B0F958
:1025E000B6002C49096848432B4909682B4A1268F0
:1025F00000FB0120204948600846406827490860E0
:102600000846006826490860234928690860D5F80B
:10261000148024480068012143460022CDE90010BF
:102620001D48016803A8FFF7C3FB142203A9124841
:10263000BC30FDF790FF00201B49086001201B49BA
:1026400008800D49A1F8B800A889A1F8B60015487E
:10265000314602680020FFF715FA002805DA144811
:10266000006840F00400124908600020024981F827
:10267000940008B0BDE8F0810C3300208C4A6A3D1C
:10268000540A0020624EAF39D5FFFF38CDCCCC3D87
:102690000AD7233C500B0020440B00204C0B002099
:1026A000480B002068340020380B0020540B002019
:1026B000600B00202DE9F84F04460F463F4830F8E4
:1026C0001400C0F3871086023C49601C31F81000EA
:1026D000C0F38710850231463046FEF791F88346F5
:1026E00029462846FEF78CF80BEB000A5046FEF709
:1026F0008FF80090314810F8140000F03F062F4981
:10270000601C11F8100000F03F0506EB8510411C1D
:102710000098FEF775F880464FEA88214FF448008C
:10272000FEF726F881460120254981F8AC0081F8A2
:102730009500224830F81400C0F387102149086042
:102740001E4830F81400C0F3803008B9012001E0C1
:102750004FF0FF301A49A1F8B60000201A4908606E
:102760004FF4FA7008FB00F018490860154800683B
:1027700000FB09F01249B1F9B6104843144908604A
:102780003A461449144801F049F90D4890ED370ACA
:10279000114880ED0A0A012010490870084981F8A3
:1027A000BA00A01C0E49088008460088C82803DB30
:1027B00008460088C8380880BDE8F88FFCB00020C3
:1027C0000C330020440B0020380B00203C0B002071
:1027D000400B0020E80A0020540A0020640B00206F
:1027E000740B00202DE9F04188B006460D46002705
:1027F0000024708900287CD195F86A0000EE100A48
:10280000B8EE400A994880ED390A9849B1F8AA1003
:10281000491C306900FB01F4B4F5FE7F6AD8B4F5B9
:10282000E67F01D90B272DE0B4F5D27F01D90A2725
:1028300028E0B4F5BE7F01D9092723E0B4F5AA7FCB
:1028400001D908271EE0B4F5967F01D9072719E0C2
:10285000B4F5827F01D9062714E0DC2C01D90527C5
:1028600010E0B42C01D904270CE08C2C01D90327EB
:1028700008E0642C01D9022704E03C2C01D901278F
:1028800000E0002707EB87002C5C00EE104AB8EE52
:10289000400ADFED770A20EE200A764880ED020A32
:1028A00007EB87002844447800EE104AB8EE400A4F
:1028B000DFED710A20EE200A6E4880ED060A07EB74
:1028C00087002844847800EE104AB8EE400ADFED15
:1028D0006B0A20EE200A674880ED070A07EB8700A5
:1028E0002844C47800EE104AB8EE400ADFED640ACE
:1028F00001E0B7E014E020EE200A5E4880ED090A0E
:1029000007EB87002844047900EE104AB8EE400A2D
:10291000DFED5C0A20EE200A564880ED200A39E0FF
:1029200015F83C4F00EE104AB8EE400ADFED500AB1
:1029300020EE200A4F4880ED020A6C7800EE104A23
:10294000B8EE400ADFED4C0A20EE200A80ED060AC0
:10295000AC7800EE104AB8EE400ADFED480A20EEEF
:10296000200A80ED070AEC7800EE104AB8EE400A23
:10297000DFED430A20EE200A80ED090A2C793C3D68
:1029800000EE104AB8EE400ADFED3E0A20EE200AC3
:1029900080ED200A354890F8BA00A8B13348B0F964
:1029A000B60039490968484338490968384A126805
:1029B00000FB01202D494860084640683449086002
:1029C0000846006833490860284890F8AC00274959
:1029D00081F895000846B0F8B400022806D10846F0
:1029E00090ED370A234880ED0A0A0AE01F4890F864
:1029F0009500012805D11D4890ED370A1D4880ED4E
:102A00000A0A224930690860D6F814800020224959
:102A100008600120214908801449A1F8B800B08954
:102A2000A1F8B6001E480068012143460022CDE906
:102A300000101648016803A8FFF7BAF9142203A989
:102A40000A48BC30FDF787FD15482946026800207A
:102A5000FFF718F8002805DA1248006840F0040073
:102A60001049086008B0BDE8F08100000C33002078
:102A70008C4A6A3D540A0020624EAF39D5FFFF38B8
:102A8000CDCCCC3D0AD7233C500B0020440B00207A
:102A90004C0B0020480B0020380B0020540B00206A
:102AA00068340020600B002070B504460D46608934
:102AB000002876D19FED530A534880ED390A5348D8
:102AC0000078C0B15048B0F9B60051490968484390
:102AD00050490968504A126800FB01204A49486081
:102AE000084640684C490860084600684B49086041
:102AF00000204B49086015F8410F00EE100AB8EEAF
:102B0000400ADFED480A20EE200A474880ED020A1D
:102B1000687800EE100AB8EE400ADFED440A20EEB5
:102B2000200A414880ED060AA878413D00EE100ACF
:102B3000B8EE400ADFED3E0A20EE200A3A4880ED6A
:102B4000070A606930B900202F4981F8AC0081F88C
:102B5000950005E001202C4981F8AC0081F8950032
:102B60002B4920690860A0892749A1F8B6000020F8
:102B70002B4908602F480088012813DC244800688E
:102B80002D4948432D4908601F48B0F8B60040F66B
:102B9000783110FB01F02A4908600120254908809E
:102BA0001DE02DE023480088401E42F6E0614843C6
:102BB000224908601F4A1288521E42F6E06302FB57
:102BC00003F1134A1268D002FDF758FE0E49B1F91D
:102BD000B61048431A4908600120164908802A4661
:102BE0001849114800F01AFF074890ED370A0E48BF
:102BF00080ED0A0A012005490870034981F8BA00EE
:102C000070BD0000000000000C330020640B0020A9
:102C1000440B0020500B00204C0B0020480B0020E0
:102C2000380B00208C4A6A3D540A0020624EAF39AE
:102C3000D5FFFF387A0B0020009411003C0B0020D8
:102C4000400B0020E80A002010B5054803F002FF01
:102C5000002004F0EDF82021012004F079F810BDE7
:102C600020EB010870B500245249534804F082F962
:102C700000BF5148406B40F001004F49486300BF1E
:102C8000082000BF496B21F07062411E42EA0161D9
:102C9000494A516300BF00BF00BF00BF1146496BE6
:102CA00021F47C12411E42EA0141434A516300BFB4
:102CB00000BF0021084600BF526922F050420A437B
:102CC00002433D4B5A6100BF00BF022019464969CB
:102CD00021F4FE41421EC30143EA82221143364AD7
:102CE000516100BF354A0221354803F079FD324970
:102CF0000020024601F11C0353F8203023F040036A
:102D000043F0100501F11C0343F8205000BF01F10E
:102D10001C0353F8203023F00703134301F11C0573
:102D200045F8203000BF00BF00BF0120096C21F032
:102D30000F010143204A116400BF00BF214A052151
:102D4000214803F04DFD214A06211F4803F048FDAC
:102D50001F4A01211C4803F043FD1E4A0D211E4855
:102D600003F03EFD1D4A0E211B4803F039FD0022F1
:102D70001021114804F036FA0123052220210E48C3
:102D800004F03AFA032210210B4804F050FA002311
:102D900005221946084804F0AFF90522102106481B
:102DA00004F0C8F905221321034804F0C3F92046B2
:102DB00070BD00003C00002000020340F4440020ED
:102DC0000082024814000020008302484CEB0108F6
:102DD00068EB010828000020008102488CEB010804
:102DE0002DE9F04706460F4690461D464FF0020972
:102DF000B468207F20BB07B3B8F1000F1DD0E5B148
:102E0000E07FF8B994F82000E0B90120E077C4F839
:102E10001480A7616560002084F8210084F82200F6
:102E2000706890F8850002280CD12946304600F0E1
:102E30000CF881460020E07704E04FF0030901E040
:102E40004FF001094846BDE8F0872DE9F0410546FD
:102E500088460126AC68002700202061A060A86891
:102E60000068082800D90226701E08FA00F0E06009
:102E7000217F286804F0A3F8686890F87D00002896
:102E800077D028684FF48041C0F8181100BF286837
:102E900000F0F6F894F82100012806D1227F4FF6C1
:102EA000FF71286804F0BEF90DE0022E03D1A1687D
:102EB000A069475A02E0A168A069475C227F3946B1
:102EC000286804F0AFF9A0683044A06032E094F8BC
:102ED0002100012806D1227F4FF6FF71286804F0F7
:102EE000A1F90DE0022E03D1A168A069475A02E0C2
:102EF000A168A069475C227F3946286804F092F9EE
:102F000000BF286804F010F90028FAD1286804F0FE
:102F100024F80746D4E904218F54022E04D1391233
:102F2000D4E90402401C1154206930442061A06897
:102F30003044A060A068E1688842C8D300BF286818
:102F400004F0F2F80028FAD1286804F006F80746E1
:102F5000D4E904218F54022E04D13912D4E9040299
:102F6000401C115405212868C0F8181100BF81E0E9
:102F7000FFE7286800F084F800BF286804F0B7F87D
:102F80008028FAD094F82100012806D1227F4FF63C
:102F9000FF71286804F057F90DE0022E03D1A168F3
:102FA000A069475A02E0A168A069475C227F3946C0
:102FB000286804F048F9A0683044A0603DE000BFF4
:102FC000286804F094F88028FAD094F821000128A9
:102FD00006D1227F4FF6FF71286804F034F90DE026
:102FE000022E03D1A168A069475A02E0A168A06936
:102FF000475C227F3946286804F025F900BF28681D
:1030000004F070F80028FAD0286803F0A6FF0746FD
:10301000D4E904218F54022E04D13912D4E90402D8
:10302000401C1154206930442061A0683044A060E5
:103030004FF44041286803F05BFFA068E1688842D4
:10304000BDD300BF286804F04DF80028FAD02868E6
:1030500003F083FF0746D4E904218F54022E04D1E4
:103060003912D4E90402401C11544FF4404128683D
:1030700003F03EFF0020E0602061A060BDE8F08129
:1030800010B50446204603F068FF204603F065FFB4
:1030900010BD000010B52DED088B04469FEDFE0A13
:1030A000B0EE409A9FEDFC0AF0EE409A9FEDFA0ACE
:1030B000F0EE40AA9FEDF90A84ED0A0A002084F898
:1030C000500094ED0E0ADFEDF60AB4EEE00AF1EEE0
:1030D00010FA07DB94ED0E0ADFEDF10A30EE600A1C
:1030E00084ED0E0A94ED0E0AB5EEC00AF1EE10FA68
:1030F00007D294ED0E0ADFEDEA0A30EE200A84EDE5
:103100000E0A94ED0F0AB1EE400AD4ED100A30EE2B
:10311000600A84ED110A204607F050FA20460EF0AE
:103120004BF99FEDDD0A84ED040A94ED050ADD48B4
:10313000D0ED000AB4EEE00AF1EE10FA03DD90EDF6
:10314000000A84ED050A94ED050AD648D0ED000A80
:10315000F1EE600AB4EEE00AF1EE10FA05D290ED5D
:10316000000AB1EE400A84ED050A94ED040AD4ED9C
:10317000020A30EE600ACC4880ED000A94ED050AA0
:10318000D4ED030A30EE600AC84880ED000AC84852
:1031900090ED000ADFEDC70AB4EEE00AF1EE10FA96
:1031A00002DD9FEDC40A02E0C14890ED000AC0486C
:1031B00080ED000A90ED000ADFEDBF0AB4EEE00AF0
:1031C000F1EE10FA02D29FEDBC0A02E0B84890ED91
:1031D000000AB74880ED000AB84890ED000ADFED1C
:1031E000B50AB4EEE00AF1EE10FA02DD9FEDB10A85
:1031F00002E0B24890ED000AB04880ED000A90ED80
:10320000000ADFEDAD0AB4EEE00AF1EE10FA02D2E8
:103210009FEDA90A02E0A94890ED000AA74880EDB9
:10322000000A94ED120AA048D0ED000A20EE200A10
:10323000D4ED130AA14890ED001A11EE600A84ED56
:10324000000A94ED120A9948D0ED000A20EE200AF7
:10325000D4ED130A964890ED001A11EE600A84ED41
:10326000010A964890ED000A8F48D0ED000A30EE32
:10327000200A924880ED000A8D4890ED000A8B48A4
:10328000D0ED000A30EE200A894880ED000A94ED66
:10329000010ADFED8B0AB4EEE00AF1EE10FA02DD6E
:1032A0009FED870A01E094ED010A84ED010A94ED97
:1032B000010ADFED840AB4EEE00AF1EE10FA02D260
:1032C0009FED800A01E094ED010A84ED010A94ED7E
:1032D000000ADFED7B0AB4EEE00AF1EE10FA02DD3F
:1032E0009FED770A01E094ED000A84ED000A94ED69
:1032F000000ADFED740AB4EEE00AF1EE10FA02D231
:103300009FED700A01E094ED000A84ED000A94F844
:103310005A00012811D19FED600A84ED000A9FED4B
:103320005E0A84ED010A9FED5C0A644880ED000AA4
:103330009FED590A5E4880ED000A20460CF0A8FC7B
:1033400094ED07BA94ED060ADFED5F0A20EE200A3D
:10335000F6EE000A20EE200AD4ED070AB6EE001AB7
:10336000F0EE40BA40EEC1BA94ED060ADFED560A1F
:1033700020EE200AF6EE000A20EE600AD4ED070ADD
:10338000B6EE001AB0EE40AA00EEC1AAB5EEC0BA81
:10339000F1EE10FA02DD012084F85000F5EEC0BA1B
:1033A000F1EE10FA04DD94F85000801C84F850000F
:1033B000B5EEC0AAF1EE10FA04DD94F85000001D3D
:1033C00084F8500094F850004049087094F8500078
:1033D000012810D19FED3E0A2BEE800AD4ED0A0A97
:1033E00020EE608A9FED3A0A2AEE000AD4ED0A0A1E
:1033F00060EE608A87E094F85000022810D19FEDBB
:10340000340A2AEE000AD4ED0A0A20EE608A9FED03
:10341000300A2BEE000AD4ED0A0A60EE608A72E0F0
:1034200094F85000032810D19FED290A2BEE800A52
:10343000D4ED0A0A20EE208A9FED250A2BEE000A21
:10344000D4ED0A0A60EE208A5DE094F8500004286A
:1034500010D19FED1F0A2BEE000AD4ED0A0A20EED0
:10346000608A9FED1B0A2BEE800AD4ED0A0A60EEFB
:10347000608A48E094F85000052830D19FED140A86
:103480002BEE000AD4ED0A0A20EE208A9FED100AE6
:103490002AEE000A1EE00000000000001C68533BFA
:1034A0000000B443400900204409002048090020DE
:1034B0003809002000004843000048C334090020B8
:1034C00000009643000096C374B5DD3F2C09002030
:1034D0006662A246D4ED0A0A60EE208A13E094F8F0
:1034E000500006280FD11FED060A2AEE000AD4ED7F
:1034F0000A0A20EE208A1FED0A0A2BEE800AD4ED7C
:103500000A0A60EE208A38EE280ADFED500AB4EE8F
:10351000E00AF1EE10FA0FDD9FED4C0A28EE000AEA
:1035200078EE280A80EE201AB0EE418A9FED470A15
:1035300030EE480AF0EE408A9FED440A30EE480A29
:1035400030EE680AF5EE000A20EE200AB0EE409A4E
:10355000F6EE000AB0EE490A08EE200AF0EE409AB4
:10356000F6EE000AB0EE690A08EEA00AF0EE40AAF4
:1035700094F85000012806D1C4ED0B9A84ED0C9A02
:10358000C4ED0DAA42E094F85000022806D184ED63
:103590000B9AC4ED0CAAC4ED0D9A37E094F85000D4
:1035A000032806D184ED0B9AC4ED0C9AC4ED0DAA44
:1035B0002CE094F85000042806D1C4ED0BAAC4ED09
:1035C0000C9A84ED0D9A21E094F85000052806D15C
:1035D000C4ED0BAA84ED0C9AC4ED0D9A16E094F894
:1035E0005000062806D1C4ED0B9AC4ED0CAA84ED58
:1035F0000D9A0BE09FED160A84ED0B0A9FED140A5D
:1036000084ED0C0A9FED120A84ED0D0A2C3494ED22
:10361000000ABCEEC00A10EE100A41F27071081ADE
:10362000E08494ED010ABCEEC00A10EE100A081AFC
:10363000208594ED020ABCEEC00A10EE100A081AAA
:1036400060852C3CBDEC088B10BD000000803B4623
:1036500000803B4510B53348007802280BDB314829
:103660000078202807DC2F480078642110FB01F047
:103670002D4908800AE02B48007838B92A48B0F96B
:103680000000642190FBF1F026490870274890F96A
:103690000000002814DD26480078642110FB01F0AA
:1036A000244948800846FEF7C7FC2248408800B2FB
:1036B000214908801D480178012017F043FD30E0C2
:1036C0001A4890F9000000282BDA184890F90000F9
:1036D000002803DB154890F9000003E0134890F937
:1036E00000004042C4B212480078642110FB01F08F
:1036F000104948800846FEF79FFC0E48408800B2FB
:103700000D4908802146002017F01CFD01E014F04F
:1037100071F9FEF7C9FB1028F9DA2146012017F0EC
:1037200011FD10BD50010020C0010020AB0300209E
:10373000D2010020C40000202C04002070B50546F2
:103740000C46FEF7E9FA1748006848B116480088A9
:10375000208015480088608013480088A0800BE016
:103760001148008820801048018847F6FF70884380
:10377000608045F25550A080002006E035F810101A
:103780000A4A22F81010411CC8B20328F6DB074889
:103790000088054908800648006817F09BFE002055
:1037A00070BD0000600B0020240A0020260A0020C3
:1037B0006434002010B53A4A0A213A4803F010F860
:1037C000374A0921374803F00BF8354A08213548B4
:1037D00003F006F8324A0021324803F001F8304A7B
:1037E0000121304802F0FCFF2D4A08212E4802F04A
:1037F000F7FF2B4A0E212C4802F0F2FF284A0D2138
:10380000294802F0EDFF264A0121274802F0E8FF8F
:10381000234A0021244802F0E3FF214A09212348DA
:1038200002F0DEFF224A0221224802F0D9FF204A9C
:103830000321214802F0D4FF1D4A0C211E4802F04A
:10384000CFFF1B4A00211D4802F0CAFF184A07217A
:10385000194802F0C5FF164A0821174802F0C0FFB8
:10386000134A0021144802F0BBFF114A01211248FB
:1038700002F0B6FF0E4A02210F4802F0B1FF0C4AD7
:1038800002210E4802F0ACFF094A01210B4802F068
:10389000A7FF074A0421074802F0A2FF10BD00005D
:1038A00004EA010800820248008E0248008F0248A4
:1038B000F8E90108008302480081024800850248B7
:1038C000012001048140024A516000BF704700009E
:1038D00000840248062001218140024A516000BF55
:1038E000704700000081024810B527480068401C5E
:1038F00025490860084600684CF25031884201D9D9
:10390000FEF704F900202149496AC14001F0010194
:1039100029B91F48006840F001001D4908601C4893
:10392000006810B100201B4908801B48008848B37C
:103930001848008880B91948008848B900F004FE8A
:10394000012016490880164A1649174800F0CEFA99
:1039500000201649088015E00E480088012811D182
:103960001348006800F01CFE124800F081FD0F486B
:10397000008820B9FFF7AEFF01200C490880002025
:103980000649088010BD0000200A0020008402487B
:10399000600B00205E3400202C0A0020CC34002074
:1039A0000C330020E80A0020540A0020CE34002006
:1039B00064340020300A002012F8543F00EE103A20
:1039C000B8EE400AF6EE060A20EE200A80ED0D0A57
:1039D000537800EE103AB8EE400ADFED0F0A20EE01
:1039E000200A80ED0E0A937A00EE103AB8EE400AF3
:1039F000F6EE060A20EE200A80ED140AD37A543A35
:103A000000EE103AB8EE400ADFED030A20EE200A7D
:103A100080ED150A7047000040DA7F392E4BB3F86D
:103A2000B4300A2B15D12D4B93ED000AB8EEC00A25
:103A3000DFED2B0A20EE200A80ED0D0A93ED000A3F
:103A4000B8EEC00ADFED260A20EE200A80ED140A47
:103A500040E012F8503F00EE103AB8EE400AF6EEA1
:103A6000060A20EE200A80ED0D0A537800EE103A87
:103A7000B8EE400ADFED1B0A20EE200A80ED0E0AA8
:103A8000937A00EE103AB8EE400AF6EE060A20EEFF
:103A9000200A80ED140AD37A503A00EE103AB8EEBC
:103AA000400ADFED100A20EE200A80ED150A4B8C4B
:103AB00000EE103AB8EE400A80ED1C0A9FED0A0AAB
:103AC00080ED0F0A9FED080A80ED160A9FED060AA9
:103AD00080ED080A704700000C330020700B0020B6
:103AE00035FE2F3740DA7F390000000070B52DED2C
:103AF000048B05460C461646B5F8B400022875D06E
:103B000095F89500002872D094ED010AD5ED360A9B
:103B100020EE200A85ED050A95ED020AB8EEC00AEE
:103B2000D5ED050A30EE609A95ED020AB8EEC00AAE
:103B3000D5ED390A94ED241A39EE411AF0EE408A97
:103B400040EE818A95ED050A38EEC00A85ED340A0B
:103B500084ED249A95ED340ADFED750AB4EEE00A9F
:103B6000F1EE10FA25DD94ED1D0AF5EE000A30EEB7
:103B7000208AB7EE000AB4EEC08AF1EE10FA06DD34
:103B8000B7EE000A38EE400AB0EE408A0AE0B5EE21
:103B9000C08AF1EE10FA05D2B7EE000A38EE000A3C
:103BA000B0EE408A9FED630A28EE000A84ED1A0AFF
:103BB00040E095ED340ADFED600AB4EEE00AF1EE84
:103BC00010FA27D294ED1D0AF5EE000A30EE608A55
:103BD000B7EE000AB4EEC08AF1EE10FA08DDB7EED7
:103BE000000A38EE400AB0EE408A0CE072E031E0A4
:103BF000B5EEC08AF1EE10FA05D2B7EE000A38EE43
:103C0000000AB0EE408A9FED4B0A28EE000A84EDD0
:103C10001A0A0FE09FED490A28EE808AB0EE480AA2
:103C200003F0DAFC38EE400ADFED420A20EE200A0B
:103C300084ED1A0A9FED420A84ED110A204600F035
:103C400081F894ED000A84ED210A9FED3D0A84ED90
:103C5000230A62E094ED010AD5ED360A20EE200A2F
:103C600085ED050A95ED020AB8EEC00AD5ED050A04
:103C700030EE600A85ED340A95ED020AB8EEC00A0E
:103C8000D5ED350A20EE200A84ED000A94ED000AF5
:103C9000D4ED210A70EE600AB4F8880000EE100A34
:103CA000B8EE400A20EE800A84ED1E0A94ED000A68
:103CB00084ED210A94ED1D0ADFED1E0A20EE200A94
:103CC00084ED1A0A9FED1E0A84ED0A0A204600F0D0
:103CD000F9F922E095ED020AB8EEC00ADFED170A05
:103CE00020EE208AB0EE480A03F076FC38EE400A57
:103CF000DFED100A20EE200A84ED1A0A9FED100A6B
:103D000084ED110A204600F01DF894ED000A84EDC0
:103D1000210A9FED0B0A84ED230A94ED180A86ED23
:103D2000000A94ED190A86ED010ABDEC048B70BD02
:103D30000000A046D00FC9400000A0C6AACC4C3756
:103D40000000000010B52DED088B0446D4ED1A0AD2
:103D5000B0EE600AFCF720FBF0EE408AD4ED1A0AC0
:103D6000B0EE600AFCF7DCFAB0EE409A94ED0C0A73
:103D700020EE090AD4ED130A08EEA00A84ED0B0A1E
:103D800094ED0C0AF1EE680A20EE200AD4ED130A35
:103D900009EE200A84ED120A94ED0A0AD4ED0B0A0A
:103DA00030EE600AB0EE40BA94ED0D0A20EE0B0A38
:103DB000F0EE40AA94ED0E0A20EE2A0AB0EE408AF8
:103DC00094ED0F0A30EE080A84ED0F0A94ED0F0A05
:103DD00030EE2A0A84ED100A94ED100AD4ED1C0A84
:103DE000B4EEE00AF1EE10FA0ADD94ED1C0A84ED5F
:103DF000100A94ED0F0A30EE480A84ED0F0A16E01F
:103E000094ED100AD4ED1C0AF1EE600AB4EEE00A5B
:103E1000F1EE10FA0BD294ED1C0AB1EE400A84EDDB
:103E2000100A94ED0F0A30EE480A84ED0F0A94ED63
:103E3000110AD4ED120A30EE60AA94ED140A60EE75
:103E40000A9A94ED150A20EE290AB0EE408A94ED04
:103E5000160A30EE080A84ED160A94ED160A30EEC2
:103E6000290A84ED170A94ED170AD4ED1C0AB4EE62
:103E7000E00AF1EE10FA0ADD94ED1C0A84ED170A4F
:103E800094ED160A30EE480A84ED160A16E094ED19
:103E9000170AD4ED1C0AF1EE600AB4EEE00AF1EE66
:103EA00010FA0BD294ED1C0AB1EE400A84ED170A09
:103EB00094ED160A30EE480A84ED160A94ED100AC5
:103EC00020EE090AD4ED170A08EEE00A84ED180A7C
:103ED00094ED100A20EE280AD4ED170A09EE200A04
:103EE00084ED190ABDEC088B10BD000070B50446C6
:103EF0000D4616469FED660A84ED060A9FED650A9B
:103F000084ED070AB1EE020A84ED090A9FED620A08
:103F100084ED020A6148006890F84D0020B15F48C6
:103F2000006890F84E0010B95D485C49086041F2A5
:103F300087315C48006806F06DFF5A49096801F551
:103F40000051B1F80E17884202D057485549086011
:103F50005248006890F84E0020B946204F49096841
:103F600081F84E004D48006890F84E0000EE100AAF
:103F7000B8EE400ADFED4D0A20EE200A84ED0D0A6E
:103F80004648006890F84D0000EE100AB8EE400A6E
:103F9000DFED410A60EE200A4048006890F84E00CC
:103FA00000EE100AB8EE400A80EE801A84ED0E1A78
:103FB00094ED0D0A84ED140A94ED0E0A84ED150AB1
:103FC000688C00EE100AB8EE400A84ED1C0A96EDEB
:103FD000380A84ED0A0A9FED360A84ED0F0A9FED38
:103FE000340A84ED160A9FED320A84ED080A288C03
:103FF00000EE100AF8EE400AA88D00EE100AB8EEA6
:10400000400A80EE801A85ED0C1AA88D298C90FB51
:10401000F1F000EE100AB8EEC00AF4EE000A20EE4D
:10402000200A85ED0D0A1D48006890F84C005528BF
:1040300004D06E201949096881F84C0017480068BF
:1040400090F84C0000EE100AB8EE400A194880EDD6
:10405000020A90ED020AF7EE000A80EE801A80ED67
:10406000081A0E48006890F84B00800000EE100A15
:10407000B8EEC00A104880ED030A0848006890F8BE
:104080006B000E49096848430D49086070BD000087
:10409000B37B723C8C4A6A3CCDCCCC3D643400206E
:1040A0009232002068340020820B0020499D003DA0
:1040B00000000000300A0020540A0020500B0020AD
:1040C0007C0B002010B52DED028B044694ED000A08
:1040D000D4ED010A30EE600AB0EE408A94ED1E0A7B
:1040E000D4ED020A00EE880A84ED040A94ED040A75
:1040F000D4ED030AB4EEE00AF1EE10FA04DD94ED1B
:10410000030A84ED040A10E094ED040AD4ED030AD6
:10411000F1EE600AB4EEE00AF1EE10FA05D294ED89
:10412000030AB1EE400A84ED040A204600F02CF99F
:10413000BDEC028B10BD00009FED914AB0EE440A29
:104140009FED8F4AF0EE440A9FED8D4AB0EE441A7F
:104150009FED8B4AB0EE442A9FED894AF0EE441A57
:104160009FED874AF0EE442A9FED854AB0EE443A2F
:104170009FED834AF0EE443A90ED004AD0ED084AB4
:1041800024EE244AB0EE440A90ED014AD0ED084AEC
:1041900024EE244AF0EE440AB0EEC04AB0EE442ABF
:1041A000B0EEE04AF0EE441A32EE214AB0EE441A84
:1041B00020EE204AB5EEC04AF1EE10FA46DBB4EE2E
:1041C000E12AF1EE10FA20DBB7EE004A30EE044AA5
:1041D000F6EE004A24EE244A80ED034AB7EE004A88
:1041E00034EE404AF6EE004A24EE244A80ED044ABA
:1041F000B7EE004A74EE404AB6EE005AB0EE604A9E
:1042000005EE244A80ED054A53E0B7EE004A74EE0D
:10421000604AB6EE005AB0EE404A05EE244A80ED00
:10422000034AB7EE004A34EE604AF6EE004A24EE46
:10423000244A80ED044AB7EE004A30EE844AF6EE96
:10424000004A24EE244A80ED054A32E0B7EE004AE7
:10425000B4EEC41AF1EE10FA07DD80EE014AB0EEBA
:10426000440A80EE814AF0EE440AB7EE004A30EE8E
:10427000044A34EE604AF6EE004A24EE244A80ED09
:10428000034AB7EE004A34EE404A34EE604AF6EE96
:10429000004A24EE244A80ED044AB7EE004A34EE88
:1042A000404A34EE204AF6EE004A24EE244A80EDDD
:1042B000054A90ED034AF7EE004A34EEC44AF0EEA8
:1042C000442A90ED044AF7EE004A34EEC44AB0EEB8
:1042D000443A90ED054AF7EE004A34EEC44AF0EE57
:1042E000443A9FED284AF4EEC42AF1EE10FA02D2C5
:1042F0009FED244A01E0B0EE624AF0EE442A9FEDC1
:10430000214AB4EEC43AF1EE10FA02D29FED1D4AF2
:1043100001E0B0EE434AB0EE443A9FED1A4AF4EEA3
:10432000C43AF1EE10FA02D29FED164A01E0B0EE67
:10433000634AF0EE443AC18B04EE101AB8EE444AD8
:1043400024EE224ABCEEC44A14EE101A0183C18B3B
:1043500004EE101AB8EE444A24EE034ABCEEC44AF6
:1043600014EE101A4183C18B04EE101AB8EE444AC1
:1043700024EE234ABCEEC44A14EE101A818370471F
:10438000000000000AD7A33D10B52DED048B0446B4
:1043900094ED040AD4ED050A30EE600AB0EE409ABE
:1043A00094ED060A20EE090AF0EE408A94ED070A21
:1043B00020EE280AB0EE408A94ED080A30EE080A92
:1043C00084ED080A94ED080A30EE280AD4ED200A9C
:1043D00094ED1F1A00EE810A84ED110A94ED110A82
:1043E000D4ED090AB4EEE00AF1EE10FA0ADD94ED1C
:1043F000090A84ED110A94ED080A30EE480A84EDAA
:10440000080A16E094ED110AD4ED090AF1EE600AEB
:10441000B4EEE00AF1EE10FA0BD294ED090AB1EE17
:10442000400A84ED110A94ED080A30EE480A84ED42
:10443000080A2046FFF786FCBDEC048B10BD000087
:104440000149086070470000683400200549086091
:10445000096891F86B10044A12685143034A1160CD
:104460007047000064340020500B00207C0B0020BB
:1044700010B504462046FFF75FFE228B00210B4853
:1044800001F0D3FD628B0121084801F0CEFDA28B23
:104490000021074801F0C9FD0121064801F022FD75
:1044A0001021044801F01EFD10BD00000041024033
:1044B000004202400040024010B50120012181402D
:1044C0001C4A516000BF41F2707200211A4801F08D
:1044D000ACFD41F270720021184801F0A6FD41F2D6
:1044E00070720021164801F0A0FD41F270720121A6
:1044F000114801F09AFD41F2707201210F4801F05C
:1045000094FD41F2707201210D4801F08EFD0121F0
:104510000C4801F0E3FC10210A4801F0DFFC4FF4E5
:104520008071084801F0DAFC4FF48051054801F031
:10453000D5FC10BD00840248000102400002024088
:10454000000402400000024010B506204FF4803104
:1045500081400F4A516000BF41F2707200210D4846
:1045600001F063FD41F2707200210B4801F05DFD26
:1045700041F270720121074801F057FD01210748FF
:1045800001F0B0FC1021054801F0ACFC10BD0000AA
:1045900000810248004102400042024000400240C7
:1045A00010B50446FE48B0F8B40002287ED0FC489E
:1045B000FDF728FF48B3FB48008830BBF84890F867
:1045C000BA0088B1F8480068401CF7490860F44810
:1045D000D0F8A400096888421ADAF448006840F06C
:1045E0002000F249086013E0EF480068401CEE49E3
:1045F000086008460068B0F5FA4F09DDEB4800682E
:1046000040F02000E949086002E00020E649086027
:10461000E34890F8BA0048B1E5480068FCF728FE86
:104620000020E4490880E4490880EBE0E348008882
:10463000012817D1E148FDF7BDFA0020E049488183
:104640000120086100024861DC484089401C4FF6A7
:10465000FF7101EA0010DB4908802146D848FEF7C7
:1046600023FACFE0CE4890F89500002878D1D148C1
:10467000008800281EDDCF480088401CCD490880F6
:1046800008460088D0490988884212DB0020C949C1
:104690000880C34890ED380ACC4880ED0A0A2246CB
:1046A000CB49FFF789F90120BD4900E0A2E081F87C
:1046B0009500A7E0C548D0ED000A94F8670000EE29
:1046C000100AB8EE400A30EEC00AC048D0ED010A28
:1046D000B4EEE00AF1EE10FA0ED8B148B0F9B60027
:1046E000002809DDB94890ED050ADFEDBA0AB4EEFD
:1046F000E00AF1EE10FA21D9B448D0ED000A94F89E
:10470000670000EE100AB8EE400A30EE800AAF48AB
:10471000D0ED010AB4EEE00AF1EE10FA72DBA04827
:10472000B0F9B60000286DDAA84890ED050ADFED73
:10473000AA0AB4EEE00AF1EE10FA63DB94F8460040
:1047400000EE100AB8EE400ADFEDA40A20EE200ABF
:104750009E4880ED020A01209649088052E0FFE75A
:104760009A48D0ED000A94F8670000EE100AB8EEFF
:10477000400A30EEC00A9548D0ED010AB4EEE00AD6
:10478000F1EE10FA0ED88648B0F9B600002809DD1F
:104790008E4890ED050ADFED8F0AB4EEE00AF1EEE7
:1047A00010FA21D98948D0ED000A94F8670000EE8C
:1047B000100AB8EE400A30EE800A8448D0ED010AB3
:1047C000B4EEE00AF1EE10FA1CDB7548B0F9B60061
:1047D000002817DA7D4890ED050ADFED7F0AB4EE78
:1047E000E00AF1EE10FA0DDB224679497748FFF72F
:1047F000E3F807E06A4890F8BA0018B16C4800681E
:10480000FCF736FD6648406865498968401A00EE45
:10481000100AF8EEC00A94F8680000EE100AB8EE2C
:10482000401ADFED6F1AB7EE000A01EE610A20EEC2
:10483000800ABDEEC00A10EE100A59498968084482
:1048400057498860084690ED010AB8EEC00AD0EDDD
:10485000360A9FED641A60EE810AB4EEE00AF1EECA
:1048600010FA3FDD91ED360ADFED5F0A20EE200AF7
:10487000BDEEC00A10EE100A5C490968A1F5FA51B4
:104880005A4A1160514991ED010ADFED570A30EEA5
:10489000200A81ED010A564991ED000ADFED520A26
:1048A00030EE200A81ED000A484991ED210ADFED42
:1048B0004E0A30EE200A81ED210A39494968014447
:1048C000374A51604B49096801444A4A11604A49D4
:1048D00009680144484A1160314989680144304AF5
:1048E000916050E02E4890ED010AB8EEC00AD0ED7C
:1048F000360A9FED421A60EE810AB4EEE00AF1EE4C
:1049000010FA40D2014691ED360ADFED3D0A20EE65
:10491000200ABDEEC00A10EE100A3449096801F5FC
:10492000FA51324A1160294991ED010ADFED340A4A
:1049300030EE200A81ED010A2D4991ED000ADFEDEC
:10494000300A30EE200A81ED000A204991ED210A5B
:10495000DFED2B0A30EE200A81ED210A104949686B
:1049600001440F4A5160234909680144214A1160FA
:10497000214909680144204A1160094989680144B4
:10498000074A916000BF064890F8950001284CD175
:10499000034890ED340AB5EEC00AF1EE10FA31E0AA
:1049A0000C33002052340020D4340020600B00204F
:1049B00068340020D8340020560B0020280B00203B
:1049C000F43300207A0B0020780B0020540A0020DA
:1049D000E80A002000004842000048C28C4A6A3DB4
:1049E00024977F3B00401C460000FAC56C34002031
:1049F000703400204C0B0020480B002000401CC6E7
:104A00000000FA4504D290ED340AB1EE400A02E00B
:104A1000D64890ED340AD648D0ED000AF8EE600A88
:104A2000B4EEE00AF1EE10FA04D3D048B0F8B400C6
:104A3000022871D1CD4890F8BA000028F9D1CD48AC
:104A40000088401CCB49088008460088B0F5165FF6
:104A500002DB4FF416500880C6480088C649098812
:104A6000884260DBC3480088B0F5165F5BDAC34854
:104A70000088012851D19FEDC20AC24880ED0A0A80
:104A8000BD480088BB490880B848D0ED340ABE480C
:104A900090ED000AB8EEC00AF4EEC00AF1EE10FA8A
:104AA00015DDB2484068B8490968401AAF49486006
:104AB000B6480068B4490968401AB4490860B44867
:104AC0000068B1490968401AB14908602BE0A7485D
:104AD000D0ED340AAC480068404200EE100AB8EE4F
:104AE000C00AF4EEC00AF1EE10FA1CD29F484068EA
:104AF000A549096808449D494860A4480068A2493E
:104B000009680844A1490860A14800689E490968ED
:104B100008449F49086006E00BE1944890ED380A8C
:104B2000984880ED0A0A9348008842F2273188426B
:104B300019DB9048008842F22651884213DC9548E0
:104B400090ED000A9448D0ED000A30EE200A80ED86
:104B5000000A904890ED010A9048D0ED000A30EE2E
:104B6000200A80ED000A83480088B0F5AF6F09D1B4
:104B70009FED830A884880ED000A9FED810A8748EF
:104B800080ED000A7B480088B0F5165F0DDA002042
:104B9000834908809FED7A0A824880ED000A9FEDE4
:104BA000780A814880ED000AD4E0704890ED340A1C
:104BB000B5EEC00AF1EE10FA04D290ED340AB1EE6F
:104BC000400A02E0694890ED340A6948D0ED000AD5
:104BD000F8EE600AB4EEE00AF1EE10FA02DD002011
:104BE000644908806E480088401C6D49088065480B
:104BF00090ED0B0A6B48D0ED000A30EE200A80EDF4
:104C0000000A604890ED120A6748D0ED000A30EEC5
:104C1000200A80ED000A08460088802874DB61487D
:104C200090ED000ADFED610A20EE200A80ED000A17
:104C30005D4890ED000ADFED5D0A20EE200A80ED70
:104C4000000A504890ED0A0A5648D0ED000A30EEAE
:104C5000600AB5EEC00AF1EE10FA0AD2494890EDAA
:104C60000A0AB1EE400A4F48D0ED000A30EE600A61
:104C700007E0444890ED0A0A4A48D0ED000A30EEB9
:104C8000600A4B48D0ED000AB4EEE00AF1EE10FAEB
:104C900002DB0020374908803A4890ED110A42486B
:104CA000D0ED000A30EE600AB5EEC00AF1EE10FA5F
:104CB0000AD2344890ED110AB1EE400A3A48D0EDDC
:104CC000000A30EE600A07E02E4890ED110A3648DF
:104CD000D0ED000A30EE600A3548D0ED000AB4EE9F
:104CE000E00AF1EE10FA02DB0020224908800020E1
:104CF0002B4908809FED220A2A4880ED000A9FED8B
:104D0000200A294880ED000A234890ED000ADFEDD3
:104D1000290A20EE200A1F4880ED000A1F4890ED66
:104D2000000ADFED240A20EE200A1A4880ED010A6D
:104D300010E00020204908600E49088018490880CA
:104D40009FED0F0A174880ED000A9FED0D0A1648E7
:104D500080ED000A07480088B0F5165F04DA0D4AB6
:104D600008490248FEF7C2FE10BD00000C330020C7
:104D70007C0B0020560B0020780B002052340020C2
:104D800000000000540A0020500B00204C0B0020B3
:104D9000480B0020300A0020DC340020E0340020E2
:104DA000F0340020E8340020EC3400202497FF3B4E
:104DB000E43400206F12033B5C0B002010B5044666
:104DC0002046FEF767F934F8522F00210D4801F014
:104DD0002CF9628800210C4801F027F9A288523C86
:104DE00000210A4801F021F90121094801F076F873
:104DF0001021074801F072F84FF48051044801F087
:104E00006DF810BD000402400002024000010240A3
:104E10000000024010B570E003213A4801F0C1FCE7
:104E200001280AD138480088401C374908800846C4
:104E30000088642804D1012460E000203249088001
:104E400032480088642807DD09212E4801F0A9FCBA
:104E5000012801D1032451E02C480088652804DA98
:104E60002A480088401C294908800821254801F06B
:104E700098FC50B926480088401C254908800846FF
:104E80000088642801D1042438E00321214801F07E
:104E900088FC58B920480088401C1F4908800846F3
:104EA0000088B0F57A7F01D1052427E01B480078FF
:104EB000C0F3C00088B10721124801F072FC01283C
:104EC0000BD117480088401C154908800846008807
:104ED000B0F5FA7F01D1062410E010480078C0F345
:104EE000800040B10C210F4801F05BFC08B9072499
:104EF00004E0002402E0002400E08DE700BF20462B
:104F000010BD000000800248D8040020DE0400200C
:104F1000D6040020008F0248DA040020E2040020BA
:104F2000E0040020008E024810B57848006800F0C8
:104F3000010070B97548001D006840F00100744917
:104F4000C1F8040200BF7148006800F001000028A9
:104F5000F9D07048006800F4007058B16D4808300E
:104F6000006840F400706B490831086041F64C500D
:104F700005F0A0FF6848006840F40020664908601A
:104F800040F6C41005F096FF634800686349084086
:104F90006149086060481038006800F0300060B374
:104FA0005D48103800685E4908405B491039086068
:104FB000FCF7C8FF5B49B0FBF1F0401E56491039C1
:104FC000096841EA004054491039086052480830E5
:104FD000006820F001005049083108604E48006820
:104FE00020F400304C49086000BF4B48001F0068A7
:104FF00000F46070B0F5607FF7D14748006840F07A
:105000000100454908600846006840F0100008604B
:105010004548091D0860081F006840F04000091F4E
:1050200008600846006820F0100008600846006824
:1050300040F48020086000BF3748001F006800F07F
:1050400004000028F8D03448006820F001003249FC
:10505000086000BF3048001F006800F00100002811
:10506000F8D13248006840F48030304908600020B0
:105070002E4908310860091F08602C491431086066
:10508000091D0860032029490C3108602248006886
:1050900020F04000204908602548091D086040F6BE
:1050A000B83005F007FF00BF1B48001F006800F084
:1050B00004000028F8D01F481749091D086041F274
:1050C000941005F0F7FE00BF1348001F006800F0C1
:1050D00004000028F8D018480F49091D086041F263
:1050E000707005F0E7FE00BF0B48001F006800F07D
:1050F00004000028F8D005200449943908600020F5
:105100000A490839086000F019F810BD0042005043
:10511000004000500044005014470050FDFFFEFFC7
:10512000CFFFF0FFA0252600003B13010C460050E6
:10513000003B0701003B0401003B030170B524491B
:10514000096801F4803181B32249096801F0010145
:1051500009B1214801E0FCF7F5FE1E490C39096848
:1051600001F00401C1B11B49091F0968C1F30361C2
:105170004E1C1849091F0968C1F306214D1C154929
:10518000091F0968C1F306414C1C16FB04F1B0FB72
:10519000F1F101FB05F00AE00E49091F096801F071
:1051A0007F014C1CB0FBF4F001E0FFE70A4808491E
:1051B0000968C9B2491CB0FBF1F00549091D09682D
:1051C00001F00101491CB0FBF1F00449086070BD19
:1051D0000C4600501C47005000366E01C0FF0020F6
:1051E00072B61249124A116000BF00BF00BFBFF380
:1051F0004F8F00BF00BF00BF62B60D498031096804
:1052000041F470010A4A8032116009490C31096881
:1052100021F00801064A0C3211600649486920F065
:105220000F0040F0030048617047000000000008D4
:1052300008ED00E00020005810B510225106064885
:10524000FBF744F90548064B0ECB0EC0FFF7C8FF2D
:10525000FFF76AFE10BD0000C4FF0020D4FF00204D
:105260008400002010B50446FDF7EEFC02F0ECF9D6
:1052700002F080FAFEF79EFAA06900F0D5F9E06925
:1052800003F0FAF9D4E9041002F08CFBD4E9001021
:1052900003F0FAF8D4E9021002F018FDFDF7CEF899
:1052A00004210A4801F0FCFA0121094801F0F8FA4A
:1052B0000621084801F0F4FA042001218140034A44
:1052C000516000BF02F0C8F910BD00000083024821
:1052D000008402480081024810B540F2145410487E
:1052E000008810490988884214D001200E490870AE
:1052F0000B4802880088401C094B18800B48815CD1
:105300000B4801F0A8FE00BF201EA4F101018CB2E1
:10531000FAD104E0FDF792F800200349087010BDAF
:1053200004050020060500200C050020D6A700205B
:105330000000034010B5144801F046FEC4B2134803
:10534000007838B95A2C05D1002011490880012075
:105350000E4908700E480088B0F5967F08DA0C48B0
:1053600001880088401C0A4A10800A4844540AE018
:10537000002007490880084601880088401C044A2C
:1053800010800448445410BD000003403A0300203C
:105390000A05002003A900207047704770470000ED
:1053A00010B5044801F010FEC4B22146014801F0D6
:1053B00052FE10BD0000024810B5FCF775FD40001C
:1053C00004B21348007801280CDB11480078142837
:1053D00008DA002002F048F90D480078401C0C491A
:1053E000087014E00A48007815280DDB084800789A
:1053F0001E2809DA40F6FF7002F036F904480078FA
:10540000401C0349087002E0A0B202F02DF910BD63
:10541000240300207047000010B500216A4801F005
:10542000AEFFC0F30B00694908800021684801F015
:10543000A6FFC0F30B00674908800021664801F011
:105440009EFFC0F30B00654908800021644801F00D
:1054500096FFC0F30B006349088001215A4801F010
:105460008EFFC0F30B00604908800221564801F00E
:1054700086FFC0F30B005D49088054480088A0F502
:10548000006000EE100AB8EEC00A5948D0ED000ADC
:10549000F1EE600A20EE200A564880ED0C0A4D48D5
:1054A0000088A0F5006000EE100AB8EEC00A50486F
:1054B000D0ED000AF1EE600A20EE200A4D4880EDA2
:1054C000130A46480088A0F5F96000EE100AB8EE0D
:1054D000C00A4948D0ED000AF1EE600A20EE200A29
:1054E000464880ED0F0A3F480088A0F5FB6000EEBB
:1054F000100AB8EEC00A4048D0ED000A20EE200A9B
:105500003E4880ED100AFCF711FA01213C4800F0FA
:1055100059FC00F480103B4908603948703000683D
:105520004EF6602188420DD900BF0220344908613F
:1055300000BF9FED350A354880ED000A012034494F
:10554000088030E02F48006868B33148008840B1D7
:105550009FED2D0A2D4880ED000A00202C4908807F
:1055600021E00121264800F02DFC2A49088000BFD7
:105570002948006EC0F30020012801DA012001E073
:105580004FF0FF302549484300EE100AF8EEC00AFC
:105590002048008800EE100AB8EE400A80EE801A1B
:1055A0001A4880ED001A194890ED000A1C4880ED59
:1055B000000A0CF041F8FEF797F900BF01201949E5
:1055C000086000BF10BD00000044004098080020A3
:1055D000005000409A080020004C00409408002031
:1055E00000480040960800209C0800209E080020EB
:1055F000A4080020540A0020A0080020CC080020A5
:1056000000C40040C808002000000000A8080020D6
:10561000BC080020C2080020008002406889090000
:10562000B80800209845004010B56B494FF0402065
:1056300001F032FE69496A4801F0A8FE67496948ED
:1056400001F0A4FE6549684801F0A0FE634967487F
:1056500001F09CFE6649624801F01FFF6549614800
:1056600001F01BFF6449604801F017FF63495F4880
:1056700001F013FF624A0221594801F045FE614AD8
:105680000321574801F040FE5F4A0421544801F0CD
:105690003BFE5E4A0721534801F036FE5C4A022178
:1056A000514801F031FE5B4A0021504801F02CFEC8
:1056B000594A00214A4801F034FF574A012148481D
:1056C00001F02FFF544A0221454801F02AFF524AB7
:1056D0000021444801F025FF4F4A0021424801F0D3
:1056E00020FF4D4A0021414801F01BFF12204B4A88
:1056F0005178002804DB8A06130E494A135406E049
:105700008A06140E474A00F00F031B1FD45400BF33
:105710000021334801F0FCFE1220002809DB00F0D4
:105720001F02012191404209920002F1E022C2F8D9
:10573000001100BF03212A4801F0FAFE0321294885
:1057400001F0F6FE0321284801F0F2FE032127486C
:1057500001F0EEFE4FF0402001F0B8FD3248016844
:105760001F4801F0D0FE314801681D4801F0CBFE12
:105770002F4801681A4801F0C6FE2E4801681948F2
:1057800001F0C1FE2C480168174801F0BCFE2B480F
:105790000168164801F0B7FE294A0221294801F0A4
:1057A0001FF8274A0321274801F01AF8244A042148
:1057B000244801F015F8224A0F21224801F010F880
:1057C0001F4A0221204801F00BF81D4A08211E48FB
:1057D00001F006F810BD0000180600203006002079
:1057E0000044004000480040004C00400050004091
:1057F00044060020500600205C06002068060020B9
:10580000740600208406002094060020A4060020D0
:10581000B4060020C4060020D4060020080700209B
:1058200000E400E018ED00E0D8060020DC060020CF
:10583000E0060020E4060020E8060020EC06002038
:10584000F0060020008E0248008F024870B50B461B
:1058500000BF00BFD0F8C41101F4407109B90121A3
:1058600000E000210029F4D002215D1CECB24FF4CD
:105870007F0505EA02450D434FF07F4606EA0466C0
:105880003543C0F8C45100BF70BD000010B50446D8
:10589000084801F09BFA074801F0F6FA206820F06A
:1058A0000100206000BF206800F002000028FAD14B
:1058B00010BD0000100000102DE9F04F85B0044627
:1058C0000D4601F0B9F880462046FFF7DFFF0020C3
:1058D000B8FBF5F2C2F58061884201D9024600E0CA
:1058E0000A46934640F2FF3158460AF013FE8146BD
:1058F000C9F58060B8FBF0F00490A80901904FEA68
:10590000981701988002B0FBF7FB40F2FF31584630
:105910000AF000FE064607FB06F0800A0390039893
:10592000800103900498291A0398281A814201D80B
:10593000012000E000208246BAF1000F01D0484665
:1059400000E030460290BAF1000F01D0012000E0E3
:1059500002200090E0684CF2FF318843E060E1688B
:10596000029A009842EA80300143E16005B0BDE848
:10597000F08F0000F0B504462A492068401AA0F5CF
:10598000805046097009400306F01F0140EA0127D4
:105990002068806820F47F402168886020688068E3
:1059A0003843216888606068C0F3407020B1606847
:1059B000C0F34070002834D0207E10B1207E012832
:1059C0002FD120202168C8616068C0F3407080B981
:1059D000656805F06045A08845EA804520688561D6
:1059E000A56805F06045208945EA80452068C560C6
:1059F00005E0D4E9001088612168A068C860207EB5
:105A0000012807D1204600F023F84FF000602168FC
:105A1000C86103E04FF400602168C8610248216852
:105A2000C861F0BD004001484000A006026812684D
:105A30000A4303681A60704710B503689B6807241F
:105A40008C40A34302FA01F423430468A36010BD11
:105A5000014603200A7E012A14D120220B68DA6154
:105A60000B7B0A68126863F31B620B681A600B6891
:105A70000A691A610B684A695A61034A0B68DA615C
:105A8000002000E00320704740002800B1F5800F9F
:105A900003D002680A43026002E082690A4382611D
:105AA00070472DE9F84F02460C250C264FF0000AEE
:105AB0004FF0010800200090814642F21077012546
:105AC00044E0D1F800B00BEB8B0B4FEA4B0BBBFB68
:105AD000F5FCD1F804B0BCFBFBF04FF00A0BB0FBB7
